:020000022000DC
:10600000000001203D6202009562020097620200DA
:10601000996202009B6202009D6202000000000083
:106020000000000000000000000000009F6202006D
:10603000A162020000000000A3620200A56202004B
:1060400035A80200AB62020091B50200AF62020007
:10605000B1620200B3620200B1B20200B762020094
:10606000B9620200BB620200BD620200BF620200B0
:10607000C1620200C3620200C5620200C762020080
:10608000C962020099840200CD620200CF62020060
:10609000D9840200D36202008DD20200D7620200CE
:1060A000D9620200DB620200DD620200DF620200F0
:1060B000E1620200E3620200A7620200A76202003E
:1060C000E5620200E7620200E9620200EB620200A0
:0C60D000ED620200EF620200F1620200CB
:1060DC00364937480A1A02D0072291438D46354972
:1060EC0035480A1A06D00722914381F30988022207
:1060FC0082F3148831483249324A00F045F832486C
:10610C003249334A00F040F832483349334A00F000
:10611C003BF833483349344A00F036F833483449B5
:10612C00344A00F031F834483449354A00F02CF840
:10613C0034483549354A00F027F8354835490022AE
:10614C0000F02DF834483549002200F028F8344886
:10615C003449091A082903DB00220260043001606B
:10616C00314A90471F482049884205D002680430C4
:10617C0003B4904703BCF7E700208646EC460020AA
:10618C0000212A4A9047FEE7884207D0521A05D0D0
:10619C00037801300B700131013AF9D17047884214
:1061AC0002D002700130FAE77047000000000120B5
:1061BC0000E000200000012000000120F0EF0200B0
:1061CC00D818002060190020F4620200F46202006A
:1061DC00B8D90200F0EF0200D8180020D81800201F
:1061EC0080DA020080DA020080DA020080DA020033
:1061FC0080DA020080DA020080DA020080DA020023
:10620C00F0EF020078F00200601900206019002005
:10621C0060190020FC230020FC230020FC2300201C
:10622C00FC230020FC4300206162020039C0020004
:10623C000F484FF00701884385460E4880470E48AB
:10624C00016841F470010160BFF34F8FBFF36F8F92
:10625C00FFF73EBF09480A490A4A884207D0521A3A
:10626C0005D0037801300B700131013AF9D1704738
:10627C0000000120D598020088ED00E050DA020001
:10628C00A8180020D8180020FEE7FEE7FEE7FEE77E
:10629C00FEE7FEE7FEE7FEE7FEE7FEE7FEE7FEE7CA
:1062AC00FEE7FEE7FEE7FEE7FEE7FEE7FEE7FEE7BA
:1062BC00FEE7FEE7FEE7FEE7FEE7FEE7FEE7FEE7AA
:1062CC00FEE7FEE7FEE7FEE7FEE7FEE7FEE7FEE79A
:1062DC00FEE7FEE7FEE7FEE7FEE7FEE7FEE7FEE78A
:0862EC00FEE7FEE7FEE700BF3C
:1062F40000B585B00190019B002B0AD0074B43F0F9
:1063040001030393019B9B010293039B029898470B
:1063140000E000BF05B05DF804FB00BF90DA0200A6
:1063240000B583B00190019B002B0AD04FF47A7022
:10633400FFF7DEFF019B013B0193019B002BF5D18D
:1063440000E000BF03B05DF804FB08B505F0E4FF0E
:1063540000BF08BD00B589B0039002910192019B72
:10636400002B33D00023079303230693029A079B41
:106374001344019A1946002005F080FF0590079AFE
:10638400059B13440793019A059BD31A0193059B1C
:10639400002B13D10F4B1B7883F00103DBB2002BCE
:1063A40013D10120FFF7BCFF069B013B0693069B1C
:1063B400002B03D1074B00221A7007E0054B012282
:1063C4001A70019B002BD1D100E000BF00BF09B0BF
:1063D4005DF804FB6019002000B585B003900291BC
:1063E400054B00934023054A0299039800F012F8E4
:1063F40000BF05B05DF804FB596302006419002076
:1064040082B0019000BF02B0704782B0019000BF1B
:1064140002B0704700B5A1B00590049103920293B5
:10642400049803F02EF8039B1593029B1693002304
:10643400179300238DF8603000231993229B1A933D
:1064440000231F930FA91F9B0822049803F0D4F87C
:1064540008231F93119B1293BDF84030ADF84C30C4
:10646400BDF84230ADF84E3000238DF851309DF820
:106474003C3003F00303DBB2012B26D10F9BC3F3A3
:1064840095231D939DF83C30C3F3C203DBB28DF812
:106494005030BDF83C30C3F38313DBB21C931C9B18
:1064A4009A0009A91F9B049803F0A6F81C9B9B0063
:1064B4001F9A13441F9312AA09A915AB00931346FC
:1064C4001C9A1D9800F000FF2FE09DF83C3003F06B
:1064D4000303DBB2022B28D1BDF83E30C3F389138A
:1064E4009BB21E939DF83C30C3F3C203DBB28DF81C
:1064F40050301E9B082B28BF08231B9307A91F9B02
:106504001B9A049803F078F81F9A1B9B13441F935B
:106514001E9A1B9BD31A1E9315AB12AA07A81B998C
:1065240000F074FF1E9B002BE3D1049802F0B8FF27
:1065340000BF21B05DF804FB82B00190019B0122F1
:106544005A7200BF02B0704700B583B04FF0FF33FA
:106554000193FFF7FAFE0421084800F0D5FD0190ED
:10656400019B002B03DA0649412005F021FC034876
:10657400FFF7E2FF00BF03B05DF804FBD81800206A
:1065840098DA020000B583B001900091019B1B686A
:106594001B6800990198984700BF03B05DF804FB9D
:1065A40000B583B00190019B1B685B680198984714
:1065B40000BF03B05DF804FB00B583B00190019BFC
:1065C4001B689B680198984700BF03B05DF804FB03
:1065D40082B001900B468DF80330019B9DF8032097
:1065E4001A7200BF02B0704782B00190019B1B7AFF
:1065F400184602B0704782B00190019B01225A7282
:1066040000BF02B0704782B00190019B5B7A1846CC
:1066140002B0704700B587B0019000911D4BFF2276
:106624009A601C4B00221A601A4B00225A60194BC4
:106634000022C3F81824174B0022C3F81424154B66
:10664400002283F82024144802F080FE0490049B66
:10665400002B01D0049B18E0104A114BD31ADB081D
:106664000393002305930BE0059B9B000D4A134401
:106674000293059B9AB2029B1A80059B01330593F2
:10668400059A039B9A42EFD30023184607B05DF89E
:1066940004FB00BF741A002020DA020020DA020092
:1066A400C0D90200A8180020024A034BD31ADB0801
:1066B4001846704720DA0200C0D9020000B587B03E
:1066C40001900B468DF803309DF80330002B1FD04A
:1066D400FFF7EAFF04900023059313E0059B9B005A
:1066E4000E4A13440393039B5B881A46019B1B6861
:1066F4009A4204D1019B059A1A60002309E0059B84
:1067040001330593059A049B9A42E7D3052300E0DD
:106714000023184607B05DF804FB00BFA81800204A
:1067240000B585B001900B468DF803309DF8032029
:1067340001AB11461846FFF7C1FF0346002B07D1F2
:10674400019BDB00054A13440393039B1B6800E091
:106754000023184605B05DF804FB00BFC0D9020051
:1067640084B001900B468DF80330019BDB00174A7F
:10677400134402939DF80330013B032B1CD801A260
:1067840052F823F099670200A1670200A96702008A
:10679400B367020002238DF80F3011E004238DF853
:1067A4000F300DE0029B1B798DF80F3008E0029B3F
:1067B4005B798DF80F3003E000238DF80F3000BFB4
:1067C4009DF80F30184604B0704700BFC0D90200CE
:1067D40000B585B00190009100238DF80F30019B26
:1067E4001B7803F00303DBB2002B06D0019B1B785C
:1067F40003F00403DBB2002B44D0019B1B7803F0AD
:106804000403DBB2002B28D0019B1B78C3F30103E4
:10681400DBB2012B02D0022B0CD017E0009B1B68CB
:10682400019A1288C2F38312D2B213449A1C009BB9
:106834001A6024E0009B1B68019A5288C2F38912F3
:1068440092B213449A1C009B1A6018E010494FF44A
:10685400A47005F0ADFA00BF11E0009B1A68019B1B
:106864005B88C3F389139BB21946019B1B88C3F34E
:1068740089139BB20B4413445A1C009B1A600123D6
:106884008DF80F309DF80F30184605B05DF804FB05
:1068940010DB020000B58BB00023ADF826303E4873
:1068A40002F00CF83D4802F009F83D4B5B68049394
:1068B4003B4B9B680693049A069B134002339B0050
:1068C400374A13440433089304AB19460898FFF776
:1068D4007FFF0346002B09D0049A069B1340023322
:1068E4009B002F4A134404330893EDE700BF0023B1
:1068F400079311E0079B9B0001AA1A44049B591CAF
:10690400049106990B40264902339B000B445B68B3
:106914001360079B01330793079B012BEAD99DF86A
:106924000430C3F30103DBB2012B10D0022B1CD1C2
:10693400BDF80A30ADF82630BDF80630C3F389132C
:106944009BB203339A08049B1344049313E0BDF8E9
:106954000A30ADF82630BDF80430C3F38313DBB23C
:106964001A46049B1344049305E00E494FF4C27085
:1069740005F01EFA00BF094801F0ACFF0590059B25
:10698400002B02D0049B064A5360BDF826301846FB
:106994000BB05DF804FB00BF8C1E0020881E002095
:1069A400741A002010DB020000B585B000210748EE
:1069B40001F00DFF0390039B0293029B83F31003EA
:1069C4000193019B184605B05DF804FB901E00205E
:1069D40000B589B00390029101920093039B1B0CB4
:1069E4000793FFF7E1FF0690FFF75EFE0246079B61
:1069F4009A4204D8224940F2A91005F0D9F9009B23
:106A04005A1C0A9B1340069A1104079A0A431D490B
:106A140002339B000B445A60009A0A9B13400233D2
:106A24009B00184A134404330593039BDBB203F021
:106A34000703D9B2059A137861F3C5031370019B58
:106A4400DBB203F00F03D9B2059A138861F38913FB
:106A54001380029BC3F31501059A136861F39F2306
:106A64001360059A1378012161F301031370059AE9
:106A740013786FF38203137000BF09B05DF804FB51
:106A840010DB0200741A002000B58DB0039002914F
:106A940013468DF80730039B02330A9301238DF8C4
:106AA400273000238DF81B300DF11B03184601F02D
:106AB40041FE414B1A68029B1A603F4B9A683E4B59
:106AC40059683D4B1B68CB1A134401330B9314E0F4
:106AD40001213A4801F0C2FEFFF7DCFE0890089954
:106AE400364801F0BBFE344B9A68334B5968324B3D
:106AF4001B68CB1A134401330B930A9A0B9B9A42DB
:106B0400E6D89DF82730002B4AD0002305939DF842
:106B14000730002B18D09DF81430012262F30103D2
:106B24008DF814309DF8143043F004038DF81430BC
:106B3400039BDBB203F00F03DAB2BDF8143062F347
:106B44008913ADF8143017E09DF81430022262F373
:106B540001038DF814309DF8143043F004038DF8CC
:106B64001430039B9BB2C3F309039AB2BDF81630E9
:106B740062F38F13ADF816300F4B1A680E4B9B68F7
:106B8400134002339B000C4A134404330793059AC1
:106B9400079B1A60084B1A680A9B1344064A136041
:106BA4009DF81B30184601F0DBFD9DF82730184690
:106BB4000DB05DF804FB00BF741A0020901E002085
:106BC40000B58BB005900491039202931F4B9B6810
:106BD400079306AB012219460298FFF755FF0346B7
:106BE400002B24D0069B023309930023089311E061
:106BF400099B5A1C0992079A1340089A9200039918
:106C04000A441268114902339B000B445A60089BE2
:106C140001330893089A029B9A42E9D3069A079B88
:106C240000931346029A04990598FFF7D1FE074B87
:106C340093F82034002B05D000BF00F065F803461C
:106C4400002BFAD100BF0BB05DF804FB741A0020CE
:106C540000B583B0019000910023002200990198AF
:106C6400FFF7AEFF00BF03B05DF804FB00B587B0CB
:106C7400039002910192019B059305AA01230299B5
:106C84000398FFF79DFF00BF07B05DF804FB00B554
:106C940087B00390029101920093019B0493009B9F
:106CA400059304AA022302990398FFF789FF00BF02
:106CB40007B05DF804FB00B58BB00390029101921C
:106CC4000093019B0593009B06930C9B07930D9BDC
:106CD40008930E9B099305AA052302990398FFF7CD
:106CE4006FFF00BF0BB05DF804FB0000054B5A6852
:106CF400044B1B689A420CBF01230023DBB21846E5
:106D0400704700BF741A002000B599B0FFF7EEFF7A
:106D14000346002B01D00023B8E19A4B0022C3F8AC
:106D24001824BFF34F8F974B5B680493954B9B6874
:106D34001093049A109B134002339B00914A13440E
:106D440004331793002316930023159300230F9302
:106D540004AB19461798FFF73BFD0346002B14D0EC
:106D6400884B1A68049B9A4205D8864B1B68854A4F
:106D7400536000238AE1049A109B134002339B0062
:106D8400804A134404331793E2E700BF00231493AB
:106D940011E0149B9B0001AA1A44049B591C049102
:106DA40010990B40774902339B000B445B681360D6
:106DB400149B01331493149B012BEAD99DF80430DE
:106DC40003F00303DBB2022B40F09C80BDF80630D5
:106DD400C3F389139BB20E93BDF80630C3F3891332
:106DE4009BB2502BA8BF50230D930D9B9BB2C3F3B2
:106DF40009039AB2BDF8063062F38F13ADF806307A
:106E04000D9B08330C939DF80430C3F3C203DBB22B
:106E14000F930C995C4802F0A4FA1690169B002B71
:106E240000F0D480169802F02CFB01A9159B0822CF
:106E3400169802F0CFFB159B08331593049BDA4395
:106E4400109B134001339B000B930D9A0B9B9A42AA
:106E540042D90B9B002B08D0049A109B1340023399
:106E64009B00484A1344043300E0484B0A930B9BAD
:106E7400002B02D00B9BDBB201E00D9BDBB28DF843
:106E840027300B9B002B01D0404B00E000230893DC
:106E94000B9B002B06D00D9BDAB20B9BDBB2D31AF3
:106EA400DBB200E000238DF81F309DF82720159BEE
:106EB4000A99169802F08EFB9DF82730159A134410
:106EC4001593089B002B16D09DF81F20159B08993D
:106ED400169802F07FFB0EE0049A109B13400233D5
:106EE4009B00284A134404330693159B0D9A069974
:106EF400169802F06FFB0E9B03339A08049B13440D
:106F0400049363E09DF8043003F00303DBB2012B28
:106F14005CD1BDF80430C3F38313DBB2062B28BF66
:106F24000623DBB203F00F03DAB2BDF8043062F3D8
:106F34008913ADF80430BDF80430C3F38313DBB216
:106F4400023305939DF80430C3F3C203DBB20F93FD
:106F5400059B9B0019460C4802F003FA1690169BF9
:106F6400002B33D0169802F08CFA01A9159B082245
:106F7400169802F02FFB159B0833159300231493E6
:106F84001BE000BF741A002020DA0200801A0020DF
:106F9400049B5A1C0492109A134002339B003D4AEE
:106FA4001344191D159B0422169802F013FB159B1C
:106FB40004331593149B01331493BDF80430C3F3C5
:106FC4008313DBB21A46149B9A42E1D8169B002B1A
:106FD4003FD0304BD3F8103413932E4BD3F81834DE
:106FE400002B1AD0169802F05BFA49E000238DF8C2
:106FF4004B301398FFF707FB0346002B02D0012305
:107004008DF84B309DF84B30002B03D01699139814
:10701400FFF7B8FA139B5B681393139B002BE5D11E
:10702400169802F03DFA00238DF803300DF10303A6
:10703400184601F07FFB174BD3F81834002B02D10C
:10704400049B144A53609DF80330184601F088FBF2
:1070540016E0104BD3F81034119305E01198FFF7A4
:10706400ABFA119B5B681193119B002BF6D10A4B71
:107074001B881B0443F0020308491846FFF7E8FD88
:10708400FFF734FE034683F00103DBB2184619B060
:107094005DF804FB741A0020BC18002068DB0200B1
:1070A40000B585B00023039322E0164BD3F81034C7
:1070B400029301238DF807300EE00298FFF794FA4B
:1070C40003461A46039B9A4203D100238DF80730E6
:1070D40005E0029B5B680293029B002BEDD19DF8B7
:1070E4000730002B01D0039B07E0039B013303937C
:1070F400039B092BD9DD4FF0FF33184605B05DF82B
:1071040004FB00BF741A002000B585B001900B4643
:107114008DF80330FFF7C4FF0390039BB3F1FF3FE7
:1071240001D1039B1EE0039BDBB219460198FFF7D4
:107134004FFA0E4BD3F81034002B07D10B4A019BA6
:10714400C2F81034019B00225A600AE0074BD3F8BE
:1071540010345A68019B5A60044BD3F81034019AD6
:107164005A60039B184605B05DF804FB741A0020AE
:1071740000B583B00C4BD3F8103401930A4B0122B1
:1071840083F8202408E00198FFF735FA0198FFF707
:1071940007FA019B5B680193019B002BF3D100BFAD
:1071A40003B05DF804FB00BF741A002082B00190A4
:1071B400009100BF02B0704710B584B003900291F3
:1071C400039BDB88002B0AD0039BDB881A461F4BEA
:1071D400009313461E4A1F49029801F0B9FC039B11
:1071E4001B7A052B2ED0039B5B7A002B12D0039BBA
:1071F4009B881A46039B1B7A19461046FFF7B0FA80
:1072040003461A46144B53F822301A46134902987F
:1072140001F09EFC039B1B6819460298FFF7C6FF0A
:10722400039B1B7A1A460E4B53F82240039B9B8800
:1072340000211846FFF774FA0346224609490298CA
:1072440001F086FC00BF04B010BD00BF9CDB02004F
:10725400ACDB0200E4DB0200F8180020FCDB0200D7
:10726400E418002000DC020000B585B00390029110
:1072740013468DF80730039B1B7A052B0FD0039B15
:107284005B7A002B06D00D4B1B681A460C490298FA
:1072940001F05EFC0B49029801F05AFC07E09DF8EE
:1072A4000730002B03D00749029801F051FC0298E3
:1072B40001F02CFC00BF05B05DF804FBF8180020B9
:1072C400FCDB02000CDC020030B58BB007900691A9
:1072D400059204930E9B1B7B8DF827300E9B002296
:1072E4001A730E990498FFF767FF059B062B7FD846
:1072F40001A252F823F000BF1973020023730200A5
:107304003373020047730200657302008D73020039
:10731400BD73020007990E9801F01AFC69E0069B00
:107324001B681A4607990E9801F012FC61E0069B4F
:107334001A68069B04331B6807990E9801F008FC31
:1073440057E0069B1A68069B04331968069B0833AA
:107354001B6800930B4607990E9801F0F9FB48E06F
:10736400069B1968069B04331868069B08331B6840
:10737400069A0C3212680192009303460A46079952
:107384000E9801F0E5FB34E0069B1868069B043375
:107394001C68069B08331B68069A0C32126806990F
:1073A400103109680291019200932346024607991D
:1073B4000E9801F0CDFB1CE0069B1C68069B043371
:1073C4001D68069B08331B68069A0C3212680699DE
:1073D40010310968069814300068039002910192F4
:1073E40000932B46224607990E9801F0B1FB00E06A
:1073F40000BF00220E990498FFF736FF0E9B9DF8FC
:1074040027201A7300BF0BB030BD00BF00B587B092
:107414000390029101920093029B082B5CD8009B7D
:107424001B7B8DF81330009B00221A73009901987E
:10743400FFF7C2FE0023059314E0059A029B9A42CB
:1074440009D2039A059B13441B781A4624490098D1
:1074540001F07EFB03E02349009801F079FB059BD2
:1074640001330593059B072BE7D91F49009801F0C9
:107474006FFB0023059322E0059A029B9A4217D2E0
:10748400039A059B13441B788DF812309DF8123033
:10749400184606F0D9F90346002B02D09DF81230A5
:1074A40000E02E231A461149009801F051FB03E035
:1074B4000F49009801F04CFB059B01330593059B94
:1074C400072BD9D9012200990198FFF7CDFE009B23
:1074D4009DF813201A7300E000BF07B05DF804FBA9
:1074E40010DC020018DC02001CDC020020DC0200BC
:1074F40024DC02002DE9F04F89B0019000238DF8BF
:107504001F3098E0514B1A689DF81F30DB0013447C
:107514000693069B1B7819464FF001024FF00003B7
:10752400A1F1200EC1F1200003FA01F902FA0EFEC6
:1075340049EA0E0922FA00F049EA000902FA01F8C0
:10754400CDE90489424BD3E90001DDE9042302EAD1
:10755400000203EA0103134368D0DDE904236FEA60
:1075640002006FEA03013A4BD3E9002302EA000266
:1075740003EA01033649C1E90023069B1B78184638
:1075840003F07AFE03468DF80F30069B1B781946EC
:107594004FF001024FF00003A1F1200EC1F12000D1
:1075A40003FA01F502FA0EFE45EA0E0522FA00F08E
:1075B400054302FA01F4274BD3E9002304EA020A43
:1075C40005EA030B9DF80F204FF000030699097894
:1075D400A1F1200EC1F1200003FA01F702FA0EFE18
:1075E40047EA0E0722FA00F0074302FA01F6BB4508
:1075F40008BFB2451AD19DF80F30069A5278012A75
:107604000CBF01220022D2B293420CBF01230023FB
:10761400DBB20293069B5B68002B07D0069B5B687A
:10762400069A12780299C9B2104698479DF81F30FD
:1076340001338DF81F30084B1B789DF81F209A42A8
:10764400FFF460AF00BF09B0BDE8F08F981E0020C2
:10765400D01E0020C81E00209C1E002070B586B0DD
:1076640001900A468DF803204FF001014FF000020B
:107674000198A0F12006C0F1200502FA00F401FAF5
:1076840006F6344321FA05F52C4301FA00F3CDE95B
:1076940004342F4B184600F0B9FF0390039B002BD2
:1076A40053D12C4BD3E90012DDE9043403EA01037E
:1076B40004EA0204234337D1019803F0DDFD0346B5
:1076C400002B0CD0244BD3E90012DDE9043443EA47
:1076D400010344EA0204204AC2E900340FE0DDE970
:1076E40004346FEA03016FEA04021B4BD3E900344C
:1076F40003EA010304EA0204174AC2E90034154B01
:10770400D3E90012DDE9043443EA010344EA020444
:10771400104AC2E900340E48104B1B680022194677
:1077240000F042FF039011E0DDE904346FEA030145
:107734006FEA0402074BD3E9003403EA010304EAC5
:107744000204044AC2E9003400E000BF06B070BD80
:10775400A41E0020D01E0020C81E0020A01E002051
:1077640010B58AB003900B4601928DF80B30019B43
:10777400042B01D807235AE003F070FC034683F07E
:107784000103DBB2002B09D003F016FC0990099B1E
:107794000893089B002B01D0089B48E0254A039BD3
:1077A4001360254A9DF80B301370244A019B136023
:1077B400234A4FF000034FF00004C2E90034214A89
:1077C4004FF000034FF00004C2E9003422E09DF8BA
:1077D4000B30DB00039A1344079305AB00210A46E0
:1077E4001A800A469A7003238DF81430079B9B78FD
:1077F4008DF81530079B1B78184605AB124A1946BD
:1078040003F038FC0990099B0693069B002B01D0DA
:10781400069B0CE09DF80B305A1E8DF80B20002BB4
:10782400D5D10A4A00210A4800F08EFE03461846C4
:107834000AB010BD981E00209C1E0020A01E00202F
:10784400C81E0020D01E002061760200F9740200D8
:1078540028DC020000B583B0114B1B68002B03D158
:107864001049BA2004F0A4FA002301930CE00C4B55
:107874001A68019BDB0013441B780121184603F0AE
:1078840073FC019B01330193074B1B781A46019B40
:107894009A42ECD80023184603B05DF804FB00BFFD
:1078A400981E00202CDC02009C1E002086B0039051
:1078B4000291019201238DF817309DF817301F4A69
:1078C400039B13601D4A029B53601C4A019B9360F7
:1078D400039B44F20102934212D044F20202934207
:1078E40021D1019B154AD360144BDB681B881A46CF
:1078F400124B9A61114BDB685B68104AD36112E04A
:10790400019B0E4A13610D4B1B699B680B4A536123
:107914000A4B1B691B68094A9361084B1B695B6826
:10792400064AD36100BF72B600BF9DF81730DBB2C0
:10793400002BFAD162B600BF06B07047D81E0020F3
:1079440000B583B002900091019244F201007146A7
:107954006A4600F003F803B000BD00BF30B58BB039
:1079640007900691059272B6FFF702FC00BFFFF77D
:10797400CBF90346002BFAD1079B41F20102934253
:1079840019D041F20102934202D8012B09D057E0E9
:1079940044F20102934229D044F20202934214D0E9
:1079A4004EE0344B1B881B0443F001033249184654
:1079B400FFF74EF94FE02F4B1B881B0443F00103E4
:1079C4002E491846FFF744F945E0059B0993294BD6
:1079D4001B881B0443F001031846099B5B681A4685
:1079E400099B1B882649FFF752F934E0059B08934D
:1079F400204B1B881B0443F001031D46089B9C6815
:107A0400089B9B68184601F0FFFE03461846089B36
:107A14005B681946089B1B68069A029201930091C1
:107A24000346224617492846FFF745F9114B1B88A0
:107A34001B0443F0010314491846FFF709F90AE04F
:107A44000C4B1B881B0443F00103069A0F4918468C
:107A5400FFF70CF900BF0E4B1B6803F00103002B6A
:107A640000D000BE059A06990798FFF71FFF00BFD4
:107A74000BB030BDBC18002070DC020090DC0200AA
:107A8400B4DC0200D0DC0200F8DC02000CDD0200F1
:107A9400F0ED00E082B003468DF8073007499DF908
:107AA40007305B099DF8072002F01F02012000FA4D
:107AB40002F241F8232000BF02B0704700E100E069
:107AC40082B003468DF8073008499DF907305B09F9
:107AD4009DF8072002F01F02012000FA02F2203371
:107AE40041F8232000BF02B0704700BF00E100E06E
:107AF40082B003468DF8073008499DF907305B09C9
:107B04009DF8072002F01F02012000FA02F2403320
:107B140041F8232000BF02B0704700BF00E100E03D
:107B240082B003468DF8073008499DF907305B0998
:107B34009DF8072002F01F02012000FA02F26033D0
:107B440041F8232000BF02B0704700BF00E100E00D
:107B540082B0034600918DF807309DF90730002B61
:107B64000CDA0D499DF8073003F00F03043B009A2B
:107B7400D2B25201D2B20B441A7609E007499DF9F8
:107B84000730009AD2B25201D2B20B4483F80023D8
:107B940000BF02B0704700BF00ED00E000E100E06C
:107BA40000B585B00190019B002B0AD0074B43F030
:107BB40001030393019B9B010293039B0298984743
:107BC40000E000BF05B05DF804FB00BF30DD02003B
:107BD40000B583B00190064A019BC2F8083507211D
:107BE4001120FFF7B5FF00BF03B05DF804FB00BF31
:107BF4000010014008B50D4B4FF48032C3F8442304
:107C04000A4B4FF48032C3F804231120FFF788FF96
:107C14001120FFF73FFF054B01221A602F20FFF7C9
:107C2400BFFF034B01221A7000BF08BD00100140C2
:107C34001620002008B51120FFF742FF0E4B4FF429
:107C44008032C3F848230C4B4FF48032C3F8082326
:107C5400094B01225A602F20FFF7A2FF064B012295
:107C64009A60064B00221A602F20FFF799FF044BFD
:107C740000221A7000BF08BD001001400820002037
:107C840016200020024BD3F804351846704700BF75
:107C94000010014082B001900091019A009BD31A18
:107CA40023F07F43184602B07047000082B0019071
:107CB400034A019BC2F8403500BF02B0704700BFC1
:107CC4000010014086B00190284B1B68002B03D1A3
:107CD400264A019B136045E0019B1A68234B1B68ED
:107CE4001B689A4210D8214B1B68204A12681168FD
:107CF400019A12688A1A1A601C4B1A68019BDA618D
:107D04001A4A019B13602DE0019B1B680393174BD8
:107D14001B680593154B1B68049309E0049B1B68BF
:107D2400039AD31A0393049B0593049BDB6904937E
:107D3400049B002B04D0049B1A68039B9A42EDD346
:107D4400049B002B05D0049B1A68039BD21A049B46
:107D54001A60019B039A1A60019B049ADA61059BDD
:107D6400019ADA6100BF06B0704700BF042000200A
:107D740000B587B001902A4B1B680393284B1B68FE
:107D84000593059B049308E0049A019B9A4208D04A
:107D9400049B0593049BDB690493049B002BF3D1A0
:107DA40000E000BF049B002B01D1002333E0059ABF
:107DB400049B9A4214D11A4B1B68DB69184A13605E
:107DC400174B1B68002B0BD1164B01229A60164BE4
:107DD40000221A60154B01221A702F20FFF7E0FED3
:107DE400049B1B680293049BDA69059BDA61059B7B
:107DF400DB690493049B002B05D0049B1A68029B47
:107E04001A44049B1A60064B1B68039A9A4214BFD7
:107E140001230023DBB2184607B05DF804FB00BF62
:107E2400042000200010014008200020172000201A
:107E340008B51120FFF75CFE00BF08BD08B514208B
:107E4400FFF756FE00BF08BD00B583B00190019B4B
:107E54005B69019A92691046984700BF03B05DF8C8
:107E640004FB000000B585B02B4B1B68002B4ED0E3
:107E740000230193FFF706FF0246284B1B681946AF
:107E84001046FFF707FF0290234B1B6803931DE086
:107E9400039B1A68029B9A421CD8039B1B68029A94
:107EA400D31A0293039B1B68019A13440193039B07
:107EB4000093039BDB690393009B1B7C002B05D081
:107EC400009B00221A740098FFF7BEFF039B002B4F
:107ED400DED100E000BF124B1A78124B1B789A4295
:107EE4000CD1104B1B780133DAB20E4B1A700D4BC8
:107EF4001B78022B02D10B4B00221A70094B1B7802
:107F04001946094A019B42F82130FFF797FF00BF49
:107F140005B05DF804FB00BF042000200820002009
:107F240014200020152000200C20002082B0019095
:107F3400184B1A78184B1B789A4223D0154B1B7890
:107F44000133DAB2134B1A70124B1B78022B02D195
:107F5400104B00221A700F4B1B781A460F4B53F824
:107F64002220019B1A60019B1A680D4B1B68134465
:107F74000B4A13600A4B1B6823F07F43084A1360C3
:107F8400012303E0019B00221A600023184602B07B
:107F9400704700BF14200020152000200C20002072
:107FA4000820002088B003900291019200230793D7
:107FB40038E0204B1B680693069B1A68039B9A4281
:107FC40006D9069B1A68039BD21A069B1A602DE0F9
:107FD400069B1B68039AD31A0393069B1B68079A94
:107FE40013440793069B00221A60124B1B680593E7
:107FF400069BDB690F4A1360069BDB68002B11D0DC
:10800400029A079B134423F07F42069B5A60069B07
:10801400DA68069B9A60019B1A68069BDA61019BE9
:10802400059A1A60034B1B68002BC2D100BF08B02D
:10803400704700BF0420002000B589B001900023E0
:108044008DF81F30664B1B680593AAE0019B002B3B
:1080540005D0019B0693069BDB69019361E0614BAC
:108064001B781A4613465B001344DB005D4A134435
:10807400043304935B4B1B780133DAB2594B1A7007
:10808400584B1A78574B9B789A4202D1554B002291
:108094001A70049B5B680693049B1B78022B04D024
:1080A400032B1BD0012B1FD01DE0049B5B681846DB
:1080B400FFF75EFE0346002B02D001238DF81F302C
:1080C400069B00221A746CE0454B1B680393039BC8
:1080D40000221A74039BDB69414A1360404B1B68FE
:1080E400002BF1D15DE05CE000BF069B1B7C002B04
:1080F40000D056E0049B9A68069B5A60049BDA6899
:10810400069B9A60049B1A69069BDA60049B5A6971
:10811400069B9A61344B1B78002B02D0069B0022ED
:108124005A60069B5A68314B1B68D31A23F07F436D
:108134002F4A93420ED8069B5A682C4B1B6819464B
:108144001046FFF7A7FD0246069B9B681A44069B50
:108154001A6017E0254B1A68069B5B68194610469F
:10816400FFF798FD0290069B9A68029B9A4206D9F3
:10817400069B9A68029BD21A069B1A6002E0069B31
:1081840000221A60069B00225A60069B00229A6015
:10819400069B01221A74069B0022DA610698FFF7F7
:1081A40091FD019B002B7FF451AF0E4B1A780D4BC0
:1081B4005B789A427FF44AAF9DF81F30002B04D1BC
:1081C400074B1A68059B9A4201D0012300E0002363
:1081D40003F00103DBB2184609B05DF804FB00BFED
:1081E40004200020F81E0020172000200820002072
:1081F400FEFF7F0010B588B00190274B1B68002B51
:1082040044D0254B1B681B680793FFF73BFD069082
:10821400224B1B68059305990698FFF73BFD03461F
:10822400033304931E4B1B7883F00103DBB2002B52
:1082340001D0FFF7DFFC049A079B934238BF134633
:10824400059A13440593059B23F07F4305930598F2
:10825400FFF72CFDFFF716FD039006990398FFF72F
:1082640019FD0346DC1C06990598FFF713FD034628
:108274009C420DD9FFF706FD03461846FFF716FD8D
:108284002F20FFF78DFCFFF7D3FD01E0FFF7D2FCB1
:1082940000BF08B010BD00BF04200020082000204B
:1082A4001620002000B587B00023019300238DF829
:1082B4001730194B1B680493184B1B6803936B46C8
:1082C4001846FFF733FE03468DF80B309DF80B304C
:1082D400002B08D0009B01AA04991846FFF762FE00
:1082E40001238DF81730019B1846FFF7A5FE0346BE
:1082F400002B02D001238DF817309DF81730002B86
:1083040002D00398FFF776FF054B00221A7000BFD6
:1083140007B05DF804FB00BF082000200420002003
:108324001720002082B003468DF80730034A9DF8D9
:108334000730537000BF02B0704700BFF81E002022
:1083440084B00190144B5B7801338DF80F30124BDD
:108354009B789DF80F209A4202D100238DF80F30AC
:108364000D4B1B789DF80F209A4201D100230FE09A
:10837400019B9DF80F201A70074B5B781A46134631
:108384005B001344DB00044A134404330293029B4E
:10839400184604B0704700BFF81E002000B589B02D
:1083A40003900291019200930023079300238DF818
:1083B40016300DF11603184600F0BCF90DF1170341
:1083C4001846FFF7BDFF0690069B002B02D104233D
:1083D400079318E0069B01221A70069B039A5A60C1
:1083E400FFF750FC0246069B9A60069B029ADA60ED
:1083F400069B019A1A61069B009A5A619DF81730F0
:108404001846FFF78FFF9DF81630184600F0A8F9BC
:10841400079B002B01D1FFF711FD079B184609B0FC
:108424005DF804FB00B587B001900B468DF803306E
:108434000023059300238DF80E300DF10E0318462A
:1084440000F078F90DF10F031846FFF779FF049057
:10845400049B002B02D1042305930BE0049B9DF89D
:1084640003201A70049B019A5A609DF80F30184635
:10847400FFF758FF9DF80E30184600F071F9059B80
:10848400002B01D1FFF7DAFC059B184607B05DF815
:1084940004FB000008B50E4B0022C3F840210C4B2E
:1084A4000022C3F844210A4B0022C3F84821084B98
:1084B4000022C3F84C21064B0022C3F80021044BD0
:1084C4000022C3F80421FFF7CDFC00BF08BD00BFA4
:1084D4000010014008B5FFF7E5FE00BF08BD00002D
:1084E40008B5FFF7A7FB134B00221A70114B0022AB
:1084F4005A70104B0B229A700F4B00221A600F4BCC
:1085040000221A700E4B00221A701420FFF708FB89
:1085140007211420FFF71CFB1420FFF7BBFA0020EF
:10852400FFF756FBFFF7AEFB0246064B1A6000232B
:10853400184608BDF81E0020042000201420002046
:10854400152000200820002086B003900B460192DD
:108554008DF80B30134B9B78002B01D108231EE0C0
:10856400019B002B01D1072319E0039B002B01D1B0
:10857400072314E0039B1B681B7C002B01D00823FA
:108584000DE0039B1B680593059B00221A74059B51
:108594009DF80B205A74059B019A5A6100231846D2
:1085A40006B07047F81E002000B587B00390029112
:1085B4000192039B0593144B9B78002B01D1082354
:1085C4001EE0039B002B01D1082319E0029B042B1E
:1085D40001D8072314E0059B5B69002B01D1082314
:1085E4000EE0059B5B7C012B01D1029B00E0002384
:1085F4000493019B049A02990598FFF7CFFE034662
:10860400184607B05DF804FBF81E002000B585B0DD
:108614000190019B03930D4B9B78002B01D1082300
:1086240010E0019B002B03D0039B5B69002B01D15D
:10863400082307E0039B00221A7402210398FFF722
:10864400F1FE0346184605B05DF804FBF81E002051
:1086540082B0EFF310830093009B019372B6019BE9
:10866400184602B0704762B600BF704700B585B0C7
:108674000190FFF7EDFF0390164B9B68002B1BD175
:10868400144B01229A60144BD3F88020134B1340EF
:10869400104A1360104B114AC3F880200E4BD3F8D4
:1086A40084300C4A53600C4B4FF0FF32C3F88420E3
:1086B400019B00221A7002E0019B01221A70039BA5
:1086C400002B01D1FFF7CFFF0023184605B05DF85A
:1086D40004FB00BF1820002000E100E0FC06FFBD01
:1086E40000B585B003468DF80730104B9B68002B0E
:1086F40016D09DF80730002B12D1FFF7A9FF039085
:108704000B4A0A4B1B681360094A084B5B685360A9
:10871400064B00229A60039B002B01D1FFF7A3FFB5
:108724000023184605B05DF804FB00BF18200020A4
:1087340000E100E000B583B0019000F02BF803469F
:10874400012B03D00549432003F032FB0198FFF7C6
:108754008DFF00BF03B05DF804FB00BF38DD0200ED
:1087640000B583B003468DF8073000F013F80346D4
:10877400012B03D00649512003F01AFB9DF8073062
:108784001846FFF7ADFF00BF03B05DF804FB00BF60
:1087940038DD020084B0EFF305830193019BC3F33A
:1087A40008030393039B002B0DD1EFF31483009371
:1087B400009B0293029B03F00103002B0CBF0123D7
:1087C4000023DBB200E00123184604B0704710B464
:1087D40087B001900091019B009A53E8004F104626
:1087E40043E8000191F0000FF7D105940490039140
:1087F400059B184607B05DF8044B704710B487B06A
:1088040001900091019B009A53E8004F44EA020052
:1088140043E8000191F0000FF6D105940490039110
:10882400049B184607B05DF8044B704710B487B03A
:1088340001900091019B009A53E8004F04EA020062
:1088440043E8000191F0000FF6D1059404900391E0
:10885400059B184607B05DF8044B704710B487B009
:1088640001900091019B009A53E8004F04EB020031
:1088740043E8000191F0000FF6D1059404900391B0
:10888400049B184607B05DF8044B704710B487B0DA
:1088940001900091019B009A53E8004FA4EB020061
:1088A40043E8000191F0000FF6D105940490039180
:1088B400049B184607B05DF8044B704700B583B0BD
:1088C400019001210198FFF799FF0346184603B070
:1088D4005DF804FB00B583B0019000210198FFF717
:1088E400A5FF0346184603B05DF804FB00B583B04A
:1088F40001900B468DF80330019B002B03D10849EE
:10890400E82003F055FA019BDA689DF803300199D9
:10891400898A01FB03F31344184603B05DF804FB92
:1089240084DD020000B583B001900091019B002B0F
:1089340003D10849F52003F03BFA009B019AD26861
:108944009B1A019A928AB3FBF2F3DBB2184603B086
:108954005DF804FB84DD020000B585B00190019B45
:10896400002B01D10E234DE0019B1B68002B03D18A
:108974002649FF2003F01CFA019B5B68002B04D1FD
:1089840022494FF4807003F013FA019B9B68002B7B
:1089940004D11E4940F2011003F00AFA019BDB687E
:1089A400002B04D119494FF4817003F001FA019BA3
:1089B4009B8A002B04D1154940F2031003F0F8F907
:1089C400019B9B681A46019B5B68D31A8DF80F3094
:1089D400019B1B68019A52681A6007E0019B1A68A0
:1089E4001368591C11609DF80F201A709DF80F3000
:1089F4005A1E8DF80F20002BF0D1019B1B6800221A
:108A04001A710023184605B05DF804FB84DD0200EA
:108A140000B585B00190019B002B04D120494FF48F
:108A2400927003F0C5F90023039300238DF80A30F4
:108A34000DF10A031846FFF77DFE019B1B681A68B7
:108A4400019B5B689A4220D9019B1B681A68013A12
:108A54001A601B681B7819460198FFF747FF0390BB
:108A6400019B9B681A46019B1B681B68D31A8DF8EF
:108A74000B30019B1B681B799DF80B209A4204D98B
:108A8400019B1B689DF80B201A719DF80A3018464B
:108A9400FFF766FE039B184605B05DF804FB00BFB4
:108AA40084DD020010B584B001900091019B002B7D
:108AB40004D1154940F2471003F07AF9009B002BCA
:108AC40004D111494FF4A47003F072F9009B03938D
:108AD40000238DF80B300DF10B031846FFF72AFE27
:108AE400019B1B681C68621C1A6003990198FFF7BC
:108AF40019FF034623709DF80B301846FFF730FE2C
:108B040000BF04B010BD00BF84DD020000B583B017
:108B14000190019B002B03D10C49312003F048F94B
:108B2400019B9B68002B0CD0019B5B69019A106927
:108B3400019A1168019A92689847019B00229A60F1
:108B440000E000BF03B05DF804FB00BFC8DD020015
:108B54000EB400B584B00190019B002B03D11849D9
:108B6400422003F025F9019B5B69002B03D11449D2
:108B7400432003F01DF9019B1B68002B03D110490E
:108B8400442003F015F9019B5B68002B03D10C49C9
:108B9400452003F00DF9059B002B0AD00023039315
:108BA40006AB039303AB1A460599019800F0B0F99C
:108BB40000E000BF04B05DF804EB03B0704700BFF1
:108BC400C8DD020000B583B001900B468DF8033078
:108BD400019B1A68019B9B68581C01998860134487
:108BE4009DF803201A70019B9A68019B5B689A4266
:108BF40002D30198FFF78AFF00BF03B05DF804FBBE
:108C040000B587B00390029101920093002305936D
:108C1400009B03F00103002B24D00BE0029B0133E3
:108C24000293059B013305939DF81330194603986D
:108C3400FFF7C8FF029B1B788DF813309DF81330A3
:108C4400002BEBD106E0019B013B0193202103980B
:108C5400FFF7B8FF019A059B9A422ED9019B002B7E
:108C6400F1D12AE0029B002B0BD0029804F072FE93
:108C7400059006E0019B013B019320210398FFF737
:108C8400A1FF019A059B9A420FD9019B002BF1D1B8
:108C94000BE0029B01330293059B013305939DF87E
:108CA400133019460398FFF78DFF029B1B788DF84C
:108CB40013309DF81330002BEBD100BF07B05DF8E3
:108CC40004FB000000B589B0039002910192009367
:108CD400029B07930123069307E0079A019BB2FBCB
:108CE400F3F30793069B01330693079A019B9A4279
:108CF400F3D2009A069B9A4201D9009B06930B9BE0
:108D040003F00103002B22D10A9B002B1FD00B9BE5
:108D140003F00203002B06D0009B002B03D1302369
:108D24008DF8173002E020238DF8173008E00A9BF5
:108D3400013B0A939DF8173019460398FFF742FF49
:108D44000A9B002B03D0069A0A9B9A42EFD3012375
:108D54000793009B012B03D9009B013B009309E07F
:108D6400029A079BB2FBF3F30493049A019B9A4281
:108D740000D205E0079B019A02FB03F30793E8E79F
:108D8400029A079BB2FBF3F30493049B079A02FB3A
:108D940003F3029AD31A0293154A049B13441B78D3
:108DA40019460398FFF70EFF079A019BB2FBF3F3F2
:108DB4000793079B002BE3D10B9B03F00103002BCC
:108DC40011D00A9B002B0ED006E00A9B013B0A93AC
:108DD40020210398FFF7F6FE0A9B002B03D0069A86
:108DE4000A9B9A42F1D300BF09B05DF804FB00BFAF
:108DF40048DE020000B589B0059004910392029305
:108E0400049B002BB8BF5B4206930123079307E042
:108E1400039B069A92FBF3F30693079B0133079394
:108E2400039B069A9A42F3DA029A079B9A4201D963
:108E3400029B07930A9B002B0AD0049B002B04DBA4
:108E44000B9B03F00403002B02D00A9B013B0A9303
:108E54000B9B03F00203002B02D0029B002B16D0C5
:108E64000B9B03F00103002B11D10A9B002B0ED0A6
:108E740006E00A9B013B0A9320210598FFF7A2FE16
:108E84000A9B002B03D0079A0A9B9A42F1D3049BB6
:108E9400002B07DA049B5B4204932D210598FFF70E
:108EA40091FE08E00B9B03F00403002B03D02B215D
:108EB4000598FFF787FE0B9B03F00203002B19D0E4
:108EC4000B9B03F00103002B14D1029B002B11D147
:108ED4000A9B002B0ED006E00A9B013B0A9330212B
:108EE4000598FFF76FFE0A9B002B03D0079A0A9B95
:108EF4009A42F1D304990B9B01930A9B0093029B22
:108F0400039A0598FFF7DEFE00BF09B05DF804FB85
:108F140000B58FB0059004910392059B002B04D1FA
:108F2400C8494FF49F7002F043FF059B5B69002B17
:108F340004D1C4494FF4A07002F03AFF059B1B68AA
:108F4400002B04D1BF4940F2411002F031FF059BD0
:108F54005B68002B04D1BB494FF4A17002F028FFD9
:108F6400049B002B00F0ED81049B1B788DF83730B7
:108F7400049B013304939DF83730002B00F0D88113
:108F84009DF83730252B40F0C78100230A93012335
:108F94000C93049B1B788DF837309DF837302D2BBC
:108FA40004D0302B0AD02B2B10D017E00A9B43F0AF
:108FB40001030A93049B0133049312E00A9B43F0D8
:108FC40002030A93049B013304930AE00A9B43F0CF
:108FD40004030A93049B0133049302E000230C93DB
:108FE40000BF0C9B002BD4D1002309939DF837308C
:108FF4002A2B0CD1039B1B68191D039A11601B6853
:10900400099A13440993049B013304931AE0049BC3
:109014001B788DF837309DF837302F2B12D99DF8F7
:109024003730392B0ED8049B01330493099A134625
:109034009B0013445B001A469DF837301344303BC1
:109044000993D3E700230B93049B1B788DF83730E7
:109054009DF837302E2B1DD1049B01330493049BC0
:109064001B788DF837309DF837302F2B12D99DF8A7
:109074003730392B0ED8049B013304930B9A1346D3
:109084009B0013445B001A469DF837301344303B71
:109094000B93E4E7049B1B788DF837309DF8373049
:1090A4006C2B03D09DF83730682B07D1049B013318
:1090B4000493049B1B788DF83730EFE79DF8373025
:1090C400253B532B00F2238101A252F823F000BF69
:1090D40009930200139302001393020013930200F6
:1090E40013930200139302001393020013930200DC
:1090F40013930200139302001393020013930200CC
:1091040013930200139302001393020013930200BB
:1091140013930200139302001393020013930200AB
:10912400139302001393020013930200139302009B
:10913400139302001393020013930200139302008B
:10914400139302001393020013930200139302007B
:10915400139302001393020013930200139302006B
:10916400139302001393020013930200139302005B
:10917400139302001393020013930200139302004B
:10918400139302001393020013930200139302003B
:1091940013930200139302001393020095920200AA
:1091A400139302001393020013930200139302001B
:1091B400139302001393020013930200139302000B
:1091C4001393020013930200259202004D920200B1
:1091D40013930200139302001393020013930200EB
:1091E4004D920200139302001393020013930200A2
:1091F400139302001393020013930200D59202000A
:109204001393020013930200B99202001393020015
:1092140071920200139302001393020095920200CC
:10922400039B1B68191D039A11601B680C930C9B0C
:109234008DF823309DF8233019460598FFF7C2FCBA
:1092440066E000BF04DE0200039B1B68191D039A3D
:1092540011601B680C930A9B0193099B00930B9B61
:109264000A220C990598FFF7C5FD51E0039B1B6882
:10927400191D039A11601B680C930C990A9B0193A6
:10928400099B00930B9B0A220598FFF71BFD3FE007
:10929400039B1B68191D039A11601B680C930C999E
:1092A4000A9B0193099B00930B9B10220598FFF7DF
:1092B40009FD2DE0039B1B68191D039A11601B68AF
:1092C40007930A9B099A07990598FFF799FC1FE0F1
:1092D400039B1B68191D039A11601B680C933021B2
:1092E4000598FFF76FFC78210598FFF76BFC0C9944
:1092F4000023019308230093082310220598FFF705
:10930400E1FC05E025210598FFF75CFC00E000BFC7
:10931400049B0133049305E09DF837301946059802
:10932400FFF750FC049B1B78002B7FF41DAE00E07C
:1093340000BF059B1B7B002B04D00598FFF7E6FBC1
:1093440000E000BF0FB05DF804FB00BF00B583B0C0
:1093540001900198FFF700FB0346184603B05DF83F
:1093640004FB00B58BB001900091019B9B8A043BE8
:109374000793009A079B1344DA1C079BB2FBF3F391
:109384008DF81B300198FFF743FB0590059B002BDC
:1093940001D1002338E0059B00221A71059B0122AC
:1093A4005A71079B9AB2059BDA80059B09939DF835
:1093B4001B30013B0493099B019A1A600023089314
:1093C4001DE00198FFF724FB0390039B002B0ED0B4
:1093D400059B5B790133DAB2059B5A71099B039AA9
:1093E4001A60039B019A1A60039B099304E0059891
:1093F40000F00EF8002307E0089B01330893089A55
:10940400049B9A42DDD3059B18460BB05DF804FB20
:1094140000B58BB00190019B0793079B5B798DF896
:109424001B30019B08939DF81B30013B05930023DF
:10943400099305E0089B1B680893099B0133099372
:10944400099A059B9A42F5D3089B1B680493019BD8
:109454000893002309930BE0089B1B680393089966
:109464000498FFF71FFB039B0893099B013309939F
:109474009DF81B20099B9A42EED800BF0BB05DF803
:1094840004FB00B585B00190019B0393039B043357
:1094940001211846FFF7E2F900BF05B05DF804FBAF
:1094A40000B587B00190019B0593059B043301210E
:1094B4001846FFF7EBF90346039303AB0493049BAD
:1094C4001B78002B02D10198FFF7A2FF00BF07B061
:1094D4005DF804FB00B58DB00390029101920093F6
:1094E400039B0693069BDB880593039B0B93009BCE
:1094F4001A1D059BB2FBF3F30A93009B0433059AF0
:10950400B3FBF2F2059901FB02F29B1A0993009A4C
:10951400019B1A44059B1344DA1C059BB2FBF3F32D
:109524008DF81330069B5B799DF813209A420AD973
:109534002749BA2002F03CFC05E00B9B1B680B9307
:109544000A9B013B0A930A9B002BF6D10023089344
:10955400059A099BD31A0793079A019B934228BF44
:10956400134607932DE09DF83830002B0BD0029A58
:10957400089BD0180B9A099B13440433079A194685
:1095840004F068F90AE00B9A099B1344181D029A27
:10959400089B1344079A194604F05CF900230993C5
:1095A4000B9B1B680B93019A079BD31A0193089A90
:1095B400079B13440893059A019B934228BF1346C3
:1095C4000793019B002BCED100BF0DB05DF804FBC7
:1095D40058DE020000B587B005900491039202930F
:1095E40000230093029B039A04990598FFF772FFE6
:1095F40000BF07B05DF804FB00B587B00590049187
:109604000392029301230093029B039A0499059801
:10961400FFF760FF00BF07B05DF804FB82B00346AC
:109624008DF8073008499DF907305B099DF807203C
:1096340002F01F02012000FA02F2603341F82320F5
:1096440000BF02B0704700BF00E100E000B583B086
:109654000190019B002B03D10649722002F0A8FB64
:10966400019B00221A60BFF35F8F00BF03B05DF857
:1096740004FB00BF00DF020041DF704700BF184653
:1096840000B585B000238DF803300DF103031846AF
:10969400FFF750F8F1EE103A0193019B0393039BFB
:1096A40023F09F030293029BE1EE103ABFF35F8F16
:1096B4002620FFF7B3FF9DF803301846FFF750F854
:1096C400039B03F00703002B03D00449762002F028
:1096D4006FFB00BF05B05DF804FB00BF44DF020070
:1096E40008B5064B00221A700548FFF7AFFF05497D
:1096F400054800F02DF80023184608BD2820002056
:10970400242000208CDF02002C20002000B583B030
:10971400FFF7B6FF03F08CFD0346002B0ED0FFF7D6
:10972400ABFF0190019B002B0BD0019B022B08D0B7
:10973400064940F2591002F03BFB02E020BF40BF53
:1097440020BF00BF03B05DF804FB00BF44DF02008C
:1097540000B583B001900091019B002B03D1104907
:10976400502002F025FB009B002B03D10C49512013
:1097740002F01EFB019B009A1A60019B1B681A6889
:10978400019B5A60019B5A68019B1B685B689A4263
:1097940002D1019B00225A6000BF03B05DF804FBB4
:1097A40098DF020000B583B00190019B002B03D128
:1097B4001449632002F0FCFA019B1B68002B03D1BF
:1097C4001049642002F0F4FA019B5B68002B14D06A
:1097D400019B5B681A46019B1B689B6813441A46ED
:1097E400019B5A60019B5A68019B1B685B689A4203
:1097F40004D1019B00225A6000E000BF03B05DF871
:1098040004FB00BF98DF020000B585B00190019809
:1098140000F00EF80390039B002B01D0039B00E0A3
:10982400024B184605B05DF804FB00BFF8DF0200E8
:1098340086B00190164B0593164B04931FE0049ACF
:10984400059BD31ADB10DA0F13445B10DB00059A77
:1098540013440393039B1B680293029A019B9A424D
:1098640002D9039B04930AE0029A019B9A4203D211
:10987400039B0833059302E0039B5B6804E0059AAD
:10988400049B9A42DBD30023184606B0704700BFFE
:10989400F8E3020020E50200BFF34F8F0549054BB2
:1098A400DB6803F4E062044B1343CB60BFF34F8FD8
:1098B40000BFFDE700ED00E00400FA05024B034A97
:1098C4001A6000BF704700BF1C1900200090D0032D
:1098D40008B500F067F90346002B06D09F4AA04B59
:1098E4001B681B0A03F01F03136000F087F903468B
:1098F400002B02D09B4B9C4A1A6000F09BF9034654
:10990400002B06D0994A9A4B1B685B0B03F00703A4
:10991400136000F0BBF90346002B05D0954A954B24
:10992400DB6823F08073D36000F0CCF90346002B8E
:109934000ED04FF080430022C3F80C214FF0804337
:109944000022C3F810214FF080430022C3F83825C9
:1099540000F0E4F90346002B02D0874B03221A607F
:1099640000F0F8F90346002B0BD0844B05221A6053
:10997400834B01221A60834B00221A60824B3F22E0
:109984001A6000F003FA0346002B76D07F4A4FF0AA
:109994008053D3F80434C2F820357C4A4FF0805306
:1099A400D3F80834C2F82435784A4FF08053D3F8FA
:1099B4000C34C2F82835754A4FF08053D3F810346C
:1099C400C2F82C35714A4FF08053D3F81434C2F8DE
:1099D40030356E4A4FF08053D3F81834C2F834351A
:1099E4006A4A4FF08053D3F81C34C2F84035674AB2
:1099F4004FF08053D3F82034C2F84435634A4FF013
:109A04008053D3F82434C2F84835604A4FF0805369
:109A1400D3F82834C2F84C355C4A4FF08053D3F85D
:109A24002C34C2F85035594A4FF08053D3F83034AF
:109A3400C2F85435554A4FF08053D3F83434C2F841
:109A44006035524A4FF08053D3F83834C2F8643545
:109A54004E4A4FF08053D3F83C34C2F868354B4A31
:109A64004FF08053D3F84034C2F86C35474A4FF076
:109A74008053D3F84434C2F8703500F0A3F9034698
:109A8400002B05D0424A434B1B6803F04F0313607D
:109A940000F0C4F90346002B0DD04FF08043D3F8F7
:109AA400003403F00103002B05D04FF080436FF026
:109AB4000102C3F8002400F0DDF90346002B05D0B1
:109AC400354A354B1B6843F480631360334A334B88
:109AD400D3F8883043F47003C2F88830BFF34F8F53
:109AE400BFF36F8F4FF01023D3F80032002B05DB48
:109AF4004FF01023D3F80432002B2BDA284B012229
:109B0400C3F8042500BF264BD3F80034002BFAD049
:109B14004FF010231522C3F8002200BF204BD3F8C6
:109B24000034002BFAD04FF010231522C3F804227E
:109B340000BF1B4BD3F80034002BFAD0184B002283
:109B4400C3F8042500BF164BD3F80034002BFAD019
:109B5400FFF7A2FEFFF7B2FE00BF08BD403501408B
:109B64002403001074C007400DF0ADBA3C0500405A
:109B740044020010F0ED00E0A00500401056004043
:109B840088560040185600401456004000C000405B
:109B9400E40E0040580200103C17004000ED00E0C5
:109BA40000E00140124B1B68DBB2062B1DD1114BA8
:109BB4001B6803F00F03002B17D10F4B1B6803F036
:109BC400F003302B01D1012310E00B4B1B6803F091
:109BD400F003402B01D1012308E0074B1B6803F07D
:109BE400F003502B01D1012300E0002318467047F5
:109BF400E00F00F0E40F00F0E80F00F00A4B1B68E0
:109C0400DBB2062B0DD1094B1B6803F00F03002BAD
:109C140007D1074B1B6803F0F003302B01D101235C
:109C240000E0002318467047E00F00F0E40F00F056
:109C3400E80F00F0124B1B68DBB2062B1DD1114B51
:109C44001B6803F00F03002B17D10F4B1B6803F0A5
:109C5400F003302B01D1012310E00B4B1B6803F000
:109C6400F003402B01D1012308E0074B1B6803F0EC
:109C7400F003502B01D1012300E000231846704764
:109C8400E00F00F0E40F00F0E80F00F00A4B1B684F
:109C9400DBB2062B0DD1094B1B6803F00F03002B1D
:109CA40007D1074B1B6803F0F003302B01D10123CC
:109CB40000E0002318467047E00F00F0E40F00F0C6
:109CC400E80F00F0124B1B68DBB2062B1DD1114BC1
:109CD4001B6803F00F03002B17D10F4B1B6803F015
:109CE400F003302B01D1012310E00B4B1B6803F070
:109CF400F003402B01D1012308E0074B1B6803F05C
:109D0400F003502B01D1012300E0002318467047D3
:109D1400E00F00F0E40F00F0E80F00F00A4B1B68BE
:109D2400DBB2062B0DD1094B1B6803F00F03002B8C
:109D340007D1074B1B6803F0F003302B01D101233B
:109D440000E0002318467047E00F00F0E40F00F035
:109D5400E80F00F00A4B1B68DBB2062B0DD1094B50
:109D64001B6803F00F03002B07D1074B1B6803F09C
:109D7400F003302B01D1012300E000231846704783
:109D8400E00F00F0E40F00F0E80F00F00A4B1B684E
:109D9400DBB2062B0DD1094B1B6803F00F03002B1C
:109DA40007D1074B1B6803F0F003502B01D10123AB
:109DB40000E0002318467047E00F00F0E40F00F0C5
:109DC400E80F00F0124B1B68DBB2062B1DD1114BC0
:109DD4001B6803F00F03002B17D10F4B1B6803F014
:109DE400F003302B01D1012310E00B4B1B6803F06F
:109DF400F003402B01D1012308E0074B1B6803F05B
:109E0400F003502B01D1012300E0002318467047D2
:109E1400E00F00F0E40F00F0E80F00F0124B1B68B5
:109E2400DBB2062B1DD1114B1B6803F00F03002B73
:109E340017D10F4B1B6803F0F003302B01D1012322
:109E440010E00B4B1B6803F0F003402B01D10123FE
:109E540008E0074B1B6803F0F003502B01D10123EA
:109E640000E0002318467047E00F00F0E40F00F014
:109E7400E80F00F0064B1B68062B05D1054B1B6849
:109E8400062B01D1012300E000231846704700BFD0
:109E9400300100103401001000B583B00190019B23
:109EA4001B681F2B04D9054940F2C71001F080FF3D
:109EB4004FF0A043184603B05DF804FB20E5020010
:109EC40000B585B00190084611461A4603468DF840
:109ED40003300B468DF8023013468DF8013001AB88
:109EE4001846FFF7D9FF0390019A9DF803109DF8D7
:109EF40002305B0019439DF801309B0019439DF823
:109F040018301B0219439DF81C301B041943039B92
:109F140002F5E07243F8221000BF05B05DF804FBBF
:109F240000B585B003900023019300230093002320
:109F3400012201210398FFF7C3FF00BF05B05DF8BC
:109F440004FB00B585B003900B468DF80B309DF8EB
:109F54000B200023019300230093134600220021C9
:109F64000398FFF7ADFF00BF05B05DF804FB00B533
:109F740085B0019001AB1846FFF78EFF0390019B5B
:109F8400012202FA03F31946039800F069F800BFAE
:109F940005B05DF804FB00B585B0019001AB18462F
:109FA400FFF77AFF0390019B012202FA03F319469B
:109FB400039800F05FF800BF05B05DF804FB00B53E
:109FC40085B0019001AB1846FFF766FF0390039B31
:109FD400D3F804350293029BDA43019B012101FA71
:109FE40003F31A40039BC3F80825019B01229A40FE
:109FF400029B1A40039BC3F80C2500BF05B05DF813
:10A0040004FB00B583B001900091009B002B03D1A9
:10A014000198FFF7C0FF02E00198FFF7A8FF00BF17
:10A0240003B05DF804FB00B585B0019001AB1846A0
:10A03400FFF732FF0390039800F00AF80246019BF1
:10A0440022FA03F303F00103184605B05DF804FB9C
:10A0540082B00190019BD3F80435184602B07047D2
:10A0640082B001900091019B009AC3F8082500BFBB
:10A0740002B0704782B001900091019B009AC3F82E
:10A084000C2500BF02B0704700B585B00190019B5C
:10A09400032B03D911493A2001F08AFE104A019B8F
:10A0A40013441B781846FFF7BEFF0346002B14BF6A
:10A0B400012300238DF80F309DF80F30002B14BFBF
:10A0C40001230023DBB283F00103DBB203F00103BD
:10A0D400DBB2184605B05DF804FB00BF50E5020092
:10A0E40088E5020000B583B00190019B032B03D9DE
:10A0F4000749412001F05CFE064A019B13441B788A
:10A1040000211846FFF77DFF00BF03B05DF804FB94
:10A1140050E5020088E5020000B583B00190019B80
:10A12400032B03D90749472001F042FE064A019B4D
:10A1340013441B7801211846FFF763FF00BF03B0E7
:10A144005DF804FB50E5020088E5020000B583B029
:10A154000023019305E00198FFF7DEFF019B013323
:10A164000193019B032BF6D900BF03B05DF804FBF8
:10A1740000B583B00023019305E00198FFF7B2FF17
:10A18400019B01330193019B032BF6D900BF03B05C
:10A194005DF804FB00B583B00190019B032B03D948
:10A1A40007495F2001F004FE064A019B13441B7813
:10A1B4001846FFF704FF00BF03B05DF804FB00BFBF
:10A1C40050E5020088E5020000B583B00023019346
:10A1D40009E0094A019B13441B781846FFF7A0FEC7
:10A1E400019B01330193019B032BF2D9FFF7AEFFCF
:10A1F40000BF03B05DF804FB88E5020000B583B03E
:10A20400002301930AE0094A019B13441B780321AC
:10A214001846FFF796FE019B01330193019B032B24
:10A22400F1D900BF03B05DF804FB00BF8CE5020068
:10A2340084B001904FF0FF330293002303930DE0A9
:10A244000A4A039B13441B781A46019B9A4202D183
:10A25400039B029305E0039B01330393039B032BAE
:10A26400EED9029B184604B0704700BF8CE502008B
:10A2740000B583B00190019B03F00103002B01D0D2
:10A28400FFF7A2FF019B03F00203002B01D0FFF7AD
:10A29400B5FF00BF03B05DF804FB000082B00346C5
:10A2A4008DF8073008499DF907305B099DF80720B0
:10A2B40002F01F02012000FA02F2203341F82320A9
:10A2C40000BF02B0704700BF00E100E008B502F033
:10A2D400AFFF034683F00103DBB2002B03D1054932
:10A2E400792001F065FD00F08BFA034B00229A708F
:10A2F40000BF08BD98E502003420002000B583B0FB
:10A3040000230193144B1B78002B02D08523019367
:10A314001CE0114B00229A600F4B00225A600E4B36
:10A3240000221A610C4B0022DA600C4800F02EFA6D
:10A33400019002F07DFF034683F00103DBB2002BA2
:10A3440001D000F049FA044B01221A70019B18460F
:10A3540003B05DF804FB00BF3420002039A40200E0
:10A3640084B00190019B1B680393039B002B03D0D3
:10A37400039B1A68019B1A60039B184604B070473C
:10A3840000B583B0164B1B78002B04D115494FF44C
:10A39400847001F00DFD124BDB68002B04D11149D0
:10A3A40040F2091001F004FD00238DF807300DF18F
:10A3B40007031846FEF7BEF9094BDB68013B084A60
:10A3C400D360074BDB68002B01D1FFF77FFF9DF8BB
:10A3D40007301846FEF7C4F900BF03B05DF804FB6C
:10A3E4003420002098E5020000B585B003468DF8BE
:10A3F40007309DF80730002B02D10C4B039301E08A
:10A404000B4B03930398FFF7ABFF0290029B002BC7
:10A4140006D0029B5B689DF8072010469847F1E739
:10A4240000BF00BF05B05DF804FB00BF3C20002066
:10A434004420002000B583B003468DF807309DF812
:10A444000730002B05D10A4B01225A700020FFF778
:10A45400CBFF9DF80730012B05D1054B01229A70E3
:10A464000120FFF7C1FF00BF03B05DF804FB00BF8C
:10A474003420002000B583B001900091019B002B93
:10A4840005D1054B01225A700020FFF7ADFF00BF34
:10A4940003B05DF804FB00BF3420002000B585B094
:10A4A400034600918DF807309DF80730012B08D042
:10A4B400032B25D0002B00D030E00020FFF7EEFE68
:10A4C4002CE000238DF80F300DF10F031846FEF732
:10A4D40031F9144B1B7883F00103DBB2002B01D05C
:10A4E400FFF70CFF0F4BDB6801330E4AD3600D4BB3
:10A4F40001229A709DF80F301846FEF731F90DE0ED
:10A50400084B1B78002B04D1074940F2432001F08B
:10A514004FFC00F061F9FFF733FF00BF00BF05B047
:10A524005DF804FB3420002098E5020082B0034665
:10A534008DF8073007499DF907305B099DF807201E
:10A5440002F01F02012000FA02F241F8232000BFAA
:10A5540002B0704700E100E082B003468DF8073096
:10A5640008499DF907305B099DF8072002F01F0296
:10A57400012000FA02F2603341F8232000BF02B048
:10A58400704700BF00E100E082B0034600918DF8FF
:10A5940007309DF90730002B0CDA0D499DF8073080
:10A5A40003F00F03043B009AD2B25201D2B20B441F
:10A5B4001A7609E007499DF90730009AD2B2520190
:10A5C400D2B20B4483F8002300BF02B0704700BF2F
:10A5D40000ED00E000E100E000B583B003460A4668
:10A5E4008DF8073013468DF806309DF80630012BA0
:10A5F40003D99DF80630032B0BD99DF80630042BA4
:10A6040003D99DF80630072B03D908496B2001F0C4
:10A61400CFFB9DF806209DF9073011461846FFF739
:10A62400B3FF00BF03B05DF804FB00BFDCE502002C
:10A6340000B583B003468DF807309DF907301846FE
:10A64400FFF78AFF9DF907301846FFF76FFF00BF39
:10A6540003B05DF804FB000082B003468DF80730B8
:10A664000F4A9DF90730002B00DA1F335B115BB2F0
:10A6740052F823209DF90730594203F01F0301F0DB
:10A684001F0158BF4B425BB222FA03F303F00103EC
:10A69400002B14BF01230023DBB2184602B070471D
:10A6A40000E100E082B001904FF08042019BC2F8CB
:10A6B400083300BF02B0704782B003468DF80730FC
:10A6C4009DF8073003F1804301221A6000BF02B0F5
:10A6D400704784B00346ADF80630BDF8063003F188
:10A6E400804300221A60BDF8063003F180431B68E2
:10A6F4000393039B00BF04B0704782B00346ADF8D8
:10A704000630BDF8063003F180431B68002B14BFEC
:10A7140001230023DBB2184602B0704782B003461F
:10A724008DF807304FF080429DF8073003F00303A3
:10A73400C2F8183500BF02B070474FF08043D3F819
:10A7440018341B0C03F00103002B14BF0123002356
:10A75400DBB21846704700B583B007238DF8073085
:10A764000020FFF779FF034683F00103DBB2002BDF
:10A7740008D09DF8073019460020FFF72DFF002070
:10A78400FFF756FF00BF03B05DF804FB00B585B0CA
:10A794000190019B002B03D10D49A22001F008FB7D
:10A7A400002303930B4B1B79002B02D085230393C7
:10A7B40008E0084A019B1360064B01221A71054BFD
:10A7C40000225A71039B184605B05DF804FB00BFD4
:10A7D40014E602004820002008B5074B1B79002B23
:10A7E40003D10649BB2001F0E3FAFFF7B4FF0120CF
:10A7F400FFF794FF00BF08BD4820002014E60200C4
:10A8040008B5094B1B79002B03D10849F22001F04C
:10A81400CFFA0C20FFF750FF00BFFFF78EFF03466F
:10A82400002BFAD100BF08BD4820002014E6020026
:10A8340008B54FF48070FFF760FF0346002B14D077
:10A844004FF48070FFF745FF0120FFF72BFF114BFA
:10A854005B7983F00103DBB2002B06D00D4B0122A0
:10A864005A710C4B1B68002098474FF48270FFF715
:10A8740044FF0346002B0AD04FF48270FFF729FFF0
:10A884000220FFF70FFF034B1B680120984700BF0E
:10A8940008BD00BF4820002082B003468DF8073071
:10A8A40007499DF907305B099DF8072002F01F0254
:10A8B400012000FA02F241F8232000BF02B07047E1
:10A8C40000E100E082B003468DF8073008499DF9A5
:10A8D40007305B099DF8072002F01F02012000FAEF
:10A8E40002F2603341F8232000BF02B0704700BF7A
:10A8F40000E100E082B0034600918DF807309DF935
:10A904000730002B0CDA0D499DF8073003F00F03D4
:10A91400043B009AD2B25201D2B20B441A7609E037
:10A9240007499DF90730009AD2B25201D2B20B44C2
:10A9340083F8002300BF02B0704700BF00ED00E0C1
:10A9440000E100E000B583B003460A468DF8073005
:10A9540013468DF806309DF80630012B03D99DF877
:10A964000630032B0BD99DF80630042B03D99DF830
:10A974000630072B03D908496B2001F019FA9DF81A
:10A9840006209DF9073011461846FFF7B3FF00BFB4
:10A9940003B05DF804FB00BF58E6020000B583B0C5
:10A9A40003468DF807309DF907301846FFF78AFFF4
:10A9B4009DF907301846FFF76FFF00BF03B05DF83D
:10A9C40004FB00B583B00346ADF80630BDF806308D
:10A9D400184600F026F803461B68012B0CBF012320
:10A9E4000023DBB2184603B05DF804FB00B585B064
:10A9F4000346ADF80630BDF80630184600F011F8ED
:10AA040003461A4600231360BDF80630184600F0CA
:10AA140008F803461B680393039B00BF05B05DF869
:10AA240004FB82B00346ADF80630BDF8063003F1EE
:10AA3400804303F5C043184602B0704782B00190CA
:10AA4400034A019BC2F8043300BF02B0704700BF41
:10AA54000060004082B00190034BD3F80423019BB3
:10AA64001340184602B070470060004082B0019065
:10AA74000849084A019B03F5A27352F8233043F0B6
:10AA84000102019B03F5A27341F8232000BF02B029
:10AA9400704700BF0060004084B0039002911346E9
:10AAA4008DF807301449144A039B03F5A27352F836
:10AAB400233023F4473323F44073039A02F5A2723C
:10AAC40041F822300C480C4A039B03F5A27352F858
:10AAD4002320029B1B0203F4F8519DF807301B044A
:10AAE40003F440330B431A43039B03F5A27340F86A
:10AAF400232000BF04B070470060004082B0019082
:10AB0400054A019B03F5A27352F823301B0A03F094
:10AB14001F03184602B070470060004082B00190E5
:10AB2400064A019B03F5A27352F823301B0C03F071
:10AB34000303DBB2184602B0704700BF0060004058
:10AB440000B583B00190019B1B681F2B04D90549F4
:10AB540040F2C71001F02CF94FF0A043184603B09F
:10AB64005DF804FB88E6020000B585B00190084654
:10AB740011461A4603468DF803300B468DF8023011
:10AB840013468DF8013001AB1846FFF7D9FF039047
:10AB9400019A9DF803109DF802305B0019439DF85B
:10ABA40001309B0019439DF818301B0219439DF88E
:10ABB4001C301B041943039B02F5E07243F8221076
:10ABC40000BF05B05DF804FB00B585B003900B46EB
:10ABD4008DF80B309DF80B20002301930023009384
:10ABE4001346002200210398FFF7BEFF00BF05B003
:10ABF4005DF804FB00B585B0019001AB1846FFF782
:10AC04009FFF0390019A039B02F5E07253F82230F0
:10AC140023F002030293019A039B02F5E072029966
:10AC240043F8221000BF05B05DF804FB00B585B001
:10AC340001900B468DF8033001AB1846FFF780FFF7
:10AC44000390019A0199039B01F5E07153F82130B7
:10AC540023F44031039B02F5E07243F82210019A79
:10AC64000199039B01F5E07153F821309DF803101D
:10AC740009041943039B02F5E07243F8221000BF54
:10AC840005B05DF804FB00B585B0019001AB184632
:10AC9400FFF756FF0390039800F020F80246019B4B
:10ACA40022FA03F303F00103184605B05DF804FB30
:10ACB40000B585B0019001AB1846FFF741FF039042
:10ACC400019A039B02F5E07253F822301B0C03F047
:10ACD4000303DBB2184605B05DF804FB82B00190B3
:10ACE400019BD3F81035184602B0704700B587B001
:10ACF4000390029101924FF0A0430493039A029BA4
:10AD04001344012B04D9124940F2DF2001F050F81A
:10AD1400039B059311E0059B9B0006AA134453F87B
:10AD2400083C1846FFF7DAFF0246019B1A60019BB4
:10AD340004330193059B01330593039A029B1A4440
:10AD4400059B9A42E7D800BF07B05DF804FB00BF3B
:10AD540088E6020084B001900091009B0393019B5C
:10AD6400DB080293019B03F0070301930122019B7B
:10AD740002FA03F30399029A0A441278134018461C
:10AD840004B0704784B001900091009B0393019B31
:10AD9400DB080293019B03F007030193039A029BD0
:10ADA40013440399029A0A44127851B20120019A79
:10ADB40000FA02F252B20A4352B2D2B21A7000BF7F
:10ADC40004B0704782B001900C4A019B13443033A5
:10ADD40093F90030002B09DB084A019B13443033FC
:10ADE40093F90030072B01DC012300E0002303F07A
:10ADF4000103DBB2184602B0704700BF50200020A8
:10AE040082B00190064A019B1344303393F9003019
:10AE1400072BCCBF01230023DBB2184602B07047D6
:10AE24005020002082B00190064A019B1344303325
:10AE340093F90030DB43DBB2DB09DBB2184602B026
:10AE4400704700BF5020002084B00390029101920B
:10AE54008DF80330029B59B20E4A039B13443033DE
:10AE64000A461A700B49029B019A41F823209DF867
:10AE7400033083F00103DBB2002B08D0029B083BB4
:10AE8400039A51B2034A13440A4683F8502000BF80
:10AE940004B070475020002082B00190044A019B06
:10AEA40013443033FF221A7000BF02B0704700BF52
:10AEB4005020002000B583B0019004490198FFF7A9
:10AEC40061FF00BF03B05DF804FB00BFA4200020B5
:10AED40082B00190044A019B1344303393F900304B
:10AEE400184602B0704700BF5020002082B0019085
:10AEF400034A019B52F82330184602B0704700BF42
:10AF04005020002000B589B00390029113468DF8BB
:10AF14000730FF238DF81F309DF80730002B01D038
:10AF2400002300E0082305939DF80730002B01D08F
:10AF3400082300E00C230493059B069314E00F4AB6
:10AF4400069B52F82330B3F1FF3F0AD19DF8073036
:10AF5400029A06990398FFF777FF069B8DF81F3036
:10AF640006E0069B01330693069A049B9A42E6D3B5
:10AF74009DF91F30184609B05DF804FB50200020ED
:10AF840082B003468DF807309DF80730094A4FF028
:10AF9400FF3142F823109DF80730072B07D99DF89D
:10AFA4000730083B034A1344FF2283F8502000BFB4
:10AFB40002B070475020002000B583B0254B93F8B1
:10AFC4005830002B03D008230093009B3EE000235D
:10AFD4008DF8073009E09DF807301846FFF75CFF4D
:10AFE4009DF8073001338DF807309DF807301F2B8B
:10AFF400F1D900238DF8073009E09DF80730184691
:10B00400FFF7BEFF9DF8073001338DF807309DF838
:10B0140007300B2BF1D9042200210F4802F044FC25
:10B0240007210620FFF78EFC0620FFF7B7FC4FF43C
:10B03400BE70FFF7DBFC4FF00040FFF7FFFC054B51
:10B04400012283F8582000230093009B184603B084
:10B054005DF804FB50200020A4200020044B93F84A
:10B064005830002B14BF01230023DBB2184670476D
:10B074005020002000B587B0039002910192039BF9
:10B084001F2B04D936494FF4017000F091FE0023C0
:10B0940005930398FFF7C6FE0346002B02D008234E
:10B0A400059357E0029B9B78C3F34003DBB21A4637
:10B0B40001990398FFF726FF03468DF813309DF995
:10B0C4001330B3F1FF3F43D0029B9B78C3F380035B
:10B0D400DBB283F00103DBB2002B13D0029B9B781D
:10B0E40003F00103DBB2002B03D00398FFF782FDCA
:10B0F40005E0029B5B7819460398FFF765FD03980A
:10B10400FFF7D8FE029B9B7803F00203DBB2002B0F
:10B1140008D09DF91300029B1B781A460399FFF788
:10B12400BBFC17E09DF91330083B9DF91320083A46
:10B134000C490A4492F95010029A1278920152B2C0
:10B144000A4351B2074A13440A4683F8502001E0E7
:10B1540004230593059B184607B05DF804FB00BF64
:10B16400C0E602005020002000B587B001900B46D5
:10B174008DF80330019B1F2B04D93D494FF40D700A
:10B1840000F016FE0198FFF74DFE0346002B04D194
:10B19400374940F2352000F00BFE0198FFF730FEEE
:10B1A4000346002B2FD00198FFF792FE0346083B7D
:10B1B400304A134493F950308DF816309DF8163008
:10B1C4009B098DF815309DF81530032B0BD1019890
:10B1D400FFF759FD0346002B01D0032300E00223AF
:10B1E4008DF8173008E09DF81530012B01D10223AA
:10B1F40000E003238DF817309DF8173019460198A5
:10B20400FFF714FD30E00198FFF7DCFD0346002B47
:10B214002AD00198FFF75CFE03460493049B9BB27B
:10B2240040339BB29B00ADF80E30049B1846FFF7E9
:10B234001DFCBDF80E301846FFF7D8FB9DF803300F
:10B24400002B11D00198FFF743FE03461846FFF781
:10B254004DFE0290029B002B06D00122049B02FAB1
:10B2640003F31846FFF7EAFB00BF07B05DF804FBE1
:10B27400C0E602005020002000B583B00190019B7D
:10B284001F2B04D9084940F2852000F091FD019854
:10B29400FFF7F9FC0346002B14BF01230023DBB2A4
:10B2A400184603B05DF804FBC0E6020000B595B093
:10B2B40000231393002303934FF48073ADF84630B7
:10B2C400012310930023129321E0BDF84630184661
:10B2D400FFF777FB0346002B0ED01098FFF7BAFB5D
:10B2E4000346002B08D0BDF846301846FFF77EFB16
:10B2F400139A109B13431393109B5B001093BDF898
:10B3040046300433ADF84630129B01331293129B3E
:10B31400072BDAD94FF4BE70FFF753FB0346002B1B
:10B324000DD04FF4BE70FFF761FB139B43F0004355
:10B33400139303AB1A4601210020FFF7D7FC139B9C
:10B34400DBB2002B29D0012310930023129321E0B8
:10B35400109A139B1340002B16D01298FFF7CEFBC4
:10B364000D901298FFF7DAFB03468DF833301298EC
:10B37400FFF7BCFD0B900B9B002B05D09DF83320F1
:10B384000B9B11460D989847109B5B001093129BE2
:10B3940001331293129B072BDAD9139B002B80F2F3
:10B3A400EE8000238DF83B300023029300230F939B
:10B3B4000AE00F9B9B0014AA13444FF0FF3243F89A
:10B3C4004C2C0F9B01330F930F9B002BF1D00023C8
:10B3D4008DF83B300023129378E06B4A129B1344A0
:10B3E400503393F900308DF82B309DF82B3023F037
:10B3F400C0030993644A129B1344503393F90030F9
:10B40400B3F1FF3F5FD001AB19460998FFF7A2FCE7
:10B414000346002B57D09DF82B309B098DF8233021
:10B424000998FFF755FD03461846FFF75FFD07909F
:10B43400079B002B03D19DF82330032B43D19DF8A8
:10B444002330032B04D102AB19460998FFF79AFC69
:10B454000998FFF72DFC03468DF81B3003AB194602
:10B464000998FFF777FC0590059B002B03D09DF806
:10B474001B30022B06D0059B002B24D19DF81B30DA
:10B48400032B20D19DF82330032B13D19DF81B30BF
:10B49400022B01D1032300E002238DF813309DF821
:10B4A400133019460998FFF7C1FB9DF83B3001336F
:10B4B4008DF83B30079B002B05D09DF82320079B7C
:10B4C400114609989847129B01331293129B032B40
:10B4D40083D99DF83B30002B4CD001238DF83A30B2
:10B4E4006B461A4601210020FFF700FC00230F934E
:10B4F40014E00F9B9B0014AA134453F8502C0F9B89
:10B504009B0014A90B4453F8443C9A4203D00023F3
:10B514008DF83A3005E00F9B01330F930F9B002BFE
:10B52400E7D09DF83A30002B03D000238DF83B3050
:10B5340020E000230F931AE00F9B9B0014AA1344EE
:10B5440053F8502C0F9B9B0014A90B4443F8442C34
:10B554000F9B9B0014AA134453F8482C0F9B9B0089
:10B5640014A90B4443F84C2C0F9B01330F930F9BEE
:10B57400002BE1D09DF83B30002B7FF428AF00BFB7
:10B5840015B05DF804FB00BF5020002008B5064B41
:10B594001B68002B03D10549512000F009FC024B24
:10B5A4001B68984700BF08BDAC20002008E70200D4
:10B5B40000B587B003460A468DF8073013468DF868
:10B5C400063000238DF81730002304939DF80730CC
:10B5D4001846FEF72DFE0490049B032B61D89DF8BA
:10B5E4000630012B04D0022B4FD0002B30D058E072
:10B5F4003549049A13465B0013440B441B788DF8B9
:10B6040017303149049A13465B0013440B44013349
:10B614001B78002B0ED02D4B2D4A4FF400411846B9
:10B62400FCF7C2FF0390039B002B03D1284A9DF82B
:10B63400073013702449049A13465B0013440B44E7
:10B6440002331978234A049B13440A461A7028E0EB
:10B654001E4B1846FCF7DAFF1E4A049B1344197864
:10B664001948049A13465B001344034402331B78BD
:10B67400994215D11449049A13465B0013440B44B0
:10B6840002331B788DF817300AE00F49049A1346E9
:10B694005B0013440B4401331B788DF8173000E032
:10B6A40000BF9DF81730002B09D00B4B1B68002BF3
:10B6B40005D0094B1B689DF817201046984700BF1A
:10B6C40007B05DF804FB00BF042100201021002016
:10B6D40030210020342100200021002000B583B057
:10B6E4000190019B1B7802211846FFF761FF00BF00
:10B6F40003B05DF804FB000000B583B00C4B1B786D
:10B70400002B0FD00023019308E0019B022B02D0F1
:10B714000198FEF701FD019B01330193019B032B6B
:10B72400F3D901E0FEF712FD00BF03B05DF804FB9E
:10B73400BC2000202DE9F04F89B003468DF8173066
:10B744000023079300230693CB4B1B78002B04D0D4
:10B75400C94B00221A70FFF7CFFF9DF81730172B43
:10B7640000F2178201A252F823F000BFD1B7020001
:10B77400DFB70200DFB7020061B80200E3B80200DD
:10B7840047B90200C5B90200E5B90200F5B90200E3
:10B7940013BA020031BA02004FBA02006DBA0200B5
:10B7A40089BA020089BA020089BA020089BA020081
:10B7B40089BA020039BB020047BB02005BBB02002E
:10B7C4006FBB020089BB020089BB0200FFF794FF34
:10B7D400AA4A9DF817301370DCE10020FEF754FCF0
:10B7E4000346002B0DD00020FEF796FC9DF8173081
:10B7F400022B02D14FF4E16301E04FF47A63069324
:10B804000BE00020FEF76EFC9DF81730022B01D1EF
:10B81400C82301E04FF4C8730693984A9DF8173083
:10B824001370974D069B4FF000044FEAC43B4BEA5C
:10B83400534B4FEAC33A1AF5FA704BF100014FF437
:10B844007A724FF0000301F03FFF03460C460022DA
:10B8540019462846FCF7A8FE07909BE10020FEF756
:10B8640013FC0346002B0DD00020FEF755FC9DF879
:10B874001730032B02D14FF4487301E04FF47A637D
:10B8840006930BE00020FEF72DFC9DF81730032BE8
:10B8940001D1C82301E04FF4C8730693774A9DF899
:10B8A40017301370764D069B4FF000044FEAC439ED
:10B8B40049EA53494FEAC33818F5FA7049F10001CF
:10B8C4004FF47A724FF0000301F0FEFE03460C467B
:10B8D400002219462846FCF767FE07905AE100202B
:10B8E400FEF7D2FB0346002B06D00020FEF714FC23
:10B8F4004FF47A63069305E00020FEF7F3FB4FF460
:10B90400C87306935D4A9DF8173013705C4D069B0F
:10B914004FF00004E70347EA5347DE0316F5FA70D5
:10B9240047F100014FF47A724FF0000301F0CCFEAE
:10B9340003460C46002219462846FCF735FE0790BC
:10B9440028E10020FEF7A0FB0346002B0CD00020CA
:10B95400FEF7E2FB9DF81730052B01D1C82301E067
:10B964004FF47A6306930BE00020FEF7BBFB9DF8CF
:10B974001730052B01D1C82301E04FF4C873069397
:10B984003E4A9DF8173013703D4E069B1A464FF001
:10B994000003DD0345EA5245D40314F5FA7045F17A
:10B9A40000014FF47A724FF0000301F08DFE03465C
:10B9B4000C46002219463046FCF7F6FD0790E9E0F4
:10B9C4000020FEF7E7FB2D4A9DF8173013702C4B2F
:10B9D400002240F6CD411846FCF7E6FD0790D9E079
:10B9E4000020FEF77FFB254A9DF817301370D1E045
:10B9F400214B01221A700120FEF7CCFB204B0022C0
:10BA040040F6CD411846FCF7CFFD0790C2E01A4B33
:10BA140001221A700120FEF7BDFB194B00224FF4DE
:10BA240080411846FCF7C0FD0790B3E0124B012299
:10BA34001A700120FEF7AEFB114B002240F6CD41F7
:10BA44001846FCF7B1FD0790A4E00B4B01221A70D5
:10BA54000120FEF79FFB0A4B00224FF48041184659
:10BA6400FCF7A2FD079095E0FEF782FB034A9DF8E0
:10BA7400173013708EE000BFB5200020B4200020E2
:10BA8400C0200020464B1846FCF7C0FD07909DF8E7
:10BA94001730C3F111030693069B002B43D0079B79
:10BAA400002B40D1069B012B36D93D4D069B9BB202
:10BAB40099B24FF000020B461446DB1844EB040421
:10BAC4005B1844EB0204E0000190019840EA5370D3
