:020000022000DC
:10600000000001203D6202009562020097620200DA
:10601000996202009B6202009D6202000000000083
:106020000000000000000000000000009F6202006D
:10603000A162020000000000A3620200A56202004B
:1060400091870200AB620200D18B020039910200FD
:10605000B1620200B3620200518A0200C1970200DD
:10606000B9620200BB620200BD620200BF620200B0
:10607000C1620200C3620200C5620200C762020080
:10608000C962020049670200CD620200058D02006C
:10609000E5670200D36202006DE80200D7620200E9
:1060A000D9620200DB620200DD620200DF620200F0
:1060B00009910200E3620200A7620200A7620200E7
:1060C000E562020019910200E9620200EB6202003F
:0C60D0002D8C0200EF620200F162020061
:1060DC00364937480A1A02D0072291438D46354972
:1060EC0035480A1A06D00722914381F30988022207
:1060FC0082F3148831483249324A00F045F832486C
:10610C003249334A00F040F832483349334A00F000
:10611C003BF833483349344A00F036F833483449B5
:10612C00344A00F031F834483449354A00F02CF840
:10613C0034483549354A00F027F8354835490022AE
:10614C0000F02DF834483549002200F028F8344886
:10615C003449091A082903DB00220260043001606B
:10616C00314A90471F482049884205D002680430C4
:10617C0003B4904703BCF7E700208646EC460020AA
:10618C0000212A4A9047FEE7884207D0521A05D0D0
:10619C00037801300B700131013AF9D17047884214
:1061AC0002D002700130FAE77047000000000120B5
:1061BC0000E00020000001200000012024FB020070
:1061CC00DC4C00205D4D0020F4620200F462020001
:1061DC00F6F8020024FB0200DC4C0020DC4C002012
:1061EC00ACF90200ACF90200ACF90200ACF9020007
:1061FC00ACF90200ACF90200ACF90200ACF90200F7
:10620C0024FB0200A8FB0200604D0020604D002022
:10621C00604D0020645B0020645B0020645B002008
:10622C00645B0020647B0020616202002D6302002D
:10623C000F484FF00701884385460E4880470E48AB
:10624C00016841F470010160BFF34F8FBFF36F8F92
:10625C00FFF73EBF09480A490A4A884207D0521A3A
:10626C0005D0037801300B700131013AF9D1704738
:10627C0000000120D582020088ED00E098F90200B0
:10628C00C84C0020DC4C0020FEE7FEE7FEE7FEE7F2
:10629C00FEE7FEE7FEE7FEE7FEE7FEE7FEE7FEE7CA
:1062AC00FEE7FEE7FEE7FEE7FEE7FEE7FEE7FEE7BA
:1062BC00FEE7FEE7FEE7FEE7FEE7FEE7FEE7FEE7AA
:1062CC00FEE7FEE7FEE7FEE7FEE7FEE7FEE7FEE79A
:1062DC00FEE7FEE7FEE7FEE7FEE7FEE7FEE7FEE78A
:0862EC00FEE7FEE7FEE700BF3C
:1062F40070470000014B01221A707047604D002066
:1063040008B5054808F0C8FF044808F0C5FF04486C
:10631400BDE8084008F0C0BFDC4C0020F44C00206D
:106324000C4D00207047000008B508F06FFE00F027
:10633400ADFB08B100F090F9224A2348012100F096
:10634400D5FB08B100F088F92049022003F03AFD9A
:1063540008B100F081F908F0F9FD08F06FFD08F0CC
:1063640059FC08F05EFE07F051FC07F095FB07F0BE
:10637400BBFB07F0A9FC07F0C7FB07F021FC07F003
:1063840061FC09F017F808F05BFC08F079FC07F0F1
:106394002DFB07F0DDF9002240F6CD410C4800F05A
:1063A400B7FB08B100F058F9002008F0B9FD094C1A
:1063B400237823B108F082FE08B107F0D9FA01F07E
:1063C400BFFEF5E705630200ACF90200F5620200C6
:1063D400644D0020604D00202DE9F04F3B4F89B003
:1063E40000263B4B1B78F5B2AB4202D809B0BDE89E
:1063F400F08F384B196811F835000124A0F1200200
:10640400C0F1200304FA02F924FA03F349EA030968
:10641400D7E9002304FA00F8CDE9042302EA0802CC
:1064240003EA0903134301EBC50B4CD0DDE9042354
:1064340022EA080223EA0903C7E90023079102F0CC
:10644400FBFA0799844611F83500A0F12002C0F147
:10645400200324FA03F304FA02F21A4304FA00F3C1
:1064640000931D4B0192DDE90045D3E9002314405C
:106474001D4022462B465FFA8CF40025CDE90445E5
:10648400049CA0F12005AC400394049CC0F12001BD
:1064940024FA01F1039C0C43049903948140029172
:1064A400DDE90245AB4208BFA2420CD19BF80110C2
:1064B4004B1E59425941A1EB0C02DBF80430514206
:1064C400514103B1984701368BE700BFB84D002016
:1064D400844D0020C04D0020B04D00202DE9F84F20
:1064E4000646244800F058FB002841D10123A6F1B8
:1064F4002001C6F1200203FA01FB23FA02F203FA97
:1065040006FA1D4BD3E900014BEA020B00EA0A0824
:1065140001EA0B0958EA09021F4623D1304602F06A
:106524008BFA164BB8B1D3E9000140EA0A0441EAF8
:106534000B05C3E90045D7E900234BEA0305104BDB
:106544000C4819684AEA0204C7E900450022BDE87C
:10655400F84F00F0DDBAD3E9000120EA0A0421EA89
:106564000B05E6E720EA0A0421EA0B05C3E9004526
:10657400BDE8F88F8C4D0020B84D0020B04D0020B0
:10658400884D0020042A2DE9F34105460C461646A1
:106594003AD902F089F9D8B11C4B1D491D601D4B35
:1065A400DFF884801C701C4B00221E600023C1E9AC
:1065B40000231A49C1E90023013CE4B20026032761
:1065C400FF2C0CD1164A1748002100F08FFA03E083
:1065D40002F032F90028DFD002B0BDE8F08123B226
:1065E40005EBC30201A992788DF8052015F8330054
:1065F4008DF8066042468DF8047002F05FF9013CA4
:10660400E4B20028DCD0E7E70720E5E7C04D00202E
:10661400B04D0020844D0020884D0020B84D00204E
:10662400DD630200B0F90200E164020070B5084DB8
:10663400084E00242B789C4201D3002070BD33689F
:10664400012113F8340002F0B1F90134F2E700BF7C
:10665400844D0020C04D00201FB50021039001AAE5
:1066640044F2010001910291FFF75CFE05B05DF870
:1066740004FB0000094A537891780133DBB2994254
:1066840008BF0023117899421FBF03705078182364
:1066940003FB002014BF043000207047C44D0020C9
:1066A40073B5054602A8002400F8014D0E4600F01B
:1066B40083FA0DF10600FFF7DDFF90B106700A4B77
:1066C4009DF8062045605A709DF8070000F098FA7E
:1066D40024B9064B4FF48012C3F80021204602B0BF
:1066E40070BD0424F0E700BFC44D002000E100E0C9
:1066F400024B4FF43C6043F001031847C0F9020019
:1067040038B50C4B0C4C4FF40032C3F880200125F3
:106714004FF48033C4F84833C4F808336560FFF796
:10672400E7FF064BA56000241C60FFF7E1FF044B64
:106734001C7038BD00E100E000100140D04F002083
:10674400C14F0020F8B51F4B1F491B680025C1F835
:106754004051C1F84451C1F84851C1F84C51C1F8F5
:106764000051C1F804514BB3D1F8044517490968E5
:10677400641A24F07F442F461A68A24209D8A41A46
:1067840015441A7CDE691AB11F74D3E905209047B9
:10679400AEB90F4B0F4A197813788B4205D10133E8
:1067A400DBB2022B08BF0023137012780A4B43F8A4
:1067B40022500A4B4FF48012C3F80021F8BD33462F
:1067C400DAE700BFD44F002000100140D04F002072
:1067D400CC4F0020CD4F0020C44F002000E100E04A
:1067E4002DE9F74F9E4A9F49137809789E4D9942A7
:1067F4003CD00133DBB2022B08BF002313709B494A
:1068040012789B4B0F6853F822003B1823F07F4308
:1068140000220B602B6816461446944613B942B105
:106824002B6006E0196881420ED902B12B60091A67
:1068340019604FF001082B68DFF83CA20093002791
:10684400BEB9DFF83CB260E0401A0C44D968C3F822
:1068540000C0D3F81CE031B13A1922F07F42C3E9F9
:106864000121DE611E4601227346D7E70026B046A9
:10687400E1E73446F6697D4A63681268DFF804C2CA
:10688400A068991A21F07F41614500F2A580014476
:106894002160012222742A680023C4E90133E361E0
:1068A400002A40F0A2802C60CAE75A1C9BF8021010
:1068B400D2B291428BF8002004BF00228BF8002052
:1068C400182202FB03B32A6819799C68022974D040
:1068D40003297ED0012918D1217CB1B9DA6862601C
:1068E4001A69A2605A699B69A361624BE2601B78D2
:1068F400002BC0D06160BEE79C4200F093809946B3
:10690400DB69002BF8D1002323749BF800309BF83B
:1069140001209A42C9D12B682FB9009A934202D11F
:10692400B8F1000F43D0002B79D0D3F800A0524D1A
:106934004E4BD5F804751C68DFF84C813E1B98F863
:10694400003026F07F4603369BB94FF48033C5F8F8
:106954004433C5F80433494B4FF400324FF0010976
:10696400C3F880211A60C5F80090FFF7C1FE88F8CB
:106974000090B2452CBF5444A41924F07F44C5F8B8
:106984004045D5F80435DB1B23F07F43E41B033378
:1069940024F07F44A3420AD9D5F80435C5F840351C
:1069A400FFF7A6FE354B4FF40032C3F80021314BFC
:1069B40000221A7003B0BDE8F08F13469146A0E799
:1069C4001174D2690123002AFAD1002B9DD02A60C8
:1069D4009BE700231946F6E7D31A23F07F4383424B
:1069E40034BFC31A0023236053E721681368994214
:1069F40013D8591A1160E26155E7091AD8691A4681
:106A040038B1034618688842F7D3401A186018460C
:106A140013462160E061DC6112E71346F2E7FFF7F9
:106A24006FFEC4E74C450DD1D3692B6053B90F48B1
:106A340001920121CAF8081003600E4B1970FFF788
:106A440057FE019AE1692368C9F81C1011B108685E
:106A540003440B602B689A4218BF012753E700BF19
:106A6400CC4F0020CD4F0020D44F0020D04F002029
:106A7400C44F0020C04F00200010014000E100E09E
:106A8400C44D0020FEFF7F00C14F002008B5FFF772
:106A940037FE104B0020152218809A700E4B186098
:106AA4000E4B18700E4B18700E4B4FF48012E021F1
:106AB400C3F8802183F814131A6002F18042A2F50E
:106AC4006F22C2F8080583F81113074BD2F8042586
:106AD4001A6008BDC44D0020D44F0020CC4F0020C4
:106AE400CD4F002000E100E0D04F0020074B9B7801
:106AF4004BB132B128B10368187C20B959745A617A
:106B04007047072070470820704700BFC44D00201D
:106B14002DE9F7431D4FBB7805460E4690469BB3BF
:106B240090B304292ED9436973B3437C02A800248B
:106B3400012B00F8014D0CBF8946A14600F03CF83A
:106B44000DF10600FFF796FDD0B101230370104B41
:106B54004560D3F80435C0E90498C0E902369DF8CD
:106B640006307B709DF8070000F04AF824B9094B01
:106B74004FF48012C3F80021204603B0BDE8F0832F
:106B84000424EFE70724F7E70824F5E7C44D0020C1
:106B94000010014000E100E0064A92783AB130B1B9
:106BA400426922B1002202740221FFF779BD082054
:106BB400704700BFC44D002070B5EFF3108672B665
:106BC4000C4A946801239CB993600B4B0B4DD3F88A
:106BD400801029401160C3F88050D3F884105160AC
:106BE4004FF0FF32C3F88420047006B962B670BD5A
:106BF4000370FAE7D84F002000E100E0FC06FFBD77
:106C0400084B9A6810B55AB150B9EFF3108272B6B6
:106C140005491C680C605C684C60986002B962B6F7
:106C240010BD00BFD84F002000E100E070B5064E53
:106C34000546002456F824300BB128469847013401
:106C4400042CF7D170BD00BFF04F0020033080B298
:106C540040F2FD33984230B51FD8124B1A783AB936
:106C64001C895D892C440444A4B2B4F5806F0AD312
:106C74001A7DA2B99A8BDC8B2244024492B2B2F5FB
:106C8400806F0CD201220A801446142202FB0433C2
:106C94005A8910445881002030BD0920FCE70720A0
:106CA400FAE700BF245000200B4A0C4B51881420F3
:106CB40000FB0131CB6833B904204968107001220C
:106CC400074801F04CB805230649137002238B8052
:106CD400012200230968F3E7085000202450002013
:106CE400C84C0020EC50002007B500230549009350
:106CF400054A09680548082301F003F803B05DF864
:106D040004FB00BFEC500020D4F90200C84C002062
:106D140007B50023009301460823034A034800F003
:106D2400F0FF03B05DF804FBCCF90200C84C00206E
:106D340013B500230C46009301460423074A084870
:106D440000F0DFFF38B9074B142202FB043401239F
:106D5400237402B010BD0E20FBE700BFC8F9020087
:106D6400C84C00202450002037B50A480A4B42681A
:106D74009C88196853880325033305709BB200204F
:106D840000909B0001EB8401044800F0BAFF03B0BB
:106D940030BD00BF08500020EC500020C84C00203B
:106DA40010B50146044800F088FE1C220446002168
:106DB40008F03CFD204610BDD85000204388033322
:106DC40000EB8303994209D382884FF6FF739A42FA
:106DD40006D00088B0FA80F040097047022070475E
:106DE400012070472DE9F8430223DFF860800B800F
:106DF4000D46174600F5805600F108044FF00109CE
:106E0400B4420FD2236801330CD031462046FFF739
:106E1400D5FF48B10FB187F8009002280BD14FF489
:106E240080632B80BDE8F883A368D8F800209342E0
:106E340001D9C8F800302B886288033313442B80AF
:106E44006388033304EB8304DAE700BF1C5000209B
:106E5400144A142303FB002070B50B6844680D46E4
:106E640004F580569BB15C88033403EB8404B4427C
:106E74000BD22368013308D031462046FFF79EFF2A
:106E8400012809D005D30228F1D1002003E00834F9
:106E9400EDE72C60012070BD6388033304EB8304A9
:106EA400E5E700BF24500020436873B505460C464F
:106EB4006BB3254AD1688B4229D31269934226D8F1
:106EC40013F0030223D121490089098988421ED184
:106ED4002868996888421AD11D494868834203D9B1
:106EE40000F5805083420ED38A6993420DD902F58E
:106EF4008052934209D2012323800020B0FA80F00B
:106F0400400902B070BD1346F6E70A20F6E70023F5
:106F140023801E462388012B01D90020F1E7019626
:106F240001A92088FFF794FF18B92388013323802F
:106F3400F0E7019B2A6899689142F1D16B60034B99
:106F44001B892B81DDE700BFC84C002008500020BE
:106F5400245000202DE9F8431C461E4B1B7806469E
:106F64000F461546002B30D0002A30D07CB3DFF812
:106F74006C804FF01409A388012B01D90A201AE070
:106F840009FB03F318F80330BBB1A3880133A380D2
:106F9400F1E723681EB19988328891420DD11FB15F
:106FA40019883A88914208D19A68C5E900230A4BA6
:106FB4001B892B810020BDE8F8832146A088FFF7B8
:106FC40047FF0028E5D12060DFE70220F3E7052032
:106FD400F1E700BF0050002008500020245000209A
:106FE40008B5074B191D5888FFF732FF18B1BDE8E3
:106FF4000840FFF7B9BEBDE80840FFF755BE00BF23
:10700400085000202DE9F04FA04FDFF8A49289B07A
:107014000646B8463B6823B949469D4800F087FDBB
:107024003860D8F8005029784B1E052B00F21281E5
:10703400DFE813F0060076007600060106015D0124
:1070440026B1944B00225A60012424E02B79032BAF
:107054001DD8DFE803F01502424D8F490B78022B4F
:10706400084631D00B7D022B4FF001032ED11422A0
:107074005343C2180020C8545068FFF749FE03E088
:1070840001232B71FFF730FE002800F0D380814BE1
:1070940000225A600E241422002103A808F0C6FB23
:1070A40041F61D539C4208BF0024D8F800300494D4
:1070B4001A78023A042A00F2D381DFE812F0B4010C
:1070C400C001E301EB01F2010023D0E7714A137020
:1070D4000023536041F61D54DDE7704970480023D6
:1070E40002222B718A800122096800F038FECBE766
:1070F4006A4C00262E712068674DFFF709FE694B24
:10710400D4F800C05A8814235343EA18EE54516843
:107114002160A188C2F804C011810222A280B3E7D1
:10712400B5F814A0AA7DDFF870B1AEB1022AEB88DD
:1071340006D9142101FB0AB1DA1C088902440A8128
:10714400142202FB0ABAC3F57F43BAF80A20FD33BE
:107154001344AAF80A3077E7142303FB0AB3188907
:107164005C6804EB8004062A05D8DFE802F0264CAC
:1071740034421C5866000F24AA7DEB88022A06D9E3
:10718400142101FB0AB1DA1C088902440A81142281
:1071940002FB0ABAC3F57F43BAF80A20FD3313444D
:1071A400AAF80A3077E74048404900234360AB69B6
:1071B4000360FFF779FE00285AD00223AB75002341
:1071C40000930423EA182146354800F09AFD00286C
:1071D40030D00E24D0E72B69002B0CBF01230323EE
:1071E400AB750023009305F10C02042304F108019C
:1071F400EAE70123AB750022EB8800929B002A6921
:1072040004F10C01E0E7032914BF06230523AB7541
:1072140000230093042305F10802E118D4E70623B0
:10722400AB75224B1988204B5868FFF781FD044643
:107234000028A1D109B0BDE8F08F41F61D549BE7A9
:10724400002E7FF401AF2B79012B33D004D3022B12
:107254003FF440AF0F241EE702232B710DF10A0106
:10726400EB68039303A8CDE90466FFF71DFE08B994
:107274000A2410E70498BDF80A108388EB80038879
:107284002B81FFF755FD044627E000BF2050002066
:10729400D85000200050002024500020EC50002042
:1072A400C84C002008500020E44F0020F850002073
:1072B40018500020DFF808A203AA53463146A81D3F
:1072C400FFF748FE044660B9BAF804100498FFF7C3
:1072D4002FFD04460A2C3FF4FDAE002C7FF4DBAEF8
:1072E400A8E708223146504608F0A0FAF2E7002E3B
:1072F4007FF4AAAE6D4B1A7BB2B11E731A78013AB1
:10730400062AA7D801A151F822F000BFB7730200E2
:10731400DD730200FB730200017402005972020063
:10732400077402001D7402001A78072AE6D801A126
:1073340051F822F059730200017302000173020034
:107344007F73020093730200B3730200B3730200ED
:107354007B7302001A89564901321A8100225A802D
:107364001A730A78B2FA82F252099A720A7DB2FA50
:1073740082F25209DA72012207E04E4958688A887B
:107384004088033202448A8002221A70B6E7484CCD
:107394005A884849142505FB02420868546850601D
:1073A4008888108102228A800C600622EDE7072279
:1073B400EBE79A7A32B9DA7A8AB900221A705A80DB
:1073C4005A6087E63A4900229A72CA68002AF2D1C2
:1073D400097C0029EFD05A80FFF702FE53E7002210
:1073E400DA72334A116A0029E7D192F82420002A7C
:1073F400E3D00122EFE7FFF7B7FC44E7FFF754FCC3
:1074040041E706221A702A4A5B88142101FB0323F0
:107414005868FFF77DFC36E707221A7000225A608D
:10742400FFF762FC2FE701228DF80C201A89ADF8D2
:1074340018209A88DB68ADF81A20059310E0022220
:107444008DF80C201A89ADF818209A88ADF81A2006
:10745400DA689B7D05929A1F534253418DF81C3084
:1074640003A8FFF7E3FB002649461348C8F8006069
:1074740000F088FB0121114800F02CFC00287FF467
:10748400C9ADD7E603228DF80C20DA88ADF81820B0
:107494001A89CFE70422DB888DF80C20ADF8183068
:1074A400DEE705238DF80C30DAE700BF0850002032
:1074B40024500020EC500020D8500020E850002038
:1074C400FC5000204068FFF79DBD000008B5012175
:1074D400044800F0E9FB18B9BDE80840FFF792BD85
:1074E40008BD00BFE85000202DE9F3419846354B14
:1074F4001B7806460D46002B5BD000295BD009881B
:107504004FF6FF73994258D06B88002B55D06B68A7
:107514009B0754D14AB92F890DF102013846FFF770
:1075240095FB30B102B0BDE8F08113885788ADF8FF
:10753400023001A8FFF734FC044658B9BDF8023004
:10754400214A142101FB032358890338C01B5881A5
:107554000820E7E700238375BDF8023083826B6857
:10756400036180F800800121184800F0A8FB2B88F3
:107574002381B8F1030F6B88A38004BF0423A37590
:107584004FF0000508BF3368E06008BFA361E780DF
:10759400658101A90E4800F0BAFA36B1E368336098
:1075A4000C4B75601B89B5723381FFF78FFF002088
:1075B400B8E70220B6E70520B4E70420B2E70320C9
:1075C400B0E700BF00500020245000201C500020D1
:1075D400D85000200850002008B5084B1A68042A27
:1075E40009D01968064A42F821000121184600F022
:1075F40066FB002008BD0C20FCE700BFF45000200F
:10760400F04F00202DE9F04F89B01422002103A887
:1076140008F00CF97B4A137803F0FF0100919046BF
:107624003BB103A8FFF702FB0026304609B0BDE8D2
:10763400F08F101D00F059FB05460028F4D14FF0DF
:1076440010234FF080525B6911695269DFF8DCA1A5
:10765400581C08BF02FB01F3CAF810300022A3F53E
:1076640040536949CAF80C30504600F041FB0646C5
:107674000028DAD11C238C226449654800F0E8F91B
:107684003746B3464FF003093446CDF804A0019BB6
:10769400D9680BEB010002465BF80110002835D0D5
:1076A4005C4B994232D141685B4B994215D001330E
:1076B40099422BD1009BDFF86CA1002B59D10022F9
:1076C4005649CAF80000FFF78DFBBAF80420022AD5
:1076D40014BF0822042217433AE051494FF0140C16
:1076E4000CFB04FC01EB0C024FF0000E01F80CE063
:1076F40050600CF110020CF1080C0A446144FFF7CD
:1077040071FB47F002070134A4B221E000F5805C6C
:107714001168013167D104329445F9D1414A1168A5
:1077240029B9022101231060918000930EE01422F4
:1077340062433B4B4FF0020E991803F802E03A4AB9
:10774400486054800134A1F808E0A4B247F001076E
:107754000BF5805BBBF5405F99D1B9F1010F88BF90
:107764003D46EDB2022D02D0062D12D0DDB90B2616
:107774005BE72B4B1422624399184FF0020C03F879
:1077840002C00134DAF800204A60A1F808C0A4B2AB
:1077940095E7012388F8003003A80023C8F80430D3
:1077A400FFF744FA41E702A8FFF7FAFAC8B1012348
:1077B400013D03700A2D09D8DFE805F00608060824
:1077C400070807080F110F000023037102A91048CE
:1077D40000F09DF9FFF77AFE27E70323F5E702237C
:1077E400F3E7082621E70E491422624301EB020C59
:1077F40009F1FF39CCF8040003201FFA89F98854F1
:1078040081E700BF00500020E8F902004C5000203E
:10781400D8500020DEC0ADDEFE011EF1F050002085
:1078240024500020EC50002008500020C84C0020B8
:1078340073B50D460446C8B1C1B10DF10601FFF799
:1078440033FBA8B10B4BBDF806006668142202FB9B
:10785400003001210C3000F032FA63682E600C33E2
:107864006B600123A372002002B070BD0520FBE70A
:107874000A20F9E72450002013B50446A8B10DF1FD
:107884000601FFF711FB90B10B4ABDF80630142135
:1078940001FB0323DA6862B1A27A52B1DA680020EC
:1078A400013ADA60A07202B010BD0520FBE70A209D
:1078B400F9E70620F7E700BF245000200B4B1B78A4
:1078C40037B504460D4663B168B10DF1060128468B
:1078D400FFF7BCF918B9BDF806302380658003B002
:1078E40030BD0220FBE70520F9E700BF005000206F
:1078F400104B1B7810B5B3B1B8B10288022A16D860
:107904000D494388142404FB02129C1C51898C42A7
:107914000DDAC3F57F43FD330B4453810023038009
:107924004380184610BD0220FCE70520FAE7042036
:10793400F8E700BF0050002024500020022300225A
:10794400FFF7D2BD12B10223FFF7CEBD0520704769
:1079540018B103230022FFF7C7BD052070470000BC
:10796400104B1B7813B50446ABB14FF6FF73984226
:1079740013D001A8FFF714FA88B10523037001237B
:107984000371C48001A9084800F0C1F8FFF79EFD07
:10799400002002B010BD0220FBE70420F9E7082014
:1079A400F7E700BF00500020D85000200E4B1B7892
:1079B40007B5A3B101A8FFF7F3F990B1062303704B
:1079C40001A90A4800F0A3F8094B1A780AB1012268
:1079D4001A73FFF77BFD002003B05DF804FB02205F
:1079E400FAE70820F8E700BF00500020D850002034
:1079F4000850002007B5ADF8060002A820F8041DC1
:107A040001460DF10600FFF7A5FA03B05DF804FB8B
:107A140013B502AC134624F8020D0A460020214691
:107A2400FFF798FA02B010BD13B502AC134624F860
:107A3400020D0A4620460021FFF78CFA02B010BD61
:107A440020B119B103680B6000207047052070470E
:107A540010B561B1B2FBF3F403FB1424A4B244B92E
:107A6400C0E9001484608281C381204610BD0E20C9
:107A7400FCE70920FAE782B050E8022FC188B2EB94
:107A8400324F4FF0000317BF92B241EA014142EA7C
:107A9400014104E04268B2EB324F08BF012340E8E1
:107AA4000212002AE8D18DF807309DF80730002B28
:107AB4000CBF1120002002B0704737B550E8013FD9
:107AC4009DB2C48925448489A54228BF2D1B0489FD
:107AD400A54202BFBFF32F8F002207E0C5EA0305CA
:107AE40040E80154002CE9D14FF001028DF8032045
:107AF4000193019B9DF803200B6002F0FF0322B168
:107B04000B880068184403B030BD1846FBE70A88A8
:107B14004B889A4209D150E8012FC2EA024240E858
:107B24000123002BF7D1012070470020704737B59F
:107B340050E8023F1FFAA3F5C488A54202BFBFF371
:107B44002F8F00220DE0C48925448489A54228BFD3
:107B54002D1BC3EA054540E80254002CE8D14FF040
:107B640001028DF803200193019B9DF803200B6013
:107B740002F0FF0322B14B880068184403B030BD03
:107B84001846FBE70A884B889A4209D150E8022F2D
:107B9400C2EA224240E80223002BF7D101207047B9
:107BA4000020704701F01F024B090121914000EBB6
:107BB400830000F063B84B0910B501F01F040121E4
:107BC400A14000EB830000F04EF8E04000F001001B
:107BD40010BD01F01F0301229A404B0900EB830002
:107BE400D14300F056B84B0901F01F0150F82300AF
:107BF400C84000F0010070472DE9F0474E1E760999
:107C040080460F460136002558F8254008EB850AC2
:107C1400E44394FAA4F4B4FA84F44FEA4519202C0A
:107C240006D10135AE42EFD83C462046BDE8F08788
:107C34004C44A742F5D921464046FFF7BCFF002833
:107C4400F3D0DAF80040E44394FAA4F4B4FA84F4E8
:107C5400E5E750E8002F0B4640E8003C9CF0000F9D
:107C6400F7D11046704750E8002F42EA010340E87C
:107C7400003C9CF0000FF6D11046704750E8003FDE
:107C840043EA010240E8002C9CF0000FF6D11046B4
:107C9400704750E8003F03EA010240E8002C9CF0E2
:107CA400000FF6D11046704750E8002F02EB010395
:107CB40040E8003C9CF0000FF6D11046704750E8B5
:107CC400003F03EB010240E8002C9CF0000FF6D1CA
:107CD4001046704750E8003FA3EB010240E8002C37
:107CE4009CF0000FF6D1104670470121FFF7BBBF8F
:107CF4000B4620B11BB1036011461B6818470E20C8
:107D040070472DE9F04108B302B3D0F800E0BEF1AA
:107D1400000F1ED0FBB14768D7F80480B3FBF8F717
:107D240008FB1737BFB942EA010C1CF0030F14D14A
:107D3400C768B94211D34C1E05691C44AC420CD827
:107D4400DEF80C40A446BDE8F04160470E20BDE8D3
:107D5400F0810820FBE70920F9E71020F7E7F0B5E8
:107D6400D8B1D0F800C0BCF1000F18D0CAB1476830
:107D7400D7F800E00EF1FF370F4214D1C768B942BB
:107D840011D34C1E05690EFB0244AC420BD8DCF83F
:107D94001040A446BDE8F04060470E20F0BD082026
:107DA400FCE70920FAE71020F8E700002DE9F0418C
:107DB40008B10368C3B90E4E0E4B14229B1B00245A
:107DC400B3FBF2F3374602FB03F5A54201D10020D1
:107DD40008E03B5930190BB91434F6E7DB699847CE
:107DE4000028F9D0BDE8F081DB69BDE8F04118470F
:107DF400C84C0020DC4C002029DF704728DF704786
:107E040070B503689D6886B004460E466DB11422B1
:107E14000021684607F00AFDA368059323790196BB
:107E24002BB1012B0DD06846A84706B070BD0123C5
:107E34008DF8003023690293E36803936369049324
:107E4400F1E702238DF80030E3681B030293F5E7A2
:107E54000846704700207047024B187A003018BF5C
:107E640001207047A0510020034B187A0122B0FA78
:107E740080F05A7440097047A051002008B510469C
:107E84001A4607F0AAFC002008BD000008B5142219
:107E94000021044807F0CAFC0348FFF7ECFD00206A
:107EA40008BD00BFA05100209051002010B5094C1E
:107EB400094B43602046FFF718FF40B906F0BAFCAF
:107EC4001C2320748C2205490548FFF7C1FD0020BE
:107ED40010BD00BFA0510020DCF9020004510020B5
:107EE4009051002070B5244D244E2B7A2C463BB97A
:107EF40023492448FFF71BFE306008B9686070BD51
:107F04000223237233681A7972B1012A24D01846E5
:107F14000321FFF775FF0023237263601849194892
:107F2400BDE87040FFF72EBED3E90520121AB2F562
:107F3400805F28BF4FF48052D3E903159208012AC9
:107F4400014438BF01222844FFF756FF50B11128DD
:107F5400DDD101232372D2E7D3E903021044FFF7F2
:107F64004DFFF3E7237C002BC9D10146BDE87040E7
:107F7400022000F009B800BFA0510020B851002031
:107F8400B45100209051002038B5831E012B45D8F0
:107F9400234C237A002B41D0022B09D1032830D063
:107FA400204B1B680022E2601A793AB1012A22D0E0
:107FB400637C7BBBBDE83840FFF794BFD3E905126F
:107FC4008D1AB5F5805F94BF521902F580529A61FB
:107FD4009142EDD102284FF0000308BF19462372E5
:107FE400104B18BF0D211868FFF70AFF0E490F4800
:107FF400FFF7C8FDDCE71A6901321A615B699A422E
:10800400E7E7E3680133082B01D8E360D0E70023F6
:10801400E360DFE7BDE8384006F0FCBB38BD00BFD5
:10802400A0510020B8510020B451002090510020EC
:1080340000F0FD03012B08D1044B00225A74421EA8
:10804400504250411874FFF74DBF7047A0510020B3
:1080540010B5064C201DFFF748FE28B9637C1BB9F8
:10806400BDE81040FFF73EBF10BD00BFA051002087
:108074002DE9F34180460D460F4801A916461F46D7
:10808400FFF71BFD0446A8B11C22002107F0CEFB1C
:108094002D0B0123237101A9C4F80080A760E560BA
:1080A40066610548FFF733FDFFF7D2FF002002B0F9
:1080B400BDE8F0810420FAE7905100202DE9F74350
:1080C40081468846104801A917461E46FFF7F5FC6D
:1080D4000446B0B11C22002107F0A8FB00250A9B2E
:1080E400A36001A92571C4F80090C4E9037866610E
:1080F4000548FFF70CFDFFF7ABFF284603B0BDE8CA
:10810400F0830420FAE700BF9051002033DF70476A
:1081140041DF7047064B10B500241C70054B1C60F2
:10812400BFF35F8F0449054800F082F8204610BD74
:10813400C5510020C851002008FA0200BC5100209B
:1081440007B502A8002300F8013DFEF735FDF1EE66
:10815400103A23F09F03E1EE103ABFF35F8F0A4B0E
:108164004022C3F884219DF80700FEF749FD06F07C
:1081740061FB20B1FFF7CCFF03B05DF804FB20BF27
:1081840040BF20BFF8E700BF00E100E070B5224C1B
:10819400054601212046FFF75CFDBFF35F8F2646AD
:1081A40038B9042D0AD01D4B1A781AB1BFF35F8F6A
:1081B400206070BD1A4A157001221A70194C184DAE
:1081C400636828787BB90238012813D8BFF34F8F2E
:1081D4001549164BCA6802F4E0621343CB60BFF33F
:1081E4004F8F00BFFDE71B68984788B1204600F019
:1081F40029F8E5E706F01EFB08B1FFF787FF4FF00B
:1082040080430122C3F80025BFF34F8F20BFFDE751
:10821400BFF35F8F3060CCE7C8510020C551002008
:10822400C4510020BC51002000ED00E00400FA0518
:108234000B684A684360934208BF0023016008BF8B
:1082440043607047436843B10268916852680B44C5
:108254009342436004BF002343607047094B1B787B
:10826400062B0CD1084B1B681A0708D1074B18685A
:1082740000F0F000A0F1300358425841704700204C
:10828400704700BFE00F00F0E40F00F0E80F00F0CB
:108294000C4B1B78062B10D10B4B1B681A070CD107
:1082A4000A4B186800F0F003302B08D000F0E0000F
:1082B400A0F1400358425841704700207047012004
:1082C400704700BFE00F00F0E40F00F0E80F00F08B
:1082D40008B5FFF7DDFF28B17F4B804A1B68C3F365
:1082E40004231360FFF7BAFF10B17D4B7D4A1A6077
:1082F400FFF7CEFF28B17C4B7C4A1B68C3F34233A3
:108304001360FFF7ABFF20B1794AD36823F0807381
:10831400D360FFF7BDFF40B14FF080430022C3F8A4
:108324000C21C3F81021C3F83825FFF797FF10B1CB
:10833400704B03221A60FFF791FF40B16E4B052288
:108344001A6001229A6700229A603F225A606B4B9E
:108354001B78062B09D16A4B1B68190705D1694B99
:108364001B6803F0F003502B67D0FFF791FF28B18F
:10837400654B664A1B6803F04F031360FFF788FFE1
:1083840048B14FF08043D3F80024D20744BF6FF0C4
:108394000102C3F800245E4B1B68062B04D15D4B1D
:1083A4001B68062B00F091805B4AD2F8883043F4B6
:1083B4007003C2F88830BFF34F8FBFF36F8F4FF055
:1083C4001023D3F80022002A03DBD3F80432002B55
:1083D4002FDA524B0122C3F80425D3F80024002AD3
:1083E400FBD04FF010221521C2F80012D3F800245C
:1083F400002AFBD04FF010231522C3F80422474B68
:108404001A46D3F800140029FBD00021C3F8041540
:10841400D2F80034002BFBD0BFF34F8F3E49404BC2
:10842400CA6802F4E0621343CB60BFF34F8F00BF0E
:10843400FDE73C4B3C4A1A6008BD4FF080523B4B71
:10844400D2F80414C3F82015D2F80814C3F824157C
:10845400D2F80C14C3F82815D2F81014C3F82C154C
:10846400D2F81414C3F83015D2F81814C3F834151C
:10847400D2F81C14C3F84015D2F82014C3F84415DC
:10848400D2F82414C3F84815D2F82814C3F84C15AC
:10849400D2F82C14C3F85015D2F83014C3F854157C
:1084A400D2F83414C3F86015D2F83814C3F864153C
:1084B400D2F83C14C3F86815D2F84014C3F86C150C
:1084C400D2F84424C3F870254FE7194A136843F4DB
:1084D4008063136068E700BF240300104035014047
:1084E40074C007400DF0ADBA440200103C050040D2
:1084F400F0ED00E0A005004010560040E00F00F051
:10850400E40F00F0E80F00F058020010E40E004001
:10851400300100103401001000ED00E000E00140E3
:108524000400FA05244D00200090D00300C0004050
:108534003C170040102807D0112807D013280CBF7F
:1085440002204FF0FF307047002070470120704731
:1085540038B5084C04F108030546002818BF1C462A
:1085640023682BB11A6822605B6828469847F7E7AE
:1085740038BD00BFD451002020B9054B01225A70E8
:10858400FFF7E6BF012802D1014A9070F8E770476F
:10859400CC51002020B9034B01225A70FFF7D8BFF9
:1085A400704700BFCC51002038B50B4C237883B9F9
:1085B4000A486360A3602361E36000F093F8054612
:1085C40006F038F908B900F09BF801232370284617
:1085D40038BD8525FBE700BFCC5100207D85020016
:1085E40037B5184CA378054603F0FF029BB110B1D0
:1085F40043680120984700230DF107008DF80730E8
:10860400FEF7DAFAE3689DF807000133E360FEF74A
:10861400F7FA03B030BD0DF107008DF80720FEF71F
:10862400CBFA25B1226913463BB92A602561E36878
:10863400002BE7D100F078F8E4E79D42F7D01B68FF
:10864400F2E700BFCC51002037B502A80023094C43
:1086540000F8013DFEF7B0FAE368013BE360E5682A
:1086640015B900F087F8A5709DF80700FEF7C8FA61
:1086740003B030BDCC510020012813B509D003D379
:1086840003281BD002B010BD0F4B0122C3F8802079
:10869400F8E702A800230D4C00F8013DFEF78CFA20
:1086A40023780BB9FFF780FFE3689DF807000133D7
:1086B400E3600123A370FEF7A3FAE3E700F020F8D8
:1086C400FFF7C2FFDEE700BF00E100E0CC5100206D
:1086D40000F18040002382B0036003680193019B92
:1086E40002B07047054A13792BB90121106011714A
:1086F4005371184670478520704700BFE051002031
:10870400084B1A68D20706D4E02283F8002301221A
:10871400C3F880211A604FF080430122C3F8182562
:10872400704700BF00E100E038B54FF48270FFF7F6
:10873400CFFF4FF080430222C3F804230A4AD068D3
:1087440040F08073D360094B1C6844F00101196048
:108754005D685968491BB1F50A5FFAD31C60044B84
:10876400D06001221A6038BDF0ED00E0001000E096
:1087740008000040044B01221A604FF08042D2F8F6
:108784001834DB03FBD470470C000040124B1B6809
:1087940010B573B14FF48070FFF79AFF4FF0804328
:1087A4000122C3F808230D4B587910B95A711B687C
:1087B40098470B4B1B6873B14FF48270FFF788FF27
:1087C4004FF080430222C3F80823044B01201B68A6
:1087D400BDE81040184710BD00010040E0510020E2
:1087E4000401004000F1804000F5C040002382B045
:1087F400036003680193019B02B07047800000F19D
:10880400A040D0F8003723F44033C0F80037D0F844
:10881400003743EA0141C0F800177047054B4FF099
:10882400FF32072843F8202084BF1B1883F8482010
:10883400704700BFE851002010B5174C94F8583029
:1088440043BBFF21E2180133202B82F83010F9D109
:108854000021C8B2FFF7E2FF01310C29F9D104224B
:1088640000210E4806F0E2FF0D4BE02283F80623B8
:108874004022C3F880214FF4BE701A60FFF7B2FFA4
:10888400084B4FF00042C3F80423012384F8583006
:10889400002010BD0820FCE7E85100203C520020D5
:1088A40000E100E000600040034B93F85800003002
:1088B40018BF0120704700BFE8510020F0B5394DC2
:1088C4002C18944694F93040002C68DA8E78C6F35C
:1088D4004006002E15BF0023082308270C27BB429F
:1088E40001D10420F0BD55F8232001324FEA83045E
:1088F40041D12F1845F823C087F8303016B9EA184B
:1089040082F848008A78560716D4D70735D58200EE
:1089140002F1A042D2F8006726F00206C2F800670E
:10892400214FC60800F0070C012202FA0CF217F8D6
:1089340006C042EA0C02BA558A780E7812F0020296
:1089440024D004F1804303F5C0430002D3F810257A
:1089540022F4473222F44072C3F810253604D3F8C7
:10896400102500F4F85006F4403630431043C3F8A1
:1089740010050020B6E70133B1E74E7800F5E07248
:108984004FF0A047B60047F82260C9E7083B2B44E4
:1089940093F8500040EA861683F85060E9E708200F
:1089A400A0E700BFE85100203C52002038B5204C1D
:1089B400251895F93020072A18DD224492F848300A
:1089C4009B09032B0DD14FF0A043D3F81035C340BE
:1089D40013F0010F0CBF02210321BDE83840FFF75B
:1089E4000DBF012B14BF03210221F6E7D3B2072BDD
:1089F4001CD8930003F1804303F5C043D3F810055A
:108A040040F00100C3F8100502F14000800080B27C
:108A1400FFF7E8FE51B195F9303054F823302BB10B
:108A2400012303FA02F2034BC3F8042338BD00BF49
:108A3400E8510020006000404FF0A043D3F8103507
:108A440023FA00F000F00100704700002DE9FF4711
:108A54000024594A594E5A4D019401211368A2F534
:108A6400C040012B80B206D1D6F804330B4202D0A9
:108A7400FFF7B8FE0C430432AA424FEA4101EDD19C
:108A8400504B1B68012B0AD14FF4BE70FFF7AAFEAE
:108A94004FF0A04344F00044D3F81035019314F090
:108AA400FF0F1AD0484F01260025344210D0AB00E6
:108AB40003F1804303F5C043D3F81005D3F8101530
:108AC40057F82530C0F30420C1F3014103B198479E
:108AD4000135082D4FEA4606E7D1002C68DA00225A
:108AE4004FF0FF33CDE90223DFF8DC9001260024A8
:108AF400A0464FF0A04709EB080393F95020531CFC
:108B040045D0D2B222F0C005E90804A8084402F016
:108B1400070310F804CC06FA03F31CEA030F36D05B
:108B240009EB050C92099CF930C059F82CA0BAF154
:108B3400000F0AD1032A2AD10DF1080E1EF801C034
:108B44004CEA030C0EF801C001E0032AF4D005F549
:108B5400E07110F80C0C57F821101842C1F30141D0
:108B640005D0022913D1032A0BD1114604E00329AD
:108B74000DD1032A05D102212846FFF73FFE013417
:108B8400E4B2BAF1000F02D011462846D04708F1EA
:108B94000108B8F1040FAED154B14FF0A043019ACB
:108BA400D3F81035934203D00193029B03939EE7BD
:108BB40004B0BDE8F08700BF0061004000600040E1
:108BC400206100407C610040E8510020014B1B689B
:108BD400184700BF445200200D4B984237B50D464C
:108BE40010D102A8002300F8013DFDF7E5FF094B71
:108BF4001C7914B901221D601A719DF80700FDF754
:108C0400FFFF14B9002003B030BD1120FBE700BF03
:108C140000200040445200200023435082B04358B7
:108C24000193019B02B070472DE9F041234EDFF818
:108C34009480234F00254FF48034D6F8043305F193
:108C440050018900234289B20ED005EB08039B0032
:108C54001B684BB1C6F848433046C6F80843FFF7D3
:108C6400DBFF3B68E8B298470135042D4FEA440422
:108C7400E3D1124CD4F80433DA070BD5D4F800311D
:108C840043B120464FF48071FFF7C6FF0C4B2846D2
:108C94001B689847D4F804339B070DD5D4F80431E6
:108CA40053B106484FF48271FFF7B6FF044B052019
:108CB4001B68BDE8F0411847BDE8F0810040024060
:108CC4004C5200205090001000F1804303F598337B
:108CD40082B01A686AB1084AD2F80423114208D053
:108CE40000221A601B680193019B044B1B6802B0AD
:108CF400184702B0704700BF0030014050520020B6
:108D040008B501214FF48070FFF7DEFF02214FF414
:108D14008270FFF7D9FF04214FF48470FFF7D4FF6A
:108D240008214FF48670BDE80840FFF7CDBF00006E
:108D3400F8B5334D2B780446002B5CD1314B324EC1
:108D4400196030463149FFF747FF002855D1012308
:108D540073602368C6F8000503F00F02C6F80825FF
:108D640003F00702072A217994F808C004BFC3F36B
:108D74000043C6F80C35244B01F00302C3F8202548
:108D8400627902F00102C3F8382500260F22C3F8E5
:108D94000062C3F80823D3F80075C3F80065D3F85C
:108DA400042522F0070242EA0C020129C3F8042533
:108DB400C3F8007516D01CD3022917D0D3F80022AB
:108DC40042F00102C3F80022637A114A5B01DBB26C
:108DD40082F813334FF40023C2F880311360012367
:108DE4002B70F8BD0422C3F80423E7E7C3F8041387
:108DF400E4E70822F7E70820F3E71120F1E700BFD2
:108E0400545200205052002000300140058D0200D1
:108E140000E100E0084B00220121C3F80015C3F86B
:108E24000021C3F80421C3F80821C3F80C211960F8
:108E3400024B02221A707047003001405452002045
:108E44000023435082B043580193019B02B0704702
:108E5400D0F8103170B505460C4653B14FF4887103
:108E6400FFF7EEFF63795A0703D523680BB101209E
:108E74009847D5F814315BB14FF48A712846FFF74F
:108E8400DFFF63791B0703D523680BB102209847E2
:108E9400D5F81C315BB128464FF48E71FFF7D0FF33
:108EA400607910F0100002D1236803B19847D5F817
:108EB400043163B14FF482712846FFF7C1FF0123E7
:108EC400237123681BB10320BDE87040184770BDAF
:108ED40038B51D4602230B710B684A7104467BB1F9
:108EE40012F0040F14BF92218221100748BF41F0F1
:108EF4002001D306236848BF21F08001C3F8001382
:108F040020684FF48271FFF79BFF206812F0800FF6
:108F140005BF012343514019002038BD2DE9FF4707
:108F240090F804804A4C4FEAC80563190E46197933
:108F3400074601F0FF03002940F0888044F83820F8
:108F44004FF0FF3E4FF001094FF0A0414FF0030AEC
:108F5400F05CFF2877D020F080024DF8232009FA36
:108F640002FC02F5E07200064CBFC1F808C5C1F866
:108F74000CC541F822A00133042BE9D13868009BC9
:108F8400C0F86035019BC0F86435029BC0F86835B1
:108F9400039BC0F86C350123C0F80035B2793389DE
:108FA4007179C0F80C15C0F80425C0F80835738928
:108FB400C0F810350023C0F800324FF48E71C0F8A9
:108FC4000033FFF73DFF4FF488713868FFF738FF2F
:108FD4004FF48A713868FFF733FF4FF482713868B1
:108FE400FFF72EFF54F8383033B33A683179120B57
:108FF40053B2002BA8BF03F16040D2B24FEA53131F
:10900400B8BF02F00F064FEA4111B4BF114800F592
:1090140061404FEA8303C9B203F16043B4BF815591
:1090240080F8001303F5614302F01F02012101FAE5
:1090340002F2C3F880211A602C440123237100201A
:1090440004B0BDE8F0874DF823E094E70820F7E783
:109054005852002014ED00E010B504790068020BAA
:1090640053B201215B0902F01F0201FA02F220331C
:10907400054941F82320054B03EBC4030022C0F843
:1090840000251A7110BD00BF00E100E05852002015
:10909400F0B40D461C461A490379D5F800C0AF88D0
:1090A400AE68ED6801EBC3010368C3F820C5C3F8DB
:1090B4002475C3F82865C3F82C55C3F840C5C3F814
:1090C4004475C3F84865C3F84C5502F0010505EB37
:1090D4005202C3F81425E20710D414F0020203D09C
:1090E400002D14BF08220422002DC3F80022E2B28E
:1090F40014BF0C230823F0BCFFF7EABE1022F3E7E9
:109104005852002001490248FFF7A2BE58520020DD
:1091140000C0014001490248FFF79ABE6052002096
:10912400001002400023435082B043580193019B36
:1091340002B07047F0B54C4A4C4CD2F8243187B099
:109144001546A3B14FF492711046FFF7EBFFD2F826
:10915400043163B9A368C2F808330223A360A36887
:10916400C2F8043301231362536107B0F0BDD5F88C
:109174000431002B49D03E4F3B484FF48271FFF736
:10918400D1FF0FCF01AE0FC63B68336094F82E3089
:109194007BB1237B012B0CBFD5F83C25D5F84C259E
:1091A4000292022B304B0CBFD3F83C35D3F84C352C
:1091B40003934FF4B0712C48FFF7B4FF4FF4AE7132
:1091C4002948FFF7AFFF94F8303013B194F82E30EC
:1091D4003BB1254B0022C3F80022A260254AC3F804
:1091E4000823214AD2F8C434C2F8C4349A0736D5C5
:1091F40001238DF8003094F830300BB984F82F3007
:10920400D4E9003168469847AFE74FF4A471164893
:10921400FFF788FF237B83B9154F0FCF01AE0FC62D
:109224003B68336094F83030002BDAD1C5F8003253
:10923400A360104BC5F80833D3E74FF40073C5F8A7
:10924400003240F20223A36003F1CE73C5F8083361
:10925400A368C5F804330123AB602B6285E713F0E0
:10926400040318BF0223C4E7003000406852002002
:109274007452002002029C012DE9F84F0579364C06
:109284004FF0340808FB05F804EB08079B4697F8F1
:109294002D3081460E469246002B59D12F49006845
:1092A400FFF79AFC002855D13168737B87F8323078
:1092B40001F5E0724FF0A043B860C7F804B087F836
:1092C4002F0087F8300040F20C6744F808A043F8F8
:1092D4002270726802F5E07C43F82C70D9F80030F3
:1092E400C3F80815C3F80C25B268C3F82425BAF1ED
:1092F400000F25D01A0B53B2317B002BA8BF03F10A
:109304006046D2B24FEA5313B8BF02F00F074FEAD8
:109314004111B4BF124E06F561464FEA8303C9B248
:1093240003F16043B4BFF15586F8001303F56143BC
:1093340002F01F02012101FA02F2C3F880211A602F
:10934400342303FB0544012384F82D30BDE8F88F52
:109354000820FBE71120F9E7685200203991020048
:1093640014ED00E0026803790621C2F80015044AEE
:10937400342101FB0323022283F82D20704700BF10
:10938400685200202DE9F843CB6803F06043B3F141
:10939400005F0D46904603D010221046BDE8F883C6
:1093A4000779944E0468944BC4F808334FF0340C96
:1093B4000CFB076C9CF82F302BB1DCF80830C4F898
:1093C40004331122E9E712F0140F0CBF0123002328
:1093D4008CF82F308946B9E80F000CF10C0EAEE87A
:1093E4000F00D9F80030CEF80030C8F300138CF821
:1093F40030306B78C4F888354FF482712046FFF71B
:1094040091FE4FF49271FFF78DFE18F0010318BF1F
:109414000123C4F8503518F0020318BF0123C4F81F
:1094240040352B78032B00F2C380DFE803F083ABD5
:1094340067022B6903F06043B3F1005FACD14FF4D2
:109444008073EA68C4F800326B68C4F844254FF4AA
:10945400A871C4F84835FFF765FE4FF4B071FFF703
:1094640061FE4FF4A471FFF75DFE01232362A36044
:10947400D4F85031002BFBD04FF4A8712046FFF7ED
:1094840051FEAB682A69C4F84425C4F848355B4AE0
:10949400342303FB07639A604FF48273082100228C
:1094A40018F0080F04D1287803281CBF012060504D
:1094B400342179437018715800297ED10125234441
:1094C4001968002900F086803421D4F8C434C4F823
:1094D400C43401FB0766002186F82F10002B3FF4EB
:1094E4005CAF13F0020F48F2012208BF032213F00D
:1094F400040F48F2022318BF1A464EE76B68EA6865
:10950400C4F84425C4F848352B6903F06042B2F12D
:10951400005F7FF441AFAA68C4F834354FF4845334
:10952400C4F83825C4F80032342303FB076340F23F
:109534000222B0E76B68EA68C4F8442518F0200FEB
:10954400C4F848354FF0340310D003FB07634FF4DD
:109554008072C4F80022294A9A604FF4A471FFF77C
:10956400E1FD4FF4A4730122226297E74FF40072E5
:1095740003FB0763C4F8002240F202229A604FF40E
:109584008273F0E76B68EA68C4F83425C4F83835A8
:109594004FF48053C4F80032342303FB076340F2D2
:1095A40002229A600123236200214FF4827376E73A
:1095B4004FF482730821072272E718F0040F1CBFCE
:1095C4004FF400738360342303FB0766B368C4F865
:1095D4000433E2E6D4F8241100293FF471AF4FF4C8
:1095E40092712046FFF79EFD25624FF482736561F8
:1095F40065E700BF6852002002029C0100020400DB
:10960400F0B587B004460F4615460021142201A880
:109614001E4606F00BF99DF830308DF80570002BCE
:1096240014BF2022002201A9204602960495FFF7C8
:10963400A9FE07B0F0BDF0B587B004460F46154645
:10964400002112220DF106001E4606F0EFF8012358
:10965400002201A920468DF804308DF80570029689
:109664000495FFF78FFE07B0F0BD00001FB5037827
:109674008DF8003003798DF8043043798DF8053086
:1096840083688DF80630C3688DF807300369029348
:1096940043690393054A064B684653F8213052F850
:1096A4002110984705B05DF804FB00BF9C520020D0
:1096B400A4520020024B4FF4807043F0010318477A
:1096C40020FA02002DE9F04791460778324A42F821
:1096D4002790324A42F827304B7B80460C4663B3CE
:1096E4000868496882008B0002F1A04203F1A0439C
:1096F40040F20C65C2F800570126C3F800574FF03A
:10970400A04506FA00F006FA01F1C5F80805C5F807
:10971400081540F20D61C2F80017C3F80017FFF7EF
:10972400C9FF4FF0000AD5F81025636822FA03F345
:10973400DB070FD5BAF1000F1FD1B9F1000F3B467B
:10974400174A214608F1040008BF0022BDE8F0478B
:10975400FFF792BD236806FA03F3C5F80C35FFF74B
:10976400A9FF236806FA03F3C5F808350AF1010ACC
:10977400FFF7A0FFBAF1090FD5D1636801254FF0B7
:10978400A04605FA03F3C6F80C35FFF793FF6368A8
:109794009D40C6F80855D0E7A45200209C520020F2
:1097A4007196020000F1804000F5E040002382B091
:1097B400036003680193019B02B07047F0B5514BFD
:1097C400514C1B6885B0DBB14FF4827094F82E20A5
:1097D400FFF7E8FF12B194F82F30A3B16368029346
:1097E4002389ADF80C30E36800218DF80410002BB8
:1097F40044D12374236801A89847002384F82F30A8
:1098040094F82E3003B3414B1B68EBB14FF48070D6
:10981400FFF7C8FF94F82D20638B91B28B4238D99F
:109824005B1A21899BB26383CB1A616801EB430104
:10983400374BC3F82C16C3F830264FF48270FFF769
:10984400B1FF344B01221A60334B1B685BB14FF4F8
:109854008870FFF7A7FF002304A82374022300F8ED
:109864000C3D236898472D4B1B6813B34FF48A7043
:10987400FFF798FF0023237405B0F0BD208B6083AD
:1098840063602081E160002AB4D1214B01221A6077
:10989400B0E7D2D1E368012184F82F103BB1002155
:1098A40061831B49C1F82C36C1F83026C5E76383B0
:1098B400C3E766694FF000470125002EDCD0B6FAF5
:1098C40086F227FA02F34632920026EA030602F1F0
:1098D400804303F5E0431B68002BEED01046FFF7EE
:1098E40061FFA2F58C72D30882F00402C2F38002F5
:1098F4008DF808308DF804508DF80920236801A8EC
:109904009847DAE704710040AC520020007100402F
:109914000070004004700040107100401471004059
:1099240038B51D4B044693F82C0098BB1B4A1960AC
:109934002178C2F8F0156178C2F8F415E578187446
:10994400012183F82C1083F82D00586183F82F002F
:1099540083F82E506FF00043C2F808334FF482703E
:10996400FFF720FF4FF48070FFF71CFFA3780C482B
:109974005B01DBB280F807338023C0F880310360D9
:109984000223C2F804330DB1C2F80413C2F800155F
:10999400002038BD0820FCE7AC52002000700040D5
:1099A40000E100E02C4B1A7C70B502F0FF05002AA0
:1099B4004FD10A79012A9CBF284CC4F8005500F104
:1099C4000C0503EB4504247924B993F82D400134A4
:1099D40083F82D4003EB4503CC790D7A8E781C7106
:1099E4005D714B7836021B0106F4E06603F0300328
:1099F40033430E7806F003063343CE78360306F479
:109A040080563343160406F4E02633434E798979AD
:109A1400360506F480160906334301F080710B43C2
:109A24000E4901EB0016000100F1804000F5E04012
:109A3400012AC6F81835C0F81455C0F81045C0F806
:109A44001455C0F8104502D80123C1F80035002090
:109A540000E0112070BD00BFAC5200200070004037
:109A6400264A274B70B505461220C2F808031C7C11
:109A7400022C03D1C2F80403112070BD187C012804
:109A84001DD1D86818B10223C2F80433F4E7DD60AD
:109A9400198393F82E3063B91A4A1368002BFCD04B
:109AA4004FF48070FFF77EFE144BC3F82C56C3F8B6
:109AB4003016124B0222C3F804230020DDE70220F3
:109AC40093F82E40C2F80403012600201E745D6042
:109AD4001981D8603CB1598393F82D30C2F82C56C3
:109AE400C2F83036C9E7C2F82C564FF48070C2F879
:109AF4003016FFF757FE20461660BEE700700040A0
:109B0400AC52002000710040084A137CDBB2012BE8
:109B140009D192F82E0018B1054A0020136070474D
:109B2400044A136070470820704700BFAC520020FD
:109B34000070004004700040F0B51B4F8BB207EB7F
:109B4400001443EA0243C4F81C35184B40005C6916
:109B540000F1010C4FF0004611F5006F26FA0CF6E7
:109B64004FF0800505FA00F50BBFB44334435C6144
:109B74005C610CBFC7F80853C7F8045340244FF086
:109B840000455969844025FA00F040F2FF75AA4265
:109B9400054A0BBF81430143596159610CBFC2F8A7
:109BA4000843C2F80443F0BD00700040AC520020EA
:109BB400124B1A7C10B5FAB900F10C0103EB410207
:109BC400127922B193F82D20013A83F82D2003EB6A
:109BD400410300241C715C71030103F1804303F50C
:109BE400E04340F2FF72C3F814450549C3F8104539
:109BF400FFF7A2FF204610BD1120FCE7AC52002065
:109C040000F8FFFF38B5134B6FF00042C3F8082388
:109C1400114A8021C2F88010104A012111601049B4
:109C240042F21072086808B9013AFBD10D4D0024C4
:109C3400C3F800452C7405EB44031B7F13B1E0B259
:109C4400FFF7B6FF0134082CF5D1002385F82C303A
:109C540038BD00BF0070004000E100E00870004023
:109C640014710040AC52002008B5012202210020EA
:109C740000F0D2F808B1072810D1072202210120F0
:109C840000F0CAF808B1072808D100210A220846C2
:109C940000F0C2F810B1072808BF002008BD00007A
:109CA4000388102B10B502D0112B1ED010BD1A4CF6
:109CB4002168B1B90122084600F0AEF808B10728BE
:109CC40024D107220221012000F0A6F808B10728B8
:109CD4001CD104220221002000F09EF808B10728BC
:109CE40014D1236801332360E0E70B4A1368013B76
:109CF4001360002BDAD1FFF7B7FF0028D6D0074B4B
:109D04001B68002BD2D0BDE810401847034B1B68DA
:109D1400002BE6D09847E4E7E0520020DC52002014
:109D24002DE9F04781460D46FEF704FC022804465F
:109D340004D8012D04D024D3022D2FD0BDE8F08700
:109D4400194D47003A18A918AE5C4A7852B1DFF8A9
:109D54006880164842464FF40041FCF7D9FE08B922
:109D640088F800903B192B449A78114B1A55002E11
:109D7400E4D0104B1B68002BE0D03046BDE8F04720
:109D840018470A48FCF708FF074B04EB4402134446
:109D94009E78074B1B5DB342D0D1E8E7024B00EB42
:109DA40040041C446678E2E708530020E85200208F
:109DB4001853002014530020E4520020022100789C
:109DC400FFF7AEBF08B50F4B10F00200196017D0B3
:109DD4000D4B0E480E221A700F22DA7010229A715F
:109DE400032140F26662FCF7CDFB48B9FCF71EFC88
:109DF40030B90146064A0748BDE80840FCF776BE7C
:109E040008BD00BF145300200853002028FA0200A4
:109E1400C19D020040FA0200022812D8012A0BD187
:109E2400012908D100F10E02D2B200EB40000C4B24
:109E34001A540020704700220129F6D009D30229C0
:109E440001D007207047064B00EB400018444270D5
:109E5400EFE7034B00EB400018448270E9E700BFD2
:109E6400085300206DDF704779DF70477DDF70474E
:109E740064DF70472DE9F74F0C9CBDF834B0278898
:109E8400002580468A4691462E46B8F80020B24204
:109E94000BDC35B12288013AD21B92B2FF2A39D8A1
:109EA400DA55002003B0BDE8F08FD8F8042052F84A
:109EB4002600019000220DF1030101A8FFF7D8FF4D
:109EC4000028EFD19DF803204A4521D12288002D96
:109ED40014BF0020022002EB09010144594519DC9A
:109EE4003DB9013292B2228003F802A022880132E5
:109EF400228022880DF103011A4401A8FFF7B8FF5C
:109F04000028CFD121889DF803200A44228001250E
:109F14000136BAE70C20C5E72DE9F341089CBDF8EA
:109F240024501746CDE9004502220646FFF7A2FF5A
:109F340048B9102239463046CDE9084502B0BDE89B
:109F4400F041FFF797BF02B0BDE8F0812DE9F04F73
:109F540000231688138090F82D3085B007460D46EF
:109F6400144653B3082E01D80C2004E102A8FFF7CD
:109F740079FF002840F0FF8013880822CA54238800
:109F840001339BB21B222380CA542088013080B243
:109F9400208006220DF10901284405F01EFC2388C7
:109FA4009DF8082006339BB212F0FE0218BF01226E
:109FB4002380EA54238801332380BB78FBB12388B0
:109FC4000433B342D0D802A8FFF74EFF002840F074
:109FD400D28023880322EA54238801339BB21922B6
:109FE4002380EA542388BDF8082001339BB2E91882
:109FF4002380EA54120A4A70238802332380FA78B1
:10A004009AB12388D91CB142AED80221E9542388DD
:10A0140001339BB201212380E95423880B449BB272
:10A024002380EA5423880B4423807A68AAB12388C6
:10A03400D91CB14298D8022192F90020E95423880E
:10A0440001339BB20A212380E954238801339BB254
:10A054002380EA542388013323803B89002B7ED15B
:10A064003B8A53B1CDE900462B460722032107F171
:10A074001000FFF751FF00287DD13B8B53B1CDE990
:10A0840000462B461522142107F11800FFF744FF60
:10A09400002870D13A6A002A70D1D7F82480B8F128
:10A0A400000F30D0B8F804302188981C8A1C024470
:10A0B400B2423FF659AFFE283FF656AF03336B5416
:10A0C400238801339BB2FF222380EA54238801337F
:10A0D4009BB22380B8F80020EA54E918120A4A70A7
:10A0E4002088023080B22080B8F804205AB1D8F811
:10A0F400081000294CD0284405F06FFB2388B8F8D9
:10A1040004201344238097F82C30002B7BD138781B
:10A1140088B33B88012B3BD021888A1CB2423FF68E
:10A1240023AF012805D17B7802330B449E42FFF410
:10A134001BAF023E761A04A9B6B221F8086DA8181E
:10A14400FFF794FEB8B93B78022B40F09F80BDF82E
:10A154000830B34240F2B680ADF808609FE0CDE924
:10A1640000462B460622022107F10800FFF7D4FE21
:10A1740000283FF475AF05B0BDE8F08FB4F800C017
:10A184000CF10603B3423FF6EFAE1188052901D85E
:10A194000720F0E76FF4486E01EB0E039BB24FF219
:10A1A4007D3E7345F4D95388052BF1D96FF448608B
:10A1B400181880B27045EBD94FF6FF70814203D076
:10A1C400834201D09942E3D8052305F80C30238853
:10A1D40001339BB212212380E954238801339BB2BB
:10A1E40023801188E954E818090A4170238802334E
:10A1F4009BB223805288EA54E918120A4A702388D1
:10A204000233238049E7BB6A002BC1D04FF0000919
:10A214004FF00C0A4FF0160B97F82C305FFA89F2C6
:10A2240093427FF674AFB96A0AFB02F201EB0208AB
:10A23400B8F80430981CFE283FF696AE2088033305
:10A244002B54238801339BB2238005F803B0238861
:10A2540001339BB223808A5AEA54E918120A4A70DD
:10A264002088023080B22080B8F804205AB1D8F88F
:10A27400081000298CD0284405F0AFFA2388B8F8D8
:10A2840004201344238009F10109C5E7012B7FF45D
:10A2940063AF7B789E42FFF45FAFADF808300821CE
:10A2A400BDF80830FE2B3FF65FAE22880133AB5475
:10A2B4002288013292B22280A95422881344238036
:10A2C400002058E70921EBE770B5C0B14AB1168800
:10A2D4000024B44203D305196D789D4208D0A142ED
:10A2E40001D800200BE0055D01352C44A4B2F0E751
:10A2F400A142F6D9A31C1380005D013880B270BD61
:10A3040037B502AC002324F8023D13462246054625
:10A31400FFF7DAFF10B1BDF80600284403B030BDE2
:10A3240072DF704773DF704738B5012204460D466B
:10A33400B0F89810D0F89400FFF7E2FF00B1057070
:10A3440004F13C0204F1940104F15400BDE83840E6
:10A35400FFF7E6BF80F830107047F8B504460F46A3
:10A36400002968D0002866D091F87A301BB191F8A2
:10A374009830002B61D1D7F8A030042B5DD0D7F8EA
:10A384009C30042B59D007F178060FCE4FF0000C07
:10A39400251D84F802C00FC50FCE0FC596E807002F
:10A3A40085E8070084F830C0D7F8A4306363D7F891
:10A3B400A830A3634FF6FF7504F19403C4F8A430E6
:10A3C400A4F8A8500722614604F1AA0005F02EFA69
:10A3D40023780BB984F85450224604F155011F2503
:10A3E400C4F89410384622F8985FFFF7AFFD08BB15
:10A3F400224604F17401C4F89C1007F13C0022F8D1
:10A40400A05FFFF7A3FDA8B9A269A4F8482001231F
:10A414006269206484F850006264014684F8513013
:10A4240084F83C3004F13C0204F15400FFF778FF57
:10A4340000B92370F8BD0E20FCE70720FAE7F8B551
:10A44400077804460D46002F00F00E81A17000200D
:10A45400FDF7ACFC014618B1012363700020F8BD80
:10A4640004F1AA060722304605F0E0F9E38813B1A7
:10A47400A378012B04D0E3794BB1A378022B06D146
:10A48400636BA3B1012284F8B120082098473346B6
:10A4940004F1B00113F8012F12B99942FAD1174609
:10A4A4006B1E032B53D8DFE803F0050B0F1284F85F
:10A4B400B130ECE7A3791BB194F8243003B95FB948
:10A4C400E3790BB1002F44D1237A002B43D1637A73
:10A4D400002B0CBF00250425636BA570002B3CD01A
:10A4E400033D012D39D86279002A36D094F8B22080
:10A4F400002A32D184F8B420012284F8B320072042
:10A50400984704F13C0518220021284605F08EF9ED
:10A51400E36A94F824200121581E884288BF0B4620
:10A5240084F83C1084F8513032B1884296BFA36A53
:10A5340084F8521084F85230A178002384F8503003
:10A5440004291BD8DFE801F07A0D25385C000025CA
:10A55400C2E70225C0E70325BEE7002384F8B33031
:10A56400CFE7C4F8A430C4E910630223012284F8BD
:10A574003C30802384F83120A4F84830A378002BA1
:10A584005FD1636B002B3FF469AF94F831009847B7
:10A5940064E7022384F8313062B1072384F83C3045
:10A5A4002369A4F848300023C4F8A430E36826647F
:10A5B4006364E3E70323F1E763696364A369A4F8CD
:10A5C400483012B1062384F83C306379B3B194F86F
:10A5D400B2309BB994F8B43083B1022384F850307C
:10A5E40004212046FFF7A0FE0028C7D1052384F8E4
:10A5F400313004F19403C4F8A430BFE70323F6E731
:10A60400E3696364236AA4F8483012B1062384F82A
:10A614003C30637983B194F8B2306BB994F8B430B8
:10A6240053B1022384F8503004212046FFF77CFE06
:10A634000028A3D10623DAE70423D8E784F83130CD
:10A644009CE72A46D4F8A41004F15400FFF768FEEE
:10A6540000287FF404AF94F8301094F85400FFF706
:10A6640061FE00288DD0FAE60820F8E60388112B55
:10A6740010B50C460AD0262B1FD0102B05D1C37B56
:10A68400012B02D18388A1F8A83010BD0022838851
:10A6940081F8B220B1F8A8209A42F6D10B79002BA8
:10A6A400F3D101212046FFF7CAFE0028EDD0A36BA9
:10A6B400002BEAD0BDE810401847037A013B012B78
:10A6C400E3D889780523013191FBF3F303EB83038A
:10A6D400C91AC9B2E6E70238012810B50C460DD8EC
:10A6E4004B785BB100234B7020468978FFF7A7FEB7
:10A6F40020B1A36B13B1BDE81040184710BD90F80A
:10A70400B3306BB1002380F8B3303AB9009B003307
:10A7140018BF012380F8B430002070470123F9E703
:10A724000820704775DF704776DF70477ADF70471F
:10A734007BDF70470A4A138883420AD0938A834294
:10A7440009D0138D834208D10223142000FB032077
:10A7540070470023F9E70123F7E70020704700BFA3
:10A7640038530020024B9B6903B11847704700BF60
:10A774001C53002037B585B22846FFF7DBFF03469C
:10A7840070B1164C017A227B91420BD200F10A017E
:10A794002846FFF7C7FFE8B1112801D0FFF7E2FF11
:10A7A40003B030BD237C0022027243B13B21284612
:10A7B400FFF7BAFF30F0080301D0FFF7D3FF636956
:10A7C400002BEDD000228DF80420ADF8065001A82E
:10A7D4009847E5E71A7A01321A72E1E71C53002020
:10A7E40013B50B46497A0F4C024669B9D4E90110F6
:10A7F4001C7A002C18BF01465868FCF789F908B187
:10A80400FFF7B0FF02B010BD002119726369002B7D
:10A81400F8D00121ADF806008DF8041001A898477E
:10A82400F0E700BF1C5300208388B3F5FA7F28BFEC
:10A834006FF4F97230B528BF9C1805884A8838BF70
:10A84400002495420CD84088904209D38A88A242B9
:10A8540006D303F2F310904234BF0020012030BD30
:10A864000020FCE70388112B70B5014648D002D8BC
:10A87400102B1ED070BD122B52D0502BFAD12F4B5F
:10A88400C288DB899A42F5D1038A022BF2D18688E9
:10A894003046FFF74FFF05460028EBD001F11200C8
:10A8A40000F000FA30BB6868FCF776F90028E1D0C4
:10A8B40009E0C37B012BDDD14FF6FF70FFF73AFFB0
:10A8C400054620B90420BDE87040FFF74BBF1C4A81
:10A8D4008E880680002303721368C5F80A300A3094
:10A8E400536843601031FFF79FFF144B6872DB8994
:10A8F400002BBFD129463046BDE87040FFF770BF3A
:10A904008088FFF717FF04460028B3D04068FCF79F
:10A9140043F908B1FFF726FF4FF6FF732380A9E739
:10A9240086883046FFF706FF05460028A2D0083186
:10A934000A30FFF779FF6872DCE700BF1C53002080
:10A9440074530020F8B50646002840D005460FCDC4
:10A95400214F3C460FC495E8070084E8070030689F
:10A964001E4B3B6068B3FFF7E1FE48BB31680A68E1
:10A974001A604A685A601A4C1A4D1B4A20464FF610
:10A98400FF760021268040F8045FFCF7AFF801460B
:10A99400F8B9204605F12003A68240F8183F124A70
:10A9A400FCF7A4F80146A0B920464035268540F8B6
:10A9B4002C5F0D4AFCF79AF8002814BF03200020EE
:10A9C400F8BD1846FFF7B4FE0028D4D0F8E70E20EF
:10A9D400F6E70320F4E700BF1C5300207453002063
:10A9E400385300207C53002079A70200F7B517469E
:10A9F40001900E4691B1019C6CB100252C4629466C
:10AA040001A8FDF7F0F818B13946A8B2B0470134EF
:10AA14000135142DF3D1204603B0F0BD0C46FAE7FE
:10AA240073B50191019C06466CB100252C4629465C
:10AA340001A8FDF7D8F818B106EB440301349D8052
:10AA44000135142DF3D13046346002B070BD0000DE
:10AA54002DE9F04303888488112B8DB0064640D03D
:10AA64001A2B43D0102B16D1294DAB680CA8DB430D
:10AA740040F8303D55F8041FFDF70BF9009901A883
:10AA8400FFF7CEFF0027019B9F4207D3132C18D951
:10AA94000420FBF7E1FD0DB0BDE8F08301AB03EB4F
:10AAA40047034FF00008B3F8049005EB080049464B
:10AAB40008F10408FDF78DF8B8F1740FF5D10137EA
:10AAC400E1E721461348FDF76DF821461248FDF7EA
:10AAD40069F8F37B012BDED010482146FDF762F8BC
:10AAE400D9E70C482146FDF774F8D4E7057A0C48F9
:10AAF4002D09012D214606D9FDF754F8022D2146D2
:10AB04000848F0D0EAE7FDF764F821460548EAE78B
:10AB1400DC530020E4530020E0530020E8530020DD
:10AB2400EC530020F053002073B502AE002446F825
:10AB3400040D254621463046FDF755F800B1013590
:10AB44000134142CF6D1284602B070BD13280146F6
:10AB540002D80248FDF747B800207047E0530020B0
:10AB640010B50446FFF7F2FF38B121460348FDF75C
:10AB74003AF8002814BF0220012010BDE853002039
:10AB840010B50446FFF7E2FF38B121460348FDF74C
:10AB94002AF8002814BF0220012010BDE45300202D
:10ABA40010B50446FFF7D2FF28B121460248BDE89C
:10ABB4001040FDF718B810BDEC53002007B5074A44
:10ABC400D36802A8DB4340F8043D9168FDF761F8BF
:10ABD4000198FFF7A9FF03B05DF804FBDC530020E4
:10ABE40010B5034B04465968FFF71AFF204610BD01
:10ABF400DC53002008B518210248FCF7FDFFC0B261
:10AC040008BD00BFDC53002070B50A4D0646284637
:10AC14000C46FCF7E8FF58B13046FFF797FF38B110
:10AC2400A01D314605EB8000BDE87040FCF7DBBF9A
:10AC3400002070BDDC530020F8B50D4C05462046BD
:10AC44000E461746FCF7CFFF80B12846FFF77EFF7C
:10AC540060B1B01D04EB800029461FB1BDE8F84087
:10AC6400FCF7A0BFBDE8F840FCF7B3BFF8BD00BFD8
:10AC7400DC530020F8B50A4C05460E460146204632
:10AC84001746FCF7B0FF48B1043504EB85043A4697
:10AC9400A0683146BDE8F840FFF7A8BEF8BD00BF84
:10ACA400DC530020007800F0010070470078C0F306
:10ACB400400070470B7803704B7843700220704754
:10ACC40038B5044608460D4604F0E3FD656020806F
:10ACD40038BD10B50446408800F01EFCA080204614
:10ACE400BDE8104001F0AEBC30B587B005460C4657
:10ACF4001422002101A804F099FD072301A88DF86E
:10AD04000430ADF806500394FFF7E3FF07B030BDFD
:10AD140030B587B005461422002101A804F086FD51
:10AD24004FF6FF739D42ADF806501AD0284600F046
:10AD340028FA0B2804461DD005D8A0B12146284680
:10AD4400FFF7D2FF05E0112805D043F20203984231
:10AD5400F4D1002200E00122074B28461978FFF7BE
:10AD64006BFF07B030BD0E2301A88DF80430FFF748
:10AD7400B0FFEEE70F23F7E755540020FFF7C8BFF5
:10AD8400024B034918780022FFF774BF5754002080
:10AD9400ADAD0200024B034918780022FFF76ABFE9
:10ADA4005654002045AE020070B5234E86B031786B
:10ADB4000446FFF729FF0546C0BB204600F030FAE1
:10ADC4000828014622D006D888B106281ED020467D
:10ADD400FFF78AFF09E043F20203984205D043F2E9
:10ADE4000143984224D01128F1D1012214E02946CC
:10ADF400142201A804F01AFD102301A88DF80430D0
:10AE0400ADF806400125FFF764FFEEE7204600F0A9
:10AE140083FB00F01FFA0022084B20461978FFF745
:10AE24000BFF2A4631782046FFF706FF06B070BDB7
:10AE34002046FFF76DFFD8E75854002057540020F0
:10AE440070B5002186B006461C4801F05FFE054639
:10AE540008B3304600F050F9112801461DD004D83B
:10AE640060B13046FFF740FF05E0862817D043F273
:10AE740002039842F5D10024254601E02C460546FC
:10AE84000F4B2A4619783046FFF7D6FE1CB92146E7
:10AE94000A4801F060FE06B070BD0024F0E71422F9
:10AEA400002101A804F0C2FC062301A88DF8043097
:10AEB400ADF80660FFF70DFFDDE700BF5454002036
:10AEC40056540020037810B5044673B94088FFF740
:10AED4001FFF608800F092F938B1044B608819783C
:10AEE4000122BDE81040FFF7A7BE10BD5754002053
:10AEF4000378082B37B504462CD1417A51BB057A27
:10AF0400072D1BD0082D29D0012D23D16A462946AF
:10AF1400808801F0C5F9E8B9019B1B78D3B1A088FA
:10AF240000F022FB4FF6FF73984213D00D4B2A46D4
:10AF34001978FFF781FEFFF723FF0BE0808800F00C
:10AF440013FB4FF6FF73984204D0074B0122197884
:10AF5400FFF772FEFFF71EFF03B030BD034801F098
:10AF6400FAFDF7E7575400205654002054540020AB
:10AF740070B5FFF73FFE104E104D3070FFF73AFEEC
:10AF84002870FFF737FE0E4C2070FFF733FE0D4B91
:10AF940018703378182B0DD02B78182B0AD02378FF
:10AFA400182B07D0182805D00748012101F0A7FD68
:10AFB400002070BD0320FCE75654002055540020A7
:10AFC40057540020585400205454002010B50388CE
:10AFD4008488522B86B016D0542B21D0502B15D1F7
:10AFE400037B012B12D1827A012A0FD1018942F607
:10AFF400021399420AD11B4B20461978FFF71CFE15
:10B00400FFF7C8FE02E02046FFF782FE164B174901
:10B0140018780022FFF72EFEFFF7B2FE06B010BD2F
:10B024001422002101A804F001FC112320468DF80C
:10B034000430ADF8064000F06FFAADF8080000F0F7
:10B0440009F90B4B204619780022FFF7F5FD094B4F
:10B05400204600221978FFF7EFFD01A8FFF739FE1B
:10B06400D4E700BF565400205554002081AD02009F
:10B074005854002057540020AFDF7047B1DF7047A9
:10B08400B2DF7047B3DF704773B50F4B0F4C93E8D3
:10B0940003006D4685E8030000222946208801F05C
:10B0A400F8F94FF6FF762388B34201D0112801D175
:10B0B40002B070BD184601F0DEF900222946208056
:10B0C40001F0E7F9EFE700BF44FA02005A54002008
:10B0D400044B1A884FF6FF739A4201D0FFF7D4BF8E
:10B0E400704700BF5A540020024B4FF6FF721A807B
:10B0F400002070475A5400202DE9F743804600F0A1
:10B104000BFA4FF6FF739842064637D001224FF0F0
:10B1140003096B4608213046571C01F0C5F8BFB23D
:10B12400054630BB01990A46032342F8049B0631C5
:10B134004046FFF7A5FF044648B932460821304689
:10B1440001F086F90446204603B0BDE8F0830C28DC
:10B154000DD0052800D12C460821304601F010F905
:10B16400002818BF03243A46002DD2D1EBE701256D
:10B17400F2E7072814BF04460C24E4E743F2020470
:10B18400E1E72DE9F341804600F0C6F94FF6FF737D
:10B19400984217D100240325264601272B46224630
:10B1A40031464046FFF76AFF042820D0082823D000
:10B1B4000B281DD115F002030FD18EB9A4B902B02A
:10B1C400BDE8F0816A46082101F06AF80028E1D15F
:10B1D400019B9E1D9C881D68DFE701250027DDE794
:10B1E40003251C461E46F9E703253446F6E71120DD
:10B1F400002F08BF0B20E2E70020F9E71FB50DF18F
:10B204000703039300F088F902AA012101F048F82A
:10B2140020B9039B187805B05DF804FB0020FAE719
:10B2240038B504460A48FFF72DFF70B9084B43F2BE
:10B2340003054FF6FF7219882046FFF71DFFA84249
:10B2440004D11A8801321A80F3E7032038BD00BF05
:10B254005C54002013B5074A044692E803006B4689
:10B2640083E8030000221946204601F012F902B0D7
:10B2740010BD00BF4CFA02006EDF70476FDF7047ED
:10B2840046DF70472DE9F04F99B01E4650238346A0
:10B294008846DDE9225701931446EAB1F6B100234A
:10B2A40033604FF00109DDB1E7B100233B604FF09B
:10B2B400010A082200210DEB020004F0B7FAC8EBE2
:10B2C400C80804AB0393ABF1020BA04444450BD173
:10B2D400002019B0BDE8F08F9146E4E7B146E2E7FB
:10B2E400AA46E6E7BA46E4E75022002104A804F09F
:10B2F4009DFA01AB02AA07213BF8020F00F06AFD98
:10B3040020F002000528E4D09DF82130032B1AD840
:10B31400B9F1000F08D007220DF12101204604F0F5
:10B324005CFA336801333360BAF1000F08D010229D
:10B334000DF11101284604F050FA3B6801333B60DB
:10B3440010350734C2E743F20220C2E7F8B5094DCD
:10B35400094E00240C2707FB046329785888FFF75B
:10B3640053FC08B9E0B2F8BD0134142CF3D1FF202A
:10B37400F9E700BF5E540020605400200A4B10B56A
:10B3840019780446FFF740FC60B1084B00200C22FA
:10B3940002FB00314988A14201D1C0B210BD013085
:10B3A4001428F5D1FF20F9E75E54002060540020F2
:10B3B40038B505460C4609B9FF2038BD4FF6FF7372
:10B3C4009842F9D00E4B01221978FFF735FC284634
:10B3D400FFF7D4FFFF2803D1FFF7B8FFFF28EBD016
:10B3E40008490C234343CA1855804FF6FF75CD52C4
:10B3F40021685160131DA2889A80A2799A71DCE7B2
:10B404005E54002060540020421E00F10F0312F825
:10B41400010F10B99A42FAD170470120704708B55C
:10B4240070B171B103780A78534013F0FE0F08D15C
:10B4340006220131013004F09AF9B0FA80F0400993
:10B4440008BD0020FCE72DE9F04700F101084F1C7E
:10B4540006460D4600F1110901F1110A1022394680
:10B46400404604F084F90446E0B94046FFF7CCFFB7
:10B4740018B13846FFF7C8FF044651464846FFF75F
:10B48400CEFF737C03F0FC03042B04D06B7C03F02D
:10B49400FC03042B02D1201C18BF012000F0010082
:10B4A400BDE8F0870024E8E730B585B004460D46D2
:10B4B40000F0C4FC02AA0DF10601072000F0C6FC4E
:10B4C40010B94FF6FF700BE0BDF80630AB42F1D077
:10B4D40003992046FFF7B7FF0028EBD0BDF806001C
:10B4E40005B030BD10B50A4C0A48182222704FF638
:10B4F400FF71002283180C32F02A5980FAD1FFF729
:10B5040079FB182820700CBF0320002010BD00BF59
:10B514005E5400206054002008B5FFF72FFFFF2879
:10B524001DBF0C235843034B4FF6FF7018BF185A26
:10B5340008BD00BF6054002010B50C46FFF71EFF85
:10B54400FF280CD0074B0C2202FB003050F8043FBC
:10B5540023608388A3808379A371002010BD052014
:10B56400FCE700BF60540020084A30B500230C24D7
:10B5740004FB03F18D5A854202D10A44508830BD40
:10B584000133142BF4D14FF6FF70F8E76054002018
:10B59400038843B9821C00F10A0312F8010B10B9A5
:10B5A4009A42FAD170470120704710B50446FFF75C
:10B5B400EFFF58B122880B889A4208D10822023141
:10B5C400A01C04F0D4F8B0FA80F0400910BD0020AB
:10B5D400FCE71FB5044600F031FC02AA0DF1060198
:10B5E400072000F033FC10B94FF6FF7007E0039911
:10B5F40020464631FFF7D9FF18B1BDF8060004B064
:10B6040010BD039920462A31FFF7CFFF0028E4D06C
:10B61400F3E7000010B50C46FFF7B0FEFF281FBF8C
:10B624000C235843014B1C5210BD00BF6054002032
:10B6340070B50446FFF798FF0646204600F0B4FEB6
:10B644004FF6FF75AE42044609D040B93046FFF7C5
:10B6540095FEFF281FBF0C235843024B1D52204662
:10B6640070BD00BF605400202DE9F0410D469EB02E
:10B67400074600B139B9002211461046FFF7FEFD16
:10B684001EB0BDE8F08104AE50230DF12808172246
:10B6940000213046CDF80C800193002404F0C6F854
:10B6A400009650220021404604F0C0F801AB02AAE3
:10B6B400072137F8140000F08DFB20F00200052864
:10B6C400DED09DF83930032B0DD8172202FB04601D
:10B6D4000DF12901013404F080F8A542E1D1EAB268
:10B6E40000216846CAE743F20220C9E737B50B4C8C
:10B6F400247811B10D68A5420DD313B11D68A5427C
:10B7040009D3CDE900230B46024621460448FFF73E
:10B71400B9FD03B030BD0420FBE700BF5055002045
:10B72400525500202DE9F041022286B007460C460E
:10B734001748002104F07AF8164B07B13CB90021F0
:10B7440019700846FFF798FD06B0BDE8F0810025A2
:10B754006200394604AE5FFA84F80D4883F800802D
:10B7640004F03BF8072229463046029504F05EF8BF
:10B77400CDE9005502AB324621463846FFF782FD3B
:10B784000028E1D106A8414640F80C6DDAE700BF75
:10B79400525500205055002030B58DB014460D464A
:10B7A40000F110030DF1FF3213F8011D02F8011F1F
:10B7B4009842F9D10D22002104A804F037F82B781F
:10B7C4008DF81F306B788DF81E306846AB788DF895
:10B7D4001D30FFF755FD9DF82F3023709DF82E3056
:10B7E40063709DF82D30A3700DB030BD30B5037873
:10B7F40003F0FE03042B85B004460D4618D1411C0A
:10B80400032201A803F0E9FF0322211D03A803F08A
:10B81400E4FF02AA03A92846FFF7BEFF032202A9F8
:10B8240001A803F0A4FFB0FA80F0400905B030BDD0
:10B834000020FBE730B50388102B93B055D1041DCD
:10B844000FCC07AD0FC50FCC0FC594E8070085E8F2
:10B85400070012AD15F8283D03F0FE03062B4ED069
:10B8640000F0ECFA9DF820305B08012B3FD9022B45
:10B8740045D102AA0DF10601072000F0E7FA0028DD
:10B884003DD0039928460131FFF7B0FF0028F0D0DE
:10B8940005E0039928461131FFF7C1FD38B3BDF81F
:10B8A4000640BDF81C002946FFF782FD4FF6FF73E2
:10B8B4009C421AD0BDF81C00FFF760FDFF281EBF94
:10B8C4000C2358430F4BADF80C4018BF1C52BDF865
:10B8D4001C30ADF80A3012AC002304F8403D204679
:10B8E40000F0B2FE2046FFF7EDFA13B030BD02AA15
:10B8F4000DF10601072000F0A9FA0028C9D14FF67E
:10B90400FF74CEE76054002090DF7047A5DF7047D6
:10B91400B5DF70471FB50023ADF80810ADF80A1065
:10B924006A4602A903930093ADF80430FFF7ECFFD5
:10B9340005B05DF804FB70B5B0B14FF0F7130360C8
:10B94400FB230162037100F11801F7261725002279
:10B954001B24C68005818272C2720373447308304B
:10B964008842F6D1002070BD0E20FCE7F7B585882B
:10B97400022D0C4615D80388232B4FEAC50600F088
:10B984009F8010D8102B29D0112B4BD03444A37A8C
:10B994003BB1E1882846FFF7B9FF10B90123A07233
:10B9A400E37203B0F0BD3A2B49D0552B64D0242B5D
:10B9B400ECD18B19027A5A730B6A002BE6D0002162
:10B9C400ADF804104DF67A21ADF80010ADF8025030
:10B9D4008DF80420694620469847D7E7C27B097949
:10B9E400A319012A197313D0022A14D0D9881A89E9
:10B9F4008A4205D22846FFF789FF70B90122DA721C
:10BA0400197B5B7B8B42C1D22846FFF783FFBDE7DE
:10BA14002288DA80EAE76288FBE7112804BF012262
:10BA24009A72EDE78B19F722DA8017221A81002225
:10BA34009A72DA72FB221A731B225A73A6E78F19C1
:10BA44004389FA88934228BF1346172B0A6A38BFE2
:10BA540017233B8162B1F97A51B140F67721ADF8F1
:10BA64000010ADF80250ADF8043069462046904706
:10BA74000023FB72BB7289E7C2888B19172AD98805
:10BA840038BF17228A4228BF0A461A8100229A72B6
:10BA94002846FFF73DFFDA7A002A7FF477AF226A5F
:10BAA400002A3FF473AF40F677211B89ADF80010EC
:10BAB400ADF80250ADF8043069462046904765E77A
:10BAC4008B19017A1B7B994228BF19469CE7B0DF8A
