:020000022000DC
:10600000000001203D6202009562020097620200DA
:10601000996202009B6202009D6202000000000083
:106020000000000000000000000000009F6202006D
:10603000A162020000000000A3620200A56202004B
:1060400021910200AB6202005D950200C59A020038
:10605000B1620200B3620200E19302004DA10200AE
:10606000B9620200BB620200BD620200BF620200B0
:10607000C1620200C3620200C5620200C762020080
:10608000C9620200456D0200CD62020091960200D5
:10609000E16D0200D36202005DF70200D7620200E8
:1060A000D9620200DB620200DD620200DF620200F0
:1060B000959A0200E3620200A7620200A762020052
:1060C000E5620200A59A0200E9620200EB620200AA
:0C60D000B9950200EF620200F1620200CC
:1060DC00364937480A1A02D0072291438D46354972
:1060EC0035480A1A06D00722914381F30988022207
:1060FC0082F3148831483249324A00F045F832486C
:10610C003249334A00F040F832483349334A00F000
:10611C003BF833483349344A00F036F833483449B5
:10612C00344A00F031F834483449354A00F02CF840
:10613C0034483549354A00F027F8354835490022AE
:10614C0000F02DF834483549002200F028F8344886
:10615C003449091A082903DB00220260043001606B
:10616C00314A90471F482049884205D002680430C4
:10617C0003B4904703BCF7E700208646EC460020AA
:10618C0000212A4A9047FEE7884207D0521A05D0D0
:10619C00037801300B700131013AF9D17047884214
:1061AC0002D002700130FAE77047000000000120B5
:1061BC0000E000200000012000000120042003006A
:1061CC00344D0020DD4D0020F4620200F462020028
:1061DC009209030004200300344D0020344D0020AC
:1061EC00680B0300680B0300680B0300680B0300CB
:1061FC00680B0300680B0300680B0300680B0300BB
:10620C0001200300B0200300E04D0020E04D0020F1
:10621C00E04D0020B4600020B4600020B460002089
:10622C00B4600020B4800020616202006D63020043
:10623C000F484FF00701884385460E4880470E48AB
:10624C00016841F470010160BFF34F8FBFF36F8F92
:10625C00FFF73EBF09480A490A4A884207D0521A3A
:10626C0005D0037801300B700131013AF9D1704738
:10627C0000000120658C020088ED00E0FC0A0300A0
:10628C00C84C0020344D0020FEE7FEE7FEE7FEE799
:10629C00FEE7FEE7FEE7FEE7FEE7FEE7FEE7FEE7CA
:1062AC00FEE7FEE7FEE7FEE7FEE7FEE7FEE7FEE7BA
:1062BC00FEE7FEE7FEE7FEE7FEE7FEE7FEE7FEE7AA
:1062CC00FEE7FEE7FEE7FEE7FEE7FEE7FEE7FEE79A
:1062DC00FEE7FEE7FEE7FEE7FEE7FEE7FEE7FEE78A
:0862EC00FEE7FEE7FEE700BF3C
:1062F400014B01221A707047E04D002008B5054893
:1063040009F0F0FF044809F0EDFF0448BDE8084037
:1063140009F0E8BF344D00204C4D0020644D0020AE
:106324000F2808D010280ED00E2811D1094B0A4985
:106334001888000403E0074B08491888000440F05B
:10634400030000F0DFBA034B054918880004F6E7A0
:10635400704700BFF04C0020870B0300680B03005C
:10636400780B03007047000008B54FF4004100208B
:1063740000F034F908B100F06DFC00F06BF809F09E
:106384006BFE00F081FE08B100F064FC2A4A2B4841
:10639400012100F0A9FE08B100F05CFC28490220AC
:1063A40004F0D6F908B100F055FC09F0F5FD09F048
:1063B4006BFD09F055FC09F05AFE08F051FB08F09A
:1063C40095FA08F0BBFA08F0A7FB08F0C7FA08F042
:1063D40021FB08F05FFB0AF013F809F057FC09F001
:1063E40075FC08F013FA07F0BDFF002240F6CD411A
:1063F400144800F08BFE08B100F02CFC124B13493A
:106404001888000440F0030000F07CFA00F018F94A
:106414000028FBD109F0AAFD0D4C237823B109F023
:1064240073FE08B108F084F900F00AF90028F4D1E9
:1064340002F01EFBF1E700BF01630200980B0300AA
:1064440025630200E44D0020F04C00209C0B030067
:10645400E04D00207047037813F0030F03F00402AB
:1064640002D012B910467047B2B103F00303012BF6
:1064740003D0022B09D0012070470A680088023239
:10648400C0F3831002440A60F5E70B6842880233C4
:1064940003EB92130B60EEE70B684288013303EBC6
:1064A40092130288F4E700002DE9F04F89B0054605
:1064B400861C08A8484C019200230F4600F8113DA1
:1064C40000F078FE23683B60D4E90123134422687A
:1064D40001339B1A04F21C4704F5836A04F214483E
:1064E400B3421AD3019A0023002A6DD0012262F329
:1064F400010343F0040365F389132168A2689DF83E
:106504000F000A4003320E4444F82230266000F0A3
:1065140075FE012009B0BDE8F08F0121384601F075
:10652400D7FE504601F0EDFE404601F0EAFE0DF1C3
:1065340020096068D4F808B049F8100D00EA0B008F
:10654400033004EB80004946FFF785FF049BB0B994
:106554000BEA030204EB8202D16805919A1C013311
:1065640003EA0B0B04EB8B0C01F00303012B0492E5
:10657400DCF80CB020D0022B04D083460BE00BEAED
:106584000300DDE7BDF816309B0903334FEA1B4BCC
:1065940002EB93030493404601F0B6FE08B1049B5A
:1065A40063605946384601F093FED4E9012313444D
:1065B400226801339B1A93E7BDF81430C3F38313A5
:1065C4004FEA1B4B1344E5E7022262F3010343F055
:1065D400040365F39F5390E7D44E002008B50E4B97
:1065E4000E48FF229A600022C3F81824C3E900224F
:1065F400C3F8142483F8202402F09CF938B9084A1B
:10660400084B09499B1ADB0802469A4200D108BD8F
:1066140021F822200132F8E7D44E0020BC0A0300FE
:106624000C0A0300BC0A0300C84C0020034BD3E946
:106634000030C31A58425841704700BFD44E00205E
:106644002DE9F04387B0FFF7F1FF0746002840F03B
:10665400F5807B4DC5F81804BFF34F8F6868AC68AC
:106664000DF1180848F8100D2040033005EB8000A8
:106674004146FFF7F0FE029B064600285FD104EA7C
:106684000302991C013305EB8202234005EB8303CB
:10669400D268DB68049302F00303022B0392029195
:1066A40062D1BDF80E3067484FEA9318B8F1500F25
:1066B400C14628BF4FF0500969F38F1309F108014F
:1066C400ADF80E3002F04EF90746002800F0A48021
:1066D40002F077F9334603A90822384602F084F918
:1066E400029924EA01060136B600B14535D95FFAAC
:1066F40089F97EB3F6B2A9EB0609214003315FFAAA
:1067040089F4B146504E05EB810108234A463846C8
:1067140002F06AF936B109F10803224631463846D7
:1067240002F062F9029B08F1030803EB9803029359
:10673400D5F81834002B4AD1D5F8104458E02A680B
:106744009A4204D86A60384607B0BDE8F08304EA88
:1067540003008AE73C493446D7E721400331082344
:106764004A4605EB8101DAE7012B55D1BDF80C301F
:106774003448C3F38311062928BF062161F3891322
:1067840002318900ADF80C3002F0ECF8074600281D
:1067940042D002F016F93346082203A9384602F023
:1067A40023F9BDF80C20C2F38312B31C96424FEABE
:1067B4008303BDD202994A1C21400331029205EBA6
:1067C40081010422384602F00FF90136E9E7384620
:1067D40002F0FBF8FFF72AFF80F00100C7B2B2E72E
:1067E400637A23B1236839461B6820469847646856
:1067F400002CF5D1384602F0E8F806A800F8114D4F
:1068040000F0D8FCD5F818340BB9029B6B609DF8E6
:10681400070000F0F3FCDDE7D5F8104444B90B4B56
:106824000B491888000440F0020000F06BF8D1E72F
:10683400236820469B6898476468EFE7002782E74F
:10684400D44E0020BC0A0300E04E0020F04C00208F
:10685400B90B03002DE9F74F284C80460F469246AA
:1068640001A9012218469B46D4F80890FFF71CFEA4
:1068740088B3019D0026A91C5E4506EB010234D1B4
:1068840000211F4801F0E3FC80F310006A1C02EAB7
:10689400090204EB8202000405EA0903033340EA17
:1068A4001840D06014F8232068F3C50204F82320AC
:1068B40034F8232066F3891224F8232054F8232083
:1068C400012167F39F2244F8232061F301026FF34F
:1068D400820204F8232094F820341BB1FFF7B0FEA1
:1068E4000028FBD103B0BDE8F08F09EA020204EBF3
:1068F40082025AF82630D3600136BDE7D44E002018
:10690400F052002000231A46FFF7A4BF13B502ACCF
:10691400012344F8042D2246FFF79CFF02B010BD6A
:1069240007B5CDE9002302236A46FFF793FF03B0BE
:106934005DF804FB1FB5CDE90123069B039301AA6F
:106944000323FFF787FF05B05DF804FB1FB5CDE90E
:106954000023069B0293079B03936A460423FFF7D5
:1069640079FF05B05DF804FB7FB5CDE90123089BF1
:106974000393099B04930A9B059301AA0523FFF73C
:1069840069FF07B05DF804FB7FB5CDE90023089BE0
:106994000293099B03930A9B04930B9B05936A46FA
:1069A4000623FFF757FF07B05DF804FB084A38B524
:1069B4000123D2F8104482F820341D4604B938BDAE
:1069C4002368657220465B6898476468F6E700BFF1
:1069D400D44E00202DE9F04F3B4F89B000263B4BAD
:1069E4001B78F5B2AB4202D809B0BDE8F08F384B42
:1069F400196811F835000124A0F12002C0F1200328
:106A040004FA02F924FA03F349EA0309D7E9002353
:106A140004FA00F8CDE9042302EA080203EA0903B0
:106A2400134301EBC50B4CD0DDE9042322EA080231
:106A340023EA0903C7E90023079102F0C5FC07997B
:106A4400844611F83500A0F12002C0F1200324FA95
:106A540003F304FA02F21A4304FA00F300931D4B01
:106A64000192DDE90045D3E9002314401D4022468C
:106A74002B465FFA8CF40025CDE90445049CA0F173
:106A84002005AC400394049CC0F1200124FA01F1D8
:106A9400039C0C430499039481400291DDE902456F
:106AA400AB4208BFA2420CD19BF801104B1E5942C5
:106AB4005941A1EB0C02DBF804305142514103B1BE
:106AC400984701368BE700BF28530020F852002076
:106AD40030530020205300202DE9F84F0646244867
:106AE40000F058FB002841D10123A6F12001C6F192
:106AF400200203FA01FB23FA02F203FA06FA1D4B01
:106B0400D3E900014BEA020B00EA0A0801EA0B0987
:106B140058EA09021F4623D1304602F055FC164BB1
:106B2400B8B1D3E9000140EA0A0441EA0B05C3E91C
:106B34000045D7E900234BEA0305104B0C481968BC
:106B44004AEA0204C7E900450022BDE8F84F00F014
:106B5400DDBAD3E9000120EA0A0421EA0B05E6E7DD
:106B640020EA0A0421EA0B05C3E90045BDE8F88FD1
:106B7400005300202853002020530020FC52002002
:106B8400042A2DE9F34105460C4616463AD902F08B
:106B940053FBD8B11C4B1D491D601D4BDFF884808D
:106BA4001C701C4B00221E600023C1E900231A49FB
:106BB400C1E90023013CE4B200260327FF2C0CD1D9
:106BC400164A1748002100F08FFA03E002F0FCFA9D
:106BD4000028DFD002B0BDE8F08123B205EBC30288
:106BE40001A992788DF8052015F833008DF8066018
:106BF40042468DF8047002F029FB013CE4B20028FF
:106C0400DCD0E7E70720E5E73053002020530020DD
:106C1400F8520020FC52002028530020D9690200B9
:106C2400E40B0300DD6A020070B5084D084E002431
:106C34002B789C4201D3002070BD3368012113F8E6
:106C4400340002F07BFB0134F2E700BFF85200206D
:106C5400305300201FB50021039001AA44F2010023
:106C640001910291FFF77EFB05B05DF804FB000083
:106C7400094A537891780133DBB2994208BF002363
:106C8400117899421FBF03705078182303FB00202A
:106C940014BF0430002070473453002073B50546F8
:106CA40002A8002400F8014D0E4600F083FA0DF10D
:106CB4000600FFF7DDFF90B106700A4B9DF8062031
:106CC40045605A709DF8070000F098FA24B9064B05
:106CD4004FF48012C3F80021204602B070BD042492
:106CE400F0E700BF3453002000E100E0024B4FF412
:106CF4003C6043F001031847F00B030038B50C4B1C
:106D04000C4C4FF40032C3F8802001254FF480333B
:106D1400C4F84833C4F808336560FFF7E7FF064B4F
:106D2400A56000241C60FFF7E1FF044B1C7038BD14
:106D340000E100E0001001404055002031550020E2
:106D4400F8B51F4B1F491B680025C1F84051C1F815
:106D54004451C1F84851C1F84C51C1F80051C1F82F
:106D640004514BB3D1F8044517490968641A24F057
:106D74007F442F461A68A24209D8A41A15441A7CE3
:106D8400DE691AB11F74D3E905209047AEB90F4BE1
:106D94000F4A197813788B4205D10133DBB2022BE9
:106DA40008BF0023137012780A4B43F822500A4B91
:106DB4004FF48012C3F80021F8BD3346DAE700BF70
:106DC4004455002000100140405500203C5500204F
:106DD4003D5500203455002000E100E02DE9F74F37
:106DE4009E4A9F49137809789E4D99423CD00133BD
:106DF400DBB2022B08BF002313709B4912789B4B14
:106E04000F6853F822003B1823F07F4300220B60E5
:106E14002B6816461446944613B942B12B6006E01B
:106E2400196881420ED902B12B60091A19604FF01A
:106E340001082B68DFF83CA200930027BEB9DFF8F5
:106E44003CB260E0401A0C44D968C3F800C0D3F8DF
:106E54001CE031B13A1922F07F42C3E90121DE611D
:106E64001E4601227346D7E70026B046E1E73446C2
:106E7400F6697D4A63681268DFF804C2A068991A4B
:106E840021F07F41614500F2A58001442160012287
:106E940022742A680023C4E90133E361002A40F024
:106EA400A2802C60CAE75A1C9BF80210D2B291420D
:106EB4008BF8002004BF00228BF80020182202FB6C
:106EC40003B32A6819799C68022974D003297ED0F7
:106ED400012918D1217CB1B9DA6862601A69A2600B
:106EE4005A699B69A361624BE2601B78002BC0D096
:106EF4006160BEE79C4200F093809946DB69002BF9
:106F0400F8D1002323749BF800309BF801209A42A7
:106F1400C9D12B682FB9009A934202D1B8F1000F5E
:106F240043D0002B79D0D3F800A0524D4E4BD5F866
:106F340004751C68DFF84C813E1B98F8003026F07D
:106F44007F4603369BB94FF48033C5F84433C5F804
:106F54000433494B4FF400324FF00109C3F8802148
:106F64001A60C5F80090FFF7C1FE88F80090B2459A
:106F74002CBF5444A41924F07F44C5F84045D5F8E7
:106F84000435DB1B23F07F43E41B033324F07F44ED
:106F9400A3420AD9D5F80435C5F84035FFF7A6FE53
:106FA400354B4FF40032C3F80021314B00221A70E4
:106FB40003B0BDE8F08F13469146A0E71174D2697F
:106FC4000123002AFAD1002B9DD02A609BE70023DD
:106FD4001946F6E7D31A23F07F43834234BFC31A1A
:106FE4000023236053E721681368994213D8591A80
:106FF4001160E26155E7091AD8691A4638B10346A7
:1070040018688842F7D3401A18601846134621605E
:10701400E061DC6112E71346F2E7FFF76FFEC4E7B5
:107024004C450DD1D3692B6053B90F48019201210E
:10703400CAF8081003600E4B1970FFF757FE019A47
:10704400E1692368C9F81C1011B1086803440B6096
:107054002B689A4218BF012753E700BF3C55002014
:107064003D55002044550020405500203455002053
:10707400305500200010014000E100E034530020AE
:10708400FEFF7F003155002008B5FFF737FE104B97
:107094000020152218809A700E4B18600E4B187041
:1070A4000E4B18700E4B4FF48012E021C3F8802170
:1070B40083F814131A6002F18042A2F56F22C2F819
:1070C400080583F81113074BD2F804251A6008BD8C
:1070D40034530020445500203C5500203D550020E9
:1070E40000E100E040550020074B9B784BB132B1E2
:1070F40028B10368187C20B959745A617047072075
:1071040070470820704700BF345300202DE9F7432F
:107114001D4FBB7805460E4690469BB390B3042999
:107124002ED9436973B3437C02A80024012B00F8D1
:10713400014D0CBF8946A14600F03CF80DF1060054
:10714400FFF796FDD0B101230370104B4560D3F8CF
:107154000435C0E90498C0E902369DF806307B7016
:107164009DF8070000F04AF824B9094B4FF4801247
:10717400C3F80021204603B0BDE8F0830424EFE700
:107184000724F7E70824F5E73453002000100140F2
:1071940000E100E0064A92783AB130B1426922B186
:1071A400002202740221FFF779BD0820704700BF56
:1071B4003453002070B5EFF3108672B60C4A94680D
:1071C40001239CB993600B4B0B4DD3F880102940DD
:1071D4001160C3F88050D3F8841051604FF0FF322F
:1071E400C3F88420047006B962B670BD0370FAE770
:1071F4004855002000E100E0FC06FFBD084B9A68FA
:1072040010B55AB150B9EFF3108272B605491C6833
:107214000C605C684C60986002B962B610BD00BF37
:107224004855002000E100E070B5064E05460024F4
:1072340056F824300BB1284698470134042CF7D172
:1072440070BD00BF60550020033080B240F2FD33B2
:10725400984230B51FD8124B1A783AB91C895D8907
:107264002C440444A4B2B4F5806F0AD31A7DA2B9A5
:107274009A8BDC8B2244024492B2B2F5806F0CD21A
:1072840001220A801446142202FB04335A89104452
:107294005881002030BD0920FCE70720FAE700BF31
:1072A400945500200B4A0C4B5188142000FB0131EB
:1072B400CB6833B90420496810700122074801F0F3
:1072C4002BB905230649137002238B800122002366
:1072D4000968F3E77855002094550020204D0020DC
:1072E4004C56002007B5002305490093054A096858
:1072F4000548082301F08CF803B05DF804FB00BFD7
:107304004C560020040C0300204D002007B5002338
:10731400009301460823034A034801F079F803B0B7
:107324005DF804FBFC0B0300204D002013B5002383
:107334000C46009301460423074A084801F068F804
:1073440038B9074B142202FB04340123237402B01E
:1073540010BD0E20FBE700BFF80B0300204D0020FA
:107364009455002037B50A480A4B42689C8819682E
:1073740053880325033305709BB2002000909B00C3
:1073840001EB8401044801F043F803B030BD00BFB1
:10739400785500204C560020204D002010B50146A1
:1073A400044800F088FE1C220446002109F08CFAEF
:1073B400204610BD7C4D00204388033300EB83033B
:1073C400994209D382884FF6FF739A4206D0008807
:1073D400B0FA80F0400970470220704701207047DE
:1073E4002DE9F8430223DFF860800B800D46174631
:1073F40000F5805600F108044FF00109B4420FD2A1
:10740400236801330CD031462046FFF7D5FF48B13D
:107414000FB187F8009002280BD14FF480632B80C2
:10742400BDE8F883A368D8F80020934201D9C8F8CE
:1074340000302B886288033313442B806388033322
:1074440004EB8304DAE700BF8C550020144A1423AC
:1074540003FB002070B50B6844680D4604F58056A4
:107464009BB15C88033403EB8404B4420BD22368DD
:10747400013308D031462046FFF79EFF012809D08A
:1074840005D30228F1D1002003E00834EDE72C6095
:10749400012070BD6388033304EB8304E5E700BF78
:1074A40094550020436873B505460C466BB3254AD2
:1074B400D1688B4229D31269934226D813F0030270
:1074C40023D121490089098988421ED128689968F5
:1074D40088421AD11D494868834203D900F5805077
:1074E40083420ED38A6993420DD902F580529342A6
:1074F40009D2012323800020B0FA80F0400902B0B1
:1075040070BD1346F6E70A20F6E7002323801E46E3
:107514002388012B01D90020F1E7019601A92088D5
:10752400FFF794FF18B9238801332380F0E7019B08
:107534002A6899689142F1D16B60034B1B892B81B6
:10754400DDE700BF204D0020785500209455002031
:107554002DE9F8431C461E4B1B7806460F4615467C
:10756400002B30D0002A30D07CB3DFF86C804FF091
:107574001409A388012B01D90A201AE009FB03F39B
:1075840018F80330BBB1A3880133A380F1E7236863
:107594001EB19988328891420DD11FB119883A8859
:1075A400914208D19A68C5E900230A4B1B892B81B3
:1075B4000020BDE8F8832146A088FFF747FF002894
:1075C400E5D12060DFE70220F3E70520F1E700BF03
:1075D40070550020785500209455002008B5074BBD
:1075E400191D5888FFF732FF18B1BDE80840FFF7AE
:1075F400B9BEBDE80840FFF755BE00BF785500206E
:107604002DE9F04FA04FDFF8A49289B00646B846A2
:107614003B6823B949469D4800F087FD3860D8F897
:10762400005029784B1E052B00F21281DFE813F07D
:10763400060076007600060106015D0126B1944B32
:1076440000225A60012424E02B79032B1DD8DFE8A3
:1076540003F01502424D8F490B78022B084631D0B6
:107664000B7D022B4FF001032ED114225343C21879
:107674000020C8545068FFF749FE03E001232B7132
:10768400FFF730FE002800F0D380814B00225A60BF
:107694000E241422002103A809F016F941F61D5303
:1076A4009C4208BF0024D8F8003004941A78023AA7
:1076B400042A00F2D381DFE812F0B401C001E3012F
:1076C400EB01F2010023D0E7714A137000235360E9
:1076D40041F61D54DDE770497048002302222B71E6
:1076E4008A800122096800F017FFCBE76A4C002664
:1076F4002E712068674DFFF709FE694BD4F800C06E
:107704005A8814235343EA18EE5451682160A1881F
:10771400C2F804C011810222A280B3E7B5F814A014
:10772400AA7DDFF870B1AEB1022AEB8806D9142124
:1077340001FB0AB1DA1C088902440A81142202FB03
:107744000ABAC3F57F43BAF80A20FD331344AAF8F2
:107754000A3077E7142303FB0AB318895C6804EB47
:107764008004062A05D8DFE802F0264C34421C586F
:1077740066000F24AA7DEB88022A06D9142101FB96
:107784000AB1DA1C088902440A81142202FB0ABAEB
:10779400C3F57F43BAF80A20FD331344AAF80A302C
:1077A40077E74048404900234360AB690360FFF733
:1077B40079FE00285AD00223AB75002300930423DA
:1077C400EA182146354800F023FE002830D00E2464
:1077D400D0E72B69002B0CBF01230323AB750023D7
:1077E400009305F10C02042304F10801EAE70123E4
:1077F400AB750022EB8800929B002A6904F10C010E
:10780400E0E7032914BF06230523AB750023009387
:10781400042305F10802E118D4E70623AB75224BD3
:107824001988204B5868FFF781FD04460028A1D130
:1078340009B0BDE8F08F41F61D549BE7002E7FF49C
:1078440001AF2B79012B33D004D3022B3FF440AF8B
:107854000F241EE702232B710DF10A01EB68039339
:1078640003A8CDE90466FFF71DFE08B90A2410E752
:107874000498BDF80A108388EB8003882B81FFF7F6
:1078840055FD044627E000BF905500207C4D0020A4
:1078940070550020945500204C560020204D0020A7
:1078A4007855002054550020585600208855002053
:1078B400DFF808A203AA53463146A81DFFF748FE85
:1078C400044660B9BAF804100498FFF72FFD044683
:1078D4000A2C3FF4FDAE002C7FF4DBAEA8E70822AF
:1078E4003146504608F0F0FFF2E7002E7FF4AAAECE
:1078F4006D4B1A7BB2B11E731A78013A062AA7D8C7
:1079040001A151F822F000BFB3790200D979020035
:10791400F7790200FD79020055780200037A02002B
:10792400197A02001A78072AE6D801A151F822F040
:1079340055790200FD780200FD7802007B7902008F
:107944008F790200AF790200AF79020077790200E3
:107954001A89564901321A8100225A801A730A7808
:10796400B2FA82F252099A720A7DB2FA82F252098A
:10797400DA72012207E04E4958688A884088033247
:1079840002448A8002221A70B6E7484C5A88484951
:10799400142505FB024208685468506088881081E9
:1079A40002228A800C600622EDE70722EBE79A7A2E
:1079B40032B9DA7A8AB900221A705A805A6087E694
:1079C4003A4900229A72CA68002AF2D1097C002935
:1079D400EFD05A80FFF702FE53E70022DA72334AEF
:1079E400116A0029E7D192F82420002AE3D0012269
:1079F400EFE7FFF7B7FC44E7FFF754FC41E7062243
:107A04001A702A4A5B88142101FB03235868FFF784
:107A14007DFC36E707221A7000225A60FFF762FCE9
:107A24002FE701228DF80C201A89ADF818209A88C6
:107A3400DB68ADF81A20059310E002228DF80C20C3
:107A44001A89ADF818209A88ADF81A20DA689B7D57
:107A540005929A1F534253418DF81C3003A8FFF737
:107A6400E3FB002649461348C8F8006000F088FB91
:107A74000121114800F037FC00287FF4C9ADD7E696
:107A840003228DF80C20DA88ADF818201A89CFE784
:107A94000422DB888DF80C20ADF81830DEE70523CE
:107AA4008DF80C30DAE700BF78550020945500209B
:107AB4004C5600207C4D0020485600205C56002087
:107AC4004068FFF79DBD000008B50121044800F09F
:107AD400F4FB18B9BDE80840FFF792BD08BD00BF2C
:107AE400485600202DE9F3419846354B1B7806464D
:107AF4000D46002B5BD000295BD009884FF6FF733D
:107B0400994258D06B88002B55D06B689B0754D191
:107B14004AB92F890DF102013846FFF795FB30B1C0
:107B240002B0BDE8F08113885788ADF8023001A88F
:107B3400FFF734FC044658B9BDF80230214A142139
:107B440001FB032358890338C01B58810820E7E749
:107B540000238375BDF8023083826B68036180F86B
:107B640000800121184800F0B3FB2B882381B8F171
:107B7400030F6B88A38004BF0423A3754FF0000593
:107B840008BF3368E06008BFA361E780658101A98D
:107B94000E4800F0BAFA36B1E36833600C4B7560F6
:107BA4001B89B5723381FFF78FFF0020B8E70220ED
:107BB400B6E70520B4E70420B2E70320B0E700BF2E
:107BC40070550020945500208C5500207C4D0020D9
:107BD4007855002008B5084B1A68042A09D019689A
:107BE400064A42F821000121184600F071FB0020EA
:107BF40008BD0C20FCE700BF54560020605500204F
:107C04002DE9F04F89B01422002103A808F05CFE8E
:107C14007B4A137803F0FF01009190463BB103A81F
:107C2400FFF702FB0026304609B0BDE8F08F101DB7
:107C340000F064FB05460028F4D14FF010234FF008
:107C440080525B6911695269DFF8DCA1581C08BFD6
:107C540002FB01F3CAF810300022A3F5405369492E
:107C6400CAF80C30504600F0A5FB06460028DAD1CD
:107C74001C238C226449654800F0E8F93746B34672
:107C84004FF003093446CDF804A0019BD9680BEBEF
:107C9400010002465BF80110002835D05C4B994284
:107CA40032D141685B4B994215D0013399422BD1B3
:107CB400009BDFF86CA1002B59D100225649CAF869
:107CC4000000FFF78DFBBAF80420022A14BF082233
:107CD400042217433AE051494FF0140C0CFB04FC06
:107CE40001EB0C024FF0000E01F80CE050600CF1B7
:107CF40010020CF1080C0A446144FFF771FB47F0D1
:107D040002070134A4B221E000F5805C116801315E
:107D140067D104329445F9D1414A116829B9022145
:107D240001231060918000930EE0142262433B4BC8
:107D34004FF0020E991803F802E03A4A4860548062
:107D44000134A1F808E0A4B247F001070BF5805B09
:107D5400BBF5405F99D1B9F1010F88BF3D46EDB243
:107D6400022D02D0062D12D0DDB90B265BE72B4B7A
:107D74001422624399184FF0020C03F802C0013434
:107D8400DAF800204A60A1F808C0A4B295E70123FC
:107D940088F8003003A80023C8F80430FFF744FA39
:107DA40041E702A8FFF7FAFAC8B10123013D0370C5
:107DB4000A2D09D8DFE805F00608060807080708B1
:107DC4000F110F000023037102A9104800F09DF960
:107DD400FFF77AFE27E70323F5E70223F3E70826F4
:107DE40021E70E491422624301EB020C09F1FF3929
:107DF400CCF8040003201FFA89F9885481E700BFF6
:107E040070550020F80D0300BC5500207C4D002067
:107E1400DEC0ADDEFE011EF1505600209455002058
:107E24004C56002078550020204D002073B50D4697
:107E34000446C8B1C1B10DF10601FFF733FBA8B187
:107E44000B4BBDF806006668142202FB00300121CA
:107E54000C3000F03DFA63682E600C336B60012334
:107E6400A372002002B070BD0520FBE70A20F9E7E9
:107E74009455002013B50446A8B10DF10601FFF78F
:107E840011FB90B10B4ABDF80630142101FB03230A
:107E9400DA6862B1A27A52B1DA680020013ADA6093
:107EA400A07202B010BD0520FBE70A20F9E7062006
:107EB400F7E700BF945500200B4B1B7837B50446F9
:107EC4000D4663B168B10DF106012846FFF7BCF910
:107ED40018B9BDF806302380658003B030BD022098
:107EE400FBE70520F9E700BF70550020104B1B7815
:107EF40010B5B3B1B8B10288022A16D80D49438827
:107F0400142404FB02129C1C51898C420DDAC3F523
:107F14007F43FD330B445381002303804380184681
:107F240010BD0220FCE70520FAE70420F8E700BFB3
:107F3400705500209455002002230022FFF7D2BD83
:107F440012B10223FFF7CEBD0520704718B10323F9
:107F54000022FFF7C7BD052070470000104B1B78B7
:107F640013B50446ABB14FF6FF73984213D001A882
:107F7400FFF714FA88B10523037001230371C48049
:107F840001A9084800F0C1F8FFF79EFD002002B0E7
:107F940010BD0220FBE70420F9E70820F7E700BF43
:107FA400705500207C4D00200E4B1B7807B5A3B103
:107FB40001A8FFF7F3F990B10623037001A90A4859
:107FC40000F0A3F8094B1A780AB101221A73FFF7DB
:107FD4007BFD002003B05DF804FB0220FAE70820D3
:107FE400F8E700BF705500207C4D00207855002034
:107FF40007B5ADF8060002A820F8041D01460DF1EE
:108004000600FFF7A5FA03B05DF804FB13B502AC54
:10801400134624F8020D0A4600202146FFF798FA79
:1080240002B010BD13B502AC134624F8020D0A4683
:1080340020460021FFF78CFA02B010BD20B119B11F
:1080440003680B60002070470520704710B561B1CC
:10805400B2FBF3F403FB1424A4B244B9C0E9001442
:1080640084608281C381204610BD0E20FCE7092074
:10807400FAE782B050E8022FC188B2EB324F4FF0DA
:10808400000317BF92B241EA014142EA014104E010
:108094004268B2EB324F08BF012340E80212002AC3
:1080A400E8D18DF807309DF80730002B0CBF112064
:1080B400002002B0704737B550E8013F9DB2C48933
:1080C40025448489A54228BF2D1B0489A54202BFEB
:1080D400BFF32F8F002207E0C5EA030540E80154EF
:1080E400002CE9D14FF001028DF803200193019B8C
:1080F4009DF803200B6002F0FF0322B10B88006897
:10810400184403B030BD1846FBE70A884B889A42EE
:1081140009D150E8012FC2EA024240E80123002BB2
:10812400F7D1012070470020704737B550E8023F6F
:108134001FFAA3F5C488A54202BFBFF32F8F002204
:108144000DE0C48925448489A54228BF2D1BC3EAB8
:10815400054540E80254002CE8D14FF001028DF8A7
:1081640003200193019B9DF803200B6002F0FF03A1
:1081740022B14B880068184403B030BD1846FBE7B1
:108184000A884B889A4209D150E8022FC2EA224257
:1081940040E80223002BF7D10120704700207047EC
:1081A40001F01F024B090121914000EB830000F014
:1081B40063B84B0910B501F01F040121A14000EB85
:1081C400830000F04EF8E04000F0010010BD01F023
:1081D4001F0301229A404B0900EB8300D14300F0B6
:1081E40061B84B0901F01F0150F82300C84000F0AA
:1081F400010070472DE9F0474E1E760980460F4670
:108204000136002558F8254008EB850AE44394FA22
:10821400A4F4B4FA84F44FEA4519202C06D10135AC
:10822400AE42EFD83C462046BDE8F0874C44A74216
:10823400F5D921464046FFF7BCFF0028F3D0DAF811
:108244000040E44394FAA4F4B4FA84F4E5E750E873
:10825400002F0B4640E8003C9CF0000FF7D110467D
:10826400704750E8002F42EA010340E8003C9CF0CC
:10827400000FF6D11046704750E8003F43EA010270
:1082840040E8002C9CF0000FF6D11046704750E8EF
:10829400002F02EA010340E8003C9CF0000FF6D1F5
:1082A4001046704750E8003F03EA010240E8002C02
:1082B4009CF0000FF6D11046704750E8002F02EBF7
:1082C400010340E8003C9CF0000FF6D110467047D3
:1082D40050E8003F03EB010240E8002C9CF0000F43
:1082E400F6D11046704750E8003FA3EB010240E886
:1082F400002C9CF0000FF6D1104670470121FFF7C7
:10830400B0BF0121FFF7B8BF0021FFF7C0BF10B510
:1083140090B1D0E9012301689B1ADBB20A60013BEA
:10832400DBB2FF2B026802D10020107110BD11686E
:108334004C1C14600B70F2E70E20F7E737B50546C6
:1083440002A8002400F8014DFEF734FF2A686B6888
:10835400116899420ED9481E106011F8014CEB685F
:10836400A98A01FB0434AB6811791B1ADBB2994268
:1083740038BF13719DF80700FEF740FF204603B095
:1083840030BD37B5054602A8002300F8013D0C4670
:10839400FEF710FF2A681368591C1160E968641A13
:1083A400A98AB4FBF1F41C709DF80700FEF726FFC0
:1083B40003B030BD07B50B4678B9104B104A188886
:1083C4000E2300930F4B00040F4940F00100FEF709
:1083D400B1FA0E2003B05DF804FB3BB9074B0B4A1E
:1083E40018880E2300930004064BEDE703601B6816
:1083F400114603B05DF804EB184700BF0C4D002094
:10840400C80C03001B0C0300CD0C0300440D030037
:108414002DE9F34178B9354B354A1888354B0E248C
:1084240000040094344940F00100FEF783FA20462A
:1084340002B0BDE8F0813AB92C4B304A18882D4B74
:108444000E2400040094EDE7D0F800C0BCF1000F46
:1084540007D1264B2A4A1888264B08240004009486
:10846400E0E73BB9214B274A1888224B0924000432
:108474000094D7E74768D7F80480B3FBF8F708FB04
:1084840017373FB1194B204A18881A4B09240004A6
:108494000094C7E78F0707D0144B1C4A1888154B64
:1084A400102400040094BDE712F0030F07D00F4B13
:1084B400174A18880F4B102400040094B2E7C768C9
:1084C400B9420BD34C1E05691C44AC4206D8DCF8F7
:1084D4000C40A44602B0BDE8F0416047034B0D4A8E
:1084E4001888044B1024000400949BE70C4D0020D2
:1084F400C80C03002D0C0300CD0C03004A0D03002F
:108504003E0D0300FD0C0300500D03007A0D030023
:10851400920D0300B50D0300F7B570B9254B264A3B
:108524001888264B0E2400040094254940F00100CD
:10853400FEF700FA204603B0F0BDD0F800C0BCF14D
:10854400000F07D11B4B1F4A18881C4B082400043A
:108554000094EAE73AB9174B1B4A1888174B0924C9
:1085640000040094E1E74768D7F800E00EF1FF3714
:108574000F4207D00F4B154A1888104B10240004E3
:108584000094D2E7C768B9420CD34C1E05690EFBB0
:108594000244AC4206D8DCF81040A44603B0BDE85F
:1085A400F0406047034B0A4A1888044B1024000427
:1085B4000094BAE70C4D0020C80C0300400C0300E3
:1085C400CD0C03003E0D0300FD0C0300530C03000F
:1085D400790C03002DE9F04108B10368C3B90E4ECC
:1085E4000E4B14229B1B0024B3FBF2F3374602FB11
:1085F40003F5A54201D1002008E03B5930190BB91D
:108604001434F6E7DB6998470028F9D0BDE8F08117
:10861400DB69BDE8F0411847204D0020344D0020AF
:1086240029DF704728DF704770B503689D6886B0FE
:1086340004460E466DB114220021684608F044F940
:10864400A3680593237901962BB1012B0DD06846BD
:10865400A84706B070BD01238DF80030236902934A
:10866400E368039363690493F1E702238DF8003010
:10867400E3681B030293F5E7084670470020704740
:10868400024B187A003018BF01207047F0560020C2
:10869400034B187A0122B0FA80F05A7440097047EB
:1086A400F056002008B510461A4608F0E4F80020F9
:1086B40008BD000008B514220021044808F004F99C
:1086C4000348FFF7D6FC002008BD00BFF056002089
:1086D400904D002010B5094C094B43602046FFF72C
:1086E4000DFE40B907F01EF81C2320748C220549A6
:1086F4000548FFF7ABFC002010BD00BFF05600207A
:10870400EC0D030064560020904D002070B5244DFC
:10871400244E2B7A2C463BB923492448FFF705FD08
:10872400306008B9686070BD0223237233681A7917
:1087340072B1012A24D018460321FFF775FF0023E4
:108744002372636018491948BDE87040FFF718BDEB
:10875400D3E90520121AB2F5805F28BF4FF4805286
:10876400D3E903159208012A014438BF01222844A1
:10877400FFF756FF50B11128DDD101232372D2E750
:10878400D3E903021044FFF74DFFF3E7237C002BEA
:10879400C9D10146BDE87040022000F009B800BF0D
:1087A400F05600200857002004570020904D002068
:1087B40038B5831E012B45D8234C237A002B41D096
:1087C400022B09D1032830D0204B1B680022E26021
:1087D4001A793AB1012A22D0637C7BBBBDE83840C8
:1087E400FFF794BFD3E905128D1AB5F5805F94BFE6
:1087F400521902F580529A619142EDD102284FF04C
:10880400000308BF19462372104B18BF0D211868C6
:10881400FFF70AFF0E490F48FFF7B2FCDCE71A69BD
:1088240001321A615B699A42E7E7E3680133082B76
:1088340001D8E360D0E70023E360DFE7BDE8384018
:1088440006F060BF38BD00BFF05600200857002076
:1088540004570020904D002000F0FD03012B08D1A7
:10886400044B00225A74421E504250411874FFF7C0
:108874004DBF7047F056002010B5064C201DFFF781
:108884003DFD28B9637C1BB9BDE81040FFF73EBF2E
:1088940010BD00BFF05600202DE9F34180460D467F
:1088A4000F4801A916461F46FFF705FC0446A8B168
:1088B4001C22002108F008F82D0B0123237101A9C3
:1088C400C4F80080A760E56066610548FFF71DFCF9
:1088D400FFF7D2FF002002B0BDE8F0810420FAE7E0
:1088E400904D00202DE9F74381468846104801A9A0
:1088F40017461E46FFF7DFFB0446B0B11C220021D9
:1089040007F0E2FF00250A9BA36001A92571C4F8C2
:108914000090C4E9037866610548FFF7F6FBFFF7AA
:10892400ABFF284603B0BDE8F0830420FAE700BF9C
:10893400904D0020FFF7EBBCF8B546790146721E56
:108944000546002393422D6803D30024A64202D88F
:10895400F8BD0133F6E70F682846FFF712FD01342E
:108964003946F3E72DE9F843868ACD1C0746FFF71D
:10897400E5FC043E35440446B5FBF6F5F0B14FF48E
:108984008073EDB28380C680013D076081464FF05D
:108994000008A84512D23846FFF7D0FC064648B175
:1089A40063790133637108F10108C9F800000760B5
:1089B4008146EEE72046FFF7BFFF34462046BDE878
:1089C400F88301210430FFF783BC10B5012104466C
:1089D4000430FFF788FC10F0FF0F04D12046BDE8F7
:1089E4001040FFF7A9BF10BD2DE9F843C78805461D
:1089F400181D8846B0FBF7F4164607FB14003CB973
:108A0400A7EB0009B14528BFB14626B9BDE8F883F4
:108A14002D68013CF3E70430A6EB09064A4608EB4F
:108A24000401284407F027FFB7424C442D68B94697
:108A34004FF0000028BFB146E7E733DF704741DF5E
:108A440070470000064B10B500241C70054B1C60D9
:108A5400BFF35F8F0449054800F08AF8204610BD33
:108A64001557002018570020280E03000C5700202B
:108A740007B502A8002300F8013DFEF79BFBF1EEC9
:108A8400103A23F09F03E1EE103ABFF35F8F0A4BD5
:108A94004022C3F884219DF80700FEF7AFFB06F0DF
:108AA40041FE20B1FFF7CBFF03B05DF804FB20BF0C
:108AB40040BF20BFF8E700BF00E100E070B5264CDE
:108AC400054601212046FFF7C2FBBFF35F8F264610
:108AD40038B9042D0AD0214B1A781AB1BFF35F8F2D
:108AE400206070BD1E4A157001221A701D4C1C4D69
:108AF4006368BBB9FDF75AFFFDF7A2FD0028FBD15F
:108B0400174B1B78023B012B14D8BFF34F8F164928
:108B1400164BCA6802F4E0621343CB60BFF34F8F75
:108B240000BFFDE71B682878984788B1204600F00D
:108B340029F8DDE706F0F6FD08B1FFF77EFF4FF0F8
:108B440080430122C3F80025BFF34F8F20BFFDE708
:108B5400BFF35F8F3060C4E718570020155700201B
:108B6400145700200C57002000ED00E00400FA0523
:108B74000B684A684360934208BF0023016008BF42
:108B840043607047436843B10268916852680B447C
:108B94009342436004BF0023436070470D4930B5DE
:108BA400A1F594720225914201D800200EE08B1A9F
:108BB400DB1093FBF5F302EBC30452F8333083422A
:108BC40005D802D204F10802EDE7606830BD214601
:108BD400E9E700BF780F030008B5FFF7DFFF024B9A
:108BE400002808BF184608BD3D0E0300094B1B783A
:108BF400062B0CD1084B1B681A0708D1074B1868C1
:108C040000F0F000A0F130035842584170470020B2
:108C1400704700BFE00F00F0E40F00F0E80F00F031
:108C24000C4B1B78062B10D10B4B1B681A070CD16D
:108C34000A4B186800F0F003302B08D000F0E00075
:108C4400A0F140035842584170470020704701206A
:108C5400704700BFE00F00F0E40F00F0E80F00F0F1
:108C640008B5FFF7DDFF28B17F4B804A1B68C3F3CB
:108C740004231360FFF7BAFF10B17D4B7D4A1A60DD
:108C8400FFF7CEFF28B17C4B7C4A1B68C3F3423309
:108C94001360FFF7ABFF20B1794AD36823F08073E8
:108CA400D360FFF7BDFF40B14FF080430022C3F80B
:108CB4000C21C3F81021C3F83825FFF797FF10B132
:108CC400704B03221A60FFF791FF40B16E4B0522EF
:108CD4001A6001229A6700229A603F225A606B4B05
:108CE4001B78062B09D16A4B1B68190705D1694B00
:108CF4001B6803F0F003502B67D0FFF791FF28B1F6
:108D0400654B664A1B6803F04F031360FFF788FF47
:108D140048B14FF08043D3F80024D20744BF6FF02A
:108D24000102C3F800245E4B1B68062B04D15D4B83
:108D34001B68062B00F091805B4AD2F8883043F41C
:108D44007003C2F88830BFF34F8FBFF36F8F4FF0BB
:108D54001023D3F80022002A03DBD3F80432002BBB
:108D64002FDA524B0122C3F80425D3F80024002A39
:108D7400FBD04FF010221521C2F80012D3F80024C2
:108D8400002AFBD04FF010231522C3F80422474BCE
:108D94001A46D3F800140029FBD00021C3F80415A7
:108DA400D2F80034002BFBD0BFF34F8F3E49404B29
:108DB400CA6802F4E0621343CB60BFF34F8F00BF75
:108DC400FDE73C4B3C4A1A6008BD4FF080523B4BD8
:108DD400D2F80414C3F82015D2F80814C3F82415E3
:108DE400D2F80C14C3F82815D2F81014C3F82C15B3
:108DF400D2F81414C3F83015D2F81814C3F8341583
:108E0400D2F81C14C3F84015D2F82014C3F8441542
:108E1400D2F82414C3F84815D2F82814C3F84C1512
:108E2400D2F82C14C3F85015D2F83014C3F85415E2
:108E3400D2F83414C3F86015D2F83814C3F86415A2
:108E4400D2F83C14C3F86815D2F84014C3F86C1572
:108E5400D2F84424C3F870254FE7194A136843F441
:108E64008063136068E700BF2403001040350140AD
:108E740074C007400DF0ADBA440200103C05004038
:108E8400F0ED00E0A005004010560040E00F00F0B7
:108E9400E40F00F0E80F00F058020010E40E004068
:108EA400300100103401001000ED00E000E001404A
:108EB4000400FA05A44D00200090D00300C0004037
:108EC4003C170040102807D0112807D013280CBFE6
:108ED40002204FF0FF307047002070470120704798
:108EE40038B5084C04F108030546002818BF1C4691
:108EF40023682BB11A6822605B6828469847F7E715
:108F040038BD00BF2457002020B9054B01225A70F8
:108F1400FFF7E6BF012802D1014A9070F8E77047D5
:108F24001C57002020B9034B01225A70FFF7D8BF09
:108F3400704700BF1C57002038B50B4C237883B909
:108F44000A486360A3602361E36000F093F8054678
:108F540006F0E8FB08B900F09BF8012323702846CB
:108F640038BD8525FBE700BF1C5700200D8F02008C
:108F740037B5184CA378054603F0FF029BB110B136
:108F840043680120984700230DF107008DF807304E
:108F9400FEF710F9E3689DF807000133E360FEF77C
:108FA4002DF903B030BD0DF107008DF80720FEF751
:108FB40001F925B1226913463BB92A602561E368AA
:108FC400002BE7D100F078F8E4E79D42F7D01B6866
:108FD400F2E700BF1C57002037B502A80023094C54
:108FE40000F8013DFEF7E6F8E368013BE360E5685D
:108FF40015B900F087F8A5709DF80700FEF7FEF894
:1090040003B030BD1C570020012813B509D003D389
:1090140003281BD002B010BD0F4B0122C3F88020DF
:10902400F8E702A800230D4C00F8013DFEF7C2F852
:1090340023780BB9FFF780FFE3689DF8070001333D
:10904400E3600123A370FEF7D9F8E3E700F020F80A
:10905400FFF7C2FFDEE700BF00E100E01C5700207D
:1090640000F18040002382B0036003680193019BF8
:1090740002B07047054A13792BB9012110601171B0
:109084005371184670478520704700BF3057002041
:10909400084B1A68D20706D4E02283F80023012281
:1090A400C3F880211A604FF080430122C3F81825C9
:1090B400704700BF00E100E038B54FF48270FFF75D
:1090C400CFFF4FF080430222C3F804230A4AD0683A
:1090D40040F08073D360094B1C6844F001011960AF
:1090E4005D685968491BB1F50A5FFAD31C60044BEB
:1090F400D06001221A6038BDF0ED00E0001000E0FD
:1091040008000040044B01221A604FF08042D2F85C
:109114001834DB03FBD470470C000040124B1B686F
:1091240010B573B14FF48070FFF79AFF4FF080438E
:109134000122C3F808230D4B587910B95A711B68E2
:1091440098470B4B1B6873B14FF48270FFF788FF8D
:109154004FF080430222C3F80823044B01201B680C
:10916400BDE81040184710BD0001004030570020F2
:109174000401004000F1804000F5C040002382B0AB
:10918400036003680193019B02B07047800000F103
:10919400A040D0F8003723F44033C0F80037D0F8AB
:1091A400003743EA0141C0F800177047054B4FF000
:1091B400FF32072843F8202084BF1B1883F8482077
:1091C400704700BF3857002010B5174C94F858303A
:1091D40043BBFF21E2180133202B82F83010F9D170
:1091E4000021C8B2FFF7E2FF01310C29F9D10422B2
:1091F40000210E4807F068FB0D4BE02283F806239C
:109204004022C3F880214FF4BE701A60FFF7B2FF0A
:10921400084B4FF00042C3F80423012384F858306C
:10922400002010BD0820FCE7385700208C57002090
:1092340000E100E000600040034B93F85800003068
:1092440018BF0120704700BF38570020F0B5394DD2
:109254002C18944694F93040002C68DA8E78C6F3C2
:109264004006002E15BF0023082308270C27BB4205
:1092740001D10420F0BD55F8232001324FEA8304C4
:1092840041D12F1845F823C087F8303016B9EA18B1
:1092940082F848008A78560716D4D70735D5820055
:1092A40002F1A042D2F8006726F00206C2F8006775
:1092B400214FC60800F0070C012202FA0CF217F83D
:1092C40006C042EA0C02BA558A780E7812F00202FD
:1092D40024D004F1804303F5C0430002D3F81025E1
:1092E40022F4473222F44072C3F810253604D3F82E
:1092F400102500F4F85006F4403630431043C3F808
:1093040010050020B6E70133B1E74E7800F5E072AE
:109314004FF0A047B60047F82260C9E7083B2B444A
:1093240093F8500040EA861683F85060E9E7082075
:10933400A0E700BF385700208C57002038B5204CD8
:10934400251895F93020072A18DD224492F8483070
:109354009B09032B0DD14FF0A043D3F81035C34024
:1093640013F0010F0CBF02210321BDE83840FFF7C1
:109374000DBF012B14BF03210221F6E7D3B2072B43
:109384001CD8930003F1804303F5C043D3F81005C0
:1093940040F00100C3F8100502F14000800080B2E3
:1093A400FFF7E8FE51B195F9303054F823302BB172
:1093B400012303FA02F2034BC3F8042338BD00BFB0
:1093C40038570020006000404FF0A043D3F8103518
:1093D40023FA00F000F00100704700002DE9FF4778
:1093E4000024584A584E594D019401211368A2F59E
:1093F400C040012B80B206D1D6F804330B4202D010
:10940400FFF7B8FE0C430432AA424FEA4101EDD102
:109414004F4B1B68012B0AD14FF4BE70FFF7AAFE15
:109424004FF0A04344F00044D3F81035019314F0F6
:10943400FF0F1AD0474F00250126344210D0AB004D
:1094440003F1804303F5C043D3F81005D3F8101596
:1094540057F82530C0F30420C1F3014103B1984704
:109464000135082D4FEA4606E7D1002C66DA0022C2
:109474004FF0FF33CDE90223DFF8D890012700260F
:1094840034464FF0A04809EB060393F95020531CCF
:1094940045D0D2B222F0C005E90804A8084402F07D
:1094A400070310F804CC07FA03F31CEA030F36D0C1
:1094B40009EB050C92099CF930C059F82CA0BAF1BB
:1094C400000F0AD1032A2AD10DF1080E1EF801C09B
:1094D4004CEA030C0EF801C001E0032AF4D005F5B0
:1094E400E07110F80C0C58F821101842C1F3014136
:1094F40005D0022913D1032A0BD1114604E0032914
:109504000DD1032A05D102212846FFF73FFE01347D
:10951400E4B2BAF1000F02D011462846D047013612
:10952400042EB0D154B14FF0A043019AD3F81035B2
:10953400934203D00193029B0393A0E704B0BDE8D8
:10954400F08700BF006100400060004020610040DF
:109554007C61004038570020014B1B68184700BF4E
:10956400945700200D4B984237B50D4610D102A8F0
:10957400002300F8013DFDF71DFE094B1C7914B9C9
:1095840001221D601A719DF80700FDF737FE14B91A
:10959400002003B030BD1120FBE700BF00200040D5
:1095A400945700200023435082B043580193019BF9
:1095B40002B070472DE9F041234EDFF89480234F29
:1095C40000254FF48034D6F8043305F150018900A6
:1095D400234289B20ED005EB08039B001B684BB1F4
:1095E400C6F848433046C6F80843FFF7DBFF3B683C
:1095F400E8B298470135042D4FEA4404E3D1124CF4
:10960400D4F80433DA070BD5D4F8003143B120463B
:109614004FF48071FFF7C6FF0C4B28461B68984730
:10962400D4F804339B070DD5D4F8043153B106485C
:109634004FF48271FFF7B6FF044B05201B68BDE8A9
:10964400F0411847BDE8F081004002409C570020DB
:109654005090001000F1804303F5983382B01A68EB
:109664006AB1084AD2F80423114208D000221A60D1
:109674001B680193019B044B1B6802B0184702B09E
:10968400704700BF00300140A057002008B50121F9
:109694004FF48070FFF7DEFF02214FF48270FFF772
:1096A400D9FF04214FF48470FFF7D4FF08214FF44D
:1096B4008670BDE80840FFF7CDBF0000F8B5334D14
:1096C4002B780446002B5CD1314B324E1960304666
:1096D4003149FFF747FF002855D101237360236800
:1096E400C6F8000503F00F02C6F8082503F00702C8
:1096F400072A217994F808C004BFC3F30043C6F8CD
:109704000C35244B01F00302C3F82025627902F0E2
:109714000102C3F8382500260F22C3F80062C3F8FB
:109724000823D3F80075C3F80065D3F8042522F0A4
:10973400070242EA0C020129C3F80425C3F80075A4
:1097440016D01CD3022917D0D3F8002242F001020C
:10975400C3F80022637A114A5B01DBB282F8133347
:109764004FF40023C2F88031136001232B70F8BD3D
:109774000422C3F80423E7E7C3F80413E4E7082248
:10978400F7E70820F3E71120F1E700BFA457002012
:10979400A0570020003001409196020000E100E053
:1097A400084B00220121C3F80015C3F80021C3F8B7
:1097B4000421C3F80821C3F80C211960024B0222CA
:1097C4001A70704700300140A45700200023435012
:1097D40082B043580193019B02B07047D0F8103116
:1097E40070B505460C4653B14FF48871FFF7EEFF90
:1097F40063795A0703D523680BB101209847D5F83C
:1098040014315BB14FF48A712846FFF7DFFF6379A7
:109814001B0703D523680BB102209847D5F81C31E8
:109824005BB128464FF48E71FFF7D0FF607910F0DA
:10983400100002D1236803B19847D5F8043163B10D
:109844004FF482712846FFF7C1FF01232371236877
:109854001BB10320BDE87040184770BD38B51D46E4
:1098640002230B710B684A7104467BB112F0040F9A
:1098740014BF92218221100748BF41F02001D30672
:10988400236848BF21F08001C3F8001320684FF417
:109894008271FFF79BFF206812F0800F05BF012340
:1098A40043514019002038BD2DE9FF4790F804804A
:1098B4004A4C4FEAC80563190E461979074601F068
:1098C400FF03002940F0888044F838204FF0FF3E21
:1098D4004FF001094FF0A0414FF0030AF05CFF285C
:1098E40077D020F080024DF8232009FA02FC02F51B
:1098F400E07200064CBFC1F808C5C1F80CC541F8B8
:1099040022A00133042BE9D13868009BC0F86035EC
:10991400019BC0F86435029BC0F86835039BC0F80E
:109924006C350123C0F80035B27933897179C0F8F8
:109934000C15C0F80425C0F808357389C0F8103533
:109944000023C0F800324FF48E71C0F80033FFF7E3
:109954003DFF4FF488713868FFF738FF4FF48A7180
:109964003868FFF733FF4FF482713868FFF72EFF32
:1099740054F8383033B33A683179120B53B2002BB0
:10998400A8BF03F16040D2B24FEA5313B8BF02F04C
:109994000F064FEA4111B4BF114800F561404FEA88
:1099A4008303C9B203F16043B4BF815580F8001347
:1099B40003F5614302F01F02012101FA02F2C3F828
:1099C40080211A602C4401232371002004B0BDE8D7
:1099D400F0874DF823E094E70820F7E7A857002024
:1099E40014ED00E010B504790068020B53B20121B4
:1099F4005B0902F01F0201FA02F22033054941F823
:109A04002320054B03EBC4030022C0F800251A7180
:109A140010BD00BF00E100E0A8570020F0B40D46DF
:109A24001C461A490379D5F800C0AF88AE68ED68C2
:109A340001EBC3010368C3F820C5C3F82475C3F858
:109A44002865C3F82C55C3F840C5C3F84475C3F85A
:109A54004865C3F84C5502F0010505EB5202C3F802
:109A64001425E20710D414F0020203D0002D14BF11
:109A740008220422002DC3F80022E2B214BF0C23F2
:109A84000823F0BCFFF7EABE1022F3E7A857002032
:109A940001490248FFF7A2BEA857002000C00140B8
:109AA40001490248FFF79ABEB05700200010024057
:109AB4000023435082B043580193019B02B0704786
:109AC400F0B54C4A4C4CD2F8243187B01546A3B1BA
:109AD4004FF492711046FFF7EBFFD2F8043163B9EB
:109AE400A368C2F808330223A360A368C2F804334E
:109AF40001231362536107B0F0BDD5F80431002B84
:109B040049D03E4F3B484FF48271FFF7D1FF0FCF4E
:109B140001AE0FC63B68336094F82E307BB1237BD3
:109B2400012B0CBFD5F83C25D5F84C250292022B0D
:109B3400304B0CBFD3F83C35D3F84C3503934FF47A
:109B4400B0712C48FFF7B4FF4FF4AE712948FFF70A
:109B5400AFFF94F8303013B194F82E303BB1254B5D
:109B64000022C3F80022A260254AC3F80823214A30
:109B7400D2F8C434C2F8C4349A0736D501238DF818
:109B8400003094F830300BB984F82F30D4E9003128
:109B940068469847AFE74FF4A4711648FFF788FF6B
:109BA400237B83B9154F0FCF01AE0FC63B683360DB
:109BB40094F83030002BDAD1C5F80032A360104B92
:109BC400C5F80833D3E74FF40073C5F8003240F208
:109BD4000223A36003F1CE73C5F80833A368C5F864
:109BE40004330123AB602B6285E713F0040318BF31
:109BF4000223C4E700300040B8570020C4570020B7
:109C040002029C012DE9F84F0579364C4FF03408D7
:109C140008FB05F804EB08079B4697F82D308146AE
:109C24000E469246002B59D12F490068FFF79AFC43
:109C3400002855D13168737B87F8323001F5E07222
:109C44004FF0A043B860C7F804B087F82F0087F836
:109C5400300040F20C6744F808A043F822707268A0
:109C640002F5E07C43F82C70D9F80030C3F80815ED
:109C7400C3F80C25B268C3F82425BAF1000F25D027
:109C84001A0B53B2317B002BA8BF03F16046D2B24A
:109C94004FEA5313B8BF02F00F074FEA4111B4BFA4
:109CA400124E06F561464FEA8303C9B203F16043DD
:109CB400B4BFF15586F8001303F5614302F01F02A7
:109CC400012101FA02F2C3F880211A60342303FB54
:109CD4000544012384F82D30BDE8F88F0820FBE704
:109CE4001120F9E7B8570020C59A020014ED00E0EE
:109CF400026803790621C2F80015044A342101FBE5
:109D04000323022283F82D20704700BFB857002098
:109D14002DE9F843CB6803F06043B3F1005F0D46CF
:109D2400904603D010221046BDE8F8830779944E7C
:109D34000468944BC4F808334FF0340C0CFB076CE4
:109D44009CF82F302BB1DCF80830C4F8043311220E
:109D5400E9E712F0140F0CBF012300238CF82F3015
:109D64008946B9E80F000CF10C0EAEE80F00D9F8E3
:109D74000030CEF80030C8F300138CF830306B7824
:109D8400C4F888354FF482712046FFF791FE4FF4F2
:109D94009271FFF78DFE18F0010318BF0123C4F878
:109DA400503518F0020318BF0123C4F840352B784E
:109DB400032B00F2C380DFE803F083AB67022B6957
:109DC40003F06043B3F1005FACD14FF48073EA68F1
:109DD400C4F800326B68C4F844254FF4A871C4F881
:109DE4004835FFF765FE4FF4B071FFF761FE4FF49D
:109DF400A471FFF75DFE01232362A360D4F8503100
:109E0400002BFBD04FF4A8712046FFF751FEAB683E
:109E14002A69C4F84425C4F848355B4A342303FB53
:109E240007639A604FF482730821002218F0080F28
:109E340004D1287803281CBF0120605034217943C1
:109E44007018715800297ED101252344196800290E
:109E540000F086803421D4F8C434C4F8C43401FB3F
:109E64000766002186F82F10002B3FF45CAF13F037
:109E7400020F48F2012208BF032213F0040F48F234
:109E8400022318BF1A464EE76B68EA68C4F84425F3
:109E9400C4F848352B6903F06042B2F1005F7FF4E7
:109EA40041AFAA68C4F834354FF48453C4F8382554
:109EB400C4F80032342303FB076340F20222B0E704
:109EC4006B68EA68C4F8442518F0200FC4F84835D4
:109ED4004FF0340310D003FB07634FF48072C4F8CF
:109EE4000022294A9A604FF4A471FFF7E1FD4FF470
:109EF400A4730122226297E74FF4007203FB076305
:109F0400C4F8002240F202229A604FF48273F0E710
:109F14006B68EA68C4F83425C4F838354FF48053C4
:109F2400C4F80032342303FB076340F202229A6030
:109F34000123236200214FF4827376E74FF4827386
:109F44000821072272E718F0040F1CBF4FF40073B6
:109F54008360342303FB0766B368C4F80433E2E682
:109F6400D4F8241100293FF471AF4FF492712046C4
:109F7400FFF79EFD25624FF48273656165E700BFBC
:109F8400B857002002029C0100020400F0B587B01B
:109F940004460F4615460021142201A81E4606F069
:109FA40093FC9DF830308DF80570002B14BF2022EF
:109FB400002201A9204602960495FFF7A9FE07B0E6
:109FC400F0BDF0B587B004460F46154600211222B5
:109FD4000DF106001E4606F077FC0123002201A9BC
:109FE40020468DF804308DF8057002960495FFF72D
:109FF4008FFE07B0F0BD00001FB503788DF8003068
:10A0040003798DF8043043798DF8053083688DF831
:10A014000630C3688DF807300369029343690393DC
:10A02400054A064B684653F8213052F821109847E8
:10A0340005B05DF804FB00BFEC570020F457002086
:10A04400024B4FF4807043F0010318477013030070
:10A054002DE9F04791460778324A42F82790324A70
:10A0640042F827304B7B80460C4663B30868496846
:10A0740082008B0002F1A04203F1A04340F20C6580
:10A08400C2F800570126C3F800574FF0A04506FA5E
:10A0940000F006FA01F1C5F80805C5F8081540F204
:10A0A4000D61C2F80017C3F80017FFF7C9FF4FF09E
:10A0B400000AD5F81025636822FA03F3DB070FD5ED
:10A0C400BAF1000F1FD1B9F1000F3B46174A2146E0
:10A0D40008F1040008BF0022BDE8F047FFF792BD75
:10A0E400236806FA03F3C5F80C35FFF7A9FF2368C4
:10A0F40006FA03F3C5F808350AF1010AFFF7A0FFD1
:10A10400BAF1090FD5D1636801254FF0A04605FACD
:10A1140003F3C6F80C35FFF793FF63689D40C6F858
:10A124000855D0E7F4570020EC570020FD9F0200AB
:10A1340000F1804000F5E040002382B00360036832
:10A144000193019B02B07047F0B5514B514C1B6811
:10A1540085B0DBB14FF4827094F82E20FFF7E8FF4E
:10A1640012B194F82F30A3B1636802932389ADF838
:10A174000C30E36800218DF80410002B44D12374C3
:10A18400236801A89847002384F82F3094F82E30D0
:10A1940003B3414B1B68EBB14FF48070FFF7C8FF6A
:10A1A40094F82D20638B91B28B4238D95B1A2189A4
:10A1B4009BB26383CB1A616801EB4301374BC3F84D
:10A1C4002C16C3F830264FF48270FFF7B1FF344BDE
:10A1D40001221A60334B1B685BB14FF48870FFF7A0
:10A1E400A7FF002304A82374022300F80C3D23686E
:10A1F40098472D4B1B6813B34FF48A70FFF798FFF1
:10A204000023237405B0F0BD208B6083636020813C
:10A21400E160002AB4D1214B01221A60B0E7D2D107
:10A22400E368012184F82F103BB1002161831B49AD
:10A23400C1F82C36C1F83026C5E76383C3E76669E5
:10A244004FF000470125002EDCD0B6FA86F227FA3B
:10A2540002F34632920026EA030602F1804303F534
:10A26400E0431B68002BEED01046FFF761FFA2F518
:10A274008C72D30882F00402C2F380028DF8083095
:10A284008DF804508DF80920236801A89847DAE76F
:10A2940004710040FC570020007100400070004031
:10A2A40004700040107100401471004038B51D4B1B
:10A2B400044693F82C0098BB1B4A19602178C2F815
:10A2C400F0156178C2F8F415E5781874012183F863
:10A2D4002C1083F82D00586183F82F0083F82E503A
:10A2E4006FF00043C2F808334FF48270FFF720FF89
:10A2F4004FF48070FFF71CFFA3780C485B01DBB2BE
:10A3040080F807338023C0F8803103600223C2F849
:10A3140004330DB1C2F80413C2F80015002038BD8F
:10A324000820FCE7FC5700200070004000E100E03A
:10A334002C4B1A7C70B502F0FF05002A4FD10A7924
:10A34400012A9CBF284CC4F8005500F10C0503EB0E
:10A354004504247924B993F82D40013483F82D4021
:10A3640003EB4503CC790D7A8E781C715D714B78C3
:10A3740036021B0106F4E06603F0300333430E7823
:10A3840006F003063343CE78360306F4805633438F
:10A39400160406F4E02633434E798979360506F42B
:10A3A40080160906334301F080710B430E4901EB1B
:10A3B4000016000100F1804000F5E040012AC6F8D3
:10A3C4001835C0F81455C0F81045C0F81455C0F835
:10A3D400104502D80123C1F80035002000E0112007
:10A3E40070BD00BFFC57002000700040264A274B78
:10A3F40070B505461220C2F808031C7C022C03D158
:10A40400C2F80403112070BD187C01281DD1D8683E
:10A4140018B10223C2F80433F4E7DD60198393F81A
:10A424002E3063B91A4A1368002BFCD04FF48070A5
:10A43400FFF77EFE144BC3F82C56C3F83016124BAC
:10A444000222C3F804230020DDE7022093F82E4003
:10A45400C2F80403012600201E745D601981D860CF
:10A464003CB1598393F82D30C2F82C56C2F83036DB
:10A47400C9E7C2F82C564FF48070C2F83016FFF7C3
:10A4840057FE20461660BEE700700040FC570020CF
:10A4940000710040084A137CDBB2012B09D192F809
:10A4A4002E0018B1054A002013607047044A136057
:10A4B40070470820704700BFFC5700200070004020
:10A4C40004700040F0B51B4F8BB207EB001443EA55
:10A4D4000243C4F81C35184B40005C6900F1010CC0
:10A4E4004FF0004611F5006F26FA0CF64FF0800588
:10A4F40005FA00F50BBFB44334435C615C610CBFE7
:10A50400C7F80853C7F8045340244FF0004559696D
:10A51400844025FA00F040F2FF75AA42054A0BBFB9
:10A5240081430143596159610CBFC2F80843C2F821
:10A534000443F0BD00700040FC570020124B1A7C0D
:10A5440010B5FAB900F10C0103EB4102127922B102
:10A5540093F82D20013A83F82D2003EB41030024C6
:10A564001C715C71030103F1804303F5E04340F285
:10A57400FF72C3F814450549C3F81045FFF7A2FF5D
:10A58400204610BD1120FCE7FC57002000F8FFFF17
:10A5940038B5134B6FF00042C3F80823114A8021E9
:10A5A400C2F88010104A01211160104942F2107261
:10A5B400086808B9013AFBD10D4D0024C3F80045E1
:10A5C4002C7405EB44031B7F13B1E0B2FFF7B6FF15
:10A5D4000134082CF5D1002385F82C3038BD00BF98
:10A5E4000070004000E100E0087000401471004079
:10A5F400FC57002008B501220221002000F0D2F807
:10A6040008B1072810D107220221012000F0CAF85E
:10A6140008B1072808D100210A22084600F0C2F830
:10A6240010B1072808BF002008BD00000388102BC4
:10A6340010B502D0112B1ED010BD1A4C2168B1B92F
:10A644000122084600F0AEF808B1072824D10722F9
:10A654000221012000F0A6F808B107281CD1042229
:10A664000221002000F09EF808B1072814D12368C5
:10A6740001332360E0E70B4A1368013B1360002BAE
:10A68400DAD1FFF7B7FF0028D6D0074B1B68002BA1
:10A69400D2D0BDE810401847034B1B68002BE6D00E
:10A6A4009847E4E7305800202C5800202DE9F04763
:10A6B40081460D46FEF706FC0228044604D8012D07
:10A6C40004D024D3022D2FD0BDE8F087194D4700C4
:10A6D4003A18A918AE5C4A7852B1DFF86880164877
:10A6E40042464FF40041FCF711FD08B988F8009088
:10A6F4003B192B449A78114B1A55002EE4D0104B79
:10A704001B68002BE0D03046BDE8F04718470A48E4
:10A71400FCF740FD074B04EB440213449E78074BBF
:10A724001B5DB342D0D1E8E7024B00EB40041C446C
:10A734006678E2E75858002038580020685800200E
:10A74400645800203458002002210078FFF7AEBF7F
:10A7540008B50F4B10F00200196017D00D4B0E48CE
:10A764000E221A700F22DA7010229A71032140F21D
:10A774006662FCF705FA48B9FCF756FA30B90146A7
:10A78400064A0748BDE80840FCF7AEBC08BD00BF58
:10A7940064580020585800207C1303004DA7020081
:10A7A40094130300022812D8012A0BD1012908D1DD
:10A7B40000F10E02D2B200EB40000C4B1A54002000
:10A7C400704700220129F6D009D3022901D00720BD
:10A7D4007047064B00EB400018444270EFE7034B10
:10A7E40000EB400018448270E9E700BF585800208D
:10A7F4006DDF704779DF70477DDF704764DF704736
:10A804002DE9F74F0C9CBDF834B02788002580460D
:10A814008A4691462E46B8F80020B2420BDC35B188
:10A824002288013AD21B92B2FF2A39D8DA55002085
:10A8340003B0BDE8F08FD8F8042052F82600019048
:10A8440000220DF1030101A8FFF7D8FF0028EFD182
:10A854009DF803204A4521D12288002D14BF0020F1
:10A86400022002EB09010144594519DC3DB90132CA
:10A8740092B2228003F802A0228801322280228828
:10A884000DF103011A4401A8FFF7B8FF0028CFD146
:10A8940021889DF803200A44228001250136BAE765
:10A8A4000C20C5E72DE9F341089CBDF82450174658
:10A8B400CDE9004502220646FFF7A2FF48B910225F
:10A8C40039463046CDE9084502B0BDE8F041FFF70E
:10A8D40097BF02B0BDE8F0812DE9F04F0023168840
:10A8E400138090F82D3085B007460D46144653B3B7
:10A8F400082E01D80C2004E102A8FFF779FF0028F4
:10A9040040F0FF8013880822CA54238801339BB285
:10A914001B222380CA542088013080B22080062262
:10A924000DF10901284405F0A6FF23889DF80820AD
:10A9340006339BB212F0FE0218BF01222380EA54B0
:10A94400238801332380BB78FBB123880433B342CB
:10A95400D0D802A8FFF74EFF002840F0D280238809
:10A964000322EA54238801339BB219222380EA5438
:10A974002388BDF8082001339BB2E9182380EA54E8
:10A98400120A4A70238802332380FA789AB1238802
:10A99400D91CB142AED80221E954238801339BB2B9
:10A9A40001212380E95423880B449BB22380EA5479
:10A9B40023880B4423807A68AAB12388D91CB14226
:10A9C40098D8022192F90020E954238801339BB2DC
:10A9D4000A212380E954238801339BB22380EA545B
:10A9E4002388013323803B89002B7ED13B8A53B1DA
:10A9F400CDE900462B460722032107F11000FFF79B
:10AA040051FF00287DD13B8B53B1CDE900462B4645
:10AA14001522142107F11800FFF744FF002870D114
:10AA24003A6A002A70D1D7F82480B8F1000F30D0E8
:10AA3400B8F804302188981C8A1C0244B2423FF6BC
:10AA440059AFFE283FF656AF03336B5423880133C6
:10AA54009BB2FF222380EA54238801339BB22380D4
:10AA6400B8F80020EA54E918120A4A702088023023
:10AA740080B22080B8F804205AB1D8F80810002910
:10AA84004CD0284405F0F7FE2388B8F8042013447A
:10AA9400238097F82C30002B7BD1387888B33B88FF
:10AAA400012B3BD021888A1CB2423FF623AF0128F8
:10AAB40005D17B7802330B449E42FFF41BAF023E68
:10AAC400761A04A9B6B221F8086DA818FFF794FE07
:10AAD400B8B93B78022B40F09F80BDF80830B342F0
:10AAE40040F2B680ADF808609FE0CDE900462B4601
:10AAF4000622022107F10800FFF7D4FE00283FF4E4
:10AB040075AF05B0BDE8F08FB4F800C00CF10603D2
:10AB1400B3423FF6EFAE1188052901D80720F0E7CC
:10AB24006FF4486E01EB0E039BB24FF27D3E73450A
:10AB3400F4D95388052BF1D96FF44860181880B202
:10AB44007045EBD94FF6FF70814203D0834201D0A8
:10AB54009942E3D8052305F80C30238801339BB2CE
:10AB640012212380E954238801339BB22380118866
:10AB7400E954E818090A4170238802339BB2238000
:10AB84005288EA54E918120A4A702388023323804F
:10AB940049E7BB6A002BC1D04FF000094FF00C0A03
:10ABA4004FF0160B97F82C305FFA89F293427FF638
:10ABB40074AFB96A0AFB02F201EB0208B8F8043078
:10ABC400981CFE283FF696AE208803332B54238826
:10ABD40001339BB2238005F803B0238801339BB271
:10ABE40023808A5AEA54E918120A4A7020880230EB
:10ABF40080B22080B8F804205AB1D8F8081000298F
:10AC04008CD0284405F037FE2388B8F80420134478
:10AC1400238009F10109C5E7012B7FF463AF7B7839
:10AC24009E42FFF45FAFADF808300821BDF808304C
:10AC3400FE2B3FF65FAE22880133AB5422880132EB
:10AC440092B22280A954228813442380002058E71A
:10AC54000921EBE770B5C0B14AB116880024B442AB
:10AC640003D305196D789D4208D0A14201D8002074
:10AC74000BE0055D01352C44A4B2F0E7A142F6D9FE
:10AC8400A31C1380005D013880B270BD37B502ACDF
:10AC9400002324F8023D134622460546FFF7DAFF57
:10ACA40010B1BDF80600284403B030BD72DF704710
:10ACB40073DF704738B5012204460D46B0F898108A
:10ACC400D0F89400FFF7E2FF00B1057004F13C02F4
:10ACD40004F1940104F15400BDE83840FFF7E6BFE5
:10ACE40080F830107047F8B504460F46002968D044
:10ACF400002866D091F87A301BB191F89830002B77
:10AD040061D1D7F8A030042B5DD0D7F89C30042B48
:10AD140059D007F178060FCE4FF0000C251D84F8AA
:10AD240002C00FC50FCE0FC596E8070085E80700DF
:10AD340084F830C0D7F8A4306363D7F8A830A3638D
:10AD44004FF6FF7504F19403C4F8A430A4F8A85096
:10AD54000722614604F1AA0005F0B6FD23780BB979
:10AD640084F85450224604F155011F25C4F8941068
:10AD7400384622F8985FFFF7AFFD08BB224604F17E
:10AD84007401C4F89C1007F13C0022F8A05FFFF79F
:10AD9400A3FDA8B9A269A4F848200123626920642C
:10ADA40084F850006264014684F8513084F83C30E1
:10ADB40004F13C0204F15400FFF778FF00B923705A
:10ADC400F8BD0E20FCE70720FAE7F8B5077804463B
:10ADD4000D46002F00F00E81A1700020FDF7FAFB54
:10ADE400014618B1012363700020F8BD04F1AA06DE
:10ADF4000722304605F068FDE38813B1A378012BE0
:10AE040004D0E3794BB1A378022B06D1636BA3B1D1
:10AE1400012284F8B12008209847334604F1B00198
:10AE240013F8012F12B99942FAD117466B1E032B5E
:10AE340053D8DFE803F0050B0F1284F8B130ECE7C8
:10AE4400A3791BB194F8243003B95FB9E3790BB14A
:10AE5400002F44D1237A002B43D1637A002B0CBFFB
:10AE640000250425636BA570002B3CD0033D012D08
:10AE740039D86279002A36D094F8B220002A32D127
:10AE840084F8B420012284F8B3200720984704F101
:10AE94003C0518220021284605F016FDE36A94F8C3
:10AEA40024200121581E884288BF0B4684F83C1098
:10AEB40084F8513032B1884296BFA36A84F85210A4
:10AEC40084F85230A178002384F8503004291BD828
:10AED400DFE801F07A0D25385C000025C2E7022581
:10AEE400C0E70325BEE7002384F8B330CFE7C4F8F6
:10AEF400A430C4E910630223012284F83C30802387
:10AF040084F83120A4F84830A378002B5FD1636B18
:10AF1400002B3FF469AF94F83100984764E70223AB
:10AF240084F8313062B1072384F83C302369A4F8F3
:10AF340048300023C4F8A430E36826646364E3E77C
:10AF44000323F1E763696364A369A4F8483012B189
:10AF5400062384F83C306379B3B194F8B2309BB9DA
:10AF640094F8B43083B1022384F85030042120468D
:10AF7400FFF7A0FE0028C7D1052384F8313004F17F
:10AF84009403C4F8A430BFE70323F6E7E3696364DA
:10AF9400236AA4F8483012B1062384F83C3063795C
:10AFA40083B194F8B2306BB994F8B43053B102233E
:10AFB40084F8503004212046FFF77CFE0028A3D1FA
:10AFC4000623DAE70423D8E784F831309CE72A46DD
:10AFD400D4F8A41004F15400FFF768FE00287FF4AD
:10AFE40004AF94F8301094F85400FFF761FE002881
:10AFF4008DD0FAE60820F8E60388112B10B50C462C
:10B004000AD0262B1FD0102B05D1C37B012B02D1D4
:10B014008388A1F8A83010BD0022838881F8B2206B
:10B02400B1F8A8209A42F6D10B79002BF3D1012173
:10B034002046FFF7CAFE0028EDD0A36B002BEAD010
:10B04400BDE810401847037A013B012BE3D8897807
:10B054000523013191FBF3F303EB8303C91AC9B24E
:10B06400E6E70238012810B50C460DD84B785BB1E1
:10B0740000234B7020468978FFF7A7FE20B1A36B0D
:10B0840013B1BDE81040184710BD90F8B3306BB150
:10B09400002380F8B3303AB9009B003318BF012372
:10B0A40080F8B430002070470123F9E70820704786
:10B0B40075DF704776DF70477ADF70477BDF704754
:10B0C4000A4A138883420AD0938A834209D0138D93
:10B0D400834208D10223142000FB0320704700237D
:10B0E400F9E70123F7E70020704700BF88580020E4
:10B0F400024B9B6903B11847704700BF6C5800208E
:10B1040037B585B22846FFF7DBFF034670B1164C0E
:10B11400017A227B91420BD200F10A012846FFF703
:10B12400C7FFE8B1112801D0FFF7E2FF03B030BD3B
:10B13400237C0022027243B13B212846FFF7BAFF69
:10B1440030F0080301D0FFF7D3FF6369002BEDD083
:10B1540000228DF80420ADF8065001A89847E5E7D1
:10B164001A7A01321A72E1E76C58002013B50B46C3
:10B17400497A0F4C024669B9D4E901101C7A002CB3
:10B1840018BF01465868FBF7C1FF08B1FFF7B0FFCD
:10B1940002B010BD002119726369002BF8D001219F
:10B1A400ADF806008DF8041001A89847F0E700BF39
:10B1B4006C5800208388B3F5FA7F28BF6FF4F972C6
:10B1C40030B528BF9C1805884A8838BF00249542AA
:10B1D4000CD84088904209D38A88A24206D303F24D
:10B1E400F310904234BF0020012030BD0020FCE762
:10B1F4000388112B70B5014648D002D8102B1ED0FD
:10B2040070BD122B52D0502BFAD12F4BC288DB8940
:10B214009A42F5D1038A022BF2D186883046FFF791
:10B224004FFF05460028EBD001F1120000F000FAB0
:10B2340030BB6868FBF7AEFF0028E1D009E0C37BB0
:10B24400012BDDD14FF6FF70FFF73AFF054620B919
:10B254000420BDE87040FFF74BBF1C4A8E8806806F
:10B26400002303721368C5F80A300A305368436038
:10B274001031FFF79FFF144B6872DB89002BBFD19D
:10B2840029463046BDE87040FFF770BF8088FFF75D
:10B2940017FF04460028B3D04068FBF77BFF08B1D2
:10B2A400FFF726FF4FF6FF732380A9E78688304611
:10B2B400FFF706FF05460028A2D008310A30FFF741
:10B2C40079FF6872DCE700BF6C580020C458002086
:10B2D400F8B50646002840D005460FCD214F3C4620
:10B2E4000FC495E8070084E8070030681E4B3B60F4
:10B2F40068B3FFF7E1FE48BB31680A681A604A6820
:10B304005A601A4C1A4D1B4A20464FF6FF7600210C
:10B31400268040F8045FFBF7E7FE0146F8B92046B3
:10B3240005F12003A68240F8183F124AFBF7DCFE21
:10B334000146A0B920464035268540F82C5F0D4AC9
:10B34400FBF7D2FE002814BF03200020F8BD1846E6
:10B35400FFF7B4FE0028D4D0F8E70E20F6E7032068
:10B36400F4E700BF6C580020C4580020885800201F
:10B37400CC58002005B10200F7B5174601900E46DF
:10B3840091B1019C6CB100252C46294601A8FCF71B
:10B3940028FF18B13946A8B2B04701340135142D3D
:10B3A400F3D1204603B0F0BD0C46FAE773B5019122
:10B3B400019C06466CB100252C46294601A8FCF7E1
:10B3C40010FF18B106EB440301349D800135142DA0
:10B3D400F3D13046346002B070BD00002DE9F04373
:10B3E40003888488112B8DB0064640D01A2B43D095
:10B3F400102B16D1294DAB680CA8DB4340F8303D27
:10B4040055F8041FFCF74EFF009901A8FFF7CEFF83
:10B414000027019B9F4207D3132C18D90420FBF764
:10B4240019FC0DB0BDE8F08301AB03EB47034FF00B
:10B434000008B3F8049005EB0800494608F1040835
:10B44400FCF7C5FEB8F1740FF5D10137E1E72146E9
:10B454001348FCF7A5FE21461248FCF7A1FEF37B36
:10B46400012BDED010482146FCF79AFED9E70C48A0
:10B474002146FCF7ACFED4E7057A0C482D09012DD2
:10B48400214606D9FCF78CFE022D21460848F0D04F
:10B49400EAE7FCF79CFE21460548EAE72C59002020
:10B4A4003459002030590020385900203C590020DC
:10B4B4004059002073B502AE002446F8040D254619
:10B4C40021463046FCF78DFE00B101350134142CC1
:10B4D400F6D1284602B070BD1328014602D80248AE
:10B4E400FCF77FBE002070473059002010B5044699
:10B4F400FFF7F2FF38B121460348FCF772FE00283B
:10B5040014BF0220012010BD3859002010B5044694
:10B51400FFF7E2FF38B121460348FCF762FE00283A
:10B5240014BF0220012010BD3459002010B5044678
:10B53400FFF7D2FF28B121460248BDE81040FCF7CE
:10B5440050BE10BD3C59002007B5074AD36802A875
:10B55400DB4340F8043D9168FCF7A4FE0198FFF733
:10B56400A9FF03B05DF804FB2C59002010B5034B70
:10B5740004465968FFF71AFF204610BD2C590020D5
:10B5840008B518210248FCF735FEC0B208BD00BF5B
:10B594002C59002070B50A4D064628460C46FCF787
:10B5A40020FE58B13046FFF797FF38B1A01D314651
:10B5B40005EB8000BDE87040FCF713BE002070BDB1
:10B5C4002C590020F8B50D4C054620460E4617466A
:10B5D400FCF707FE80B12846FFF77EFF60B1B01D7F
:10B5E40004EB800029461FB1BDE8F840FCF7D8BD44
:10B5F400BDE8F840FCF7EBBDF8BD00BF2C590020B6
:10B60400F8B50A4C05460E46014620461746FCF797
:10B61400E8FD48B1043504EB85043A46A068314698
:10B62400BDE8F840FFF7A8BEF8BD00BF2C590020C4
:10B63400007800F0010070470078C0F340007047C4
:10B644000B7803704B7843700220704738B504467A
:10B6540008460D4605F06BF96560208038BD10B5CD
:10B664000446408800F01EFCA0802046BDE810403F
:10B6740001F0C6BD30B587B005460C461422002142
:10B6840001A805F021F9072301A88DF80430ADF8CD
:10B6940006500394FFF7E3FF07B030BD30B587B021
:10B6A40005461422002101A805F00EF94FF6FF7398
:10B6B4009D42ADF806501AD0284600F028FA0B280F
:10B6C40004461DD005D8A0B121462846FFF7D2FF75
:10B6D40005E0112805D043F202039842F4D1002278
:10B6E40000E00122074B28461978FFF76BFF07B0EB
:10B6F40030BD0E2301A88DF80430FFF7B0FFEEE74C
:10B704000F23F7E7A5590020FFF7C8BF024B0349F1
:10B7140018780022FFF774BFA759002039B7020038
:10B72400024B034918780022FFF76ABFA65900208C
:10B73400D1B7020070B5234E86B031780446FFF7C6
:10B7440029FF0546C0BB204600F030FA0828014610
:10B7540022D006D888B106281ED02046FFF78AFFDB
:10B7640009E043F20203984205D043F201439842B0
:10B7740024D01128F1D1012214E02946142201A871
:10B7840005F0A2F8102301A88DF80430ADF80640A6
:10B794000125FFF764FFEEE7204600F083FB00F08D
:10B7A4001FFA0022084B20461978FFF70BFF2A46A0
:10B7B40031782046FFF706FF06B070BD2046FFF73C
:10B7C4006DFFD8E7A8590020A759002070B50021C3
:10B7D40086B006461C4801F077FF054608B330469C
:10B7E40000F050F9112801461DD004D860B130464C
:10B7F400FFF740FF05E0862817D043F20203984282
:10B80400F5D10024254601E02C4605460F4B2A4677
:10B8140019783046FFF7D6FE1CB921460A4801F0D4
:10B8240078FF06B070BD0024F0E71422002101A8BF
:10B8340005F04AF8062301A88DF80430ADF8066037
:10B84400FFF70DFFDDE700BFA4590020A659002033
:10B85400037810B5044673B94088FFF71FFF60886A
:10B8640000F092F938B1044B608819780122BDE8E0
:10B874001040FFF7A7BE10BDA75900200378082B7E
:10B8840037B504462CD1417A51BB057A072D1BD01C
:10B89400082D29D0012D23D16A462946808801F03C
:10B8A400DDFAE8B9019B1B78D3B1A08800F022FB34
:10B8B4004FF6FF73984213D00D4B2A461978FFF7C1
:10B8C40081FEFFF723FF0BE0808800F013FB4FF6A7
:10B8D400FF73984204D0074B01221978FFF772FED8
:10B8E400FFF71EFF03B030BD034801F012FFF7E776
:10B8F400A7590020A6590020A459002070B5FFF7CD
:10B904003FFE104E104D3070FFF73AFE2870FFF7DF
:10B9140037FE0E4C2070FFF733FE0D4B1870337852
:10B92400182B0DD02B78182B0AD02378182B07D07E
:10B93400182805D00748012101F0BFFE002070BD82
:10B944000320FCE7A6590020A5590020A759002090
:10B95400A8590020A459002010B503888488522BCC
:10B9640086B016D0542B21D0502B15D1037B012B3C
:10B9740012D1827A012A0FD1018942F60213994227
:10B984000AD11B4B20461978FFF71CFEFFF7C8FEAF
:10B9940002E02046FFF782FE164B17491878002272
:10B9A400FFF72EFEFFF7B2FE06B010BD14220021F1
:10B9B40001A804F089FF112320468DF80430ADF866
:10B9C400064000F06FFAADF8080000F009F90B4BDF
:10B9D400204619780022FFF7F5FD094B2046002286
:10B9E4001978FFF7EFFD01A8FFF739FED4E700BF90
:10B9F400A6590020A55900200DB70200A85900201F
:10BA0400A7590020AFDF7047B1DF7047B2DF70473E
:10BA1400B3DF704773B50F4B0F4C93E803006D46CB
:10BA240085E8030000222946208801F010FB4FF628
:10BA3400FF762388B34201D0112801D102B070BD32
:10BA4400184601F0F6FA00222946208001F0FFFA98
:10BA5400EFE700BF98130300AA590020044B1A888B
:10BA64004FF6FF739A4201D0FFF7D4BF704700BF6F
:10BA7400AA590020024B4FF6FF721A80002070472B
:10BA8400AA5900202DE9F743804600F00BFA4FF63F
:10BA9400FF739842064637D001224FF003096B46E4
:10BAA40008213046571C01F0DDF9BFB2054630BB12
:10BAB40001990A46032342F8049B06314046FFF7E6
:10BAC400A5FF044648B932460821304601F09EFAE3
