:020000022000DC
:10600000000001203D6202009562020097620200DA
:10601000996202009B6202009D6202000000000083
:106020000000000000000000000000009F6202006D
:10603000A162020000000000A3620200A56202004B
:1060400091990200AB620200CD9D0200AF62020096
:10605000B1620200B3620200519C0200B76202000A
:10606000B9620200BB620200BD620200BF620200B0
:10607000C1620200C3620200C5620200C762020080
:10608000C9620200AD710200CD620200CF6202005F
:1060900069720200D36202003D000300D762020071
:1060A000D9620200DB620200DD620200DF620200F0
:1060B000E1620200E3620200A7620200A76202003E
:1060C000E5620200E7620200E9620200EB620200A0
:0C60D000ED620200EF620200F1620200CB
:1060DC00364937480A1A02D0072291438D46354972
:1060EC0035480A1A06D00722914381F30988022207
:1060FC0082F3148831483249324A00F045F832486C
:10610C003249334A00F040F832483349334A00F000
:10611C003BF833483349344A00F036F833483449B5
:10612C00344A00F031F834483449354A00F02CF840
:10613C0034483549354A00F027F8354835490022AE
:10614C0000F02DF834483549002200F028F8344886
:10615C003449091A082903DB00220260043001606B
:10616C00314A90471F482049884205D002680430C4
:10617C0003B4904703BCF7E700208646EC460020AA
:10618C0000212A4A9047FEE7884207D0521A05D0D0
:10619C00037801300B700131013AF9D17047884214
:1061AC0002D002700130FAE77047000000000120B5
:1061BC0000E000200000012000000120DC1803009A
:1061CC0070220020C4240020F4620200F462020059
:1061DC0032060300DC18030070220020702200201D
:1061EC00BC070300BC070300BC070300BC0703008B
:1061FC00BC070300BC070300BC070300BC0703007B
:10620C00DC180300301B0300C4240020C42400202D
:10621C00C4240020FE360020003700200037002068
:10622C00003700200057002061620200EDA9020037
:10623C000F484FF00701884385460E4880470E48AB
:10624C00016841F470010160BFF34F8FBFF36F8F92
:10625C00FFF73EBF09480A490A4A884207D0521A3A
:10626C0005D0037801300B700131013AF9D1704738
:10627C00000001207594020088ED00E06407030023
:10628C001822002070220020FEE7FEE7FEE7FEE762
:10629C00FEE7FEE7FEE7FEE7FEE7FEE7FEE7FEE7CA
:1062AC00FEE7FEE7FEE7FEE7FEE7FEE7FEE7FEE7BA
:1062BC00FEE7FEE7FEE7FEE7FEE7FEE7FEE7FEE7AA
:1062CC00FEE7FEE7FEE7FEE7FEE7FEE7FEE7FEE79A
:1062DC00FEE7FEE7FEE7FEE7FEE7FEE7FEE7FEE78A
:0862EC00FEE7FEE7FEE700BF3C
:1062F4007047000007B5044B0093044A402300F0A4
:1063040032F803B05DF804FB15630200C5240020D5
:106314002DE9F84389461446B2B10F4B0F4E0325BD
:10632400002743F00108224609EB0701002004F08E
:10633400FBFD0744241A48B933782BB14FF47A4053
:10634400C047013D02D13570BDE8F88301233370A5
:10635400002CE8D1F8E700BFC0070300C4240020E4
:10636400704704F015BEF0B595B01C4616460846B5
:106374000D4602F030FF1A9B0D93CDE9086400240A
:106384002346082205A928460A948DF82C400C942B
:1063940002F05DFF079B0293BDF81830ADF80C3096
:1063A400BDF81A30ADF80E309DF814308DF8114058
:1063B40003F00302012A1DD1BDF81440059EC3F366
:1063C400C203C4F383148DF81030A20008230EA96D
:1063D400284602F03CFFC6F3952608AB00932246FC
:1063E40002AB0EA9304600F071FB284602F0F7FE1E
:1063F40015B0F0BD022AF8D1BDF81640C3F3C203AC
:10640400A4098DF810300827082C264628BF082632
:106414003B4632460EA9284602F019FFA41B08ABDE
:1064240002AA31460EA8374400F0B4FB002CEBD18D
:10643400DBE7000010B5054CFFF793FF042120466D
:1064440000F0B4FA0123637210BD00BF7022002073
:10645400037813F0030F03F0040202D012B91046BC
:106464007047B2B103F00303012B03D0022B09D010
:10647400012070470A6800880232C0F38310024486
:106484000A60F5E70B684288023303EB92130B6052
:10649400EEE70B684288013303EB92130288F4E7BA
:1064A4002DE9F04F89B00546861C08A8484C019296
:1064B40000230F4600F8113D01F0C0F823683B604B
:1064C400D4E901231344226801339B1A04F21C47C4
:1064D40004F5836A04F21448B3421AD3019A0023E0
:1064E400002A6DD0012262F3010343F0040365F333
:1064F40089132168A2689DF80F000A4003320E44F4
:1065040044F82230266001F0BDF8012009B0BDE84E
:10651400F08F0121384602F01FF9504602F035F998
:10652400404602F032F90DF120096068D4F808B051
:1065340049F8100D00EA0B00033004EB80004946D3
:10654400FFF786FF049BB0B90BEA030204EB820257
:10655400D16805919A1C013303EA0B0B04EB8B0CF5
:1065640001F00303012B0492DCF80CB020D0022BC1
:1065740004D083460BE00BEA0300DDE7BDF81630D8
:106584009B0903334FEA1B4B02EB930304934046EE
:1065940002F0FEF808B1049B63605946384602F0E5
:1065A400DBF8D4E901231344226801339B1A93E7EF
:1065B400BDF81430C3F383134FEA1B4B1344E5E7D0
:1065C400022262F3010343F0040365F39F5390E74F
:1065D400D825002008B50E4B0E48FF229A600022F1
:1065E400C3F81824C3E90022C3F8142483F8202430
:1065F40002F0AAFD38B9084A084B09499B1ADB087E
:1066040002469A4200D108BD21F822200132F8E75F
:10661400D8250020240703009C0603002407030058
:106624001822002030B50B4C79B10B4A0B49121BD0
:10663400D20800239A4201D1002030BD01EB83052A
:106644006D88854202D00133F4E7034654F83300E1
:10665400F3E700BF9C060300240703001822002070
:10666400094B013903EBC000032909D8DFE801F025
:106674000A02040604207047007970474079704785
:1066840000207047022070479C060300034BD3E9A7
:106694000030C31A58425841704700BFD825002023
:1066A4002DE9F04387B0FFF7F1FF0746002840F0DB
:1066B400F5807B4DC5F81804BFF34F8F6868AC684C
:1066C4000DF1180848F8100D2040033005EB800048
:1066D4004146FFF7BDFE029B064600285FD104EA4F
:1066E4000302991C013305EB8202234005EB83036B
:1066F400D268DB68049302F00303022B0392029135
:1067040062D1BDF80E3067484FEA9318B8F1500FC4
:10671400C14628BF4FF0500969F38F1309F10801EE
:10672400ADF80E3002F028FD0746002800F0A480E2
:1067340002F051FD334603A90822384602F05EFDFB
:10674400029924EA01060136B600B14535D95FFA4B
:1067540089F97EB3F6B2A9EB0609214003315FFA49
:1067640089F4B146504E05EB810108234A46384668
:1067740002F044FD36B109F1080322463146384699
:1067840002F03CFD029B08F1030803EB980302931B
:10679400D5F81834002B4AD1D5F8104458E02A68AB
:1067A4009A4204D86A60384607B0BDE8F08304EA28
:1067B40003008AE73C493446D7E7214003310823E4
:1067C4004A4605EB8101DAE7012B55D1BDF80C30BF
:1067D4003448C3F38311062928BF062161F38913C2
:1067E40002318900ADF80C3002F0C6FC07460028DF
:1067F40042D002F0F0FC3346082203A9384602F0E6
:10680400FDFCBDF80C20C2F38312B31C96424FEA80
:106814008303BDD202994A1C21400331029205EB45
:1068240081010422384602F0E9FC0136E9E73846E2
:1068340002F0D5FCFFF72AFF80F00100C7B2B2E7EF
:10684400637A23B1236839461B68204698476468F5
:10685400002CF5D1384602F0C2FC06A800F8114D10
:1068640000F0ECFED5F818340BB9029B6B609DF870
:10687400070000F007FFDDE7D5F8104444B90B4BDF
:106884000B491888000440F0020000F06BF8D1E7CF
:10689400236820469B6898476468EFE7002782E7EF
:1068A400D825002024070300E42500202C22002002
:1068B400D40703002DE9F74F284C80460F46924633
:1068C40001A9012218469B46D4F80890FFF7E8FD79
:1068D40088B3019D0026A91C5E4506EB010234D154
:1068E40000211F4801F0F7FE80F310006A1C02EA41
:1068F400090204EB8202000405EA0903033340EAB7
:106904001840D06014F8232068F3C50204F823204B
:1069140034F8232066F3891224F8232054F8232022
:10692400012167F39F2244F8232061F301026FF3EE
:10693400820204F8232094F820341BB1FFF7B0FE40
:106944000028FBD103B0BDE8F08F09EA020204EB92
:1069540082025AF82630D3600136BDE7D8250020DC
:10696400F429002000231A46FFF7A4BF13B502AC94
:10697400012344F8042D2246FFF79CFF02B010BD0A
:1069840007B5CDE9002302236A46FFF793FF03B05E
:106994005DF804FB1FB5CDE90123069B039301AA0F
:1069A4000323FFF787FF05B05DF804FB0F4A30B5FA
:1069B400D2F810440023214641B90372D2F810449E
:1069C4004CB9C2F810044160184630BD0D7A9D429E
:1069D40005D04968F0E7626842606060F4E701331B
:1069E4000A2BE8D14FF0FF33EEE700BFD825002093
:1069F400084A38B50123D2F8104482F820341D46E1
:106A040004B938BD2368657220465B68984764689A
:106A1400F6E700BFD8250020037A052B10B50C46F5
:106A24000FD0437A23B1084A0849204601F011FFE8
:106A34000749204601F00DFF2046BDE8104001F053
:106A4400FDBE002AF8D0F3E72F0803003408030042
:106A540054080300C38873B504460D4633B1144A81
:106A640000921449144A284601F0F3FE217A0529BC
:106A74001CD0637A4BB1A088FFF7F2FD0F4B10498D
:106A840053F82020284601F0E4FE227A0D4BA0881A
:106A940053F822600021FFF7C5FD0B490346324637
:106AA400284602B0BDE8704001F0D3BE02B070BD0C
:106AB4002F0803003F08030037080300FC07030006
:106AC4003408030064080300570803002DE9F04369
:106AD40085B01F460C9D002306460C46904695F84B
:106AE4000C902B7329463846FFF7B4FFB8F1060F14
:106AF40009D8DFE808F00412181F28334000314693
:106B0400284601F0A6FE002229463846FFF784FFF6
:106B140085F80C9005B0BDE8F0832268314628461C
:106B240001F097FEEFE7D4E900233146284601F04F
:106B340090FEE8E7A36800933146D4E90023284691
:106B440001F087FEDFE7E3680193A3680093314611
:106B5400D4E90023284601F07CFED4E7236902939C
:106B6400E3680193A36800933146D4E900232846DF
:106B740001F06FFEC7E76369039323690293E36837
:106B84000193A36800933146D4E90023284601F019
:106B940060FEB8E708292DE9F84F80460E461746EF
:106BA4001C4636D8002593F80C901D7319461046E0
:106BB400FFF750FFDFF87CA0DFF87CB0AE422AD9A3
:106BC40018F805205946204601F043FE0135082DEA
:106BD400F4D11649DFF864B0204601F03AFE0025EE
:106BE400AE421DD918F805A0504609F037FC00281C
:106BF40014BF52462E225946204601F02AFE013582
:106C0400082DEDD1012221463846FFF705FF84F80F
:106C14000C90BDE8F88F5146204601F01AFED5E7E6
:106C24000349204601F015FEE9E700BF2A080300E6
:106C34002808030026080300200803002C0803008A
:106C44002DE9F04F3B4F89B000263B4B1B78F5B242
:106C5400AB4202D809B0BDE8F08F384B196811F87F
:106C640035000124A0F12002C0F1200304FA02F946
:106C740024FA03F349EA0309D7E9002304FA00F8E4
:106C8400CDE9042302EA080203EA0903134301EBF2
:106C9400C50B4CD0DDE9042322EA080223EA0903E8
:106CA400C7E90023079102F0C7FF0799844611F84A
:106CB4003500A0F12002C0F1200324FA03F304FA02
:106CC40002F21A4304FA00F300931D4B0192DDE92A
:106CD4000045D3E9002314401D4022462B465FFAA9
:106CE4008CF40025CDE90445049CA0F12005AC40BA
:106CF4000394049CC0F1200124FA01F1039C0C4389
:106D04000499039481400291DDE90245AB4208BF36
:106D1400A2420CD19BF801104B1E59425941A1EBE0
:106D24000C02DBF804305142514103B1984701365B
:106D34008BE700BF302A0020FC290020382A0020DD
:106D4400282A00202DE9F84F0646244800F066FC66
:106D5400002841D10123A6F12001C6F1200203FA43
:106D640001FB23FA02F203FA06FA1D4BD3E90001F0
:106D74004BEA020B00EA0A0801EA0B0958EA090285
:106D84001F4623D1304602F057FF164BB8B1D3E962
:106D9400000140EA0A0441EA0B05C3E90045D7E9CA
:106DA40000234BEA0305104B0C4819684AEA020415
:106DB400C7E900450022BDE8F84F00F0EBBBD3E97A
:106DC400000120EA0A0421EA0B05E6E720EA0A04A6
:106DD40021EA0B05C3E90045BDE8F88F042A002029
:106DE400302A0020282A0020002A0020042A2DE925
:106DF400F34105460C4616463AD902F055FED8B181
:106E04001C4B1D491D601D4BDFF884801C701C4BFE
:106E140000221E600023C1E900231A49C1E90023AE
:106E2400013CE4B200260327FF2C0CD1164A174874
:106E3400002100F09DFB03E002F0FEFD0028DFD0FE
:106E440002B0BDE8F08123B205EBC30201A9927838
:106E54008DF8052015F833008DF8066042468DF84C
:106E6400047002F02BFE013CE4B20028DCD0E7E71A
:106E74000720E5E7382A0020282A0020FC290020E2
:106E8400002A0020302A0020456C0200C4080300B8
:106E9400496D020070B5084D084E00242B789C42C1
:106EA40001D3002070BD3368012113F8340002F0CF
:106EB4007DFE0134F2E700BFFC290020382A0020BF
:106EC4001FB50021039001AA44F20100CDE901118C
:106ED40000F004F805B05DF804FB000010B572B6CC
:106EE400FFF786FDFFF7DCFB0028FBD1104C1149AE
:106EF4002088000440F00100FFF734FD0E4B1B68AE
:106F0400DB0700D500BE20880C49000440F00200D5
:106F1400FFF728FDBFF34F8F09490A4BCA6802F4F3
:106F2400E0621343CB60BFF34F8F00BFFDE700BFA8
:106F34002C220020C8080300F0ED00E0D408030070
:106F440000ED00E00400FA0512F0030310B511D1BE
:106F5400094C22604C1CE400A4B22244074C226079
:106F6400074A1370074A1370074A1080074A1846E5
:106F7400118010BD0720FCE7442A0020402A00208D
:106F84003C2A00204C2A0020482A00204A2A0020BB
:106F94002DE9F3472B4D2B888B4206460C461746AA
:106FA4004BD302A84FF0000800F8018D00F046FB17
:106FB400254B264A18781178CBB2254909888B428B
:106FC40038BF0133C0B238BF5FFA83F840452ED0D2
:106FD40092F800801378DBB2994286BF0133DBB2AA
:106FE400002313709DF8070000F04CFB4FF6FF736D
:106FF400984524D0DFF860A0DAF800304FEAC809D9
:1070040003EB090243F83870A6B19CB1114B2888F0
:107014001B68224608FB0030314609F05AFADAF8B8
:1070240000304B4400209C8002B0BDE8F0874FF64E
:10703400FF78D7E700209080F6E70920F4E70420E2
:10704400F2E700BF482A00204C2A00203C2A0020F6
:107054004A2A0020402A0020442A0020F8B5124C75
:10706400124D264622782B789A4200D1F8BD237817
:107074000F48104A078812680F48DBB219B202EBB6
:10708400C10C006852F83120BCF8041003FB07005F
:1070940090470A4A23781288DBB29A4286BF0133AA
:1070A400DBB200233370DDE74C2A00203C2A0020A9
:1070B400482A0020442A0020402A00204A2A00208E
:1070C400094A537891780133DBB2994208BF00230F
:1070D400117899421FBF03705078182303FB0020D6
:1070E40014BF043000207047502A0020082910B52E
:1070F400044602D00020FFF7E3FED4E90030BDE8E7
:107104001040184773B5054602A8002400F8014D45
:107114000E4600F093FA0DF10600FFF7D1FF90B18F
:1071240006700A4B9DF8062045605A709DF80700CA
:1071340000F0A8FA24B9064B4FF48012C3F80021DA
:10714400204602B070BD0424F0E700BF502A00209E
:1071540000E100E0024B4FF43C6043F001031847A8
:10716400F008030038B50C4B0C4C4FF40032C3F854
:10717400802001254FF48033C4F84833C4F8083321
:107184006560FFF7E7FF064BA56000241C60FFF76E
:10719400E1FF044B1C7038BD00E100E00010014029
:1071A4006C2B00205D2B0020264B2DE9F3411B683E
:1071B40025490025C1F84051C1F84451C1F848514E
:1071C400C1F84C51C1F80051C1F80451002B34D01E
:1071D400D1F804451D49DFF888800968641A24F051
:1071E4007F442F461A68A24212D8A41A15441A7C66
:1071F400DE6962B15A691F7400929B690193424629
:1072040008216846FFF7C4FE08B1FFF759FEBEB96E
:107214000F4B104A197813788B4205D10133DBB236
:10722400022B08BF0023137012780B4B43F8225033
:107234000A4B4FF48012C3F8002102B0BDE8F0817C
:107244003346CFE7702B0020001001406C2B002048
:10725400682B0020692B0020602B002000E100E057
:10726400F17002002DE9F74F9E4A9F49137809787F
:107274009E4D99423CD00133DBB2022B08BF002360
:1072840013709B4912789B4B0F6853F822003B18EC
:1072940023F07F4300220B602B6816461446944665
:1072A40013B942B12B6006E0196881420ED902B1CC
:1072B4002B60091A19604FF001082B68DFF83CA213
:1072C40000930027BEB9DFF83CB260E0401A0C44DA
:1072D400D968C3F800C0D3F81CE031B13A1922F0E0
:1072E4007F42C3E90121DE611E4601227346D7E7CE
:1072F4000026B046E1E73446F6697D4A63681268C1
:10730400DFF804C2A068991A21F07F41614500F2B8
:10731400A58001442160012222742A680023C4E963
:107324000133E361002A40F0A2802C60CAE75A1CB2
:107334009BF80210D2B291428BF8002004BF0022C5
:107344008BF80020182202FB03B32A6819799C6881
:10735400022974D003297ED0012918D1217CB1B926
:10736400DA6862601A69A2605A699B69A361624B18
:10737400E2601B78002BC0D06160BEE79C4200F045
:1073840093809946DB69002BF8D1002323749BF882
:1073940000309BF801209A42C9D12B682FB9009A7A
:1073A400934202D1B8F1000F43D0002B79D0D3F827
:1073B40000A0524D4E4BD5F804751C68DFF84C8183
:1073C4003E1B98F8003026F07F4603369BB94FF4F5
:1073D4008033C5F84433C5F80433494B4FF40032C5
:1073E4004FF00109C3F880211A60C5F80090FFF737
:1073F400B1FE88F80090B2452CBF5444A41924F07F
:107404007F44C5F84045D5F80435DB1B23F07F43A2
:10741400E41B033324F07F44A3420AD9D5F804358E
:10742400C5F84035FFF796FE354B4FF40032C3F8EC
:107434000021314B00221A7003B0BDE8F08F1346CF
:107444009146A0E71174D2690123002AFAD1002BD6
:107454009DD02A609BE700231946F6E7D31A23F050
:107464007F43834234BFC31A0023236053E7216858
:107474001368994213D8591A1160E26155E7091A41
:10748400D8691A4638B1034618688842F7D3401AB7
:107494001860184613462160E061DC6112E7134668
:1074A400F2E7FFF75FFEC4E74C450DD1D3692B60CB
:1074B40053B90F4801920121CAF8081003600E4B1A
:1074C4001970FFF747FE019AE1692368C9F81C1097
:1074D40011B1086803440B602B689A4218BF012756
:1074E40053E700BF682B0020692B0020702B00207D
:1074F4006C2B0020602B00205C2B0020001001402E
:1075040000E100E0502A0020FEFF7F005D2B0020F8
:1075140008B5FFF727FE104B00200B2218809A7045
:107524000E4B18600E4B18700E4B18700E4B4FF428
:107534008012E021C3F8802183F814131A6002F149
:107544008042A2F56F22C2F8080583F81113074B95
:10755400D2F804251A6008BD502A0020702B0020A0
:10756400682B0020692B002000E100E06C2B002038
:10757400074B9B784BB132B128B10368187C20B912
:1075840059745A617047072070470820704700BF3C
:10759400502A00202DE9F7431D4FBB7805460E46BF
:1075A40090469BB390B304292ED9436973B3437CAB
:1075B40002A80024012B00F8014D0CBF8946A14606
:1075C40000F03CF80DF10600FFF77AFDD0B101237D
:1075D4000370104B4560D3F80435C0E90498C0E942
:1075E40002369DF806307B709DF8070000F04AF8DB
:1075F40024B9094B4FF48012C3F80021204603B08C
:10760400BDE8F0830424EFE70724F7E70824F5E74F
:10761400502A00200010014000E100E0064A927860
:107624003AB130B1426922B1002202740221FFF75B
:1076340069BD0820704700BF502A002070B5EFF3E1
:10764400108672B60C4A946801239CB993600B4B64
:107654000B4DD3F8801029401160C3F88050D3F843
:10766400841051604FF0FF32C3F88420047006B9CF
:1076740062B670BD0370FAE7742B002000E100E0ED
:10768400FC06FFBD084B9A6810B55AB150B9EFF328
:10769400108272B605491C680C605C684C60986086
:1076A40002B962B610BD00BF742B002000E100E0F7
:1076B40070B5064E0546002456F824300BB1284612
:1076C40098470134042CF7D170BD00BF8C2B0020E7
:1076D400033080B240F2FD33984230B51FD8124BCC
:1076E4001A783AB91C895D892C440444A4B2B4F5CF
:1076F400806F0AD31A7DA2B99A8BDC8B2244024490
:1077040092B2B2F5806F0CD201220A801446142280
:1077140002FB04335A8910445881002030BD0920EB
:10772400FCE70720FAE700BFC02B00200B4A0C4BF4
:107734005188142000FB0131CB6833B90420496817
:1077440010700122074801F0F1BA052306491370AD
:1077540002238B80012200230968F3E7A42B002075
:10776400C02B00205C220020782C002007B50023C9
:1077740005490093054A09680548082301F052FAAF
:1077840003B05DF804FB00BF782C0020040903005B
:107794005C22002007B50023009301460823034A16
:1077A400034801F03FFA03B05DF804FBFC08030052
:1077B4005C22002013B500230C46009301460423E9
:1077C400074A084801F02EFA38B9074B142202FB85
:1077D40004340123237402B010BD0E20FBE700BF64
:1077E400F80803005C220020C02B002037B50A48AB
:1077F4000A4B42689C881968538803250333057033
:107804009BB2002000909B0001EB8401044801F02E
:1078140009FA03B030BD00BFA42B0020782C00204F
:107824005C22002010B50146044800F088FE1C22AA
:107834000446002108F076FE204610BD7C2200207C
:107844004388033300EB8303994209D382884FF6BC
:10785400FF739A4206D00088B0FA80F0400970475E
:1078640002207047012070472DE9F8430223DFF816
:1078740060800B800D46174600F5805600F1080421
:107884004FF00109B4420FD2236801330CD03146C2
:107894002046FFF7D5FF48B10FB187F800900228C2
:1078A4000BD14FF480632B80BDE8F883A368D8F82C
:1078B4000020934201D9C8F800302B886288033332
:1078C40013442B806388033304EB8304DAE700BF9B
:1078D400B82B0020144A142303FB002070B50B6856
:1078E40044680D4604F580569BB15C88033403EB71
:1078F4008404B4420BD22368013308D031462046B5
:10790400FFF79EFF012809D005D30228F1D10020FA
:1079140003E00834EDE72C60012070BD6388033375
:1079240004EB8304E5E700BFC02B0020436873B574
:1079340005460C466BB3254AD1688B4229D312699C
:10794400934226D813F0030223D1214900890989DF
:1079540088421ED12868996888421AD11D4948680E
:10796400834203D900F5805083420ED38A6993423F
:107974000DD902F58052934209D2012323800020BD
:10798400B0FA80F0400902B070BD1346F6E70A2051
:10799400F6E7002323801E462388012B01D900200B
:1079A400F1E7019601A92088FFF794FF18B923880D
:1079B40001332380F0E7019B2A6899689142F1D151
:1079C4006B60034B1B892B81DDE700BF5C22002029
:1079D400A42B0020C02B00202DE9F8431C461E4B8D
:1079E4001B7806460F461546002B30D0002A30D0AF
:1079F4007CB3DFF86C804FF01409A388012B01D904
:107A04000A201AE009FB03F318F80330BBB1A3887A
:107A14000133A380F1E723681EB19988328891422B
:107A24000DD11FB119883A88914208D19A68C5E9E5
:107A340000230A4B1B892B810020BDE8F8832146D3
:107A4400A088FFF747FF0028E5D12060DFE7022088
:107A5400F3E70520F1E700BF9C2B0020A42B0020B6
:107A6400C02B002008B5074B191D5888FFF732FFBB
:107A740018B1BDE80840FFF7B9BEBDE80840FFF7FC
:107A840055BE00BFA42B00202DE9F04FA04FDFF816
:107A9400A49289B00646B8463B6823B949469D4836
:107AA40000F087FD3860D8F8005029784B1E052B6C
:107AB40000F21281DFE813F006007600760006017A
:107AC40006015D0126B1944B00225A60012424E092
:107AD4002B79032B1DD8DFE803F01502424D8F49A3
:107AE4000B78022B084631D00B7D022B4FF001039B
:107AF4002ED114225343C2180020C8545068FFF7F3
:107B040049FE03E001232B71FFF730FE002800F04B
:107B1400D380814B00225A600E241422002103A832
:107B240008F000FD41F61D539C4208BF0024D8F81C
:107B3400003004941A78023A042A00F2D381DFE870
:107B440012F0B401C001E301EB01F2010023D0E71C
:107B5400714A13700023536041F61D54DDE77049E8
:107B64007048002302222B718A800122096801F0E7
:107B7400DDF8CBE76A4C00262E712068674DFFF7CD
:107B840009FE694BD4F800C05A8814235343EA18F9
:107B9400EE5451682160A188C2F804C01181022208
:107BA400A280B3E7B5F814A0AA7DDFF870B1AEB136
:107BB400022AEB8806D9142101FB0AB1DA1C0889D0
:107BC40002440A81142202FB0ABAC3F57F43BAF8BD
:107BD4000A20FD331344AAF80A3077E7142303FB81
:107BE4000AB318895C6804EB8004062A05D8DFE828
:107BF40002F0264C34421C5866000F24AA7DEB8800
:107C0400022A06D9142101FB0AB1DA1C08890244AC
:107C14000A81142202FB0ABAC3F57F43BAF80A2088
:107C2400FD331344AAF80A3077E74048404900235B
:107C34004360AB690360FFF779FE00285AD0022342
:107C4400AB75002300930423EA182146354800F05D
:107C5400E9FF002830D00E24D0E72B69002B0CBF9D
:107C640001230323AB750023009305F10C020423C5
:107C740004F10801EAE70123AB750022EB880092C6
:107C84009B002A6904F10C01E0E7032914BF0623D1
:107C94000523AB7500230093042305F10802E118C2
:107CA400D4E70623AB75224B1988204B5868FFF79D
:107CB40081FD04460028A1D109B0BDE8F08F41F64A
:107CC4001D549BE7002E7FF401AF2B79012B33D099
:107CD40004D3022B3FF440AF0F241EE702232B7181
:107CE4000DF10A01EB68039303A8CDE90466FFF7DD
:107CF4001DFE08B90A2410E70498BDF80A10838809
:107D0400EB8003882B81FFF755FD044627E000BF75
:107D1400BC2B00207C2200209C2B0020C02B0020A8
:107D2400782C00205C220020A42B0020802B002033
:107D3400842C0020B42B0020DFF808A203AA5346A9
:107D44003146A81DFFF748FE044660B9BAF804108E
:107D54000498FFF72FFD04460A2C3FF4FDAE002CD7
:107D64007FF4DBAEA8E708223146504608F0DAFB80
:107D7400F2E7002E7FF4AAAE6D4B1A7BB2B11E73EC
:107D84001A78013A062AA7D801A151F822F000BFB7
:107D94003B7E0200617E02007F7E0200857E02003F
:107DA400DD7C02008B7E0200A17E02001A78072A85
:107DB400E6D801A151F822F0DD7D0200857D0200A4
:107DC400857D0200037E0200177E0200377E0200DA
:107DD400377E0200FF7D02001A89564901321A815A
:107DE40000225A801A730A78B2FA82F252099A72FD
:107DF4000A7DB2FA82F25209DA72012207E04E4990
:107E040058688A884088033202448A8002221A70A1
:107E1400B6E7484C5A884849142505FB02420868CD
:107E2400546850608888108102228A800C6006227F
:107E3400EDE70722EBE79A7A32B9DA7A8AB90022B7
:107E44001A705A805A6087E63A4900229A72CA68C0
:107E5400002AF2D1097C0029EFD05A80FFF702FEF4
:107E640053E70022DA72334A116A0029E7D192F803
:107E74002420002AE3D00122EFE7FFF7B7FC44E710
:107E8400FFF754FC41E706221A702A4A5B88142142
:107E940001FB03235868FFF77DFC36E707221A70BD
:107EA40000225A60FFF762FC2FE701228DF80C20B4
:107EB4001A89ADF818209A88DB68ADF81A20059362
:107EC40010E002228DF80C201A89ADF818209A8847
:107ED400ADF81A20DA689B7D05929A1F53425341EC
:107EE4008DF81C3003A8FFF7E3FB0026494613482E
:107EF400C8F8006000F088FB0121114800F037FC4D
:107F040000287FF4C9ADD7E603228DF80C20DA8867
:107F1400ADF818201A89CFE70422DB888DF80C20ED
:107F2400ADF81830DEE705238DF80C30DAE700BF32
:107F3400A42B0020C02B0020782C00207C220020C1
:107F4400742C0020882C00204068FFF79DBD0000A1
:107F540008B50121044800F0F4FB18B9BDE8084055
:107F6400FFF792BD08BD00BF742C00202DE9F3413A
:107F74009846354B1B7806460D46002B5BD00029EE
:107F84005BD009884FF6FF73994258D06B88002B59
:107F940055D06B689B0754D14AB92F890DF1020162
:107FA4003846FFF795FB30B102B0BDE8F081138885
:107FB4005788ADF8023001A8FFF734FC044658B9DD
:107FC400BDF80230214A142101FB032358890338E8
:107FD400C01B58810820E7E700238375BDF80230F1
:107FE40083826B68036180F800800121184800F0E7
:107FF400B3FB2B882381B8F1030F6B88A38004BFE4
:108004000423A3754FF0000508BF3368E06008BF80
:10801400A361E780658101A90E4800F0BAFA36B180
:10802400E36833600C4B75601B89B5723381FFF7CD
:108034008FFF0020B8E70220B6E70520B4E704204C
:10804400B2E70320B0E700BF9C2B0020C02B002028
:10805400B82B00207C220020A42B002008B5084B5C
:108064001A68042A09D01968064A42F82100012135
:10807400184600F071FB002008BD0C20FCE700BF8F
:10808400802C00208C2B00202DE9F04F89B0142285
:10809400002103A808F046FA7B4A137803F0FF0195
:1080A400009190463BB103A8FFF702FB002630463F
:1080B40009B0BDE8F08F101D00F064FB05460028F0
:1080C400F4D14FF010234FF080525B69116952696B
:1080D400DFF8DCA1581C08BF02FB01F3CAF810301A
:1080E4000022A3F540536949CAF80C30504600F009
:1080F4006BFD06460028DAD11C238C2264496548AE
:1081040000F0E8F93746B3464FF003093446CDF89A
:1081140004A0019BD9680BEB010002465BF8011037
:10812400002835D05C4B994232D141685B4B99426F
:1081340015D0013399422BD1009BDFF86CA1002BA1
:1081440059D100225649CAF80000FFF78DFBBAF84E
:108154000420022A14BF0822042217433AE051499A
:108164004FF0140C0CFB04FC01EB0C024FF0000E5E
:1081740001F80CE050600CF110020CF1080C0A44F8
:108184006144FFF771FB47F002070134A4B221E018
:1081940000F5805C1168013167D104329445F9D14E
:1081A400414A116829B9022101231060918000938A
:1081B4000EE0142262433B4B4FF0020E991803F871
:1081C40002E03A4A486054800134A1F808E0A4B2BD
:1081D40047F001070BF5805BBBF5405F99D1B9F11E
:1081E400010F88BF3D46EDB2022D02D0062D12D0FC
:1081F400DDB90B265BE72B4B1422624399184FF031
:10820400020C03F802C00134DAF800204A60A1F835
:1082140008C0A4B295E7012388F8003003A800231E
:10822400C8F80430FFF744FA41E702A8FFF7FAFA66
:10823400C8B10123013D03700A2D09D8DFE805F018
:1082440006080608070807080F110F00002303712A
:1082540002A9104800F09DF9FFF77AFE27E70323EF
:10826400F5E70223F3E7082621E70E4914226243C7
:1082740001EB020C09F1FF39CCF8040003201FFACA
:1082840089F9885481E700BF9C2B0020080B030068
:10829400E82B00207C220020DEC0ADDEFE011EF1B2
:1082A4007C2C0020C02B0020782C0020A42B002044
:1082B4005C22002073B50D460446C8B1C1B10DF16E
:1082C4000601FFF733FBA8B10B4BBDF80600666847
:1082D400142202FB003001210C3000F03DFA6368E7
:1082E4002E600C336B600123A372002002B070BDBA
:1082F4000520FBE70A20F9E7C02B002013B504464C
:10830400A8B10DF10601FFF711FB90B10B4ABDF8BE
:108314000630142101FB0323DA6862B1A27A52B158
:10832400DA680020013ADA60A07202B010BD0520BC
:10833400FBE70A20F9E70620F7E700BFC02B00207F
:108344000B4B1B7837B504460D4663B168B10DF18C
:1083540006012846FFF7BCF918B9BDF8063023809A
:10836400658003B030BD0220FBE70520F9E700BFBC
:108374009C2B0020104B1B7810B5B3B1B8B1028808
:10838400022A16D80D494388142404FB02129C1CAB
:1083940051898C420DDAC3F57F43FD330B4453817D
:1083A400002303804380184610BD0220FCE705200B
:1083B400FAE70420F8E700BF9C2B0020C02B002024
:1083C40002230022FFF7D2BD12B10223FFF7CEBD74
:1083D4000520704718B103230022FFF7C7BD05200D
:1083E40070470000104B1B7813B50446ABB14FF631
:1083F400FF73984213D001A8FFF714FA88B105233C
:10840400037001230371C48001A9084800F0C1F876
:10841400FFF79EFD002002B010BD0220FBE7042000
:10842400F9E70820F7E700BF9C2B00207C220020FE
:108434000E4B1B7807B5A3B101A8FFF7F3F990B170
:108444000623037001A90A4800F0A3F8094B1A781F
:108454000AB101221A73FFF77BFD002003B05DF817
:1084640004FB0220FAE70820F8E700BF9C2B002059
:108474007C220020A42B002007B5ADF8060002A83A
:1084840020F8041D01460DF10600FFF7A5FA03B01C
:108494005DF804FB13B502AC134624F8020D0A463A
:1084A40000202146FFF798FA02B010BD13B502ACC4
:1084B400134624F8020D0A4620460021FFF78CFAE1
:1084C40002B010BD20B119B103680B6000207047E1
:1084D4000520704710B561B1B2FBF3F403FB14241B
:1084E400A4B244B9C0E9001484608281C3812046E7
:1084F40010BD0E20FCE70920FAE782B050E8022FF5
:10850400C188B2EB324F4FF0000317BF92B241EA79
:10851400014142EA014104E04268B2EB324F08BF34
:10852400012340E80212002AE8D18DF807309DF8B3
:108534000730002B0CBF1120002002B0704737B564
:1085440050E8013F9DB2C48925448489A54228BFCF
:108554002D1B0489A54202BFBFF32F8F002207E021
:10856400C5EA030540E80154002CE9D14FF00102AB
:108574008DF803200193019B9DF803200B6002F00A
:10858400FF0322B10B880068184403B030BD1846BD
:10859400FBE70A884B889A4209D150E8012FC2EAC6
:1085A400024240E80123002BF7D10120704700204C
:1085B400704737B550E8023F1FFAA3F5C488A542B7
:1085C40002BFBFF32F8F00220DE0C48925448489A4
:1085D400A54228BF2D1BC3EA054540E80254002CE0
:1085E400E8D14FF001028DF803200193019B9DF81F
:1085F40003200B6002F0FF0322B14B88006818448B
:1086040003B030BD1846FBE70A884B889A4209D16B
:1086140050E8022FC2EA224240E80223002BF7D19D
:10862400012070470020704701F01F024B0901210F
:10863400914000EB830000F063B84B0910B501F0E2
:108644001F040121A14000EB830000F04EF8E0403C
:1086540000F0010010BD01F01F0301229A404B09F4
:1086640000EB8300D14300F061B84B0901F01F0116
:1086740050F82300C84000F0010070472DE9F0478E
:108684004E1E760980460F460136002558F82540CF
:1086940008EB850AE44394FAA4F4B4FA84F44FEAA8
:1086A4004519202C06D10135AE42EFD83C46204670
:1086B400BDE8F0874C44A742F5D921464046FFF770
:1086C400BCFF0028F3D0DAF80040E44394FAA4F4A1
:1086D400B4FA84F4E5E750E8002F0B4640E8003C88
:1086E4009CF0000FF7D11046704750E8002F42EA83
:1086F400010340E8003C9CF0000FF6D1104670479F
:1087040050E8003F43EA010240E8002C9CF0000FCF
:10871400F6D11046704750E8002F02EA010340E802
:10872400003C9CF0000FF6D11046704750E8003F23
:1087340003EA010240E8002C9CF0000FF6D1104639
:10874400704750E8002F02EB010340E8003C9CF026
:10875400000FF6D11046704750E8003F03EB0102CA
:1087640040E8002C9CF0000FF6D11046704750E80A
:10877400003FA3EB010240E8002C9CF0000FF6D16F
:10878400104670470121FFF7B0BF0121FFF7B8BFC2
:108794000021FFF7C0BF10B590B1D0E901230168F3
:1087A4009B1ADBB20A60013BDBB2FF2B026802D1E9
:1087B4000020107110BD11684C1C14600B70F2E79E
:1087C4000E20F7E737B5054602A8002400F8014D4E
:1087D400FEF734FF2A686B68116899420ED9481E67
:1087E400106011F8014CEB68A98A01FB0434AB68F2
:1087F40011791B1ADBB2994238BF13719DF8070037
:10880400FEF740FF204603B030BD37B5054602A849
:10881400002300F8013D0C46FEF710FF2A68136898
:10882400591C1160E968641AA98AB4FBF1F41C703C
:108834009DF80700FEF726FF03B030BD826810B52F
:1088440004462AB143690168006998470023A3607C
:1088540010BD0EB403B5039929B102AA04AB42F8C2
:10886400043D00F06BF802B05DF804EB03B0704710
:10887400826830B40468551C8560A154D0E9013283
:108884009A4202D330BCFFF7D9BF30BC7047000016
:108894002DE9F84F9946DDE90A4317468246884692
:1088A4000A460126BA420FD24E4538BF4E4613F04F
:1088B400010B01D164B900240125B9F1010F1AD9C2
:1088C40009F1FF397D43F8E7B2FBF7F20136E9E736
:1088D4009B070ED5B9F1000F0CBF30252025A64209
:1088E400EAD2013C29465046FFF7C2FF002CF6D1DC
:1088F400E1E72025F3E7B8FBF5F39F42E2D9DFF87F
:108904003890B8FBF5F3504619F8031005FB1388AB
:10891400FFF7AEFFB5FBF7F5002DF2D1BBF1000F69
:1089240002D00CB1A64201D3BDE8F88F20215046F5
:10893400013CFFF79DFFF4E71B0903002DE9F74F06
:10894400054690460E46002900F03A8116F8011BB0
:10895400002958D0252940F0D180002702E047F0B3
:1089640001071646324612F8013B2D2BF7D0302B67
:1089740004D02B2B05D147F00407F2E747F0020798
:10898400EFE700242A2B06F101021BD1D8F80030AE
:10899400191D1B68C8F800101C44164633782E2B8A
:1089A4001CD101364FF0000A314611F8012BA2F117
:1089B4003000092814D80A2303FB0A23A3F1300A40
:1089C4000E46F1E712F8013CA3F130010929E5D87C
:1089D4000A2101FB0434303C1646D3E74FF0000A69
:1089E400324612F8011B01F0FB0068281646F8D045
:1089F400692916D054D8582970D00ED825297DD08D
:108A04003378002BA2D12B7B002B00F0D980284691
:108A140003B0BDE8F04FFFF711BF632968D06429A4
:108A2400EED1D8F80020D2F80090111D89EAE9723D
:108A3400C8F80010A2EBE9724FF0010B092A61DCBF
:108A4400D34538BFD3462CB1B9F1000F01DB790708
:108A540000D5013CBA0702D5BAF1000F04D0FB07D8
:108A640002D4002C54D10024B9F1000F58DAC9F112
:108A740000092D212846FFF7FBFE07F00302022A16
:108A840005D1BAF1000F02D1002C4DD10024CDE95B
:108A9400004753460A2249462846FFF7F9FEAFE746
:108AA400732954D016D87029AAD1D8F800301A1DC9
:108AB400C8F80020302128461C68FFF7D9FE782129
:108AC4002846FFF7D5FE00220823CDE900322146CF
:108AD4001022E1E775292FD0782991D1D8F8001018
:108AE4000A1DC8F80020CDE90047534610222CE0A7
:108AF400D8F800301A1D1978C8F800202846FFF766
:108B0400B7FE7DE70A230BF1010B92FBF3F295E725
:108B1400A345A9D220212846013CFFF7A9FEA0E7DE
:108B24007807AAD52B21A5E7A345B0D23021284642
:108B3400013CFFF79DFEA7E7D8F80010CDE90047F8
:108B44000A1DC8F8002053460A220968A4E7D8F889
:108B540000301A1DC8F80020F907D3F8009012D588
:108B64004F46A7EB090B17F8011B41B9A345BFF406
:108B740047AF20212846013CFFF77AFEF6E7284656
:108B8400FFF776FEEDE7B9F1000F17D0484607F07E
:108B94001EFD0746BC4200D954B909F1FF3919F842
:108BA400011F00293FF42CAF2846FFF761FEF6E7CA
:108BB40020212846013CFFF75BFEEBE74F46E9E73F
:108BC40003B0BDE8F08F000007B50B4678B9104B31
:108BD400104A18880E2300930F4B00040F4940F0ED
:108BE4000100FDF7D7FE0E2003B05DF804FB3BB98E
:108BF400074B0B4A18880E2300930004064BEDE73D
:108C040003601B68114603B05DF804EB184700BF0E
:108C140048220020D80903002B090300DD090300C2
:108C2400540A03002DE9F34178B9354B354A1888C5
:108C3400354B0E2400040094344940F00100FDF744
:108C4400A9FE204602B0BDE8F0813AB92C4B304A67
:108C540018882D4B0E2400040094EDE7D0F800C0D2
:108C6400BCF1000F07D1264B2A4A1888264B08244A
:108C740000040094E0E73BB9214B274A1888224BB3
:108C8400092400040094D7E74768D7F80480B3FBAD
:108C9400F8F708FB17373FB1194B204A18881A4BCD
:108CA400092400040094C7E78F0707D0144B1C4A1B
:108CB4001888154B102400040094BDE712F0030F2C
:108CC40007D00F4B174A18880F4B10240004009448
:108CD400B2E7C768B9420BD34C1E05691C44AC42C9
:108CE40006D8DCF80C40A44602B0BDE8F041604769
:108CF400034B0D4A1888044B1024000400949BE78E
:108D040048220020D80903003D090300DD090300BF
:108D14005A0A03004E0A03000D0A0300600A030006
:108D24008A0A0300A20A0300C50A0300F7B570B952
:108D3400254B264A1888264B0E2400040094254906
:108D440040F00100FDF726FE204603B0F0BDD0F848
:108D540000C0BCF1000F07D11B4B1F4A18881C4BE5
:108D6400082400040094EAE73AB9174B1B4A188810
:108D7400174B092400040094E1E74768D7F800E0A2
:108D84000EF1FF370F4207D00F4B154A1888104BCE
:108D9400102400040094D2E7C768B9420CD34C1ED7
:108DA40005690EFB0244AC4206D8DCF81040A44628
:108DB40003B0BDE8F0406047034B0A4A1888044BEF
:108DC400102400040094BAE748220020D8090300C4
:108DD40050090300DD0903004E0A03000D0A0300D5
:108DE40063090300890903002DE9F04108B1036810
:108DF400C3B90E4E0E4B14229B1B0024B3FBF2F39B
:108E0400374602FB03F5A54201D1002008E03B5997
:108E140030190BB91434F6E7DB6998470028F9D008
:108E2400BDE8F081DB69BDE8F04118475C22002011
:108E34007022002029DF704728DF704770B503686F
:108E44009D6886B004460E466DB114220021684622
:108E540007F068FBA3680593237901962BB1012BD6
:108E64000DD06846A84706B070BD01238DF80030C8
:108E740023690293E368039363690493F1E702238C
:108E84008DF80030E3681B030293F5E7084670474A
:108E940000207047024B187A003018BF0120704739
:108EA4001C2D0020034B187A0122B0FA80F05A746A
:108EB400400970471C2D002008B510461A4607F0DB
:108EC40008FB002008BD000008B514220021044856
:108ED40007F028FB0348FFF710FB002008BD00BF84
:108EE4001C2D00209022002010B5094C094B436032
:108EF4002046FFF747FC40B907F082F81C23207492
:108F04008C2205490548FFF7E5FA002010BD00BF93
:108F14001C2D0020FC0A0300902C0020902200202D
:108F240070B5244D244E2B7A2C463BB92349244852
:108F3400FFF73FFB306008B9686070BD02232372FD
:108F440033681A7972B1012A24D018460321FFF735
:108F540075FF00232372636018491948BDE8704007
:108F6400FFF752BBD3E90520121AB2F5805F28BF80
:108F74004FF48052D3E903159208012A014438BF03
:108F840001222844FFF756FF50B11128DDD10123F7
:108F94002372D2E7D3E903021044FFF74DFFF3E74E
:108FA400237C002BC9D10146BDE87040022000F0AB
:108FB40009B800BF1C2D0020342D0020302D0020C6
:108FC4009022002038B5831E012B45D8234C237AE8
:108FD400002B41D0022B09D1032830D0204B1B6831
:108FE4000022E2601A793AB1012A22D0637C7BBB69
:108FF400BDE83840FFF794BFD3E905128D1AB5F5E3
:10900400805F94BF521902F580529A619142EDD16A
:1090140002284FF0000308BF19462372104B18BFF3
:109024000D211868FFF70AFF0E490F48FFF7ECFA05
:10903400DCE71A6901321A615B699A42E7E7E3687F
:109044000133082B01D8E360D0E70023E360DFE7B6
:10905400BDE8384006F0C4BF38BD00BF1C2D002059
:10906400342D0020302D00209022002000F0FD033C
:10907400012B08D1044B00225A74421E5042504125
:109084001874FFF74DBF70471C2D002010B5064C17
:10909400201DFFF777FB28B9637C1BB9BDE810409E
:1090A400FFF73EBF10BD00BF1C2D00202DE9F3418A
:1090B40080460D460F4801A916461F46FFF73FFAA2
:1090C4000446A8B11C22002107F02CFA2D0B012321
:1090D400237101A9C4F80080A760E56066610548B2
:1090E400FFF757FAFFF7D2FF002002B0BDE8F08186
:1090F4000420FAE7902200202DE9F74381468846B0
:10910400104801A917461E46FFF719FA0446B0B1E4
:109114001C22002107F006FA00250A9BA36001A97E
:109124002571C4F80090C4E9037866610548FFF727
:1091340030FAFFF7ABFF284603B0BDE8F083042004
:10914400FAE700BF90220020FFF725BBF8B5467967
:109154000146721E0546002393422D6803D3002462
:10916400A64202D8F8BD0133F6E70F682846FFF798
:109174004CFB01343946F3E72DE9F843868ACD1CCC
:109184000746FFF71FFB043E35440446B5FBF6F5DE
:10919400F0B14FF48073EDB28380C680013D076067
:1091A40081464FF00008A84512D23846FFF70AFB63
:1091B400064648B163790133637108F10108C9F8BF
:1091C400000007608146EEE72046FFF7BFFF344604
:1091D4002046BDE8F88301210430FFF7BDBA10B57D
:1091E400012104460430FFF7C2FA10F0FF0F04D146
:1091F4002046BDE81040FFF7A9BF10BD2DE9F84394
:10920400C7880546181D8846B0FBF7F4164607FBC9
:1092140014003CB9A7EB0009B14528BFB14626B9F3
:10922400BDE8F8832D68013CF3E70430A6EB09069A
:109234004A4608EB0401284407F04BF9B7424C4472
:109244002D68B9464FF0000028BFB146E7E72DE985
:10925400F843C7888846191D0546B1FBF7F416463E
:1092640007FB14113CB9A7EB0109B14528BFB1466E
:1092740026B9BDE8F8832D68013CF3E7043129449D
:10928400A6EB09064A4608EB040007F022F9B742A8
:109294004C442D68B9464FF0000128BFB146E7E7BA
:1092A40041DF7047064B10B500241C70054B1C6051
:1092B400BFF35F8F0449054800F030F8204610BD25
:1092C400402D0020442D0020380B0300382D0020B1
:1092D40007B502A8002300F8013DFEF7AFF9F1EE4F
:1092E400103A23F09F03E1EE103ABFF35F8F0A4B6D
:1092F4004022C3F884219DF80700FEF7C3F906F065
:109304007FFE20B1FFF7CCFF03B05DF804FB20BF64
:1093140040BF20BFF8E700BF00E100E00B684A68E7
:109324004360934208BF0023016008BF4360704755
:10933400436843B10268916852680B4493424360A6
:1093440004BF0023436070470D4930B5A1F5947202
:109354000225914201D800200EE08B1ADB1093FB0A
:10936400F5F302EBC30452F83330834205D802D23A
:1093740004F10802EDE7606830BD2146E9E700BF6B
:10938400880C030008B5FFF7DFFF024B002808BF75
:10939400184608BD4D0B03000B7B23B14B680360DB
:1093A4000023037170470B6803600123F9E7036826
:1093B4004A68896810B5D41A8C428BBF5B180023A5
:1093C4000360026098BF037110BD03680A6889686E
:1093D40010B59C1A8C428BBF5B1A01230360026098
:1093E40098BF037110BD037910B504461BB1FFF794
:1093F400DEFF206810BDFFF7E8FFFAE70C4B1B788F
:10940400062B10D10B4B1B681A070CD10A4B18689A
:1094140000F0F003302B08D000F0E000A0F140038E
:10942400584258417047002070470120704700BFE0
:10943400E00F00F0E40F00F0E80F00F0094B1B7898
:10944400062B0CD1084B1B681A0708D1074B186868
:1094540000F0F000A0F1300358425841704700205A
:10946400704700BFE00F00F0E40F00F0E80F00F0D9
:1094740008B5FFF7C3FF28B17D4B7E4A1B68C3F3D1
:1094840004231360FFF7DAFF10B17B4B7B4A1A60A9
:10949400FFF7B4FF28B17A4B7A4A1B68C3F342330F
:1094A4001360FFF7CBFF20B1774AD36823F08073B2
:1094B400D360FFF7A3FF40B14FF080430022C3F80D
:1094C4000C21C3F81021C3F83825FFF7B7FF10B1FA
:1094D4006E4B03221A60FFF7B1FF40B16C4B0522BB
:1094E4001A6001229A6700229A603F225A60694BEF
:1094F4001B78062B50D1684B1B6819074CD1674B5E
:109504001B6803F0F003502B46D14FF08052644B9C
:10951400D2F80414C3F82015D2F80814C3F824159B
:10952400D2F80C14C3F82815D2F81014C3F82C156B
:10953400D2F81414C3F83015D2F81814C3F834153B
:10954400D2F81C14C3F84015D2F82014C3F84415FB
:10955400D2F82414C3F84815D2F82814C3F84C15CB
:10956400D2F82C14C3F85015D2F83014C3F854159B
:10957400D2F83414C3F86015D2F83814C3F864155B
:10958400D2F83C14C3F86815D2F84014C3F86C152B
:10959400D2F84424C3F87025FFF730FF28B1414BBB
:1095A400414A1B6803F04F031360FFF727FF48B1DC
:1095B4004FF08043D3F80024D20744BF6FF0010278
:1095C400C3F80024394B1B68062B08D1384B1B68A1
:1095D400062B01BF374A136843F480631360364A8D
:1095E400D2F8883043F47003C2F88830BFF34F8F49
:1095F400BFF36F8F4FF01023D3F80022002A03DB50
:10960400D3F80432002B2FDA2C4B0122C3F80425A3
:10961400D3F80024002AFBD04FF010221521C2F801
:109624000012D3F80024002AFBD04FF01023152297
:10963400C3F80422214B1A46D3F800140029FBD0A6
:109644000021C3F80415D2F80034002BFBD0BFF37B
:109654004F8F19491A4BCA6802F4E0621343CB6076
:10966400BFF34F8F00BFFDE7164B174A1A6008BDC2
:10967400240300104035014074C007400DF0ADBA1A
:10968400440200103C050040F0ED00E0A00500405D
:1096940010560040E00F00F0E40F00F0E80F00F077
:1096A40000C0004058020010E40E004030010010D9
:1096B400340100103C17004000ED00E000E00140E0
:1096C4000400FA05A42200200090D003054A4FF0BC
:1096D400A043105CD3F8043523FA00F0C04300F033
:1096E4000100704746100300044B1A5C01239340A9
:1096F4004FF0A042C2F80C35704700BF461003007B
:10970400044B1A5C012393404FF0A042C2F8083581
:10971400704700BF4610030008B50020FFF7F0FFB4
:109724000120FFF7EDFF0220FFF7EAFF0320BDE869
:109734000840FFF7E5BF08B50020FFF7D5FF01207B
:10974400FFF7D2FF0220FFF7CFFF0320BDE8084058
:10975400FFF7CABF074A4FF0A041105CD1F80435A7
:109764000122824022EA03001340C1F80805C1F82F
:109774000C35704746100300054A4FF0A043105CB7
:10978400D3F8103523FA00F0C04300F0010070470D
:10979400421003000D2809D00E2809D00F2809D043
:1097A40010280CBF03204FF0FF3070470020704793
:1097B4000120704702207047014B185C704700BFBE
:1097C40042100300C20708B501460CD54FF0A04370
:1097D4000322C3F84427C3F84827C3F84C27C3F827
:1097E4005027FFF799FF8B070AD54FF0A0430C22AF
:1097F400C3F83427C3F83827C3F83C27C3F84027F5
:1098040008BD000038B5084C04F1080305460028DB
:1098140018BF1C4623682BB11A6822605B6828466F
:109824009847F7E738BD00BF502D002020B9054BFD
:1098340001225A70FFF7E6BF012802D1014A907055
:10984400F8E77047482D002020B9034B01225A70D5
:10985400FFF7D8BF704700BF482D002038B50B4C28
:10986400237883B90A486360A3602361E36000F04E
:109874005FF8054606F0C4FB08B900F067F8012359
:109884002370284638BD8525FBE700BF482D0020FE
:109894003198020037B502A80023094C00F8013DB5
:1098A400FDF7CCFEE368013BE360E56815B900F021
:1098B40061F8A5709DF80700FDF7E4FE03B030BD24
:1098C400482D0020012813B509D003D303281BD049
:1098D40002B010BD0F4B0122C3F88020F8E702A8A4
:1098E40000230D4C00F8013DFDF7A8FE23780BB9C9
:1098F400FFF7B4FFE3689DF807000133E360012339
:10990400A370FDF7BFFEE3E700F020F8FFF7C2FF06
:10991400DEE700BF00E100E0482D002000F18040B8
:10992400002382B0036003680193019B02B0704777
:10993400054A13792BB9012110601171537118462E
:1099440070478520704700BF5C2D0020084B1A68C3
:10995400D20706D4E02283F800230122C3F8802131
:109964001A604FF080430122C3F81825704700BFE6
:1099740000E100E0044B01221A604FF08042D2F86B
:109984001834DB03FBD470470C000040124B1B68F7
:1099940010B573B14FF48070FFF7C0FF4FF08043F0
:1099A4000122C3F808230D4B587910B95A711B686A
:1099B40098470B4B1B6873B14FF48270FFF7AEFFEF
:1099C4004FF080430222C3F80823044B01201B6894
:1099D400BDE81040184710BD000100405C2D002078
:1099E4000401004000F1804000F5C040002382B033
:1099F400036003680193019B02B07047800000F18B
:109A0400A040D0F8003723F44033C0F80037D0F832
:109A1400003743EA0141C0F800177047054B4FF087
:109A2400FF32072843F8202084BF1B1883F84820FE
:109A3400704700BF642D002010B5174C94F85830BF
:109A440043BBFF21E2180133202B82F83010F9D1F7
:109A54000021C8B2FFF7E2FF01310C29F9D1042239
:109A640000210E4806F05EFD0D4BE02283F806232C
:109A74004022C3F880214FF4BE701A60FFF7B2FF92
:109A8400084B4FF00042C3F80423012384F85830F4
:109A9400002010BD0820FCE7642D0020B82D002014
:109AA40000E100E000600040034B93F858000030F0
:109AB40018BF0120704700BF642D0020F0B5394D58
:109AC4002C18944694F93040002C68DA8E78C6F34A
:109AD4004006002E15BF0023082308270C27BB428D
:109AE40001D10420F0BD55F8232001324FEA83044C
:109AF40041D12F1845F823C087F8303016B9EA1839
:109B040082F848008A78560716D4D70735D58200DC
:109B140002F1A042D2F8006726F00206C2F80067FC
:109B2400214FC60800F0070C012202FA0CF217F8C4
:109B340006C042EA0C02BA558A780E7812F0020284
:109B440024D004F1804303F5C0430002D3F8102568
:109B540022F4473222F44072C3F810253604D3F8B5
:109B6400102500F4F85006F4403630431043C3F88F
:109B740010050020B6E70133B1E74E7800F5E07236
:109B84004FF0A047B60047F82260C9E7083B2B44D2
:109B940093F8500040EA861683F85060E9E70820FD
:109BA400A0E700BF642D0020B82D002038B5204C5C
:109BB400251895F93020072A18DD224492F84830F8
:109BC4009B09032B0DD14FF0A043D3F81035C340AC
:109BD40013F0010F0CBF02210321BDE83840FFF749
:109BE4000DBF012B14BF03210221F6E7D3B2072BCB
:109BF4001CD8930003F1804303F5C043D3F8100548
:109C040040F00100C3F8100502F14000800080B26A
:109C1400FFF7E8FE51B195F9303054F823302BB1F9
:109C2400012303FA02F2034BC3F8042338BD00BF37
:109C3400642D0020006000404FF0A043D3F810359D
:109C440023FA00F000F00100704700002DE9FF47FF
:109C54000024584A584E594D019401211368A2F525
:109C6400C040012B80B206D1D6F804330B4202D097
:109C7400FFF7B8FE0C430432AA424FEA4101EDD18A
:109C84004F4B1B68012B0AD14FF4BE70FFF7AAFE9D
:109C94004FF0A04344F00044D3F81035019314F07E
:109CA400FF0F1AD0474F00250126344210D0AB00D5
:109CB40003F1804303F5C043D3F81005D3F810151E
:109CC40057F82530C0F30420C1F3014103B198478C
:109CD4000135082D4FEA4606E7D1002C66DA00224A
:109CE4004FF0FF33CDE90223DFF8D8900127002697
:109CF40034464FF0A04809EB060393F95020531C57
:109D040045D0D2B222F0C005E90804A8084402F004
:109D1400070310F804CC07FA03F31CEA030F36D048
:109D240009EB050C92099CF930C059F82CA0BAF142
:109D3400000F0AD1032A2AD10DF1080E1EF801C022
:109D44004CEA030C0EF801C001E0032AF4D005F537
:109D5400E07110F80C0C58F821101842C1F30141BD
:109D640005D0022913D1032A0BD1114604E003299B
:109D74000DD1032A05D102212846FFF73FFE013405
:109D8400E4B2BAF1000F02D011462846D04701369A
:109D9400042EB0D154B14FF0A043019AD3F810353A
:109DA400934203D00193029B0393A0E704B0BDE860
:109DB400F08700BF00610040006000402061004067
:109DC4007C610040642D0020014B1B68184700BFD4
:109DD400C02D00200220FFF7BDBC00002DE9F04794
:109DE40081460D46FFF7D6FC0328044604D8012D0E
:109DF40004D024D3022D2FD0BDE8F087194D47009D
:109E04003A18A918AE5C4A7852B1DFF8688016484F
:109E140042464FF40041FDF7BDFB08B988F80090B5
:109E24003B192B449A78114B1A55002EE4D0104B51
:109E34001B68002BE0D03046BDE8F04718470A48BD
:109E4400FDF7ECFB074B04EB440213449E78074BED
:109E54001B5DB342D0D1E8E7024B00EB40041C4445
:109E64006678E2E72C2E0020EC2D0020452E002001
:109E7400402E0020C82D002002210078FFF7AEBF3D
:109E840008B5094B1B7853B10020FFF739FC0120BA
:109E9400FFF736FC0320BDE80840FFF731BCBDE8FE
:109EA4000840FFF739BC00BFC92D0020F8B5794C34
:109EB400237805461BB100232370FFF7E1FF172D1C
:109EC40000F28480DFE805F00C13133F5061727CCC
:109ED40084898489919696969696C0C5CDD5E0E0FE
:109EE400FFF7CEFF6C4B00241C702046F8BD002009
:109EF400FFF7ECFBF8B10020FFF702FC022D0CBFCA
:109F04004FF4E1614FF47A61634B1D704FF40040EC
:109F14004FF4FA740025E0FB01454FF47A720023F4
:109F24002046294606F0DAF9002201465B48BDE8DE
:109F3400F840FDF72FBBFFF7D7FB022D0CBFC8215C
:109F44004FF4C871E0E70020FFF7C0FB40B10020E8
:109F5400FFF7D6FB4FF448714F4B03221A70D5E735
:109F6400FFF7C2FBC821F7E70020FFF7AFFB38B1CA
:109F74000020FFF7C5FB4FF47A61474B0422EDE75D
:109F8400FFF7B2FB4FF4C871F7E70020FFF79EFB21
:109F940048B10020FFF7B4FB3F4B05221A7041F68D
:109FA4009A110022C2E7FFF79FFBF5E70020FFF7B5
:109FB400D1FB394B06221A70002240F6CD41B5E799
:109FC4000020FFF791FB344B07221A7000248CE722
:109FD40001202070FFF7BEFBEEE701202070FFF7A1
:109FE400B9FB00224FF48041A0E7FFF7A4FB2A4B02
:109FF4000C22EAE72A482B4EFDF710FBD5F1110598
:10A0040004461CD0D8B9012D13D0C8235D434FF4A6
:10A0140000474FF4FA7000214FF47A720023C7FB13
:10A02400050106F05BF9224601461D48FDF7B2FA28
:10A0340004460220FFF758FB0123337055E7022042
:10A04400FFF75EFB0023F8E7FFF71AFF124B12221B
:10A05400BBE7FFF715FF0020FFF746FB0E4B13226B
:10A06400B3E7FFF70DFF0120FFF73EFB0A4B142275
:10A07400ABE7FFF705FF0020FFF736FB0120FFF7F2
:10A0840033FB054B1522A0E7FFF755FB024B1D7070
:10A094009CE700BF3C2E0020442E00200C2E002004
:10A0A400CC2D0020C92D0020044B1B68DB0703D5F1
:10A0B400034B1878FFF7FABE704700BF382E002014
:10A0C400442E0020032801D8FFF756BB0020704718
:10A0D400044B1B6813F0010301D0FFF7E7BE1846D9
:10A0E400704700BF382E002038B51C4B18601C4B3D
:10A0F40010F00204054619601AD01A4B1A480E22B1
:10A104001A700F22DA7010229A7111225A720421E5
:10A1140040F26662FCF76AFE044648B9FCF7BAFEF0
:10A12400044628B90146114A1148FDF721FA0446AC
:10A13400EB0711D50120FFF745FB6CB921460D4A09
:10A144000D48FDF715FA044630B90C4A0C480121B4
:10A15400BDE83840FDF70CBA204638BD382E002043
:10A16400402E00202C2E00206C1003007D9E020047
:10A1740090100300ADA0020094100300D99D0200CA
:10A184008C100300032812D8012A0BD1012908D10D
:10A1940000F10E02D2B200EB40000C4B1A54002026
:10A1A400704700220129F6D009D3022901D00720E3
:10A1B4007047064B00EB400018444270EFE7034B36
:10A1C40000EB400018448270E9E700BF2C2E002009
:10A1D400032808B512D8FFF7EFFA800000F1A04079
:10A1E400D0F8003723F44033C0F80037D0F80037F4
:10A1F40043F44033C0F80037002008BD0620FCE7D4
:10A2040008B5012202210020FFF7BCFF08B107288E
:10A2140010D1072202210120FFF7B4FF08B107285B
:10A2240008D100210A220846FFF7ACFF10B1072825
:10A2340008BF002008BD00000388102B10B502D011
:10A24400112B1ED010BD1A4C2168B1B90122084649
:10A25400FFF798FF08B1072824D107220221012023
:10A26400FFF790FF08B107281CD104220221002027
:10A27400FFF788FF08B1072814D12368013323604E
:10A28400E0E70B4A1368013B1360002BDAD1FFF7B8
:10A29400B7FF0028D6D0074B1B68002BD2D0BDE8EF
:10A2A40010401847034B1B68002BE6D09847E4E79F
:10A2B400502E00204C2E002008B50020FFF788FF08
:10A2C40008B1062806D10120FFF782FF10B1062845
:10A2D40008BF002008BD00000D4B10B518600C46E7
:10A2E40029B10120FFF7EEFE40B102232370094B90
:10A2F4001B6853B9BDE81040FFF782BFFFF7E2FEC9
:10A3040008B10B23F2E72070F1E7002010BD00BF75
:10A314004C2E0020502E002076DF704778DF7047E7
:10A324007ADF70477CDF70478FDF704733DF704719
:10A33400FCF7C6BD08B50C490C48FFF754F84FF6B6
:10A34400FE72C1B20A4804F044FC132807D8094B32
:10A35400C340DB0707D4BDE80840FCF7B1BD43F2B6
:10A3640001439842F7D108BD18300020283000205E
:10A374000430002001810A0008B50020FFF7A8FE80
:10A3840008B1FCF79DFDFFF797FF08B1FCF798FDB6
:10A39400FFF7CCFF18B1BDE80840FCF791BD08BD3C
:10A3A4002DE9F043DFF87480DFF8749085B0064639
:10A3B4000F4615461C46082200210DEB020006F04C
:10A3C400B1F802ABA01C2A1B3919184406F081F815
:10A3D4000120FFF777FE28B19DF8083043F002030F
:10A3E4008DF8083099F80010B8F8003079B9009366
:10A3F400082202AB304605F031FC18B90134A4B28E
:10A40400A542D8D20C9B1C8005B0BDE8F08302AAFB
:10A414000821304605F083FCEFE700BFB822002096
:10A424008430002000B5B3B008283FD8DFE800F03E
:10A434003C051419232D37415700334B33491888F1
:10A44400000440F00300FCF78DFA0520FFF740FEFE
:10A4540060B3FCF735FD29E02B4B2D491888000427
:10A46400EFE7294B2B491888000440F00300FCF760
:10A4740079FA0220EAE7244B27491888000440F0BF
:10A484000300FCF76FFA0420E0E71F4B2349188808
:10A49400000440F00300FCF765FA0320D6E71A4BEA
:10A4A4001F4918880004F4E7FFF766FF33B05DF82E
:10A4B40004FB32AB0822029243F8BC2D02A912AA73
:10A4C40004A803F03DFA08B1FCF7FAFC039B0093DF
:10A4D400029A144812AB04A901F0BAF9B8E7124B76
:10A4E40018884FF6FF739842E0D012A903F08CFA53
:10A4F4000528DBD008B1FCF7E3FC0DF1590109484C
:10A5040001F097F9A4E700BF2C22002003110300F7
:10A514000D1103002311030035110300471103003B
:10A52400681103004C2F002086300020F0B51B4D2D
:10A5340095F83E3085B02C466BB3B8B195F83C30F5
:10A544000C265E43AF190DF10E017A780091AB5DD4
:10A55400D7E90110FFF724FF132807D1BDF80E3007
:10A564007A789A4202D3AB5505B0F0BD94F83C30EA
:10A574000C2202FB034200215160013394F83E2077
:10A58400DBB2013A052B84F83C3084F83E20EBD151
:10A5940084F83C10E8E70520E6E700BF042F00201C
:10A5A40037B50488212C054640D005D8102C0ED090
:10A5B400112C25D003B030BD562C03D0572C3DD0E0
:10A5C4003B2CF7D11321A888FFF7A6FE13E01D4BFF
:10A5D4001D491888000440F00300FCF7C3F9072064
:10A5E400FFF776FD08B1FCF76BFC184BA9881848F7
:10A5F400198002F0ADFB0028DCD0FCF761FCD9E740
:10A60400104B14491888000440F00300FCF7AAF921
:10A614000020FFF78BFF0D4B4FF6FF721A800E4B95
:10A62400002220461A70FFF753FDE4E702A9002335
:10A6340021F8043D8088FFF777FEDCE70120FFF76F
:10A6440075FFB7E72C22002098100300B8220020E1
:10A6540088300020A210030050300020F8B51022EA
:10A664004FF6FF711A4C1B481A4F05F05BFF082385
:10A674004FF6FF70236003F085F90023236009255A
:10A684004FF6FF76B042216801D0013D17D1114841
:10A6940003F04CF908B1FCF713FC21680D4803F0F2
:10A6A40067F9062802D008B1FCF70AFC03210A481E
:10A6B40000F05FFF50B1BDE8F840FCF701BC4B1C53
:10A6C40027F81100236003F05DF9DBE7F8BD00BF54
:10A6D40094300020983000204C2F002030B53D4DA0
:10A6E4003D49044628882278000485B040F00300E0
:10A6F400FCF73CF923780D2B0FD8DFE803F0070EA5
:10A70400100E230E2B6836660E683368288833498A
:10A71400000440F00300FCF725F905B030BD2D8896
:10A72400608801F0ABFA2D04227A63882C490092E8
:10A7340045F0030502462846FCF72CF9294BA2886C
:10A744001A80EAE704A9002301F8043D608803F0B5
:10A75400E9F8E2E7FDF76CFE30F00803DDD0FCF722
:10A76400AFFBDAE7FFF77AFFD7E7237CDB07D4D523
:10A77400237A072BD1D128881B491C4C000440F0B4
:10A784000300FCF7EFF8288822681949000408231D
:10A79400013240F00300FCF7F3F82368072BBCD820
:10A7A400104A1448128820F81320591C216003F021
:10A7B400DFF8062802D008B1FCF782FB21680D48B7
:10A7C40003F0B4F80028A8D0C9E72069FAE7A06824
:10A7D400F8E700BF2C220020BA110300C6110300C1
:10A7E400EF110300863000202F1203009430002064
:10A7F4006312030098300020F0B51D4D85B087B278
:10A804000DF10E030093044600233A4628460E46F3
:10A81400FFF7C6FD13281FD1BDF80EC0674519D335
:10A82400144B93F83E10062914D093F83D200C20C5
:10A8340050430132D2B21F18052AC7E9016501F15C
:10A84400010108BF002203F800C07C7083F83E10A9
:10A8540083F83D2005B0F0BD30F00802FAD011288D
:10A86400F8D043F201429042F4D0FCF729FBF1E71F
:10A87400BC220020042F0020043810B50A283AD83E
:10A88400DFE800F00A393916393906393939200038
:10A89400BDE81040FFF770BD174B13211888FFF770
:10A8A4003BFD30F0080326D0BDE81040FCF708BBA0
:10A8B400114B1A884FF6FF739A421CD10F4800F0CF
:10A8C400DAFFEEE70C4B1A884FF6FF739A4212D068
:10A8D4000B4C01202168FFF78FFF2368094A0133DD
:10A8E400236013780133DBB2062B137001BF064BD0
:10A8F40023600023137010BDB82200204C2F0020C9
:10A9040054240020B03000204C2400201FB50B78C4
:10A91400052B33D0062B36D0042B32D18B79022B66
:10A924002FD1CB796BBB0DF10F020192224A234840
:10A93400128800921946012205F031FA08B1FCF799
:10A94400BFFA1F4C9DF80F30227803F00203EAB9D6
:10A95400BBB11C4B1C491888000440F00300FCF7F1
:10A9640001F81020FFF7B4FB08B1FCF7A9FA174966
:10A974000620FFF741FF0123237002E0144B01225C
:10A984001A7004B010BD124B0022F9E7002BF8D165
:10A994000C4B10491888000440F00300FBF7E2FF59
:10A9A4001120FFF795FB08B1FCF78AFA0A49062043
:10A9B400FFF722FF0023DFE7B8220020BC2200209B
:10A9C400503000202C22002089110300B2220020E4
:10A9D40084300020A1110300AC220020FCF770BADF
:10A9E400FCF76EBAFCF76CBA80B54FF40041AEB018
:10A9F4000020FBF7EFFD08B1FCF762FAFBF71AFD44
:10AA0400FCF786FD08B1FCF75BFAB74AB7480121A9
:10AA1400FCF7AEFD08B1FCF753FAB5490320FFF784
:10AA240063FB08B1FCF74CFA03A90020FFF754FCC0
:10AA340008B1FCF745FA9DF80C50FEF733FC08B159
:10AA4400FCF73EFA05F058FA08B1FCF739FA00238E
:10AA540003A90120039305F02BFB08B1FCF730FA9E
:10AA640003A805F0D1FB08B1FCF72AFAA14A0A2190
:10AA74000820FCF769FA08B1FCF722FA2EAC11237E
:10AA840004F8B43D9C4805F0A2FD9B4982B22046DF
:10AA9400FFF748FC08B1FCF713FA40F2C130FFF7A6
:10AAA4003DFC08B1FCF70CFA0822002103A805F0CC
:10AAB40039FD924B039303A803F598130493FFF70E
:10AAC4002FFC08B1FCF7FCF900218D4802F032F8A4
:10AAD40008B1FCF7F5F9AC22002103A805F022FD2A
:10AAE400022306228DF80C308DF80F200123854AAD
:10AAF4008DF80E304FF44860ADF81C3008928DF894
:10AB0400853000228DF886308DF888308DF88930B4
:10AB140044F250632821CDE927038DF887207A4B2E
:10AB24002C93CDE9232240F6B832CDE92512774B98
:10AB340077482D9303A900F0AAFC08B1FCF7C0F9EB
:10AB44000121734800F0A0FC724B7348039303A9DE
:10AB540002F0ECF808B1FCF7B3F902238DF80430E5
:10AB640041F61513ADF806304EF6EE63ADF8083035
:10AB740040220123002103A8ADF80A3005F0D2FCDD
:10AB840003A8664901F045F9212303A81194ADF8FF
:10AB9400483004F0E5F808B1FCF792F914220021DA
:10ABA40003A805F0BFFC0023039305935C4B0693B5
:10ABB4000122212303A95B488DF810208DF81C3055
:10ABC40003F02DFF08B1FCF77BF9574F574E0822CD
:10ABD4000021384605F0A6FC08220021304605F085
:10ABE400A1FC08233B804FF4807321247B8042F234
:10ABF40021134FF00108BB8048224FF40073002159
:10AC0400BC7103A87380A6F800807471B47105F058
:10AC140089FC474B03934C22464B0493ADF83020F8
:10AC24000023454A8DF815308DF824300A930B9291
:10AC34008DF84230414A8DF85130119303A9404BAD
:10AC440040488DF814808DF8168006978DF81C8086
:10AC54000896ADF838400F92ADF840408DF84F405B
:10AC64008DF850408DF852408DF85340129304F003
:10AC7400FBFC08B1FCF724F933493448512264231E
:10AC8400C1E9002301238B600B73FEF785FB1C22B3
:10AC9400002103A805F046FC00244FF42033CDE93D
:10ACA40003434FF47023059303238DF8183003A84E
:10ACB400274BADF81A408DF81C400894099300F016
:10ACC400FBFE08B1FCF7FCF8224B9C8783F83E405E
:10ACD4005C601C61DC619C625C6302F0CFFDD8B3F4
:10ACE400FCF7EEF838E000BF39A30200B01003000F
:10ACF4007DA80200542E0020B410030006001800A2
:10AD040054300020A822002029A40200E5A9020052
:10AD14004C2F0020E9A9020088300020C410030051
:10AD24006421210004300020442F0020A83000209A
:10AD340011A9020035A302005824002001010003D8
:10AD440021210021BC2200201830002028300020BE
:10AD5400E1A90200042F00200522002103A805F028
:10AD6400E1FB9DF80C3043F00103032203F0F103EF
:10AD740062F306136FF3C7138DF80C3007238DF8B5
:10AD84000D3010238DF80E309DF80F3013438DF8DD
:10AD94000F309DF8103003A813438DF8103002F0E3
:10ADA400B7FD08B1FCF78CF8184802F099FD08B11A
:10ADB400FCF786F8164C17492088000440F003007D
:10ADC400FBF7D0FD00224FF480311348FCF7E2FB7F
:10ADD40008B1FCF775F8022D14D120880F4900043E
:10ADE40040F00300FBF7BEFD02F024FE08B1FCF7BF
:10ADF40067F8FCF733F9FBF753FC0028F9D1FEF7A9
:10AE040067FAF6E7FFF72AFCF3E700BFE1A60200C2
:10AE14002C220020D810030030300020F61003004C
:10AE24000369C1688B429DBF8268D21802F1FF3268
:10AE340003F1FF3394BF501A581A70472DE9F041BB
:10AE4400D0E902670446F61B4068964288461546D8
:10AE5400384405D905F03DFB3D44E560BDE8F0818B
:10AE64003246AD1B05F035FB2A4608EB0601606847
:10AE740005F02FFBF1E72DE9F843C568064689463E
:10AE840017464FF000083469B3687068A54228BFBC
:10AE9400E418013C621B5C1BBC4228BF3C46944244
:10AEA40028BF144649462844224605F012FBB368DD
:10AEB4002544AB4208BF00253F1BA044A144F560D4
:10AEC400E1D14046BDE8F88310B5114C114AA261A6
:10AED4000223C4E90433104BE361A2644FF400730A
:10AEE4000E4A2362E264002310220D49A362E01D8E
:10AEF4006362E362A3656365E365226505F045FB70
:10AF04000849204605F041FB2023A37110BD00BF72
:10AF1400B4300020901203003C3100202C3100207A
:10AF2400991203009D120300F8B5184C182300FB76
:10AF3400033503FB00402544C46A012C0F46164622
:10AF440011D003D3022C1BD000240AE02846FFF7BB
:10AF540067FF864205D8324639462846FFF76EFF1A
:10AF640034462046F8BD2846FFF75AFF8642344649
:10AF740028BF0446224639462846FFF75FFFF0E71C
:10AF84002846BDE8F840FFF776BF00BFB430002084
:10AF9400FFF79ABF6DDF704779DF70477DDF704739
:10AFA40064DF70472DE9F74F0C9CBDF834B0278857
:10AFB400002580468A4691462E46B8F80020B242C3
:10AFC4000BDC35B12288013AD21B92B2FF2A39D860
:10AFD400DA55002003B0BDE8F08FD8F8042052F809
:10AFE4002600019000220DF1030101A8FFF7D8FF0C
:10AFF4000028EFD19DF803204A4521D12288002D55
:10B0040014BF0020022002EB09010144594519DC58
:10B014003DB9013292B2228003F802A022880132A3
:10B02400228022880DF103011A4401A8FFF7B8FF1A
:10B034000028CFD121889DF803200A4422800125CD
:10B044000136BAE70C20C5E72DE9F341089CBDF8A9
:10B0540024501746CDE9004502220646FFF7A2FF19
:10B0640048B9102239463046CDE9084502B0BDE85A
:10B07400F041FFF797BF02B0BDE8F0812DE9F04F32
:10B0840000231688138090F82D3085B007460D46AE
:10B09400144653B3082E01D80C2004E102A8FFF78C
:10B0A40079FF002840F0FF8013880822CA542388BF
:10B0B40001339BB21B222380CA542088013080B202
:10B0C400208006220DF10901284405F002FA2388A4
:10B0D4009DF8082006339BB212F0FE0218BF01222D
:10B0E4002380EA54238801332380BB78FBB123886F
:10B0F4000433B342D0D802A8FFF74EFF002840F033
:10B10400D28023880322EA54238801339BB2192274
:10B114002380EA542388BDF8082001339BB2E91840
:10B124002380EA54120A4A70238802332380FA786F
:10B134009AB12388D91CB142AED80221E95423889C
:10B1440001339BB201212380E95423880B449BB231
:10B154002380EA5423880B4423807A68AAB1238885
:10B16400D91CB14298D8022192F90020E9542388CD
:10B1740001339BB20A212380E954238801339BB213
:10B184002380EA542388013323803B89002B7ED11A
:10B194003B8A53B1CDE900462B460722032107F130
:10B1A4001000FFF751FF00287DD13B8B53B1CDE94F
:10B1B40000462B461522142107F11800FFF744FF1F
:10B1C400002870D13A6A002A70D1D7F82480B8F1E7
:10B1D400000F30D0B8F804302188981C8A1C02442F
:10B1E400B2423FF659AFFE283FF656AF03336B54D5
:10B1F400238801339BB2FF222380EA54238801333E
:10B204009BB22380B8F80020EA54E918120A4A7065
:10B214002088023080B22080B8F804205AB1D8F8CF
:10B22400081000294CD0284405F053F92388B8F8B5
:10B2340004201344238097F82C30002B7BD13878DA
:10B2440088B33B88012B3BD021888A1CB2423FF64D
:10B2540023AF012805D17B7802330B449E42FFF4CF
:10B264001BAF023E761A04A9B6B221F8086DA818DD
:10B27400FFF794FEB8B93B78022B40F09F80BDF8ED
:10B284000830B34240F2B680ADF808609FE0CDE9E3
:10B2940000462B460622022107F10800FFF7D4FEE0
:10B2A40000283FF475AF05B0BDE8F08FB4F800C0D6
:10B2B4000CF10603B3423FF6EFAE1188052901D81D
:10B2C4000720F0E76FF4486E01EB0E039BB24FF2D8
:10B2D4007D3E7345F4D95388052BF1D96FF448604A
:10B2E400181880B27045EBD94FF6FF70814203D035
:10B2F400834201D09942E3D8052305F80C30238812
:10B3040001339BB212212380E954238801339BB279
:10B3140023801188E954E818090A4170238802330C
:10B324009BB223805288EA54E918120A4A7023888F
:10B334000233238049E7BB6A002BC1D04FF00009D8
:10B344004FF00C0A4FF0160B97F82C305FFA89F285
:10B3540093427FF674AFB96A0AFB02F201EB02086A
:10B36400B8F80430981CFE283FF696AE20880333C4
:10B374002B54238801339BB2238005F803B0238820
:10B3840001339BB223808A5AEA54E918120A4A709C
:10B394002088023080B22080B8F804205AB1D8F84E
:10B3A400081000298CD0284405F093F82388B8F8B5
:10B3B40004201344238009F10109C5E7012B7FF41C
:10B3C40063AF7B789E42FFF45FAFADF8083008218D
:10B3D400BDF80830FE2B3FF65FAE22880133AB5434
:10B3E4002288013292B22280A954228813442380F5
:10B3F400002058E70921EBE770B5C0B14AB11688BF
:10B404000024B44203D305196D789D4208D0A142AB
:10B4140001D800200BE0055D01352C44A4B2F0E70F
:10B42400A142F6D9A31C1380005D013880B270BD1F
:10B4340037B502AC002324F8023D134622460546E4
:10B44400FFF7DAFF10B1BDF80600284403B030BDA1
:10B4540072DF704773DF704774DF704738B50122BD
:10B4640004460D46B0F89810D0F89400FFF7E0FFBA
:10B4740000B1057004F13C0204F1940104F154009C
:10B48400BDE83840FFF7E4BF80F830107047F8B5E6
:10B4940004460F46002968D0002866D091F87A3017
:10B4A4001BB191F89830002B61D1D7F8A030042B50
:10B4B4005DD0D7F89C30042B59D007F178060FCE15
:10B4C4004FF0000C251D84F802C00FC50FCE0FC528
:10B4D40096E8070085E8070084F830C0D7F8A43060
:10B4E4006363D7F8A830A3634FF6FF7504F19403A0
:10B4F400C4F8A430A4F8A8500722614604F1AA00B5
:10B5040005F010F823780BB984F85450224604F15E
:10B5140055011F25C4F89410384622F8985FFFF7A8
:10B52400ADFD08BB224604F17401C4F89C1007F178
:10B534003C0022F8A05FFFF7A1FDA8B9A269A4F816
:10B54400482001236269206484F850006264014643
:10B5540084F8513084F83C3004F13C0204F1540086
:10B56400FFF776FF00B92370F8BD0E20FCE7072033
:10B57400FAE7F8B5077804460D46002F00F00E816F
:10B58400A1700020FDF730FC014618B1012363705F
:10B594000020F8BD04F1AA060722304604F0C2FFD9
:10B5A400E38813B1A378012B04D0E3794BB1A378DA
:10B5B400022B06D1636BA3B1012284F8B1200820C9
:10B5C4009847334604F1B00113F8012F12B9994298
:10B5D400FAD117466B1E032B53D8DFE803F0050B93
:10B5E4000F1284F8B130ECE7A3791BB194F824303E
:10B5F40003B95FB9E3790BB1002F44D1237A002B4F
:10B6040043D1637A002B0CBF00250425636BA5701E
:10B61400002B3CD0033D012D39D86279002A36D065
:10B6240094F8B220002A32D184F8B420012284F89C
:10B63400B3200720984704F13C051822002128462E
:10B6440004F070FFE36A94F824200121581E884214
:10B6540088BF0B4684F83C1084F8513032B18842DC
:10B6640096BFA36A84F8521084F85230A17800235C
:10B6740084F8503004291BD8DFE801F07A0D25380E
:10B684005C000025C2E70225C0E70325BEE70023CE
:10B6940084F8B330CFE7C4F8A430C4E910630223BC
:10B6A400012284F83C30802384F83120A4F8483007
:10B6B400A378002B5FD1636B002B3FF469AF94F840
:10B6C4003100984764E7022384F8313062B10723DC
:10B6D40084F83C302369A4F848300023C4F8A4302B
:10B6E400E36826646364E3E70323F1E7636963645F
:10B6F400A369A4F8483012B1062384F83C30637976
:10B70400B3B194F8B2309BB994F8B43083B1022346
:10B7140084F8503004212046FFF7A0FE0028C7D14A
:10B72400052384F8313004F19403C4F8A430BFE74E
:10B734000323F6E7E3696364236AA4F8483012B18B
:10B74400062384F83C30637983B194F8B2306BB942
:10B7540094F8B43053B1022384F8503004212046C5
:10B76400FFF77CFE0028A3D10623DAE70423D8E7F9
:10B7740084F831309CE72A46D4F8A41004F154002C
:10B78400FFF766FE00287FF404AF94F8301094F8B5
:10B794005400FFF75FFE00288DD0FAE60820F8E693
:10B7A4000388112B10B50C460AD0262B1FD0102B62
:10B7B40005D1C37B012B02D18388A1F8A83010BD29
:10B7C4000022838881F8B220B1F8A8209A42F6D1E9
:10B7D4000B79002BF3D101212046FFF7CAFE002884
:10B7E400EDD0A36B002BEAD0BDE810401847037AD4
:10B7F400013B012BE3D889780523013191FBF3F355
:10B8040003EB8303C91AC9B2E6E70238012810B56D
:10B814000C460DD84B785BB100234B7020468978D9
:10B82400FFF7A7FE20B1A36B13B1BDE81040184782
:10B8340010BD90F8B13010B543B1002480F8B14088
:10B844000722AA3004F045FE204610BD0820FCE77C
:10B8540090F8B3306BB1002380F8B3303AB9009B51
:10B86400003318BF012380F8B4300020704701234F
:10B87400F9E70820704738B5044690F85400FFF7FC
:10B88400EBFD012384F8B230002384F8B43084F84B
:10B89400503006212046FFF7E1FD054638B9A1786E
:10B8A4002046FFF766FE10B1A36B03B19847284604
:10B8B40038BD75DF704776DF70477ADF70477BDF0E
:10B8C40070470000034B1A8882420CBF18460020C0
:10B8D400704700BF58330020024B9B6903B11847DF
:10B8E400704700BF3C33002037B585B22846FFF7C8
:10B8F400E9FF034670B1164C017A227B91420BD2C8
:10B9040000F10A012846FFF7D4FFE8B1112801D05D
:10B91400FFF7E2FF03B030BD237C0022027243B183
:10B924003B212846FFF7C7FF30F0080301D0FFF79B
:10B93400D3FF6369002BEDD000228DF80420ADF80D
:10B94400065001A89847E5E71A7A01321A72E1E72E
:10B954003C33002013B50B46497A0F4C024669B9B3
:10B96400D4E901101C7A002C18BF01465868FBF773
:10B9740011FE08B1FFF7B0FF02B010BD002119722B
:10B984006369002BF8D00121ADF806008DF804108E
:10B9940001A89847F0E700BF3C3300208388B3F543
:10B9A400FA7F28BF6FF4F97230B528BF9C18058858
:10B9B4004A8838BF002495420CD84088904209D365
:10B9C4008A88A24206D303F2F310904234BF0020C7
:10B9D400012030BD0020FCE70388112B70B501461F
:10B9E40048D002D8102B1ED070BD122B52D0502B31
:10B9F400FAD12F4BC288DB899A42F5D1038A022BF4
:10BA0400F2D186883046FFF75DFF05460028EBD06B
:10BA140001F1120000F0F3F930BB6868FBF7FEFD9A
:10BA24000028E1D009E0C37B012BDDD14FF6FF7084
:10BA3400FFF748FF054620B90420BDE87040FFF732
:10BA44004BBF1C4A8E880680002303721368C5F816
:10BA54000A300A30536843601031FFF79FFF144BDC
:10BA64006872DB89002BBFD129463046BDE870409F
:10BA7400FFF770BF8088FFF725FF04460028B3D086
:10BA84004068FBF7CBFD08B1FFF726FF4FF6FF73C5
:10BA94002380A9E786883046FFF714FF054600286F
:10BAA400A2D008310A30FFF779FF6872DCE700BFE3
:10BAB4003C3300206C330020F8B5064650B30546ED
:10BAC4000FCD154F3C460FC495E8070084E80700E6
