:10000000000001203D020000950200009702000060
:10001000990200009B0200009D0200000000000009
:100020000000000000000000000000009F0200002F
:10003000A102000000000000A3020000A5020000D1
:10004000A9020000AB020000F5060000AF020000AC
:10005000B1020000B3020000B5020000B7020000C8
:10006000B9020000BB020000BD020000BF02000098
:10007000C1020000C3020000C5020000C702000068
:10008000C9020000CB020000CD020000CF02000038
:10009000D1020000D3020000D5020000D702000008
:1000A000D9020000DB020000DD020000DF020000D8
:1000B000E1020000E3020000A7020000A702000026
:1000C000E5020000E7020000E9020000EB02000088
:0C00D000ED020000EF020000F102000051
:1000DC00364937480A1A02D0072291438D463549D2
:1000EC0035480A1A06D00722914381F30988022267
:1000FC0082F3148831483249324A00F045F83248CC
:10010C003249334A00F040F832483349334A00F060
:10011C003BF833483349344A00F036F83348344915
:10012C00344A00F031F834483449354A00F02CF8A0
:10013C0034483549354A00F027F83548354900220E
:10014C0000F02DF834483549002200F028F83448E6
:10015C003449091A082903DB0022026004300160CB
:10016C00314A90471F482049884205D00268043024
:10017C0003B4904703BCF7E700208646EC4600200A
:10018C0000212A4A9047FEE7884207D0521A05D030
:10019C00037801300B700131013AF9D17047884274
:1001AC0002D002700130FAE7704700000000012015
:1001BC0000E0002000000120000001203C1D000098
:1001CC000000002020000020F4020000F4020000D7
:1001DC00041C00003C1D000000000020000000205A
:1001EC00041C0000041C0000041C0000041C000083
:1001FC00041C0000041C0000041C0000041C000073
:10020C003B1D00005C1D0000200000202000002091
:10021C0020000020D4030020D4030020D4030020AD
:10022C00D4030020D42300206102000061100000E0
:10023C000F484FF00701884385460E4880470E480B
:10024C00016841F470010160BFF34F8FBFF36F8FF2
:10025C00FFF73EBF09480A490A4A884207D0521A9A
:10026C0005D0037801300B700131013AF9D1704798
:10027C00000001208518000088ED00E0041C00003F
:10028C000000002000000020FEE7FEE7FEE7FEE78E
:10029C00FEE7FEE7FEE7FEE7FEE7FEE7FEE7FEE72A
:1002AC00FEE7FEE7FEE7FEE7FEE7FEE7FEE7FEE71A
:1002BC00FEE7FEE7FEE7FEE7FEE7FEE7FEE7FEE70A
:1002CC00FEE7FEE7FEE7FEE7FEE7FEE7FEE7FEE7FA
:1002DC00FEE7FEE7FEE7FEE7FEE7FEE7FEE7FEE7EA
:0802EC00FEE7FEE7FEE700BF9C
:1002F4001FB50021039001AA44F20100CDE90111C8
:1003040000F004F805B05DF804FB000072B6094B78
:100314001B68DB0700D500BEBFF34F8F0649074BB0
:10032400CA6802F4E0621343CB60BFF34F8F00BF8F
:10033400FDE700BFF0ED00E000ED00E00400FA0589
:1003440049B152B1531E1A4007D1826001608380C3
:10035400C260104670470E2070470920704710B5E0
:100364008468C2688388121B934208D3C26813400E
:100374000268D154C3680133C360002010BD042057
:10038400FCE78268C3689A420AD082688388134073
:100394000268D35C0B70836801338360002070476C
:1003A400052070470648074A03780749D35C0122B1
:1003B40013B1043000F0DCBD0C3000F0BBBB00BF57
:1003C4000000002058000020480000200648074A8A
:1003D40003780749D35C012213B1043000F078BDDF
:1003E4000C3000F051BB00BF00000020580000207A
:1003F4004900002037B50578012D04D035D3022DEE
:1004040028D003B030BD43681F4C19782046FFF74D
:10041400A6FF78B11D4B01908DF800501B6868460B
:100424009847A168E368A2885B1A9A420ED3FFF743
:10043400B9FFE6E7A268E3689A42F2D002AB134A36
:1004440003F8080D126818469047EAE7104B01229A
:100454001A70D6E7C36801938DF80050FFF7A2FF26
:100464000A4B1B6868469847CBE70A490A48FFF7D6
:1004740088FF10B9FFF7AAFFC3E702A8032300F817
:10048400083D024B1B68EEE72400002020000020FA
:10049400340000204900002038000020F0B51F4639
:1004A400234B89B006461A600C4600293DD08A8841
:1004B40020480968FFF744FF002834D1A289A168C5
:1004C4001D48FFF73DFF00282DD11C4D0FCD6C4674
:1004D4000FC495E80F0084E80F0073690693337C1A
:1004E400174A18488DF81C70003318BF01238DF883
:1004F4001430737C002B14BF0E2300238DF81530A9
:10050400F3680293B368039333680193694673688D
:10051400009300F0AFF830B90B4B18703368013317
:1005240001D0FFF73FFF09B0F0BD0720FBE700BF94
:10053400200000202400002038000020041C0000BB
:10054400F9030000000000203400002070B5084CBE
:10055400014608482678FFF714FF054636B1002304
:100564002370FFF71FFF08B1FFF7C2FE284670BDD6
:10057400340000202400002010B501460E48FFF787
:10058400EEFE0446A8B90D480D4A0378D35C63B166
:10059400043000F0E1FC60B90A490748FFF7F1FEB6
:1005A40038B9BDE81040FFF711BF0C3000F0B6FABF
:1005B400F1E7204610BD00BF3800002000000020F5
:1005C400580000204900002072B6024A1368013323
:1005D400136070474C000020034A1368013B13600A
:1005E40003B962B6704700BF4C000020FFF7ECBFB0
:1005F400FFF7F2BF830708D54FF0A0430C22C3F8DE
:100604004027C3F84427C3F84C2770471FB5037825
:100614008DF8003043680193037A8DF80830C3687D
:100624000393054A054B684653F8213052F82110CC
:10063400984705B05DF804FB5000002054000020EA
:100644001FB503788DF800304368019383688DF8F3
:100654000830C3680393054A054B684653F82130B4
:1006640052F82110984705B05DF804FB50000020B3
:1006740054000020F0B5194B067891F81DE043F8BA
:100684002620174B94460A6943F82620154B03F895
:1006940006E00C4607460FCC89B06D460FC594E8BA
:1006A4000F0085E80F000496BEF1000F0AD0BCF1DC
:1006B400000F0D4A694608BF0022381D00F040FBB8
:1006C40009B0F0BDBCF1000F084A694608BF00221A
:1006D40007F10C0000F018F9F2E700BF5400002005
:1006E40050000020580000201106000045060000BC
:1006F400014B1B68184700BF5C00002038B50A4B4B
:1007040098420D460CD10020FFF770FF074B1C796F
:1007140014B901221D601A710020FFF769FF0CB99A
:10072400002038BD1120FCE7002000405C000020C0
:100734000023435082B043580193019B02B0704799
:100744000A4610B54FF48E71FFF7F2FF136A9168F1
:10075400C95C136A01331362C0F81C1510BD02464C
:1007640008B54FF492710068FFF7E2FF4FF484710B
:100774001068FFF7DDFF136801221A6008BD8B695A
:100784000A4610B54FF4847123B9FFF7D1FFD0F8AE
:10079400183510BDFFF7CCFF536AD168D0F818059F
:1007A400C854536A01335362F3E700001FB50123B1
:1007B4008DF80030044BCDE90110D3E900126846EE
:1007C400904705B05DF804FB6400002030B54C4A46
:1007D400D2F8043313F4007F85B015464FD0D2F815
:1007E4002431002B4BD04FF492711046FFF7A0FF39
:1007F4004FF40173C2F80833424B93F8291009B936
:10080400012151603E4902228DF80020D1F8802454
:10081400C1F8802403929A690292DA680192002254
:10082400C3E906226846D3E9001290473448D0F859
:100834001C315BB133490A6A4B699A420A464BD26E
:1008440091F82830002B47D1FFF77AFF2C4AD2F8D1
:10085400443193B14FF4A2711046FFF769FF294B5D
:1008640093F8291009B1012111609A692AB1002273
:100874009A61586AD968FFF799FF05B030BDD5F879
:1008840004335B07D2D5D5F80831002BCED01D4CEC
:100894001B482146FFF773FF636AA2699A42234605
:1008A400C4D1E269E1684AB12369E3600023606A64
:1008B400A261E3616362FFF779FFB7E794F8292047
:1008C4000AB901226A600E4A4FF40170C2F80803A3
:1008D40000229A61586AEEE74FF48E710848FFF7D8
:1008E40027FF51690029B1D00023029191688DF846
:1008F4000030019153616846D2E900139847A5E797
:1009040000200040640000202DE9F8435A4B04798C
:1009140091462C2202FB0432064692F82A200D4608
:100924009846002A40F0A38054490068FFF7E6FE89
:100934000746002840F09D8029683368481C0BD086
:100944004FF0A04001228A40C0F8082501F5E0726A
:100954004FF0030C40F822C06868421C1FBF00F52A
:10096400E0724FF0A04C4FF0000E4CF822E0AA6960
:1009740095F814C0C3F824256A7DBCF1010F4CEA34
:100984000202C3F86C25C3F81405C3F80C151DD175
:10099400AA68511C1FBF02F5E0714FF0A0404FF050
:1009A400000C40F821C0E968481C0BD04FF0A04C63
:1009B40001208840CCF8080501F5E0704FF0030EE3
:1009C4004CF820E0C3F80815C3F810252C23634322
:1009D40008EB0302C2F804902A6948F80320B9F12D
:1009E400000F31D04FF48E7130682D7FFFF7A0FED9
:1009F40030684FF4A271FFF79BFE3268204BC2F8B7
:100A04000433120B53B2002BA8BF03F160404FEA2A
:100A140053134FEA4511BABF1A4802F00F0500F507
:100A240061404FEA8303C9B203F16043B4BF415547
:100A340080F8001303F5614302F01F02012101FA5B
:100A440002F2C3F880211A6033680422C3F8002537
:100A54002C2303FB04830022C3E9062283F8292004
:100A64005A61012283F82A203846BDE8F883082712
:100A7400FAE71127F8E700BF64000020D10700005F
:100A84008000020014ED00E02DE9F843224F0679BE
:100A94004FF02C0909FB067480466569002D37D197
:100AA4006261A16025624FF48E71006884F8285059
:100AB400FFF73EFED8F80000012383602146FFF7CC
:100AC4003FFE6368A1462BBBD8F80050226A6369D5
:100AD4009A4212D3D8F80030D3F81C21002AFBD054
:100AE4000122DA6000202C2303FB067600237361C5
:100AF400BDE8F88394F8283043B9D5F81C31002BAD
:100B0400F8D049462846FFF71BFEDFE70F20EAE747
:100B14001120EDE72846EBE7640000200379044A3E
:100B24002C2101FB03235869003018BF01207047B2
:100B3400640000202DE9F843384E05792C2303FB8B
:100B4400056307465C6824B103684FF40170C3F879
:100B540008032C2303FB0563986950B1D869002866
:100B64003ED024B13B684FF40172C3F80423112032
:100B740034E09A61D9605862D8612C2303FB056381
:100B840093F829301BB910B93846FFF7E8FD4FF048
:100B94002C0909FB05683868D8F80430002B34D1D7
:100BA4004FF4A271FFF7C4FDC1463868D0F8243170
:100BB400D0F80821D0F84441B2B90CB9002BF4D0D4
:100BC4002C2202FB05650022AA611BBB24BB95F8FD
:100BD40029103B680122B1B11A600020BDE8F883F6
:100BE4001961DA610120C8E7002BE9D1002CE7D1B3
:100BF4004946FFF7C4FDD8F82430D8F818209A42A3
:100C0400D3D82346DCE75A60E7E74FF40173C0F812
:100C14000433E2E70320E1E70F20DFE7640000206C
:100C24000023435082B043580193019B02B07047A4
:100C34001FB501238DF80030054B8DF80800019194
:100C44006846D3E90012904705B05DF804FB00BF85
:100C5400900000207FB5384AD2F82461002E49D094
:100C640010464FF49271FFF7DBFF02238DF800303A
:100C7400D2F88034C2F880340393D2F83C358DF82E
:100C840008302E4BDA6801920022C3E90622684636
:100C9400D3E900129047284AD2F8443173B14FF493
:100CA400A2711046FFF7BCFF244B996931B10021B2
:100CB4009961D2F83C05D968FFF7BAFF1E4AD2F809
:100CC4002031ABB14FF490711046FFF7A9FF1B4BD5
:100CD400596969B1D2F84C158DF808100022996849
:100CE4008DF8002001915A616846D3E900129047BB
:100CF40004B070BDD2F81031002BCCD04FF4887101
:100D04001046FFF78DFF0D4BD2F83C0599698842D8
:100D1400C1D1DC69D96864B1D2F8005225F020054C
:100D2400C2F800521A699C61DA60DE61FFF780FF45
:100D3400B1E79C61FAE700BF00200040900000206A
:100D44002DE9F8435E4B06799146242202FB0632D4
:100D5400044692F820200D469846002A40F0AB80C5
:100D640058490068FFF7CAFC0746002840F0A580F0
:100D740029682368481C0BD04FF0A04001228A4008
:100D8400C0F8082501F5E0724FF0030C40F822C0CA
:100D94006868421C1FBF00F5E0724FF0A04C4FF092
:100DA400000E4CF822E0AA6995F814C0C3F8242573
:100DB4006A7DBCF1010F4CEA0202C3F86C25C3F84A
:100DC4000C15C3F814051DD1AA68511C1FBF02F5E8
:100DD400E0714FF0A0404FF0000C40F821C0E968EA
:100DE400481C0BD04FF0A04C01208840CCF80805DB
:100DF40001F5E0704FF0030E4CF820E0C3F808153D
:100E0400C3F810252423734308EB0302C2F80490AB
:100E14002A6948F80320B9F1000F3BD04FF48871D8
:100E240020682D7FFFF7FCFE4FF490712068FFF7D8
:100E3400F7FE4FF492712068FFF7F2FE20684FF43A
:100E4400A271FFF7EDFE22681F4BC2F80433120BA8
:100E540053B2002BA8BF03F160404FEA53134FEA8B
:100E64004511BABF194802F00F0500F561404FEA79
:100E74008303C9B203F16043B4BF415580F8001342
:100E840003F5614302F01F02012101FA02F2C3F8E3
:100E940080211A6023680822C3F80025242303FB59
:100EA40006830022C3E906225A61012283F8202026
:100EB4003846BDE8F8830827FAE71127F8E700BFAA
:100EC40090000020590C00001003020014ED00E013
:100ED40001F06043B3F1005F2DE9F041074632D1E0
:100EE4001C4B0679242505FB063598466C6964BBC2
:100EF4006A61A96000684FF49071FFF791FE4FF4A6
:100F0400AC713868FFF78CFE3B686A69A968C3F85E
:100F14004415C3F8482501229A606A68BAB9D3F81F
:100F24002011D3F8582149B9002AF8D00F202423DE
:100F340003FB068600237361BDE8F081002A14BF19
:100F44000F200020F3E71020F6E71120F4E72046F5
:100F5400F2E700BF900000200379044A242101FB3A
:100F640003235869003018BF012070479000002007
:100F7400F8B501F06043B3F1005F04460F465ED15B
:100F84000379304D242101FB0351486820B12168C5
:100F94004FF40476C1F80863242101FB03539E69CE
:100FA40056B1D969002939D020B123684FF40472AD
:100FB400C3F80423112030E09A61DF60DE614FF44E
:100FC40088712068FFF72CFE4FF4A2712068FFF7A8
:100FD40027FE2368C3F83475C3F8382516BB0122ED
:100FE4001A602279242101FB0251496809BBD3F814
:100FF4001041D3F84411D3F8240114B909B90028D5
:10100400F5D0242303FB02550023984214BF032088
:1010140018469942AB6118BF0F20F8BD1F61DA6111
:101024000126CCE7D3F8002242F02002C3F80022C4
:10103400D7E74FF40472C3F804230020EDE710202F
:10104400EBE700BF900000200378022B02D1406838
:10105400FFF74EB9012BFAD0704700004FF0A043C0
:101064000022F0B50821C3F808270322C3F80C278F
:10107400C3F80C154FF40051C3F83427C3F80C150A
:101084004FF48041C3F83827C3F80C154FF40041DE
:10109400C3F83C27334DC3F80C15C3F860274FF051
:1010A40080728BB0C3F80C250120FFF7A3FA0FCD93
:1010B40004AC0FC495E803002B4B2C4A00934FF467
:1010C400807384E80300CDE902230193284A0723AF
:1010D400694604A8FFF7E2F908B1FFF709F900F03F
:1010E400F7F80646002838D100F0D4F935463446DE
:1010F40000F03CF907466846FFF728FA0028F7D1C4
:101104009DF800301CB91D023E460124F0E706F1AB
:101114001502BA4202D21D023E46E9E71D4305F01C
:101124000303C5F38502C5F30521C5F38F3000F031
:10113400D7F904A800F0A0F904460028D8D09DF8F7
:101144001100FFF719FA0028F9D19DF81000FFF7F4
:1011540013FA0028F9D10446CAE74FF0FF300BB068
:10116400F0BD00BF241C0000B4000020B401002026
:101174004D1000000C4B0322C3F80825A3F5F033EF
:101184000022C3F80022C3F8102101221A61D3F807
:101194001021002AFBD00022C3F810215A601A60E3
:1011A400024B1A80704700BF00F00140CC030020BE
:1011B40008B500F0DDFA074B01210022C3F8081539
:1011C400C3F81025C3F81425FFF7D4FF024B197098
:1011D40008BD00BF00F00140CE03002010B5044656
:1011E40000F0C6FA104B40F25B62C3F838250F4A90
:1011F400C3F83C250E4A126852000232C3F808258F
:101204000C4AC3F8042503210022C3F80021C3F8C3
:10121400001224B1C3F80C2101225A6010BD064A01
:101224001268C3F80C25F9E7001000405555550025
:10123400C8030020C4020020D003002038B51D4C90
:101244001D4D2178286800F09DFA20B11B4B012226
:101254001A80042038BDFFF78DFF194B2A68C3F8A4
:101264000C252278C3F81025D3F8241521F0FF01AA
:10127400C3F82415D3F8241541F07101C3F82415DB
:101284001049C3F81C15033A0121C3F83015012A8B
:1012940040F20311C3F82C05C3F8341506D80A4AE2
:1012A4001278120642F48472C3F81425074AC3F86C
:1012B4001825CFE714000020D0030020B802002036
:1012C4000010004000294176BB020020FF0003000B
:1012D40038B54FF080430022C3F8002101221A6080
:1012E400D3F80021002AFBD01A4B1B6800220124EA
:1012F4004FF480315C600425DC60C3F80425C3F836
:101304004021C3F84421C3F84821C3F84C21C3F851
:10131400041340F6C411C3F80042C3F81055C3F8CF
:1013240040154FF48271C3F844151C600A4B1A60CF
:10133400FFF784FF58B9094B094A1870094B1C7010
:10134400094B1860136943F01003136138BD284634
:10135400FCE700BF18000020B4020020BA020020FD
:1013640000ED00E0CE030020BC020020364A38B570
:101374001369364C364D43F010031361D4F80C3125
:101384005BB30023C4F80C31324B0222C3F8802132
:10139400314B1B78042B20D101236360D4F8003433
:1013A400012B14D12D492B7809786A780339012946
:1013B40003F00F0301D8022B09D8BBB928492948E7
:1013C40000F08CFB18B9284A13880133138040F2CB
:1013D40001120021284600F0E0FB244B1B68D3F8DF
:1013E4004021C2B10022C3F84021C7E7012B0ED02F
:1013F400022B0ED0032BEAD1FF210023D8B2824264
:10140400E1D90133E81840788842F7D0DFE70F21AB
:10141400F3E75521F1E7D3F844110029AED0C3F81E
:101424004421134B93F9003001215A0903F01F039F
:1014340001FA03F36032074941F822300D4B186872
:101444000130186038BD00BF00ED00E0001000401E
:10145400C402002000E100E0CE03002014000020BC
:101464003C1C0000C6020020CC0300201800002011
:1014740015000020B4020020044B00211A781970D2
:10148400034B1B8803601046704700BFBA0200205C
:10149400B8020020074A127843B210F0300F18BF88
:1014A40063F03F03012A9DBF034A0120136000201B
:1014B400704700BFCE030020D0030020054B1B78EB
:1014C400012B024603D80449044800F073B90020F4
:1014D400704700BFCE030020150000201800002034
:1014E4002DE9F74F9E46944B944F064694480D467B
:1014F40014461A680560387804F03F0102F0C0020F
:101504000A4303388F491A600128C1F800E099465C
:10151400B84604D8BEF1030F04BFFF230B608A4F03
:101524008A48DFF848B297F800C00123037000200E
:10153400ABF80000DA46BCF1000F00F0FA80002E90
:1015440051D10193FFF734FE019B85B924B10123E6
:10155400AAF80030042406E0032388F800307C4B0A
:10156400C9F800401C70204603B0BDE8F08F012D7F
:1015740006D1032CEBD8A401C9F800400024F2E7FB
:10158400022D13D1012C07D0022CE0D1042288F8BB
:1015940000206F4A137004E0032388F800306C4B7A
:1015A4001E7003B0BDE8F04FFFF748BE032D02D113
:1015B400012CE3D9CBE7042D05D1002CC7D1062398
:1015C400ABF80030CFE7052DC1D1032CBFD8DFE83D
:1015D40004F0020702074FF4FF73AAF80030CDE7C6
:1015E40044F29023F9E7032E13D1BCF1010F04D187
:1015F4000123AAF800300224B5E7564B01901B885A
:101604006FEA43436FEA5343ABF80030FFF7D0FD72
:10161400B4E7BCF1010FEBD1BEF1030F05D0272DC8
:1016240003D9ABF800C064469DE74A4B4FF0000B6A
:10163400012EA3F800B00BD140F2011259464648DE
:1016440000F0ABFA3046FFF7C9FD04233B7095E781
:10165400022E93D10B684048022B427045D009D822
:10166400A3B1012B7FF473AF00F8023B0F2100F00C
:1016740094FA10E0032B3CD0FF2B7FF468AF032CCB
:101684003FF67CAFDFE804F03A3A464D00F8023BFF
:10169400324900F059FA0020FFF7A0FD98F8001035
:1016A4002F4BD9F800001A6804293ED0032914BF2F
:1016B4000023502303EBC003042908BF5B0840F256
:1016C4007121F933994201F2712030D3254BC2F8CC
:1016D400401502F5A072C3F81025234AC3F8142557
:1016E4000122C3F804250223B0E700F8026B552158
:1016F400BDE7042300F8023BFF21B8E70020FFF711
:101704006DFD00F037F8184B0122C3F800221A606F
:1017140003239BE72846FFF7BDFE00287FF42EAF86
:1017240015E72846FFF7CAFEF7E75823C2E7014644
:10173400C8E7052417E700BFBC02002014000020FE
:10174400C8030020C0020020CE030020BA020020FB
:10175400BB020020CC030020C40200203C1C00007B
:101764001800002000F0014000100040B8020020E2
:1017740070470000024B4FF40072C3F850267047C4
:101784000010004070B120F02003D82B0AD020F0C4
:101794001003EC2B06D020F00403F02B02D0033806
:1017A400012805D8033901298CBF04200020704783
:1017B400042070472AB9104B036008230B700120E2
:1017C4007047012A03D10D4B03600923F6E7022A6F
:1017D40003D10B4B03600A23F0E7032A03D1094B1F
:1017E40003601A23EAE7042A03D1074B03601B238F
:1017F400E4E70020704700BF0080004000900040F4
:1018040000A0004000A0014000B001400C4B1B7838
:10181400062B10D10B4B1B681A070CD10A4B186806
:1018240000F0F003302B08D000F0E000A0F14003FA
:10183400584258417047002070470120704700BF4C
:10184400E00F00F0E40F00F0E80F00F0094B1B7804
:10185400062B0CD1084B1B681A0708D1074B1868D4
:1018640000F0F000A0F130035842584170470020C6
:10187400704700BFE00F00F0E40F00F0E80F00F045
:1018840008B5FFF7C3FF28B17D4B7E4A1B68C3F33D
:1018940004231360FFF7DAFF10B17B4B7B4A1A6015
:1018A400FFF7B4FF28B17A4B7A4A1B68C3F342337B
:1018B4001360FFF7CBFF20B1774AD36823F080731E
:1018C400D360FFF7A3FF40B14FF080430022C3F879
:1018D4000C21C3F81021C3F83825FFF7B7FF10B166
:1018E4006E4B03221A60FFF7B1FF40B16C4B052227
:1018F4001A6001229A6700229A603F225A60694B5B
:101904001B78062B50D1684B1B6819074CD1674BC9
:101914001B6803F0F003502B46D14FF08052644B08
:10192400D2F80414C3F82015D2F80814C3F8241507
:10193400D2F80C14C3F82815D2F81014C3F82C15D7
:10194400D2F81414C3F83015D2F81814C3F83415A7
:10195400D2F81C14C3F84015D2F82014C3F8441567
:10196400D2F82414C3F84815D2F82814C3F84C1537
:10197400D2F82C14C3F85015D2F83014C3F8541507
:10198400D2F83414C3F86015D2F83814C3F86415C7
:10199400D2F83C14C3F86815D2F84014C3F86C1597
:1019A400D2F84424C3F87025FFF730FF28B1414B27
:1019B400414A1B6803F04F031360FFF727FF48B148
:1019C4004FF08043D3F80024D20744BF6FF00102E4
:1019D400C3F80024394B1B68062B08D1384B1B680D
:1019E400062B01BF374A136843F480631360364AF9
:1019F400D2F8883043F47003C2F88830BFF34F8FB5
:101A0400BFF36F8F4FF01023D3F80022002A03DBBB
:101A1400D3F80432002B2FDA2C4B0122C3F804250F
:101A2400D3F80024002AFBD04FF010221521C2F86D
:101A34000012D3F80024002AFBD04FF01023152203
:101A4400C3F80422214B1A46D3F800140029FBD012
:101A54000021C3F80415D2F80034002BFBD0BFF3E7
:101A64004F8F19491A4BCA6802F4E0621343CB60E2
:101A7400BFF34F8F00BFFDE7164B174A1A6008BD2E
:101A8400240300104035014074C007400DF0ADBA86
:101A9400440200103C050040F0ED00E0A0050040C9
:101AA40010560040E00F00F0E40F00F0E80F00F0E3
:101AB40000C0004058020010E40E00403001001045
:101AC400340100103C17004000ED00E000E001404C
:101AD4000400FA051C0000200090D00392B370B4F7
:101AE400134640EA010212F0030F17D05A1E10D019
:101AF40004780B789C420CD1431C4C1C02441846BD
:101B04002146934205D00133013406780D78AE4264
:101B1400F5D000780B78C01A70BC70470F2BE5D94C
:101B240004680A689442E1D1041D0A1D2046114646
:101B3400043B042BDAD90434043206680D68AE423F
:101B4400F4D0D3E700207047844640EA010313F041
:101B5400030F18D18446202A0BD32DE9F007B1E8EE
:101B6400F807A0E8F807A2F12002202AF7D2BDE87E
:101B7400F007042A07D351F8043B40F8043BA2F1D0
:101B84000402042AF7D2002A05D011F8013B00F818
:101B9400013B013AF9D1604670478446002A2DD0B2
:101BA40010F0030F04D000F8011B013A26D0F7E728
:101BB400C9B241EA012141EA0141202A12D3A2F12A
:101BC40020022DE9F0030B460C460D460E460F4647
:101BD40088468946A0E8FA03203AFBD2BDE8F00320
:101BE40020320BD0042A05D340F8041B043A05D054
:101BF400042AF9D200F8011B013AFBD16046704770
:101C0400FFFFFFFFFFFFFFFFFFFFFFFFFFFFFFFFE0
:101C140000000000000000000000D60107010000E1
:101C24000600000008000000050000000700000096
:101C34000000000000A04E00FFC1FBE84C90728B36
:101C4400E7B3518963AB232302841872AA612F3B43
:101C540051A8E53749FBC9CA0C18532CFD45E39A32
:101C6400E6F15DB0B61BB4BE2A50EAE90E9C4B5EA9
:101C74005724CCA1B759B887FFE07D742648B9C56D
:101C8400F3D9A8C4B1D5911101420C39D5B0979DAF
:101C940028D4F29BA4FD6465068C2996FEA2714D9E
:101CA400F3F82E58DB0D5A5F1528F57407CE25AFCF
:101CB4002B12E6D0DB2CDCC37FF03E3A13A4DCE22B
:101CC400F96C54E2D8EAC8880021869C6AD8CB4EC5
:101CD400146AF94DD27EB23203C6144B7FD1B8A632
:101CE400797C17ACED06ADAF0A947ABA03E792D7C4
:101CF400150973E86D16EEE13F781F9D09526EF1E8
:101D04007C362A716C7564448010434E35EC65272B
:101D14000AB5FC26693F599901638AA5BF685CD35B
:101D24003CBE0BD67683D657054A3DDD8173C9EB9D
:071D34008A8439F4360BF735
:101D3C0000000000002000400000000000200040D7
:101D4C000000000003080000008000400090D00359
:040000030000023DBA
:00000001FF
