:020000022000DC
:10600000000001203D6202009562020097620200DA
:10601000996202009B6202009D6202000000000083
:106020000000000000000000000000009F6202006D
:10603000A162020000000000A3620200A56202004B
:1060400059DB0200AB620200B5E80200192403002C
:10605000B1620200B3620200D5E50200152A030016
:10606000B9620200BB620200BD620200BF620200B0
:10607000C1620200C3620200C5620200C762020080
:10608000C9620200118B0200CD620200190B0300ED
:10609000518B0200D362020059CC0300D762020088
:1060A000D9620200DB620200DD620200DF620200F0
:1060B00071170300E3620200A7620200A7620200F8
:1060C000E562020089170300E9620200EB62020048
:0C60D000D5070300EF620200F16202003D
:1060DC00364937480A1A02D0072291438D46354972
:1060EC0035480A1A06D00722914381F30988022207
:1060FC0082F3148831483249324A00F045F832486C
:10610C003249334A00F040F832483349334A00F000
:10611C003BF833483349344A00F036F833483449B5
:10612C00344A00F031F834483449354A00F02CF840
:10613C0034483549354A00F027F8354835490022AE
:10614C0000F02DF834483549002200F028F8344886
:10615C003449091A082903DB00220260043001606B
:10616C00314A90471F482049884205D002680430C4
:10617C0003B4904703BCF7E700208646EC460020AA
:10618C0000212A4A9047FEE7884207D0521A05D0D0
:10619C00037801300B700131013AF9D17047884214
:1061AC0002D002700130FAE77047000000000120B5
:1061BC0000E0002000000120000001203416040043
:1061CC00FC2B0020C42C0020F4620200F4620200BC
:1061DC0008F2030034160400FC2B0020FC2B0020DA
:1061EC00DCF30300DCF30300DCF30300DCF303005B
:1061FC00DCF30300DCF30300DCF30300DCF303004B
:10620C0034160400FC160400C42C0020C42C0020FE
:10621C00C42C0020783F0020783F0020783F0020DD
:10622C00783F0020785F002061620200A9660200BE
:10623C000F484FF00701884385460E4880470E48AB
:10624C00016841F470010160BFF34F8FBFF36F8F92
:10625C00FFF73EBF09480A490A4A884207D0521A3A
:10626C0005D0037801300B700131013AF9D1704738
:10627C0000000120CDCC020088ED00E070F303009B
:10628C00902B0020FC2B0020FEE7FEE7FEE7FEE74C
:10629C00FEE7FEE7FEE7FEE7FEE7FEE7FEE7FEE7CA
:1062AC00FEE7FEE7FEE7FEE7FEE7FEE7FEE7FEE7BA
:1062BC00FEE7FEE7FEE7FEE7FEE7FEE7FEE7FEE7AA
:1062CC00FEE7FEE7FEE7FEE7FEE7FEE7FEE7FEE79A
:1062DC00FEE7FEE7FEE7FEE7FEE7FEE7FEE7FEE78A
:0862EC00FEE7FEE7FEE700BF3C
:1062F40000B585B00190019B002B0AD0074B43F0F9
:1063040001030393019B9B010293039B029898470B
:1063140000E000BF05B05DF804FB00BFF0F403002B
:1063240000B583B00190019B1B681F2B04D905495C
:1063340040F2C71000F06AF84FF0A043184603B0CB
:106344005DF804FBDCF3030000B585B0019001ABFC
:106354001846FFF7E5FF0390039BD3F80435029337
:10636400029BDA43019B012101FA03F31A40039BC8
:10637400C3F80825019B01229A40029B1A40039B03
:10638400C3F80C2500BF05B05DF804FB00B583B06D
:106394000190019B002B0AD04FF47A70FFF7A8FFFD
:1063A400019B013B0193019B002BF5D100E000BF51
:1063B40003B05DF804FB000000B583B003468DF81C
:1063C40007309DF80730002B08D117F0CDFE0F20C1
:1063D400FFF7BAFF0B4B01221A700EE09DF807304D
:1063E400042B0AD114F02AF9074B1B68002B04D0A4
:1063F400054B1B68013B044A136000BF03B05DF802
:1064040004FB00BFC42C0020042D002000B583B081
:1064140003460091ADF80630BDF80630009A1946DF
:10642400034801F065FE00BF03B05DF804FB00BF44
:10643400EFBEADDE00B585B002F08EFB0390039B8A
:106444000293029B002B04D00C4A9C21029801F079
:106454004FFE0B4A01210B4802F0B2FB0390039B51
:106464000193019B002B04D0044A9F21019801F061
:106474003FFE00BF05B05DF804FB00BF0CF4030051
:1064840093E00300E0F4030000B583B0019B0093A4
:10649400009B002B04D0044AB221009801F028FE8E
:1064A40000BF03B05DF804FB0CF4030030B589B001
:1064B40003468DF80730504B02AC1D460FCD0FC478
:1064C40095E803002060043421709DF80730043BF4
:1064D4000C2B6CD801A252F823F000BFA765020070
:1064E400B3650200B3650200AD650200B365020046
:1064F400B3650200A1650200B3650200B365020042
:10650400B36502007D65020015650200496502005D
:106514003A4B1B881B0443F003033949184600F027
:10652400A1FF384B1B78052B05D8364B1B7801335C
:10653400DAB2344B1A704B2017F052FA324B28223D
:106544001A6035E02D4B1B881B0443F003032F49CD
:10655400184600F087FF2B4B1B78002B05D0294BE6
:106564001B78013BDAB2274B1A70322017F038FA45
:10657400254B28221A601BE0204B1B881B0443F088
:1065840003032349184600F06DFF192017F028FA79
:106594001D4B28221A6014F069F809E017F030FE48
:1065A40006E014F0CDFF03E014F0EAFF00E000BFC2
:1065B400144B1B781A4613465B00134408AA134471
:1065C400183B18780F4B1B781A4613465B0013448C
:1065D40008AA1344173B19780A4B1B781A4613462A
:1065E4005B00134408AA1344163B1A78042316F0DC
:1065F40091FD00BF09B030BD5CF40300B82B00204E
:106604002CF40300082D0020042D00203CF403008A
:106614004CF4030000B587B001900E4902200CF041
:10662400A3FD0590059B0493049B002B05D00A4A07
:106634004FF48371049801F05BFD9DF80F30022B39
:106644000CBF01230023DAB2019B1A7000BF07B00C
:106654005DF804FBB16402000CF4030000B583B0E0
:106664004FF40041002000F0DFFB0190019B0093F8
:10667400009B002B05D0064A4FF48B71009801F063
:1066840037FD00F06BFB00BF03B05DF804FB00BFF7
:106694000CF4030084B003900291019200BF04B093
:1066A40070470000F0B58DB005AB00221A605A6047
:1066B4009A60DA601A615A61C3F81720FF238DF8D3
:1066C4002730FF238DF82930FF238DF82A30FF234C
:1066D4008DF82B307F238DF82E30FFF7BFFF17F096
:1066E40061FDFFF7A7FE0DF113031846FFF792FFB4
:1066F40017F091FC17F0DCFAB44817F0F3FC16F02D
:1067040067FF17F067FD14F019FE14F0C1F914F0D7
:1067140049FA14F0D3FE14F071FA14F0E9FB14F002
:10672400F3FC14F045FEAA4B1B881B0443F003033F
:10673400A849184600F096FE00BF00F007FF034684
:10674400002BFAD116F0B6FF16F0E2FFFFF79CFE1D
:106754009DF81330184614F00FF817F08AFC17F060
:106764008FFC6420FFF712FE05AB0421184616F0D7
:10677400C5FD00BF00F0EAFE0346002BFAD1964B9C
:106784001B78DBB2002B00F01E81934B00221A70A1
:1067940017F0FAF817F052FA17F0FEF8B0EE407A54
:1067A400F0EE607A8D4B83ED007B17F007F9B0EEC5
:1067B400407AF0EE607A8A4B83ED007B16F02CFF72
:1067C4000246884B1A6017F043FB03461A46864B71
:1067D4001A8017F035FB03461A46844B1A807C4B0B
:1067E4001B881B0443F003031E46814B1D686B1C6E
:1067F4007F4A1360794BD3E900341846214618F0D8
:1068040033F80746764BD3E900341846214618F08E
:106814002BF80146734B1B68734A128812B2104658
:10682400724A128812B203920290019300913B467D
:106834002A467049304600F05EFE6F4B1B68002B01
:1068440040F0C1806A4B1B68002B08D105A80023C7
:106854000093FF230022002116F06EFE07E005A836
:10686400002300930023FF22002116F065FE5B4BFA
:10687400D3E900014FF00002604B18F069FB0346B6
:10688400002B08D005A8002300930023FF22012138
:1068940016F052FE07E005A800230093FF23002210
:1068A400012116F049FE4E4BD3E900014FF00002DE
:1068B400534B18F04DFB0346002B08D005A80023CA
:1068C40000930023FF22022116F036FE07E005A8FC
:1068D40000230093FF230022022116F02DFE414BDA
:1068E4001B68642B08D905A8002300930023FF220A
:1068F400032116F021FE07E005A800230093FF23DF
:106904000022032116F018FE374B1B881BB2B3F587
:10691400167F08DA05A8FF230093FF230022042131
:1069240016F00AFE1DE0304B1B881BB2B3F5167F30
:106934000FDB2D4B1B881BB240F6C412934208DCBC
:1069440005A8002300930023FF22042116F0F4FD80
:1069540007E005A800230093FF230022042116F07A
:10696400EBFD224B1B881BB2B3F52F6F08DA05A889
:10697400FF230093FF230022052116F0DDFD1DE017
:106984001A4B1B881BB2B3F52F6F0FDB174B1B88F9
:106994001BB240F64852934208DC05A8002300933A
:1069A4000023FF22052116F0C7FD07E005A80023F8
:1069B4000093FF230022052116F0BEFD05AB042140
:1069C400184616F09BFC00F0C1FDD2E6BD63020040
:1069D400B82B002074F40300C42C0020F02C0020F9
:1069E400F82C0020002D0020C82C0020C62C0020EC
:1069F400CC2C002094F40300042D0020000024403B
:106A04000000394000B5A1B00590049103920293AF
:106A1400049805F03EFE039B1593029B16930023F6
:106A2400179300238DF8603000231993229B1A9347
:106A340000231F930FA91F9B0822049805F0E4FE6E
:106A440008231F93119B1293BDF84030ADF84C30CE
:106A5400BDF84230ADF84E3000238DF851309DF82A
:106A64003C3003F00303DBB2012B26D10F9BC3F3AD
:106A740095231D939DF83C30C3F3C203DBB28DF81C
:106A84005030BDF83C30C3F38313DBB21C931C9B22
:106A94009A0009A91F9B049805F0B6FE1C9B9B0055
:106AA4001F9A13441F9312AA09A915AB0093134606
:106AB4001C9A1D9801F02AF82FE09DF83C3003F051
:106AC4000303DBB2022B28D1BDF83E30C3F3891394
:106AD4009BB21E939DF83C30C3F3C203DBB28DF826
:106AE40050301E9B082B28BF08231B9307A91F9B0C
:106AF4001B9A049805F088FE1F9A1B9B13441F934E
:106B04001E9A1B9BD31A1E9315AB12AA07A81B9996
:106B140001F09EF81E9B002BE3D1049805F0C8FDFC
:106B240000BF21B05DF804FB00B583B00190019B68
:106B34001B781A460C4B9B5C002B05D0019B04333D
:106B4400184609F055F90BE0019B1B781A46064BD1
:106B54009B5C002B04D1019B0C33184608F0F6FA19
:106B640000BF03B05DF804FB9435002000B587B086
:106B74000390029113468DF8073000230593039B7D
:106B84001B781A46114B9B5C002B09D0039B0433E2
:106B94009DF807200299184609F058F905900FE06E
:106BA400039B1B781A46094B9B5C002B08D1039B63
:106BB4000C339DF807200299184608F03DFB059018
:106BC400059B184607B05DF804FB00BF9435002010
:106BD40082B001900091034B01221A7000BF02B0F1
:106BE400704700BF4C2D002030B58DB003468DF8A2
:106BF40007301A4B02AC1D460FCD0FC495E80F00A9
:106C040084E80F00082302934FF0FF3303934FF0FF
:106C1400FF3304934FF0FF3305934FF0EB73089366
:106C24009DF80730002B01D00D4A00E0002202AB92
:106C340019460C4806F05CFD0B900B9B0A930A9BCB
:106C4400002B04D0084A43210A9801F051FA074A5C
:106C54009DF80730137000BF0DB030BD54F503002C
:106C6400D56B0200FC2B0020F8F403004D2D00200E
:106C740000B583B001238DF807309DF8073018461E
:106C8400FFF7B2FF00BF03B05DF804FB00B589B0A5
:106C9400039002910192019B8DF81F30124B002248
:106CA4001A709DF81F301A4602991048FFF75EFFCC
:106CB4000690069B0593059B002B04D00C4A532198
:106CC400059801F015FA00BF0A4B1B78002B07D07A
:106CD400054B1B78DBB283F00103DBB2002BF3D14D
:106CE40000BF09B05DF804FB4C2D0020FC2B0020F4
:106CF400F8F403004D2D002000B585B003900291F7
:106D0400054B00934023054A02990398FFF77AFE46
:106D140000BF05B05DF804FB916C02000C2D00204F
:106D240082B0019000BF02B07047000000B583B08C
:106D340001900548FFF7F8FE0020FFF755FF00BF5C
:106D440003B05DF804FB00BFFC2B002082B001906F
:106D5400019B01225A7200BF02B0704700B583B094
:106D64004FF0FF330193FFF783FF0421084800F03D
:106D7400EDFD0190019B002B03DA06494820FFF743
:106D840045FB0348FFF7E2FF00BF03B05DF804FBD7
:106D9400102C002080F5030000B583B00190009111
:106DA400019B1B681B6800990198984700BF03B0BA
:106DB4005DF804FB00B583B00190019B1B685B6820
:106DC4000198984700BF03B05DF804FB00B583B099
:106DD4000190019B1B689B680198984700BF03B012
:106DE4005DF804FB82B001900B468DF80330019BE3
:106DF4009DF803201A7200BF02B0704782B0019060
:106E0400019B1B7A184602B0704782B00190019B27
:106E140001225A7200BF02B0704782B00190019BF8
:106E24005B7A184602B0704700B587B001900091B4
:106E34001D4BFF229A601C4B00221A601A4B002241
:106E44005A60194B0022C3F81824174B0022C3F8C8
:106E54001424154B002283F82024144805F07EFBEB
:106E64000490049B002B01D0049B18E0104A114BA2
:106E7400D31ADB080393002305930BE0059B9B00C7
:106E84000D4A13440293059B9AB2029B1A80059BF8
:106E940001330593059A039B9A42EFD300231846C6
:106EA40007B05DF804FB00BF202E002030F3030080
:106EB40030F3030080F20300902B0020024A034BBE
:106EC400D31ADB081846704730F3030080F203003E
:106ED40000B587B001900B468DF803309DF8033060
:106EE400002B1FD0FFF7EAFF04900023059313E063
:106EF400059B9B000E4A13440393039B5B881A462D
:106F0400019B1B689A4204D1019B059A1A600023D5
:106F140009E0059B01330593059A049B9A42E7D344
:106F2400052300E00023184607B05DF804FB00BF0A
:106F3400902B002000B585B001900B468DF80330EE
:106F44009DF8032001AB11461846FFF7C1FF034625
:106F5400002B07D1019BDB00054A13440393039BD9
:106F64001B6800E00023184605B05DF804FB00BF71
:106F740080F2030084B001900B468DF80330019B2E
:106F8400DB00174A134402939DF80330013B032BA3
:106F94001CD801A252F823F0AD6F0200B56F0200B5
:106FA400BD6F0200C76F020002238DF80F3011E09D
:106FB40004238DF80F300DE0029B1B798DF80F3000
:106FC40008E0029B5B798DF80F3003E000238DF815
:106FD4000F3000BF9DF80F30184604B0704700BF53
:106FE40080F2030000B585B00190009100238DF874
:106FF4000F30019B1B7803F00303DBB2002B06D098
:10700400019B1B7803F00403DBB2002B44D0019BEB
:107014001B7803F00403DBB2002B28D0019B1B7800
:10702400C3F30103DBB2012B02D0022B0CD017E017
:10703400009B1B68019A1288C2F38312D2B21344D4
:107044009A1C009B1A6024E0009B1B68019A5288DA
:10705400C2F3891292B213449A1C009B1A6018E07E
:1070640010494FF4A470FFF7D1F900BF11E0009B61
:107074001A68019B5B88C3F389139BB21946019B71
:107084001B88C3F389139BB20B4413445A1C009B03
:107094001A6001238DF80F309DF80F30184605B0A3
:1070A4005DF804FBF8F5030000B58BB00023ADF8E0
:1070B40026303E4803F0FFFF3D4803F0FCFF3D4B04
:1070C4005B6804933B4B9B680693049A069B1340AE
:1070D40002339B00374A13440433089304AB194624
:1070E4000898FFF77FFF0346002B09D0049A069BFC
:1070F400134002339B002F4A134404330893EDE7F3
:1071040000BF0023079311E0079B9B0001AA1A44C8
:10711400049B591C049106990B40264902339B0099
:107124000B445B681360079B01330793079B012B98
:10713400EAD99DF80430C3F30103DBB2012B10D06C
:10714400022B1CD1BDF80A30ADF82630BDF806304C
:10715400C3F389139BB203339A08049B1344049327
:1071640013E0BDF80A30ADF82630BDF80430C3F39F
:107174008313DBB21A46049B1344049305E00E49BF
:107184004FF4C270FFF742F900BF094803F09FFFB4
:107194000590059B002B02D0049B064A5360BDF862
:1071A400263018460BB05DF804FB00BF38320020CF
:1071B40034320020202E0020F8F5030000B585B0FD
:1071C4000021074803F0ACFE0390039B0293029B4B
:1071D40083F310030193019B184605B05DF804FB8B
:1071E4003C32002000B589B00390029101920093D3
:1071F400039B1B0C0793FFF7E1FF0690FFF75EFE6E
:107204000246079B9A4204D8224940F2A910FFF78C
:10721400FDF8009B5A1C0A9B1340069A1104079A16
:107224000A431D4902339B000B445A60009A0A9B8F
:10723400134002339B00184A134404330593039B01
:10724400DBB203F00703D9B2059A137861F3C503DF
:107254001370019BDBB203F00F03D9B2059A1388B4
:1072640061F389131380029BC3F31501059A136814
:1072740061F39F231360059A1378012161F30103DD
:107284001370059A13786FF38203137000BF09B06B
:107294005DF804FBF8F50300202E002000B58DB046
:1072A4000390029113468DF80730039B02330A932F
:1072B40001238DF8273000238DF81B300DF11B03BB
:1072C400184601F073FD414B1A68029B1A603F4B4C
:1072D4009A683E4B59683D4B1B68CB1A13440133E3
:1072E4000B9314E001213A4803F0A9FEFFF7DCFEFA
:1072F40008900899364803F0A2FE344B9A68334B41
:107304005968324B1B68CB1A134401330B930A9A06
:107314000B9B9A42E6D89DF82730002B4AD00023D5
:1073240005939DF80730002B18D09DF814300122E6
:1073340062F301038DF814309DF8143043F0040314
:107344008DF81430039BDBB203F00F03DAB2BDF8FF
:10735400143062F38913ADF8143017E09DF814303B
:10736400022262F301038DF814309DF8143043F0C7
:1073740004038DF81430039B9BB2C3F309039AB240
:10738400BDF8163062F38F13ADF816300F4B1A6840
:107394000E4B9B68134002339B000C4A1344043386
:1073A4000793059A079B1A60084B1A680A9B1344B3
:1073B400064A13609DF81B30184601F00DFD9DF838
:1073C400273018460DB05DF804FB00BF202E0020C6
:1073D4003C32002000B58BB00590049103920293D7
:1073E4001F4B9B68079306AB012219460298FFF7CF
:1073F40055FF0346002B24D0069B02330993002338
:10740400089311E0099B5A1C0992079A1340089AA1
:10741400920003990A441268114902339B000B44F9
:107424005A60089B01330893089A029B9A42E9D355
:10743400069A079B00931346029A04990598FFF74E
:10744400D1FE074B93F82034002B05D000BF00F089
:107454007DF80346002BFAD100BF0BB05DF804FBA6
:10746400202E002000B583B001900091002300225B
:1074740000990198FFF7AEFF00BF03B05DF804FB6D
:1074840000B587B0039002910192019B059305AA70
:10749400012302990398FFF79DFF00BF07B05DF831
:1074A40004FB00B587B00390029101920093019B05
:1074B4000493009B059304AA022302990398FFF7FF
:1074C40089FF00BF07B05DF804FB00B589B00390E5
:1074D400029101920093019B0593009B06930A9BE2
:1074E400079305AA032302990398FFF773FF00BFCC
:1074F40009B05DF804FB00B58BB0039002910192D2
:107504000093019B0493009B05930C9B06930D9B96
:1075140007930E9B08930F9B099304AA06230299D1
:107524000398FFF757FF00BF0BB05DF804FB0000A2
:10753400054B5A68044B1B689A420CBF0123002375
:10754400DBB21846704700BF202E002000B599B06A
:10755400FFF7EEFF0346002B01D00023B8E19A4B5E
:107564000022C3F81824BFF34F8F974B5B68049332
:10757400954B9B681093049A109B134002339B0015
:10758400914A13440433179300231693002315934D
:1075940000230F9304AB19461798FFF723FD034606
:1075A400002B14D0884B1A68049B9A4205D8864B4A
:1075B4001B68854A536000238AE1049A109B134098
:1075C40002339B00804A134404331793E2E700BF5D
:1075D4000023149311E0149B9B0001AA1A44049BFA
:1075E400591C049110990B40774902339B000B44BA
:1075F4005B681360149B01331493149B012BEAD929
:107604009DF8043003F00303DBB2022B40F09C80AE
:10761400BDF80630C3F389139BB20E93BDF8063050
:10762400C3F389139BB2502BA8BF50230D930D9B1A
:107634009BB2C3F309039AB2BDF8063062F38F1309
:10764400ADF806300D9B08330C939DF80430C3F35A
:10765400C203DBB20F930C995C4804F08AFF1690C6
:10766400169B002B00F0D480169805F012F801A99F
:10767400159B0822169805F0B5F8159B0833159349
:10768400049BDA43109B134001339B000B930D9A28
:107694000B9B9A4242D90B9B002B08D0049A109B57
:1076A400134002339B00484A1344043300E0484B20
:1076B4000A930B9B002B02D00B9BDBB201E00D9BCA
:1076C400DBB28DF827300B9B002B01D0404B00E040
:1076D400002308930B9B002B06D00D9BDAB20B9B67
:1076E400DBB2D31ADBB200E000238DF81F309DF823
:1076F4002720159B0A99169805F074F89DF82730F1
:10770400159A13441593089B002B16D09DF81F203F
:10771400159B0899169805F065F80EE0049A109BDD
:10772400134002339B00284A134404330693159BE9
:107734000D9A0699169805F055F80E9B03339A088E
:10774400049B1344049363E09DF8043003F00303A3
:10775400DBB2012B5CD1BDF80430C3F38313DBB27D
:10776400062B28BF0623DBB203F00F03DAB2BDF801
:10777400043062F38913ADF80430BDF80430C3F368
:107784008313DBB2023305939DF80430C3F3C203C1
:10779400DBB20F93059B9B0019460C4804F0E9FEED
:1077A4001690169B002B33D0169804F072FF01A993
:1077B400159B0822169805F015F8159B08331593A8
:1077C400002314931BE000BF202E002030F303009D
:1077D4002C2E0020049B5A1C0492109A134002334E
:1077E4009B003D4A1344191D159B0422169804F06E
:1077F400F9FF159B04331593149B01331493BDF8BF
:107804000430C3F38313DBB21A46149B9A42E1D8C3
:10781400169B002B3FD0304BD3F8103413932E4BD0
:10782400D3F81834002B1AD0169804F041FF49E01D
:1078340000238DF84B301398FFF7EFFA0346002B23
:1078440002D001238DF84B309DF84B30002B03D030
:1078540016991398FFF7A0FA139B5B681393139B75
:10786400002BE5D1169804F023FF00238DF8033094
:107874000DF10303184601F099FA174BD3F81834A5
:10788400002B02D1049B144A53609DF80330184620
:1078940001F0A2FA16E0104BD3F81034119305E06E
:1078A4001198FFF793FA119B5B681193119B002BBE
:1078B400F6D10A4B1B881B0443F0020308491846FF
:1078C400FFF7D0FDFFF734FE034683F00103DBB27C
:1078D400184619B05DF804FB202E0020B82B0020B8
:1078E40050F6030000B585B00023039322E0164B45
:1078F400D3F81034029301238DF807300EE0029878
:10790400FFF77CFA03461A46039B9A4203D10023ED
:107914008DF8073005E0029B5B680293029B002B05
:10792400EDD19DF80730002B01D0039B07E0039BAA
:1079340001330393039B092BD9DD4FF0FF33184622
:1079440005B05DF804FB00BF202E002000B585B013
:1079540001900B468DF80330FFF7C4FF0390039B9F
:10796400B3F1FF3F01D1039B1EE0039BDBB2194639
:107974000198FFF737FA0E4BD3F81034002B07D1D8
:107984000B4A019BC2F81034019B00225A600AE0A2
:10799400074BD3F810345A68019B5A60044BD3F850
:1079A4001034019A5A60039B184605B05DF804FB35
:1079B400202E002000B583B00C4BD3F81034019373
:1079C4000A4B012283F8202408E00198FFF71DFAEE
:1079D4000198FFF7EFF9019B5B680193019B002B72
:1079E400F3D100BF03B05DF804FB00BF202E0020DC
:1079F40082B00190009100BF02B0704710B584B00E
:107A040003900291039BDB88002B0AD0039BDB8845
:107A14001A461F4B009313461E4A1F49029803F04F
:107A240095FC039B1B7A052B2ED0039B5B7A002BC2
:107A340012D0039B9B881A46039B1B7A1946104657
:107A4400FFF798FA03461A46144B53F822301A46A5
:107A54001349029803F07AFC039B1B6819460298A9
:107A6400FFF7C6FF039B1B7A1A460E4B53F82240BE
:107A7400039B9B8800211846FFF75CFA03462246C5
:107A84000949029803F062FC00BF04B010BD00BFB6
:107A940084F6030094F60300CCF60300302C002097
:107AA400E4F603001C2C0020E8F6030000B585B0C2
:107AB4000390029113468DF80730039B1B7A052B24
:107AC4000FD0039B5B7A002B06D00D4B1B681A4624
:107AD4000C49029803F03AFC0B49029803F036FC77
:107AE40007E09DF80730002B03D00749029803F004
:107AF4002DFC029803F008FC00BF05B05DF804FB00
:107B0400302C0020E4F60300F4F6030030B58BB00B
:107B140007900691059204930E9B1B7B8DF82730EA
:107B24000E9B00221A730E990498FFF767FF059BBA
:107B3400062B7FD801A252F823F000BF5D7B020020
:107B4400677B0200777B02008B7B0200A97B02002B
:107B5400D17B0200017C020007990E9803F0F6FB2A
:107B640069E0069B1B681A4607990E9803F0EEFB22
:107B740061E0069B1A68069B04331B6807990E98FC
:107B840003F0E4FB57E0069B1A68069B043319686C
:107B9400069B08331B6800930B4607990E9803F065
:107BA400D5FB48E0069B1968069B04331868069BBE
:107BB40008331B68069A0C3212680192009303463C
:107BC4000A4607990E9803F0C1FB34E0069B186837
:107BD400069B04331C68069B08331B68069A0C3208
:107BE40012680699103109680291019200932346A4
:107BF400024607990E9803F0A9FB1CE0069B1C683B
:107C0400069B04331D68069B08331B68069A0C32D6
:107C140012680699103109680698143000680390B8
:107C24000291019200932B46224607990E9803F085
:107C34008DFB00E000BF00220E990498FFF736FF89
:107C44000E9B9DF827201A7300BF0BB030BD00BFF8
:107C540000B587B00390029101920093029B082B18
:107C64005CD8009B1B7B8DF81330009B00221A7399
:107C740000990198FFF7C2FE0023059314E0059ACA
:107C8400029B9A4209D2039A059B13441B781A4615
:107C94002449009803F05AFB03E02349009803F0B9
:107CA40055FB059B01330593059B072BE7D91F491A
:107CB400009803F04BFB0023059322E0059A029BF6
:107CC4009A4217D2039A059B13441B788DF81230FD
:107CD4009DF81230184617F0AFF90346002B02D076
:107CE4009DF8123000E02E231A461149009803F043
:107CF4002DFB03E00F49009803F028FB059B01339B
:107D04000593059B072BD9D9012200990198FFF708
:107D1400CDFE009B9DF813201A7300E000BF07B04E
:107D24005DF804FBF8F6030000F7030004F7030012
:107D340008F703000CF703002DE9F04F89B0019018
:107D440000238DF81F3098E0514B1A689DF81F30BE
:107D5400DB0013440693069B1B7819464FF001027F
:107D64004FF00003A1F1200EC1F1200003FA01F944
:107D740002FA0EFE49EA0E0922FA00F049EA000965
:107D840002FA01F8CDE90489424BD3E90001DDE9A7
:107D9400042302EA000203EA0103134368D0DDE985
:107DA40004236FEA02006FEA03013A4BD3E900238C
:107DB40002EA000203EA01033649C1E90023069BF3
:107DC4001B78184606F0EAFB03468DF80F30069B35
:107DD4001B7819464FF001024FF00003A1F1200E69
:107DE400C1F1200003FA01F502FA0EFE45EA0E0580
:107DF40022FA00F0054302FA01F4274BD3E90023E9
:107E040004EA020A05EA030B9DF80F204FF0000371
:107E140006990978A1F1200EC1F1200003FA01F7B7
:107E240002FA0EFE47EA0E0722FA00F0074302FAAE
:107E340001F6BB4508BFB2451AD19DF80F30069A2A
:107E44005278012A0CBF01220022D2B293420CBF05
:107E540001230023DBB20293069B5B68002B07D04F
:107E6400069B5B68069A12780299C9B21046984735
:107E74009DF81F3001338DF81F30084B1B789DF897
:107E84001F209A42FFF460AF00BF09B0BDE8F08F35
:107E94004432002078320020703200204832002022
:107EA40070B586B001900A468DF803204FF00101A9
:107EB4004FF000020198A0F12006C0F1200502FA5B
:107EC40000F401FA06F6344321FA05F52C4301FACD
:107ED40000F3CDE904342F4B184600F0D3FE039091
:107EE400039B002B53D12C4BD3E90012DDE904345E
:107EF40003EA010304EA0204234337D1019806F09C
:107F04004DFB0346002B0CD0244BD3E90012DDE9D2
:107F1400043443EA010344EA0204204AC2E9003477
:107F24000FE0DDE904346FEA03016FEA04021B4B3E
:107F3400D3E9003403EA010304EA0204174AC2E95C
:107F44000034154BD3E90012DDE9043443EA01039C
:107F540044EA0204104AC2E900340E48104B1B687C
:107F64000022194600F05CFE039011E0DDE90434C0
:107F74006FEA03016FEA0402074BD3E9003403EA12
:107F8400010304EA0204044AC2E9003400E000BF29
:107F940006B070BD503200207832002070320020CC
:107FA4004C32002010B58AB003900B4601928DF834
:107FB4000B30019B042B01D807235AE006F0E0F9AB
:107FC400034683F00103DBB2002B09D006F086F9E7
:107FD4000990099B0893089B002B01D0089B48E05B
:107FE400254A039B1360254A9DF80B301370244ADD
:107FF400019B1360234A4FF000034FF00004C2E9D1
:108004000034214A4FF000034FF00004C2E9003469
:1080140022E09DF80B30DB00039A1344079305AB71
:1080240000210A461A800A469A7003238DF81430F8
:10803400079B9B788DF81530079B1B78184605AB7A
:10804400124A194606F0A8F90990099B0693069B63
:10805400002B01D0069B0CE09DF80B305A1E8DF8C6
:108064000B20002BD5D10A4A00210A4800F0A8FDB4
:10807400034618460AB010BD44320020483200209E
:108084004C3200207032002078320020A57E02009D
:108094003D7D020010F7030000B583B0114B1B684F
:1080A400002B03D11049BA20FEF7B0F90023019345
:1080B4000CE00C4B1A68019BDB0013441B78012174
:1080C400184606F0E3F9019B01330193074B1B7833
:1080D4001A46019B9A42ECD80023184603B05DF877
:1080E40004FB00BF4432002014F703004832002090
:1080F40000B583B002900091019244F201007146F0
:108104006A46FEF7C7FA03B000BD00BF82B003465B
:108114008DF8073007499DF907305B099DF8072062
:1081240002F01F02012000FA02F241F8232000BFEE
:1081340002B0704700E100E082B003468DF80730DA
:1081440008499DF907305B099DF8072002F01F02DA
:10815400012000FA02F2203341F8232000BF02B0CC
:10816400704700BF00E100E082B003468DF807309D
:1081740008499DF907305B099DF8072002F01F02AA
:10818400012000FA02F2403341F8232000BF02B07C
:10819400704700BF00E100E082B003468DF807306D
:1081A40008499DF907305B099DF8072002F01F027A
:1081B400012000FA02F2603341F8232000BF02B02C
:1081C400704700BF00E100E082B0034600918DF8E3
:1081D40007309DF90730002B0CDA0D499DF8073064
:1081E40003F00F03043B009AD2B25201D2B20B4403
:1081F4001A7609E007499DF90730009AD2B2520174
:10820400D2B20B4483F8002300BF02B0704700BF12
:1082140000ED00E000E100E000B585B00190019BB5
:10822400002B0AD0074B43F001030393019B9B01EE
:108234000293039B0298984700E000BF05B05DF8E5
:1082440004FB00BF60F7030000B583B00190064A49
:10825400019BC2F8083507211120FFF7B5FF00BFC5
:1082640003B05DF804FB00BF0010014008B50D4BDE
:108274004FF48032C3F844230A4B4FF48032C3F8DE
:1082840004231120FFF788FF1120FFF73FFF054B60
:1082940001221A602F20FFF7BFFF034B01221A703F
:1082A40000BF08BD001001409E33002008B5112016
:1082B400FFF742FF0E4B4FF48032C3F848230C4BB8
:1082C4004FF48032C3F80823094B01225A602F204F
:1082D400FFF7A2FF064B01229A60064B00221A60A8
:1082E4002F20FFF799FF044B00221A7000BF08BD2E
:1082F40000100140903300209E330020024BD3F83D
:1083040004351846704700BF0010014082B0019048
:108314000091019A009BD31A23F07F43184602B0C0
:108324007047000082B00190034A019BC2F84035B7
:1083340000BF02B0704700BF0010014086B001903A
:10834400284B1B68002B03D1264A019B136045E090
:10835400019B1A68234B1B681B689A4210D8214B57
:108364001B68204A12681168019A12688A1A1A60F6
:108374001C4B1A68019BDA611A4A019B13602DE0B9
:10838400019B1B680393174B1B680593154B1B68D4
:10839400049309E0049B1B68039AD31A0393049B78
:1083A4000593049BDB690493049B002B04D0049B7A
:1083B4001A68039B9A42EDD3049B002B05D0049BBF
:1083C4001A68039BD21A049B1A60019B039A1A60D1
:1083D400019B049ADA61059B019ADA6100BF06B039
:1083E400704700BF8C33002000B587B001902A4B42
:1083F4001B680393284B1B680593059B049308E0B3
:10840400049A019B9A4208D0049B0593049BDB6960
:108414000493049B002BF3D100E000BF049B002BCA
:1084240001D1002333E0059A049B9A4214D11A4BDC
:108434001B68DB69184A1360174B1B68002B0BD1B0
:10844400164B01229A60164B00221A60154B01222A
:108454001A702F20FFF7E0FE049B1B680293049B15
:10846400DA69059BDA61059BDB690493049B002BA5
:1084740005D0049B1A68029B1A44049B1A60064B9D
:108484001B68039A9A4214BF01230023DBB21846E7
:1084940007B05DF804FB00BF8C33002000100140DE
:1084A400903300209F33002008B51120FFF75CFEB5
:1084B40000BF08BD08B51420FFF756FE00BF08BD75
:1084C40000B583B00190019B5B69019A92691046E3
:1084D400984700BF03B05DF804FB000000B585B009
:1084E4002B4B1B68002B4ED000230193FFF706FF94
:1084F4000246284B1B6819461046FFF707FF0290F7
:10850400234B1B6803931DE0039B1A68029B9A424A
:108514001CD8039B1B68029AD31A0293039B1B6803
:10852400019A13440193039B0093039BDB69039318
:10853400009B1B7C002B05D0009B00221A74009822
:10854400FFF7BEFF039B002BDED100E000BF124B00
:108554001A78124B1B789A420CD1104B1B780133BA
:10856400DAB20E4B1A700D4B1B78022B02D10B4B57
:1085740000221A70094B1B781946094A019B42F8DC
:108584002130FFF797FF00BF05B05DF804FB00BF83
:108594008C330020903300209C3300209D33002036
:1085A4009433002082B00190184B1A78184B1B7832
:1085B4009A4223D0154B1B780133DAB2134B1A704D
:1085C400124B1B78022B02D1104B00221A700F4B56
:1085D4001B781A460F4B53F82220019B1A60019B0B
:1085E4001A680D4B1B6813440B4A13600A4B1B6833
:1085F40023F07F43084A1360012303E0019B002218
:108604001A600023184602B0704700BF9C33002054
:108614009D330020943300209033002088B00390D1
:10862400029101920023079338E0204B1B680693C4
:10863400069B1A68039B9A4206D9069B1A68039BF9
:10864400D21A069B1A602DE0069B1B68039AD31A64
:108654000393069B1B68079A13440793069B002207
:108664001A60124B1B680593069BDB690F4A136063
:10867400069BDB68002B11D0029A079B134423F05E
:108684007F42069B5A60069BDA68069B9A60019BB0
:108694001A68069BDA61019B059A1A60034B1B68F2
:1086A400002BC2D100BF08B0704700BF8C3300203C
:1086B40000B589B0019000238DF81F30664B1B680C
:1086C4000593AAE0019B002B05D0019B0693069B12
:1086D400DB69019361E0614B1B781A4613465B002A
:1086E4001344DB005D4A1344043304935B4B1B784F
:1086F4000133DAB2594B1A70584B1A78574B9B789E
:108704009A4202D1554B00221A70049B5B6806936F
:10871400049B1B78022B04D0032B1BD0012B1FD0EE
:108724001DE0049B5B681846FFF75EFE0346002BC2
:1087340002D001238DF81F30069B00221A746CE0CE
:10874400454B1B680393039B00221A74039BDB694C
:10875400414A1360404B1B68002BF1D15DE05CE0A3
:1087640000BF069B1B7C002B00D056E0049B9A683C
:10877400069B5A60049BDA68069B9A60049B1A69FC
:10878400069BDA60049B5A69069B9A61344B1B78FA
:10879400002B02D0069B00225A60069B5A68314B7C
:1087A4001B68D31A23F07F432F4A93420ED8069BAB
:1087B4005A682C4B1B6819461046FFF7A7FD024662
:1087C400069B9B681A44069B1A6017E0254B1A689F
:1087D400069B5B6819461046FFF798FD0290069BBE
:1087E4009A68029B9A4206D9069B9A68029BD21AFF
:1087F400069B1A6002E0069B00221A60069B002278
:108804005A60069B00229A60069B01221A74069BFA
:108814000022DA610698FFF791FD019B002B7FF49B
:1088240051AF0E4B1A780D4B5B789A427FF44AAFE6
:108834009DF81F30002B04D1074B1A68059B9A4200
:1088440001D0012300E0002303F00103DBB218464A
:1088540009B05DF804FB00BF8C3300208032002097
:108864009F33002090330020FEFF7F0010B588B0B6
:108874000190274B1B68002B44D0254B1B681B68B9
:108884000793FFF73BFD0690224B1B680593059960
:108894000698FFF73BFD0346033304931E4B1B78F6
:1088A40083F00103DBB2002B01D0FFF7DFFC049A55
:1088B400079B934238BF1346059A13440593059BBF
:1088C40023F07F4305930598FFF72CFDFFF716FD72
:1088D400039006990398FFF719FD0346DC1C0699DB
:1088E4000598FFF713FD03469C420DD9FFF706FDDB
:1088F40003461846FFF716FD2F20FFF78DFCFFF700
:10890400D3FD01E0FFF7D2FC00BF08B010BD00BFEB
:108914008C330020903300209E33002000B587B0B4
:108924000023019300238DF81730194B1B6804931F
:10893400184B1B6803936B461846FFF733FE034638
:108944008DF80B309DF80B30002B08D0009B01AA4A
:1089540004991846FFF762FE01238DF81730019B36
:108964001846FFF7A5FE0346002B02D001238DF81D
:1089740017309DF81730002B02D00398FFF776FFCD
:10898400054B00221A7000BF07B05DF804FB00BF5E
:10899400903300208C3300209F33002082B00346A4
:1089A4008DF80730034A9DF80730537000BF02B0BA
:1089B400704700BF8032002084B00190144B5B7874
:1089C40001338DF80F30124B9B789DF80F209A429B
:1089D40002D100238DF80F300D4B1B789DF80F202A
:1089E4009A4201D100230FE0019B9DF80F201A70D9
:1089F400074B5B781A4613465B001344DB00044ABA
:108A0400134404330293029B184604B0704700BF1A
:108A14008032002000B589B0039002910192009346
:108A24000023079300238DF816300DF11603184622
:108A340000F0BCF90DF117031846FFF7BDFF0690CF
:108A4400069B002B02D10423079318E0069B012206
:108A54001A70069B039A5A60FFF750FC0246069B65
:108A64009A60069B029ADA60069B019A1A61069B39
:108A7400009A5A619DF817301846FFF78FFF9DF84A
:108A84001630184600F0A8F9079B002B01D1FFF718
:108A940011FD079B184609B05DF804FB00B587B0CB
:108AA40001900B468DF803300023059300238DF8C5
:108AB4000E300DF10E03184600F078F90DF10F0396
:108AC4001846FFF779FF0490049B002B02D104237E
:108AD40005930BE0049B9DF803201A70049B019AF4
:108AE4005A609DF80F301846FFF758FF9DF80E3076
:108AF400184600F071F9059B002B01D1FFF7DAFC51
:108B0400059B184607B05DF804FB000008B50E4B42
:108B14000022C3F840210C4B0022C3F844210A4B25
:108B24000022C3F84821084B0022C3F84C21064B0D
:108B34000022C3F80021044B0022C3F80421FFF7EC
:108B4400CDFC00BF08BD00BF0010014008B5FFF711
:108B5400E5FE00BF08BD000008B5FFF7A7FB134BF7
:108B640000221A70114B00225A70104B0B229A707B
:108B74000F4B00221A600F4B00221A700E4B00227A
:108B84001A701420FFF708FB07211420FFF71CFBC1
:108B94001420FFF7BBFA0020FFF756FBFFF7AEFBEC
:108BA4000246064B1A600023184608BD8032002096
:108BB4008C3300209C3300209D3300209033002010
:108BC40086B003900B4601928DF80B30134B9B78C3
:108BD400002B01D108231EE0019B002B01D10723A8
:108BE40019E0039B002B01D1072314E0039B1B68AE
:108BF4001B7C002B01D008230DE0039B1B6805930D
:108C0400059B00221A74059B9DF80B205A74059B42
:108C1400019A5A610023184606B07047803200203A
:108C240000B587B0039002910192039B0593144B06
:108C34009B78002B01D108231EE0039B002B01D15C
:108C4400082319E0029B042B01D8072314E0059B99
:108C54005B69002B01D108230EE0059B5B7C012B93
:108C640001D1029B00E000230493019B049A029922
:108C74000598FFF7CFFE0346184607B05DF804FBDE
:108C84008032002000B585B00190019B03930D4B09
:108C94009B78002B01D1082310E0019B002B03D00B
:108CA400039B5B69002B01D1082307E0039B00228F
:108CB4001A7402210398FFF7F1FE0346184605B023
:108CC4005DF804FB8032002082B0EFF31083009340
:108CD400009B019372B6019B184602B0704762B6BE
:108CE40000BF704700B585B00190FFF7EDFF03901A
:108CF400164B9B68002B1BD1144B01229A60144B1A
:108D0400D3F88020134B1340104A1360104B114AC0
:108D1400C3F880200E4BD3F884300C4A53600C4BBC
:108D24004FF0FF32C3F88420019B00221A7002E046
:108D3400019B01221A70039B002B01D1FFF7CFFF87
:108D44000023184605B05DF804FB00BFA0330020E3
:108D540000E100E0FC06FFBD00B585B003468DF8D8
:108D64000730104B9B68002B16D09DF80730002B62
:108D740012D1FFF7A9FF03900B4A0A4B1B6813603B
:108D8400094A084B5B685360064B00229A60039BB8
:108D9400002B01D1FFF7A3FF0023184605B05DF8AF
:108DA40004FB00BFA033002000E100E000B583B065
:108DB400019000F02BF80346012B03D00549432012
:108DC400FDF724FB0198FFF78DFF00BF03B05DF8AA
:108DD40004FB00BF68F7030000B583B003468DF8B9
:108DE400073000F013F80346012B03D00649512045
:108DF400FDF70CFB9DF807301846FFF7ADFF00BFE9
:108E040003B05DF804FB00BF68F7030084B0EFF320
:108E140005830193019BC3F308030393039B002B76
:108E24000DD1EFF314830093009B0293029B03F094
:108E34000103002B0CBF01230023DBB200E001235C
:108E4400184604B0704782B00190019B03F00303FD
:108E5400002B0CBF01230023DBB2184602B070477D
:108E640000B585B00190002303930EE00A4A039BEA
:108E740052F82330002B05D0074A039B52F82330C5
:108E840001989847039B01330393039B032BEDD96C
:108E940000BF05B05DF804FBBC33002082B0019034
:108EA4000091019B1B78013B052B61D801A252F86C
:108EB40023F000BFD18E0200D98E0200FF8E020083
:108EC400318F0200518F02006D8F0200009B00223F
:108ED4001A704EE0009B01221A70019B1A89009BB4
:108EE4009A81019B9A88009BDA81019BDA68009B36
:108EF4009A60009B00221A743BE0009B02221A70C5
:108F0400019B1A89009B9A81019B9A88009BDA81B4
:108F1400019BDA68009B9A60019B9B7D062B0CBF2A
:108F240001230023DAB2009B1A7422E0009B03227F
:108F34001A70019BDA88009B9A81019B1A89009B15
:108F4400DA81019BDA68009B9A6012E0009B04229C
:108F54001A70019BDA88009B9A81009B0022DA81B7
:108F6400009B00229A6004E0009B05221A7000E036
:108F740000BF00BF02B0704784B001900091019B14
:108F84000393039A009B9A4206D2039B1B68B3F196
:108F9400FF3F01D0012300E0002303F00103DBB213
:108FA400184604B0704782B00190019B5B8803337C
:108FB4009B00019A1344184602B0704700B583B071
:108FC400019000910198FFF7EEFF0246009B9A4240
:108FD40001D902230CE0019B9B884FF6FF72934258
:108FE40003D0019B1B88002B01D1012300E0002347
:108FF400184603B05DF804FB00B583B00190019BF3
:10900400002B13D00D4BDB681A46019B9A420DD8F6
:109014000A4B1B691A46019B9A4207D30198FFF732
:1090240012FF0346002B01D0012300E0002303F0CC
:109034000103DBB2184603B05DF804FBE82B002003
:1090440082B00190019B002B04D0019B1B680B4A4A
:10905400934201D003230DE0019B04331B68084AAB
:10906400934204D0074A934203D1012302E0002330
:1090740000E00323184602B0704700BFDEC0ADDE37
:10908400FE011EF1FF011EF184B001900023039341
:109094000CE0039B9B00019A13441B68B3F1FF3F50
:1090A40001D0002307E0039B01330393039BB3F533
:1090B400806FEED30123184604B0704782B0034694
:1090C4000A46ADF806301346ADF80430BDF8062064
:1090D400134913469B0013449B000B4408331A881E
:1090E400BDF804301344ADF80430BDF806200C4933
:1090F40013469B0013449B000B440A331A88BDF8A3
:1091040004301344ADF80430BDF8043040F2FF32AB
:10911400934294BF01230023DBB2184602B0704788
:109124005C34002084B0019000910A23039300234F
:10913400ADF80A3027E0BDF80A20174913469B0012
:1091440013449B000B4404331A68009B9A4215D2C3
:10915400BDF80A20104913469B0013449B000B449E
:1091640004331B6803F58052009B9A4206D90023FE
:109174000393019BBDF80A201A8008E0BDF80A3069
:109184000133ADF80A30BDF80A30012BD3D9039B63
:10919400184604B0704700BF5C34002000B589B0A5
:1091A400039002910192039B03F580530693039B62
:1091B40008330393029B02221A80039B079332E035
:1091C40006990798FFF7FAFE03468DF817309DF8C5
:1091D4001730002B0AD1079B9A68184B1B689A42D8
:1091E40013D9079B9B68154A13600EE0019B002B63
:1091F40002D0019B01221A709DF81730022B04D172
:10920400029B4FF480621A8014E0029B1A88079B29
:109214005B8813449BB203339AB2029B1A8007986B
:10922400FFF7C1FE079006990798FFF7A5FE0346CE
:10923400002BC5D109B05DF804FB00BFCC3300207E
:1092440082B001900091009B9B7D022B09D9019B68
:109254001A89009BDB8813449BB203339AB2019BA7
:109264001A81019B5A89009BDB88D31A9BB2033B6A
:109274009AB2019B5A8100BF02B0704700B583B017
:10928400074B1B681946002300930823054A064828
:1092940002F09EFC0346184603B05DF804FB00BFD1
:1092A4008434002000F80300E82B002000B585B0CA
:1092B40003900399002300930823044A044802F00E
:1092C40087FC0346184605B05DF804FB08F8030064
:1092D400E82B002000B585B003460091ADF80630B8
:1092E40000238DF80F30BDF806300333ADF80A3093
:1092F400BDF80A3040F2FD32934201D909234AE015
:109304000023ADF80C303BE0BDF80C202449134693
:109314009B0013449B000B441B78002B2BD1BDF8FE
:109324000A20BDF80C3011461846FFF7C7FE034665
:10933400002B20D001238DF80F30009BBDF80C20AA
:109344001A80BDF80C20BDF80C1015480B469B0084
:109354000B449B0003440A331988BDF80A300B44BC
:1093640098B20F4913469B0013449B000B440A33E5
:1093740002461A8008E0BDF80C300133ADF80C3019
:10938400BDF80C30012BBFD99DF80F30002B01D054
:10939400002300E00723184605B05DF804FB00BF76
:1093A4005C34002082B003460A46ADF8063013460A
:1093B400ADF80430BDF80420BDF804100C480B4689
:1093C4009B000B449B0003440A331988BDF8063004
:1093D400CB1A9BB2033B98B2054913469B00134436
:1093E4009B000B440A3302461A8000BF02B0704748
:1093F4005C34002008B50121024801F020FE034638
:10940400184608BDCC33002000B585B00346009152
:10941400ADF80630BDF80620234913469B001344DB
:109424009B000B4404331B6803F580530293009B99
:109434001B680393039B002B04D00398FFF7B3FD31
:10944400039024E0BDF80620174913469B001344FB
:109454009B000B4404331B680833039317E0029901
:109464000398FFF7ABFD0346012B09D0022B0CD068
:10947400002B00D00BE0009B039A1A6001230EE03E
:109484000398FFF790FD039001E0002307E00299A1
:109494000398FFF771FD0346002BE0D10023184623
:1094A40005B05DF804FB00BF5C34002000B585B056
:1094B40001900091019B5B681846FFF79DFD0346F0
:1094C400002B19D0019B1A89244B1B899A4213D172
:1094D400019B1A68019B5B689B689A420CD1019BB3
:1094E4005B6819460098FFF71DFE0346002B0CBF6E
:1094F40001230023DBB22CE0009B00221A8023E02E
:109504000023029310E0029B0393039B9A68019B40
:109514001B689A4208D1029A019B5A600F4B1A8920
:10952400019B1A81012314E0009B1B8802AA1146A7
:109534001846FFF769FF0346002BE4D1009B1B8804
:1095440001339AB2009B1A80009B1B88012BD7D948
:109554000023184605B05DF804FB00BF8C340020DE
:1095640000B587B00390029101920093304B1B78B1
:10957400DBB283F00103DBB2002B01D0022353E002
:10958400019B002B02D0009B002B48D105234BE00C
:10959400009B9B881946274A0B469B000B449B0063
:1095A40013441B78002B33D124E0009B1B680593E4
:1095B400039B002B06D0059B9A88039B1B889A4229
:1095C40000D017E0029B002B06D0059B1A88029B53
:1095D4001B889A4200D00DE0059B9A68019B1A6093
:1095E400009B1A68019B5A60134B1A89019B1A81CC
:1095F400002319E0009B9B88009A11461846FFF748
:1096040003FF0346002BD0D1009B00221A6000E028
:1096140000BF009B9B8801339AB2009B9A80009BF9
:109624009B88012BB4D90A23184607B05DF804FBC4
:10963400AC3300205C3400208C34002000B585B0AD
:109644000190084B0199184601F057FB03901C2226
:109654000021039815F072FD039B184605B05DF8D0
:1096640004FB00BF542C002000B583B00190044BD0
:109674000199184601F05AFB00BF03B05DF804FBE2
:10968400542C002000B583B00190054B0199184675
:1096940001F060FB0346184603B05DF804FB00BF0D
:1096A400542C002000B583B00190044B0199184656
:1096B40001F069FB00BF03B05DF804FB542C0020EB
:1096C40008B50A4B1B68002B04D1094940F27A20E3
:1096D400FCF79CFE0121054801F0C9FC0346002B60
:1096E40014BF01230023DBB2184608BDB4330020A5
:1096F400C4F7030000B587B0002305930023ADF839
:1097040012300323ADF8103000238DF80F300023FE
:10971400ADF80C30F0E0BDF80C301B031A467F4B5B
:10972400DB68134402930298FFF78AFC03468DF822
:1097340007309DF80730012B00F09C80032B02D0EA
:10974400002B62D0D3E00298FFF79EFC0346002B67
:109754003BD0734B1B68002B29D0BDF812207149F4
:1097640013469B0013449B000B4402221A70BDF85D
:1097740012206C4913469B0013449B000B44043392
:10978400029A1A60BDF81220664913469B001344DE
:109794009B000B44083302221A80634ABDF812303E
:1097A4005380BDF812300133ADF8123008E05C4A42
:1097B400029B13605A4B02229A8001238DF80F30CA
:1097C400059B43F00103059391E0BDF81030013B84
:1097D400ADF81030BDF81220524913469B001344D3
:1097E4009B000B440433029A1A60BDF812204D49C1
:1097F40013469B0013449B000B4403221A70BDF8CC
:1098040012300133ADF8123071E0BDF81220454931
:1098140013469B0013449B000B4400221A70BDF8AE
:109824001220404913469B0013449B000B4404330D
:10983400029A1A60BDF8122013469B0013449B0041
:109844000833384A9918BDF8122013469B00134474
:109854009B001033334A13441A460298FFF79EFCC8
:10986400059B43F002030593BDF812300133ADF8B4
:1098740012303CE09DF80F30002B25D0BDF81220AB
:10988400284913469B0013449B000B4402221A7080
:10989400BDF81220224B1968224813469B0013443A
:1098A4009B00034404331960BDF812201D4913467C
:1098B4009B0013449B000B44083302221A80BDF81A
:1098C40012300133ADF81230154A029B13600022A6
:1098D40016490298FFF762FC114B9B88022B01D1B9
:1098E400042300E00823059A1343059300BFBDF841
:1098F4000C300133ADF80C30BDF80C30022B7FF680
:109904000AAFBDF81030012B01D800230593059B45
:10991400DBB2184607B05DF804FB00BFE82B00205B
:10992400843400205C3400208C34002088340020EF
:1099340000B587B003900291039B02229A750299A5
:10994400039B1A1D002300930423074802F040F9E7
:109954000590059B002B01D1002300E00E2318463F
:1099640007B05DF804FB00BFE82B002000B587B00A
:1099740003900291039B1B69002B01D0032200E09A
:109984000122039B9A75029B08331946039B03F13A
:109994000C02002300930423064802F019F90590F1
:1099A400059B002B01D1002300E00E23184607B0CD
:1099B4005DF804FBE82B002000B587B0039002910A
:1099C400039B1B78032B01D1052200E00622039B95
:1099D4009A75029B04331946039B03F10802002382
:1099E40000930423064802F0F3F80590059B002B2E
:1099F40001D1002300E00E23184607B05DF804FBF4
:109A0400E82B002000B587B003900B46ADF80A3070
:109A140003990023009304230C4A0D4802F0D8F85C
:109A24000590059B002B01D00E230BE0BDF80A2006
:109A3400084913469B0013449B000B441033012236
:109A44001A700023184607B05DF804FB10F80300F1
:109A5400E82B00205C34002000B589B0019002ABF3
:109A640000221A605A609A60019BDB6802930DF130
:109A7400160202AB11461846FFF718FD0346002BE9
:109A840012D0039B0693069B9A88019BDA80069B5F
:109A94001A88019B1A81039BBDF8162011461846AB
:109AA400FFF7B0FF079001E00A230793079B1846CE
:109AB40009B05DF804FB000000B587B00190019B7C
:109AC400981D02AA0D4B0021FFF74AFD0590059B46
:109AD400002B08D1039A094B9B8819461046FFF7BF
:109AE40091FF059004E008220021044815F026FBAC
:109AF400059B184607B05DF804FB00BF9C340020AA
:109B040000B587B003900291039B01229A75029BD2
:109B14000C331846039B1A69039BDB8899000023C6
:109B240000930B460146074802F052F80590059B46
:109B3400002B01D1002300E00E23184607B05DF886
:109B440004FB00BFE82B002082B0174B1B890133B4
:109B54009AB2154B1A81144B00225A80124B0022E0
:109B64001A730023ADF8063017E0BDF80610BDF8EF
:109B740006200E4813469B0013449B0003441B78A5
:109B8400002B0CBF01230023DAB2074B0B449A725B
:109B9400BDF806300133ADF80630BDF80630012BB0
:109BA400E3D900BF02B070478C3400205C3400203D
:109BB40084B0019000238DF80F300023ADF80C30F1
:109BC40031E0BDF80C301C4A13449B7A002B25D09D
:109BD400BDF80C30184A134400229A72BDF80C20C8
:109BE400164913469B0013449B000B440C331B681B
:109BF400002B13D1BDF80C20104913469B001344CD
:109C04009B000B4410331B78002B07D0019BBDF83D
:109C14000C201A8001238DF80F3008E0BDF80C30B9
:109C24000133ADF80C30BDF80C30012BC9D99DF8C7
:109C34000F30184604B070478C3400205C34002088
:109C440008B5084B05221A70074B02229A80064B6E
:109C54001B68194600230122044802F091F80346C8
:109C6400184608BD8C34002084340020E82B0020E2
:109C740000B583B0164B5B88ADF80230BDF8022006
:109C8400144913469B0013449B000B440C331B687C
:109C9400002B14D10E4B04221A70BDF802200D497A
:109CA40013469B0013449B000B4404331B68194662
:109CB40000230122084802F063F8019002E0FFF754
:109CC400BFFF0190019B184603B05DF804FB00BF81
:109CD4008C3400205C340020E82B002000B587B0D1
:109CE400114B5B680593114B1A68104B9B889B00C2
:109CF40013440493059B5B880333ADF80E300A4B81
:109D040003221A700499084B5A68BDF80E30980063
:109D1400002300930346064801F05AFF0346184601
:109D240007B05DF804FB00BF8C34002084340020AD
:109D3400E82B002000B583B00A4B5B880A4918461B
:109D4400FFF762FB0346002B03D0FFF7C7FF019028
:109D540002E0FFF78DFF0190019B184603B05DF808
:109D640004FB00BF8C3400209034002008B50A4B5B
:109D740006221A70084B5B881946084A0B469B005A
:109D84000B449B00134404331B681846FFF78EFAF8
:109D94000346184608BD00BF8C3400205C34002004
:109DA40008B5054B07221A70034B00225A60FFF7CF
:109DB40065FA0346184608BD8C34002008B50D48E2
:109DC400FFF7F6FE034683F00103DBB2002B0BD052
:109DD400094B00221A70084B00225A80064B0022BD
:109DE4005A6041F61D5302E0FFF7A4FF03461846EC
:109DF40008BD00BF8E3400208C34002082B0094B93
:109E04005B680193019B5B880333ADF80230064B1A
:109E14009A88BDF8023013449AB2034B9A8000BF6B
:109E240002B070478C3400208434002082B0184B78
:109E34001B680193174B5B881946174A0B469B0016
:109E44000B449B00134404331B68114A1360114BE9
:109E54005B881946104A0B469B000B449B00134435
:109E64000433019A1A600B4B5B881946084B988897
:109E7400094A0B469B000B449B00134408330246DB
:109E84001A80034B02229A8000BF02B0704700BFC1
:109E9400843400208C3400205C34002008B51A4B34
:109EA4001B78072B2CD801A252F823F0D19E020074
:109EB400059F0200059F0200DD9E0200E99E02004C
:109EC400F59E0200F59E0200FD9E0200FFF73CFE97
:109ED4000D4B01221A7014E0FFF790FF0A4B022287
:109EE4001A700EE0FFF7A2FF074B06221A7008E073
:109EF400054B07221A7004E0034B01221A7000E09C
:109F040000BF00BF08BD00BF8C34002000B587B07F
:109F1400019000910F230593019B002B04D0624B09
:109F240000225A600123BBE0009B1B79032B00F243
:109F3400AB8001A252F823F04D9F02005B9F020008
:109F4400E99F020009A00200009B01221A71FFF799
:109F540095F905909BE000238DF813300023ADF8AC
:109F640010302BE0BDF81020504913469B001344D9
:109F74009B000B441B78022B1BD1BDF810204B49CE
:109F840013469B0013449B000B4400221A700123C8
:109F94008DF81330BDF81020444913469B00134438
:109FA4009B000B4404331B681846FFF77FF90590A8
:109FB40008E0BDF810300133ADF81030BDF81030B2
:109FC400012BCFD99DF8133083F00103DBB2002BB2
:109FD4005CD0354B01221A70334B00225A6041F693
:109FE4001D535DE0009B00221A71314B02229A80BE
:109FF4002F4B1B681946002301222E4801F0C0FE96
:10A00400059044E0009B00221A71294B1B681846F6
:10A01400FFF74CF90590284B5B88ADF80E30244BC4
:10A024001B680293BDF80E20204913469B0013447D
:10A034009B000B4404331B681D4A1360BDF80E20BB
:10A044001A4913469B0013449B000B440433029AA1
:10A054001A60BDF80E20164B9888144913469B00CD
:10A0640013449B000B44083302461A80104B02220F
:10A074009A80BDF80E200D4913469B0013449B00A3
:10A084000B4400221A7002E000BF00E000BF059BF1
:10A09400002B04D0044B00225A600E2300E000235E
:10A0A400184607B05DF804FBAC3300205C34002094
:10A0B40084340020E82B00208C34002000B587B0C5
:10A0C40001900091009B9B8A1A4613469B001344FF
:10A0D4009B003A4A13440493019B002B05D000993A
:10A0E4000498FFF7ADF8012363E0049B5A68049BCE
:10A0F4001B899B0013440393009B9B7D062B4DD827
:10A1040001A252F823F000BF4FA1020073A1020084
:10A114005BA1020067A1020029A102007FA1020045
:10A1240099A10200264B00225A60009B9B69244A95
:10A13400136024492248FFF7B9F9034683F0010369
:10A14400DBB2002B01D00A2333E003990098FFF718
:10A15400EFFB059025E003990098FFF707FC0590B5
:10A164001FE003990098FFF7CBFC059019E00399D1
:10A174000098FFF721FC059013E0009B06229A75D6
:10A184000F4B5A680F4B1B8819461046FFF73AFCD1
:10A19400059006E041F61D53059302E00F23059355
:10A1A40000BF059B002B03D000990498FFF748F8E3
:10A1B400059B184607B05DF804FB00BF5C34002023
:10A1C400A4340020B034002000B585B00190009183
:10A1D400019B002B01D0012323E0009B1B79012B61
:10A1E4000BD0022B14D0002B16D1009B02221A7123
:10A1F4000098FFF731FC039012E00098FFF75CFC35
:10A204000390039B0A2B0AD141F61D53039306E0E6
:10A2140041F61D53039303E00F23039300E000BFB3
:10A22400039B184605B05DF804FB000000B585B03B
:10A234000190019B002B01D001233BE01F4B1B7BB2
:10A24400002B03D01D4B00221A7301E0FFF726FEFA
:10A254001A4B1B78013B062B28D801A252F823F095
:10A2640081A2020089A2020091A2020099A2020026
:10A27400B1A20200A1A20200A9A20200FFF79EFD62
:10A28400039016E0FFF756FD039012E0FFF726FD5A
:10A2940003900EE0FFF7ECFC03900AE0FFF766FD85
:10A2A400039006E0FFF77CFD039002E00F23039385
:10A2B40000BF039B184605B05DF804FB8C340020F6
:10A2C40000B589B001903F4B1B68002B05D13E4877
:10A2D400FFF7D8F902463B4B1A603A4B1B68002B38
:10A2E40004D13A4940F28250FCF790F8354B1B6890
:10A2F4001B78013B052B2CD801A252F823F000BF98
:10A304001DA302002DA302002DA302003DA3020001
:10A314003DA302004DA302002A4B1B681946019875
:10A32400FFF7F4FD019017E0264B1B6819460198CE
:10A33400FFF7C4FE01900FE0224B1B6819460198F9
:10A34400FFF742FF019007E00198FFF76FFF0190CC
:10A3540002E00F23019300BF019B002B2BD003AB22
:10A3640000221A605A609A60DA601A61019B41F611
:10A374001D52934201D0019B00E000230493114B32
:10A384001B6803AA11461846FEF788FD03AB18465E
:10A39400FEF766FD0B4B00221A60002301930A4866
:10A3A400FFF780F9FFF78CF9034683F00103DBB272
:10A3B400002B02D187E700BF00E000BF00BF09B057
:10A3C4005DF804FBB4340020B8340020C4F7030063
:10A3D40008B50121054800F01AFE0346002B02D1FE
:10A3E4000020FFF76DFF00BF08BD00BFB43300209D
:10A3F40000B583B00190019B5B681846FFF760FFCE
:10A4040000BF03B05DF804FB00B58BB0039002916C
:10A4140001928DF803300023ADF824300023ADF809
:10A424002630514B1B78DBB283F00103DBB2002BE7
:10A4340001D0022393E0029B002B01D105238EE07F
:10A44400029B1B884FF6FF72934203D0029B5B88EA
:10A45400002B01D1042382E0029B5B681846FEF7BF
:10A46400F2FC034683F00103DBB2002B01D003238B
:10A4740075E0019B002B11D1029B9B68ADF826303F
:10A484000DF11A02BDF8263011461846FEF722FFD8
:10A494000890089B002B09D0089B60E0019B1B8857
:10A4A400ADF81A30019B5B88ADF8263005AB184631
:10A4B400FFF7C4F80790079B002B09D1BDF81A20B9
:10A4C400BDF8263011461846FEF76CFF082346E017
:10A4D400079B9DF803201A70079B00229A75BDF80C
:10A4E4001A20079B9A82029B5A68079B1A61FEF7FF
:10A4F40081FF0246079BDA60029B1A88079B1A8138
:10A50400029B5A88079B9A80079BBDF82620DA8015
:10A514009DF80330032B06D1079B04229A75039BF5
:10A524001A68079B9A61079BBDF824205A8105ABE2
:10A534001846FFF799F8039B002B0DD0039B0022CC
:10A544005A60079BDA68039B1A60039B00229A7285
:10A55400064B1A89039B1A81FFF73AFF002318461A
:10A564000BB05DF804FB00BFAC3300208C3400203A
:10A5740000B585B001900C4B1B68042B02D10C2351
:10A5840003930BE0084B1B680849019A41F8232008
:10A594000121054800F053FD00230393039B184653
:10A5A40005B05DF804FB00BFB8330020BC330020C5
:10A5B40084B04FF010235B6903934FF080531B6901
:10A5C40002934FF080535B690193039BB3F1FF3F08
:10A5D40004D1019B029A02FB03F300E0039B18469B
:10A5E40004B0704700B583B04FF440530193FFF7B4
:10A5F400DFFF0246054B1A61044B1A69019BD31A0B
:10A60400024AD36000BF03B05DF804FBE82B0020CE
:10A6140008B5FFF7E7FF00220349044801F094FA64
:10A624000346184608BD00BFF4FA0300E82B0020D7
:10A6340008B504481C238C22034900F017FB00BF13
:10A6440008BD00BF542C0020D033002000B58BB0CF
:10A6540002AB00221A605A609A60DA601A61404BB9
:10A664001B78DBB2002B05D002AB1846FEF7F8FBD3
:10A67400002371E03B4800F012FD0346002B01D09B
:10A68400002369E0FFF7C4FF0990099B002B01D068
:10A69400099B61E0FFF7CCFFFFF72CF803468DF828
:10A6A40023309DF82330022B0DD0062B0DD0002B28
:10A6B40009D000BF01AB1846FEF7C0FF0790079B07
:10A6C400002B10D10DE00B2346E0254B01221A701C
:10A6D400234B00225A6002AB1846FEF7C1FB00234D
:10A6E4003AE0082338E0079B01221A709DF82330D2
:10A6F400013B0A2B28D801A252F823F02DA702000F
:10A704004DA702002DA702004DA7020045A7020095
:10A714004DA7020045A702004DA7020035A702007D
:10A724003DA7020035A70200079B00221A710CE026
:10A73400079B03221A7108E0079B02221A7104E0A6
:10A74400079B01221A7100E000BF01AB1846FEF717
:10A754008BFFFFF73DFE002318460BB05DF804FBAA
:10A76400AC330020B033002000B585B001900091D7
:10A77400019B002B02D0009B002B01D1052329E073
:10A784000DF10A0319460198FEF790FE0346002BCB
:10A794001FD0019B5B680393BDF80A301A46134629
:10A7A4009B0013449B0008330C4A134404330121D7
:10A7B400184600F044FC009B039A1A60019B5B68F6
:10A7C40003F10C02009B5A60019B01229A72002340
:10A7D40000E00A23184605B05DF804FB5C34002051
:10A7E40000B585B00190019B002B01D1052339E010
:10A7F4000DF10A0319460198FEF758FE0346002B93
:10A804002DD0BDF80A301946184A0B469B000B445C
:10A814009B0013440C331B68002B1DD0019B9B7AB7
:10A82400002B19D0BDF80A301A46104913469B0074
:10A8340013449B000B440C331B68591E0B481346EE
:10A844009B0013449B0003440C331960019B0022BA
:10A854009A720023039304E00623039301E00A237E
:10A864000393039B184605B05DF804FB5C34002099
:10A8740000B585B001900B46ADF80230134B1B7840
:10A88400DBB283F00103DBB2002B01D0022319E019
:10A89400019B002B01D1052314E00DF10A02BDF840
:10A8A400023011461846FEF715FD0390039B002B5A
:10A8B40007D1BDF80A20019B1A80019BBDF8022034
:10A8C4005A80039B184605B05DF804FBAC330020A6
:10A8D40000B585B001901F4B1B78DBB283F00103F8
:10A8E400DBB2002B01D002232FE0019B002B01D10E
:10A8F40005232AE0019B1B88022B01D9042324E0B1
:10A90400019B1B881A4613469B0013449B00124A62
:10A9140013440293019B5B880333029A5289934246
:10A9240010DC019B5A88019B1B8819461046FEF7D0
:10A9340039FD019B00221A80019B00225A800023CA
:10A94400039301E004230393039B184605B05DF8C9
:10A9540004FB00BFAC3300205C34002000B583B09E
:10A96400019000910223002200990198FFF74CFD09
:10A974000346184603B05DF804FB00B585B00390A8
:10A9840002910192019B002B01D1052306E00223D1
:10A99400019A02990398FFF737FD0346184605B05C
:10A9A4005DF804FB00B583B001900091019B002B7E
:10A9B40001D1052306E00323002200990198FFF743
:10A9C40023FD0346184603B05DF804FB00B585B0CB
:10A9D4000346ADF80630184B1B78DBB283F0010355
:10A9E400DBB2002B01D0022322E0BDF806304FF683
:10A9F400FF72934201D104231AE002AB1846FEF71A
:10AA04001DFE0390039B002B01D1082310E0039B40
:10AA140005221A70039B01221A71039BBDF80620BC
:10AA2400DA8002AB1846FEF71FFEFFF7D1FC0023C5
:10AA3400184605B05DF804FBAC33002000B583B0C4
:10AA4400144B1B78DBB283F00103DBB2002B01D083
:10AA540002231AE06B461846FEF7F0FD0190019BB5
:10AA6400002B01D1082310E0019B06221A706B46CB
:10AA74001846FEF7F9FD084B1B78002B02D0064B55
:10AA840001221A73FFF7A4FC0023184603B05DF8F3
:10AA940004FB00BFAC3300208C34002000B585B02B
:10AAA400029201930346ADF80E300B46ADF80C301C
:10AAB40003A90DF10E00019B029AFEF751FD034616
:10AAC400184605B05DF804FB00B585B00346029155
:10AAD4000192ADF80E300DF10E01019B029A002097
:10AAE400FEF73EFD0346184605B05DF804FB00B5CD
:10AAF40085B0034602910192ADF80E300DF10E00BF
:10AB0400019B029A0021FEF72BFD0346184605B06F
:10AB14005DF804FB82B001900091019B002B02D0F0
:10AB2400009B002B01D1052304E0019B1A68009BC4
:10AB34001A600023184602B0704786B00190009155
:10AB4400019B53E8011F8AB2D88902449889824242
:10AB540028BF121A1889824202BFBFF32F8F002325
:10AB640007E0C2EA010243E801200028E9D14FF0DE
:10AB740001038DF80F30059002910492029A009B14
:10AB84001A609DF80F30DBB2184606B0704784B0E7
:10AB94000190019951E8013FC3EA034341E80132BE
:10ABA400002AF7D10392029300BF04B0704786B025
:10ABB40001900091019B53E8021F1FFAA1F2D8886B
:10ABC400824202BFBFF32F8F00230DE0D8890244D5
:10ABD4009889824228BF121AC1EA024243E802203D
:10ABE4000028E8D14FF001038DF80F300590029151
:10ABF4000492029A009B1A609DF80F30DBB218464B
:10AC040006B0704784B00190019951E8023FC3EA4D
:10AC1400234341E80232002AF7D10392029300BF92
:10AC240004B0704786B00190019B53E8021FDA8894
:10AC3400B1EB314F4FF0000017BF89B242EA024234
:10AC440041EA024204E05968B1EB314F08BF0120E8
:10AC540043E802210029E8D18DF80F000591049200
:10AC64009DF80F30DBB2184606B0704784B00390ED
:10AC7400029111461A460B46ADF806301346ADF85C
:10AC84000430029B002B01D10E231FE0BDF80630D7
:10AC9400BDF80420B3FBF2F102FB01F29B1A9BB254
:10ACA400002B01D0092311E0039B029A1A60039B35
:10ACB40000225A60039B00229A60039BBDF8062081
:10ACC4009A81039BBDF80420DA810023184604B05E
:10ACD400704700B585B001900198FFF7A3FF0346C4
:10ACE4008DF80F309DF80F30002B01D0002300E0C9
:10ACF4001123184605B05DF804FB00B585B001903A
:10AD04000091009B19460198FFF717FF0346002B9B
:10AD140007D0019B1B68009A128813440393039B7A
:10AD240000E00023184605B05DF804FB00B583B0CD
:10AD340001900091009B1A88009B5B889A4204D181
:10AD44000198FFF724FF012300E00023184603B015
:10AD54005DF804FB00B585B001900091009B194695
:10AD64000198FFF724FF0346002B07D0019B1B68C3
:10AD7400009A528813440393039B00E0002318466F
:10AD840005B05DF804FB00B583B001900091009B11
:10AD94001A88009B5B889A4204D10198FFF732FF1E
:10ADA400012300E00023184603B05DF804FB00B55E
:10ADB40085B001900091009B5B099B00019AD0181B
:10ADC400009B03F01F03012202FA03F3194600F06B
:10ADD400D6F8039000BF05B05DF804FB00B583B05E
:10ADE40001900091009B5B099B00019AD018009B85
:10ADF40003F01F03012202FA03F3194600F0A7F837
:10AE04000246009B03F01F0322FA03F303F001033D
:10AE1400002B14BF01230023DBB2184603B05DF8F6
:10AE240004FB00B585B001900091009B5B099B0079
:10AE3400019AD018009B03F01F03012202FA03F3C6
:10AE4400DB43194600F0CBF8039000BF05B05DF872
:10AE540004FB82B001900091009B5B099B00019A66
:10AE640013441A68009B03F01F0322FA03F303F050
:10AE74000103002B14BF01230023DBB2184602B0E8
:10AE8400704700B58BB001900091002309933BE01B
:10AE9400099B9B00019A13441B68DB430693069BA2
:10AEA40093FAA3F30593059BB3FA83F3089323E082
:10AEB400099B5A01089B13440793079A009B9A42E3
:10AEC4001ED207990198FFF789FF034683F0010317
:10AED400DBB2002B01D0079B1EE0099B9B00019A6B
:10AEE40013441B68DB430493049B93FAA3F3039377
:10AEF400039BB3FA83F30893089B1F2BD8D900E074
:10AF040000BF099B01330993009B013B5B095A1C59
:10AF1400099B9A42BCD8009B18460BB05DF804FB11
:10AF240010B487B001900091019B009A53E8004F40
:10AF3400104643E8000191F0000FF7D10594049006
:10AF44000391059B184607B05DF8044B704710B495
:10AF540087B001900091019B009A53E8004F44EAA6
:10AF6400020043E8000191F0000FF6D1059404902B
:10AF74000391059B184607B05DF8044B704710B465
:10AF840087B001900091019B009A53E8004F44EA76
:10AF9400020043E8000191F0000FF6D105940490FB
:10AFA4000391049B184607B05DF8044B704710B436
:10AFB40087B001900091019B009A53E8004F04EA86
:10AFC400020043E8000191F0000FF6D105940490CB
:10AFD4000391059B184607B05DF8044B704710B405
:10AFE40087B001900091019B009A53E8004F04EA56
:10AFF400020043E8000191F0000FF6D1059404909B
:10B004000391049B184607B05DF8044B704710B4D5
:10B0140087B001900091019B009A53E8004F04EB24
:10B02400020043E8000191F0000FF6D1059404906A
:10B034000391059B184607B05DF8044B704710B4A4
:10B0440087B001900091019B009A53E8004F04EBF4
:10B05400020043E8000191F0000FF6D1059404903A
:10B064000391049B184607B05DF8044B704710B475
:10B0740087B001900091019B009A53E8004FA4EB24
:10B08400020043E8000191F0000FF6D1059404900A
:10B094000391049B184607B05DF8044B704700B554
:10B0A40083B0019001210198FFF751FF0346184630
:10B0B40003B05DF804FB00B583B001900121019851
:10B0C400FFF75DFF0346184603B05DF804FB00B5C7
:10B0D40083B0019000210198FFF769FF03461846E9
:10B0E40003B05DF804FB000000B583B001900B468B
:10B0F4008DF80330019B002B03D10849E820FBF7AE
:10B1040085F9019BDA689DF803300199898A01FB6E
:10B1140003F31344184603B05DF804FB14F803006A
:10B1240000B583B001900091019B002B03D1084925
:10B13400F520FBF76BF9009B019AD2689B1A019AE0
:10B14400928AB3FBF2F3DBB2184603B05DF804FB5A
:10B1540014F8030000B585B00190019B002B01D1C8
:10B164000E234DE0019B1B68002B03D12649FF20D1
:10B17400FBF74CF9019B5B68002B04D122494FF487
:10B184008070FBF743F9019B9B68002B04D11E4997
:10B1940040F20110FBF73AF9019BDB68002B04D164
:10B1A40019494FF48170FBF731F9019B9B8A002BFD
:10B1B40004D1154940F20310FBF728F9019B9B6861
:10B1C4001A46019B5B68D31A8DF80F30019B1B68EC
:10B1D400019A52681A6007E0019B1A681368591CA7
:10B1E40011609DF80F201A709DF80F305A1E8DF8CB
:10B1F4000F20002BF0D1019B1B6800221A71002341
:10B20400184605B05DF804FB14F8030000B585B0DA
:10B214000190019B002B04D120494FF49270FBF75D
:10B22400F5F80023039300238DF80A300DF10A0387
:10B234001846FDF7BBFD019B1B681A68019B5B6800
:10B244009A4220D9019B1B681A68013A1A601B684C
:10B254001B7819460198FFF747FF0390019B9B68F1
:10B264001A46019B1B681B68D31A8DF80B30019B8F
:10B274001B681B799DF80B209A4204D9019B1B681B
:10B284009DF80B201A719DF80A301846FDF7A4FDAD
:10B29400039B184605B05DF804FB00BF14F80300D7
:10B2A40010B584B001900091019B002B04D1154985
:10B2B40040F24710FBF7AAF8009B002B04D1114978
:10B2C4004FF4A470FBF7A2F8009B039300238DF8BE
:10B2D4000B300DF10B031846FDF768FD019B1B684D
:10B2E4001C68621C1A6003990198FFF719FF034652
:10B2F40023709DF80B301846FDF76EFD00BF04B0B7
:10B3040010BD00BF14F8030000B583B00190019B89
:10B31400002B03D10C493120FBF778F8019B9B6883
:10B32400002B0CD0019B5B69019A1069019A11688A
:10B33400019A92689847019B00229A6000E000BF3E
:10B3440003B05DF804FB00BF58F803000EB400B569
:10B3540084B00190019B002B03D118494220FBF7D4
:10B3640055F8019B5B69002B03D114494320FBF77B
:10B374004DF8019B1B68002B03D110494420FBF7B7
:10B3840045F8019B5B68002B03D10C494520FBF772
:10B394003DF8059B002B0AD00023039306AB0393CF
:10B3A40003AB1A460599019800F0B0F900E000BF1C
:10B3B40004B05DF804EB03B0704700BF58F8030015
:10B3C40000B583B001900B468DF80330019B1A68D9
:10B3D400019B9B68581C0199886013449DF80320C5
:10B3E4001A70019B9A68019B5B689A4202D3019888
:10B3F400FFF78AFF00BF03B05DF804FB00B587B018
:10B40400039002910192009300230593009B03F0A3
:10B414000103002B24D00BE0029B01330293059B14
:10B42400013305939DF8133019460398FFF7C8FFBD
:10B43400029B1B788DF813309DF81330002BEBD151
:10B4440006E0019B013B019320210398FFF7B8FF1D
:10B45400019A059B9A422ED9019B002BF1D12AE037
:10B46400029B002B0BD0029813F09CFE059006E083
:10B47400019B013B019320210398FFF7A1FF019A4F
:10B48400059B9A420FD9019B002BF1D10BE0029B43
:10B4940001330293059B013305939DF8133019463C
:10B4A4000398FFF78DFF029B1B788DF813309DF8EE
:10B4B4001330002BEBD100BF07B05DF804FB000094
:10B4C40000B589B00390029101920093029B079307
:10B4D4000123069307E0079A019BB2FBF3F307935A
:10B4E400069B01330693079A019B9A42F3D2009A72
:10B4F400069B9A4201D9009B06930B9B03F0010320
:10B50400002B22D10A9B002B1FD00B9B03F00203BC
:10B51400002B06D0009B002B03D130238DF817306D
:10B5240002E020238DF8173008E00A9B013B0A93C0
:10B534009DF8173019460398FFF742FF0A9B002B2A
:10B5440003D0069A0A9B9A42EFD301230793009BE8
:10B55400012B03D9009B013B009309E0029A079B4E
:10B56400B2FBF3F30493049A019B9A4200D205E0E0
:10B57400079B019A02FB03F30793E8E7029A079BF0
:10B58400B2FBF3F30493049B079A02FB03F3029ABE
:10B59400D31A0293154A049B13441B781946039843
:10B5A400FFF70EFF079A019BB2FBF3F30793079B88
:10B5B400002BE3D10B9B03F00103002B11D00A9B5A
:10B5C400002B0ED006E00A9B013B0A93202103982E
:10B5D400FFF7F6FE0A9B002B03D0069A0A9B9A42B9
:10B5E400F1D300BF09B05DF804FB00BFD8F8030035
:10B5F40000B589B00590049103920293049B002B3B
:10B60400B8BF5B4206930123079307E0039B069AA6
:10B6140092FBF3F30693079B01330793039B069A6C
:10B624009A42F3DA029A079B9A4201D9029B079342
:10B634000A9B002B0AD0049B002B04DB0B9B03F01A
:10B644000403002B02D00A9B013B0A930B9B03F0DB
:10B654000203002B02D0029B002B16D00B9B03F09D
:10B664000103002B11D10A9B002B0ED006E00A9B8C
:10B67400013B0A9320210598FFF7A2FE0A9B002BA9
:10B6840003D0079A0A9B9A42F1D3049B002B07DA52
:10B69400049B5B4204932D210598FFF791FE08E07B
:10B6A4000B9B03F00403002B03D02B210598FFF719
:10B6B40087FE0B9B03F00203002B19D00B9B03F0B6
:10B6C4000103002B14D1029B002B11D10A9B002BE8
:10B6D4000ED006E00A9B013B0A9330210598FFF740
:10B6E4006FFE0A9B002B03D0079A0A9B9A42F1D360
:10B6F40004990B9B01930A9B0093029B039A059860
:10B70400FFF7DEFE00BF09B05DF804FB00B58FB0A3
:10B71400059004910392059B002B04D1C8494FF472
:10B724009F70FAF773FE059B5B69002B04D1C44933
:10B734004FF4A070FAF76AFE059B1B68002B04D136
:10B74400BF4940F24110FAF761FE059B5B68002B8C
:10B7540004D1BB494FF4A170FAF758FE049B002BA7
:10B7640000F0ED81049B1B788DF83730049B013386
:10B7740004939DF83730002B00F0D8819DF83730C2
:10B78400252B40F0C78100230A9301230C93049BCB
:10B794001B788DF837309DF837302D2B04D0302BA3
:10B7A4000AD02B2B10D017E00A9B43F001030A9315
:10B7B400049B0133049312E00A9B43F002030A93AF
:10B7C400049B013304930AE00A9B43F004030A93A5
:10B7D400049B0133049302E000230C9300BF0C9BF1
:10B7E400002BD4D1002309939DF837302A2B0CD198
:10B7F400039B1B68191D039A11601B68099A134463
:10B804000993049B013304931AE0049B1B788DF87D
:10B8140037309DF837302F2B12D99DF83730392B1C
:10B824000ED8049B01330493099A13469B001344D6
:10B834005B001A469DF837301344303B0993D3E735
:10B8440000230B93049B1B788DF837309DF8373019
:10B854002E2B1DD1049B01330493049B1B788DF87C
:10B8640037309DF837302F2B12D99DF83730392BCC
:10B874000ED8049B013304930B9A13469B00134484
:10B884005B001A469DF837301344303B0B93E4E7D2
:10B89400049B1B788DF837309DF837306C2B03D020
:10B8A4009DF83730682B07D1049B01330493049B24
:10B8B4001B788DF83730EFE79DF83730253B532B55
:10B8C40000F2238101A252F823F000BF05BB02005D
:10B8D4000FBB02000FBB02000FBB02000FBB020034
:10B8E4000FBB02000FBB02000FBB02000FBB020024
:10B8F4000FBB02000FBB02000FBB02000FBB020014
:10B904000FBB02000FBB02000FBB02000FBB020003
:10B914000FBB02000FBB02000FBB02000FBB0200F3
:10B924000FBB02000FBB02000FBB02000FBB0200E3
:10B934000FBB02000FBB02000FBB02000FBB0200D3
:10B944000FBB02000FBB02000FBB02000FBB0200C3
:10B954000FBB02000FBB02000FBB02000FBB0200B3
:10B964000FBB02000FBB02000FBB02000FBB0200A3
:10B974000FBB02000FBB02000FBB02000FBB020093
:10B984000FBB02000FBB02000FBB02000FBB020083
:10B994000FBB02000FBB020091BA02000FBB0200F2
:10B9A4000FBB02000FBB02000FBB02000FBB020063
:10B9B4000FBB02000FBB02000FBB02000FBB020053
:10B9C4000FBB020021BA020049BA02000FBB0200F9
:10B9D4000FBB02000FBB02000FBB020049BA0200FA
:10B9E4000FBB02000FBB02000FBB02000FBB020023
:10B9F4000FBB02000FBB0200D1BA02000FBB020052
:10BA04000FBB0200B5BA02000FBB02006DBA020000
:10BA14000FBB02000FBB020091BA0200039B1B681C
:10BA2400191D039A11601B680C930C9B8DF823302D
:10BA34009DF8233019460598FFF7C2FC66E000BF65
:10BA440094F80300039B1B68191D039A11601B687B
:10BA54000C930A9B0193099B00930B9B0A220C995C
:10BA64000598FFF7C5FD51E0039B1B68191D039A58
:10BA740011601B680C930C990A9B0193099B00931A
:10BA84000B9B0A220598FFF71BFD3FE0039B1B68F5
:10BA9400191D039A11601B680C930C990A9B01935E
:10BAA400099B00930B9B10220598FFF709FD2DE0DD
:10BAB400039B1B68191D039A11601B6807930A9B5B
:10BAC400099A07990598FFF799FC1FE0039B1B68E7
